{
  "_format": "hh-sol-artifact-1",
  "contractName": "KoloToken",
  "sourceName": "contracts/KoloToken.sol",
  "abi": [
    {
      "inputs": [
        {
          "internalType": "string",
          "name": "name",
          "type": "string"
        },
        {
          "internalType": "string",
          "name": "symbol",
          "type": "string"
        }
      ],
      "stateMutability": "nonpayable",
      "type": "constructor"
    },
    {
      "anonymous": false,
      "inputs": [
        {
          "indexed": true,
          "internalType": "address",
          "name": "owner",
          "type": "address"
        },
        {
          "indexed": true,
          "internalType": "address",
          "name": "spender",
          "type": "address"
        },
        {
          "indexed": false,
          "internalType": "uint256",
          "name": "value",
          "type": "uint256"
        }
      ],
      "name": "Approval",
      "type": "event"
    },
    {
      "anonymous": false,
      "inputs": [
        {
          "indexed": false,
          "internalType": "address",
          "name": "account",
          "type": "address"
        }
      ],
      "name": "Paused",
      "type": "event"
    },
    {
      "anonymous": false,
      "inputs": [
        {
          "indexed": true,
          "internalType": "bytes32",
          "name": "role",
          "type": "bytes32"
        },
        {
          "indexed": true,
          "internalType": "bytes32",
          "name": "previousAdminRole",
          "type": "bytes32"
        },
        {
          "indexed": true,
          "internalType": "bytes32",
          "name": "newAdminRole",
          "type": "bytes32"
        }
      ],
      "name": "RoleAdminChanged",
      "type": "event"
    },
    {
      "anonymous": false,
      "inputs": [
        {
          "indexed": true,
          "internalType": "bytes32",
          "name": "role",
          "type": "bytes32"
        },
        {
          "indexed": true,
          "internalType": "address",
          "name": "account",
          "type": "address"
        },
        {
          "indexed": true,
          "internalType": "address",
          "name": "sender",
          "type": "address"
        }
      ],
      "name": "RoleGranted",
      "type": "event"
    },
    {
      "anonymous": false,
      "inputs": [
        {
          "indexed": true,
          "internalType": "bytes32",
          "name": "role",
          "type": "bytes32"
        },
        {
          "indexed": true,
          "internalType": "address",
          "name": "account",
          "type": "address"
        },
        {
          "indexed": true,
          "internalType": "address",
          "name": "sender",
          "type": "address"
        }
      ],
      "name": "RoleRevoked",
      "type": "event"
    },
    {
      "anonymous": false,
      "inputs": [
        {
          "indexed": true,
          "internalType": "address",
          "name": "from",
          "type": "address"
        },
        {
          "indexed": true,
          "internalType": "address",
          "name": "to",
          "type": "address"
        },
        {
          "indexed": false,
          "internalType": "uint256",
          "name": "value",
          "type": "uint256"
        }
      ],
      "name": "Transfer",
      "type": "event"
    },
    {
      "anonymous": false,
      "inputs": [
        {
          "indexed": false,
          "internalType": "address",
          "name": "account",
          "type": "address"
        }
      ],
      "name": "Unpaused",
      "type": "event"
    },
    {
      "inputs": [],
      "name": "ADMIN_ROLE",
      "outputs": [
        {
          "internalType": "bytes32",
          "name": "",
          "type": "bytes32"
        }
      ],
      "stateMutability": "view",
      "type": "function"
    },
    {
      "inputs": [],
      "name": "DEFAULT_ADMIN_ROLE",
      "outputs": [
        {
          "internalType": "bytes32",
          "name": "",
          "type": "bytes32"
        }
      ],
      "stateMutability": "view",
      "type": "function"
    },
    {
      "inputs": [],
      "name": "MINTER_ROLE",
      "outputs": [
        {
          "internalType": "bytes32",
          "name": "",
          "type": "bytes32"
        }
      ],
      "stateMutability": "view",
      "type": "function"
    },
    {
      "inputs": [],
      "name": "PAUSER_ROLE",
      "outputs": [
        {
          "internalType": "bytes32",
          "name": "",
          "type": "bytes32"
        }
      ],
      "stateMutability": "view",
      "type": "function"
    },
    {
      "inputs": [
        {
          "internalType": "address",
          "name": "owner",
          "type": "address"
        },
        {
          "internalType": "address",
          "name": "spender",
          "type": "address"
        }
      ],
      "name": "allowance",
      "outputs": [
        {
          "internalType": "uint256",
          "name": "",
          "type": "uint256"
        }
      ],
      "stateMutability": "view",
      "type": "function"
    },
    {
      "inputs": [
        {
          "internalType": "address",
          "name": "spender",
          "type": "address"
        },
        {
          "internalType": "uint256",
          "name": "amount",
          "type": "uint256"
        }
      ],
      "name": "approve",
      "outputs": [
        {
          "internalType": "bool",
          "name": "",
          "type": "bool"
        }
      ],
      "stateMutability": "nonpayable",
      "type": "function"
    },
    {
      "inputs": [
        {
          "internalType": "address",
          "name": "account",
          "type": "address"
        }
      ],
      "name": "balanceOf",
      "outputs": [
        {
          "internalType": "uint256",
          "name": "",
          "type": "uint256"
        }
      ],
      "stateMutability": "view",
      "type": "function"
    },
    {
      "inputs": [
        {
          "internalType": "uint256",
          "name": "amount",
          "type": "uint256"
        }
      ],
      "name": "burn",
      "outputs": [],
      "stateMutability": "nonpayable",
      "type": "function"
    },
    {
      "inputs": [
        {
          "internalType": "address",
          "name": "account",
          "type": "address"
        },
        {
          "internalType": "uint256",
          "name": "amount",
          "type": "uint256"
        }
      ],
      "name": "burnFrom",
      "outputs": [],
      "stateMutability": "nonpayable",
      "type": "function"
    },
    {
      "inputs": [
        {
          "internalType": "address",
          "name": "from",
          "type": "address"
        },
        {
          "internalType": "uint256",
          "name": "amount",
          "type": "uint256"
        }
      ],
      "name": "burnKOLO",
      "outputs": [],
      "stateMutability": "nonpayable",
      "type": "function"
    },
    {
      "inputs": [],
      "name": "decimals",
      "outputs": [
        {
          "internalType": "uint8",
          "name": "",
          "type": "uint8"
        }
      ],
      "stateMutability": "view",
      "type": "function"
    },
    {
      "inputs": [
        {
          "internalType": "address",
          "name": "spender",
          "type": "address"
        },
        {
          "internalType": "uint256",
          "name": "subtractedValue",
          "type": "uint256"
        }
      ],
      "name": "decreaseAllowance",
      "outputs": [
        {
          "internalType": "bool",
          "name": "",
          "type": "bool"
        }
      ],
      "stateMutability": "nonpayable",
      "type": "function"
    },
    {
      "inputs": [
        {
          "internalType": "bytes32",
          "name": "role",
          "type": "bytes32"
        }
      ],
      "name": "getRoleAdmin",
      "outputs": [
        {
          "internalType": "bytes32",
          "name": "",
          "type": "bytes32"
        }
      ],
      "stateMutability": "view",
      "type": "function"
    },
    {
      "inputs": [
        {
          "internalType": "bytes32",
          "name": "role",
          "type": "bytes32"
        },
        {
          "internalType": "uint256",
          "name": "index",
          "type": "uint256"
        }
      ],
      "name": "getRoleMember",
      "outputs": [
        {
          "internalType": "address",
          "name": "",
          "type": "address"
        }
      ],
      "stateMutability": "view",
      "type": "function"
    },
    {
      "inputs": [
        {
          "internalType": "bytes32",
          "name": "role",
          "type": "bytes32"
        }
      ],
      "name": "getRoleMemberCount",
      "outputs": [
        {
          "internalType": "uint256",
          "name": "",
          "type": "uint256"
        }
      ],
      "stateMutability": "view",
      "type": "function"
    },
    {
      "inputs": [
        {
          "internalType": "bytes32",
          "name": "role",
          "type": "bytes32"
        },
        {
          "internalType": "address",
          "name": "account",
          "type": "address"
        }
      ],
      "name": "grantRole",
      "outputs": [],
      "stateMutability": "nonpayable",
      "type": "function"
    },
    {
      "inputs": [
        {
          "internalType": "bytes32",
          "name": "role",
          "type": "bytes32"
        },
        {
          "internalType": "address",
          "name": "account",
          "type": "address"
        }
      ],
      "name": "hasRole",
      "outputs": [
        {
          "internalType": "bool",
          "name": "",
          "type": "bool"
        }
      ],
      "stateMutability": "view",
      "type": "function"
    },
    {
      "inputs": [
        {
          "internalType": "address",
          "name": "spender",
          "type": "address"
        },
        {
          "internalType": "uint256",
          "name": "addedValue",
          "type": "uint256"
        }
      ],
      "name": "increaseAllowance",
      "outputs": [
        {
          "internalType": "bool",
          "name": "",
          "type": "bool"
        }
      ],
      "stateMutability": "nonpayable",
      "type": "function"
    },
    {
      "inputs": [
        {
          "internalType": "address",
          "name": "to",
          "type": "address"
        },
        {
          "internalType": "uint256",
          "name": "amount",
          "type": "uint256"
        }
      ],
      "name": "mint",
      "outputs": [],
      "stateMutability": "nonpayable",
      "type": "function"
    },
    {
      "inputs": [
        {
          "internalType": "address",
          "name": "from",
          "type": "address"
        },
        {
          "internalType": "uint256",
          "name": "amount",
          "type": "uint256"
        }
      ],
      "name": "mintKOLO",
      "outputs": [],
      "stateMutability": "nonpayable",
      "type": "function"
    },
    {
      "inputs": [],
      "name": "name",
      "outputs": [
        {
          "internalType": "string",
          "name": "",
          "type": "string"
        }
      ],
      "stateMutability": "view",
      "type": "function"
    },
    {
      "inputs": [],
      "name": "pause",
      "outputs": [],
      "stateMutability": "nonpayable",
      "type": "function"
    },
    {
      "inputs": [],
      "name": "paused",
      "outputs": [
        {
          "internalType": "bool",
          "name": "",
          "type": "bool"
        }
      ],
      "stateMutability": "view",
      "type": "function"
    },
    {
      "inputs": [
        {
          "internalType": "bytes32",
          "name": "role",
          "type": "bytes32"
        },
        {
          "internalType": "address",
          "name": "account",
          "type": "address"
        }
      ],
      "name": "renounceRole",
      "outputs": [],
      "stateMutability": "nonpayable",
      "type": "function"
    },
    {
      "inputs": [
        {
          "internalType": "bytes32",
          "name": "role",
          "type": "bytes32"
        },
        {
          "internalType": "address",
          "name": "account",
          "type": "address"
        }
      ],
      "name": "revokeRole",
      "outputs": [],
      "stateMutability": "nonpayable",
      "type": "function"
    },
    {
      "inputs": [
        {
          "internalType": "address",
          "name": "_owner",
          "type": "address"
        }
      ],
      "name": "setAdminRole",
      "outputs": [],
      "stateMutability": "nonpayable",
      "type": "function"
    },
    {
      "inputs": [
        {
          "internalType": "bytes4",
          "name": "interfaceId",
          "type": "bytes4"
        }
      ],
      "name": "supportsInterface",
      "outputs": [
        {
          "internalType": "bool",
          "name": "",
          "type": "bool"
        }
      ],
      "stateMutability": "view",
      "type": "function"
    },
    {
      "inputs": [],
      "name": "symbol",
      "outputs": [
        {
          "internalType": "string",
          "name": "",
          "type": "string"
        }
      ],
      "stateMutability": "view",
      "type": "function"
    },
    {
      "inputs": [],
      "name": "totalSupply",
      "outputs": [
        {
          "internalType": "uint256",
          "name": "",
          "type": "uint256"
        }
      ],
      "stateMutability": "view",
      "type": "function"
    },
    {
      "inputs": [
        {
          "internalType": "address",
          "name": "recipient",
          "type": "address"
        },
        {
          "internalType": "uint256",
          "name": "amount",
          "type": "uint256"
        }
      ],
      "name": "transfer",
      "outputs": [
        {
          "internalType": "bool",
          "name": "",
          "type": "bool"
        }
      ],
      "stateMutability": "nonpayable",
      "type": "function"
    },
    {
      "inputs": [
        {
          "internalType": "address",
          "name": "sender",
          "type": "address"
        },
        {
          "internalType": "address",
          "name": "recipient",
          "type": "address"
        },
        {
          "internalType": "uint256",
          "name": "amount",
          "type": "uint256"
        }
      ],
      "name": "transferFrom",
      "outputs": [
        {
          "internalType": "bool",
          "name": "",
          "type": "bool"
        }
      ],
      "stateMutability": "nonpayable",
      "type": "function"
    },
    {
      "inputs": [],
      "name": "unpause",
      "outputs": [],
      "stateMutability": "nonpayable",
      "type": "function"
    }
  ],
  "bytecode": "0x60806040523480156200001157600080fd5b50604051620023ee380380620023ee8339810160408190526200003491620003d3565b8181818181600590805190602001906200005092919062000282565b5080516200006690600690602084019062000282565b50506007805460ff191690555062000089600062000083620000f1565b620000f5565b620000b87f9f2df0fed2c77648de5860a4cc508cd0818c85b8b8a1ab4ceeef8d981c8956a662000083620000f1565b620000e77f65d7a28e3265b37a6474929f336521b332c1681b933f6cb9f3376673440d862a62000083620000f1565b505050506200048d565b3390565b6200010c82826200013860201b62000a131760201c565b60008281526001602090815260409091206200013391839062000a1d62000148821b17901c565b505050565b62000144828262000168565b5050565b60006200015f836001600160a01b038416620001f2565b90505b92915050565b62000174828262000241565b62000144576000828152602081815260408083206001600160a01b03851684529091529020805460ff19166001179055620001ae620000f1565b6001600160a01b0316816001600160a01b0316837f2f8788117e7eff1d82e926ec794901d17c78024a50270940304540a733656f0d60405160405180910390a45050565b60006200020083836200026a565b620002385750815460018181018455600084815260208082209093018490558454848252828601909352604090209190915562000162565b50600062000162565b6000918252602082815260408084206001600160a01b0393909316845291905290205460ff1690565b60009081526001919091016020526040902054151590565b82805462000290906200043a565b90600052602060002090601f016020900481019282620002b45760008555620002ff565b82601f10620002cf57805160ff1916838001178555620002ff565b82800160010185558215620002ff579182015b82811115620002ff578251825591602001919060010190620002e2565b506200030d92915062000311565b5090565b5b808211156200030d576000815560010162000312565b600082601f83011262000339578081fd5b81516001600160401b038082111562000356576200035662000477565b6040516020601f8401601f19168201810183811183821017156200037e576200037e62000477565b604052838252858401810187101562000395578485fd5b8492505b83831015620003b8578583018101518284018201529182019162000399565b83831115620003c957848185840101525b5095945050505050565b60008060408385031215620003e6578182fd5b82516001600160401b0380821115620003fd578384fd5b6200040b8683870162000328565b9350602085015191508082111562000421578283fd5b50620004308582860162000328565b9150509250929050565b6002810460018216806200044f57607f821691505b602082108114156200047157634e487b7160e01b600052602260045260246000fd5b50919050565b634e487b7160e01b600052604160045260246000fd5b611f51806200049d6000396000f3fe608060405234801561001057600080fd5b50600436106101f05760003560e01c806370a082311161010f578063a457c2d7116100a2578063d539139311610071578063d5391393146103f2578063d547741f146103fa578063dd62ed3e1461040d578063e63ab1e914610420576101f0565b8063a457c2d7146103a6578063a9059cbb146103b9578063ca15c873146103cc578063cc6e1237146103df576101f0565b80639010d07c116100de5780639010d07c1461036357806391d148541461038357806395d89b4114610396578063a217fddf1461039e576101f0565b806370a082311461032d57806375b238fc1461034057806379cc6790146103485780638456cb591461035b576101f0565b8063313ce5671161018757806340c10f191161015657806340c10f19146102ec57806342966c68146102ff5780634adc7cfd146103125780635c975abb14610325576101f0565b8063313ce567146102a957806336568abe146102be57806339509351146102d15780633f4ba83a146102e4576101f0565b806318160ddd116101c357806318160ddd1461025b57806323b872dd14610270578063248a9ca3146102835780632f2ff15d14610296576101f0565b806301ffc9a7146101f557806306fdde031461021e578063095ea7b31461023357806317fc336d14610246575b600080fd5b610208610203366004611642565b610428565b60405161021591906116ff565b60405180910390f35b61022661046e565b6040516102159190611713565b6102086102413660046115be565b610500565b6102596102543660046115be565b61051e565b005b61026361057b565b604051610215919061170a565b61020861027e366004611583565b610581565b6102636102913660046115e7565b610618565b6102596102a43660046115ff565b61062d565b6102b1610654565b6040516102159190611e27565b6102596102cc3660046115ff565b610659565b6102086102df3660046115be565b61067b565b6102596106ca565b6102596102fa3660046115be565b61071c565b61025961030d3660046115e7565b61076e565b610259610320366004611537565b610782565b6102086107ac565b61026361033b366004611537565b6107b5565b6102636107d0565b6102596103563660046115be565b6107f4565b610259610844565b610376610371366004611621565b610894565b60405161021591906116eb565b6102086103913660046115ff565b6108b3565b6102266108dc565b6102636108eb565b6102086103b43660046115be565b6108f0565b6102086103c73660046115be565b61096b565b6102636103da3660046115e7565b61097f565b6102596103ed3660046115be565b610764565b610263610996565b6102596104083660046115ff565b6109ba565b61026361041b366004611551565b6109c4565b6102636109ef565b60006001600160e01b031982167f5a05180f000000000000000000000000000000000000000000000000000000001480610466575061046682610a32565b90505b919050565b60606005805461047d90611eca565b80601f01602080910402602001604051908101604052809291908181526020018280546104a990611eca565b80156104f65780601f106104cb576101008083540402835291602001916104f6565b820191906000526020600020905b8154815290600101906020018083116104d957829003601f168201915b5050505050905090565b600061051461050d610a70565b8484610a74565b5060015b92915050565b6105487fa49807205ce4d355092ef5a8a18f56e8913cf4a201fbe287825b095693c21775336108b3565b61056d5760405162461bcd60e51b815260040161056490611746565b60405180910390fd5b61057782826107f4565b5050565b60045490565b600061058e848484610b28565b6001600160a01b0384166000908152600360205260408120816105af610a70565b6001600160a01b03166001600160a01b03168152602001908152602001600020549050828110156105f25760405162461bcd60e51b815260040161056490611a4e565b61060d856105fe610a70565b6106088685611e6c565b610a74565b506001949350505050565b60009081526020819052604090206001015490565b6106378282610c50565b600082815260016020526040902061064f9082610a1d565b505050565b601290565b6106638282610c74565b600082815260016020526040902061064f9082610cb6565b6000610514610688610a70565b848460036000610696610a70565b6001600160a01b03908116825260208083019390935260409182016000908120918b16815292529020546106089190611e35565b6106f67f65d7a28e3265b37a6474929f336521b332c1681b933f6cb9f3376673440d862a610391610a70565b6107125760405162461bcd60e51b815260040161056490611900565b61071a610ccb565b565b6107487f9f2df0fed2c77648de5860a4cc508cd0818c85b8b8a1ab4ceeef8d981c8956a6610391610a70565b6107645760405162461bcd60e51b815260040161056490611aab565b6105778282610d39565b61077f610779610a70565b82610df9565b50565b61077f7fa49807205ce4d355092ef5a8a18f56e8913cf4a201fbe287825b095693c2177582610edf565b60075460ff1690565b6001600160a01b031660009081526002602052604090205490565b7fa49807205ce4d355092ef5a8a18f56e8913cf4a201fbe287825b095693c2177581565b60006108028361041b610a70565b9050818110156108245760405162461bcd60e51b815260040161056490611b08565b61083a83610830610a70565b6106088585611e6c565b61064f8383610df9565b6108707f65d7a28e3265b37a6474929f336521b332c1681b933f6cb9f3376673440d862a610391610a70565b61088c5760405162461bcd60e51b815260040161056490611c7c565b61071a610ee9565b60008281526001602052604081206108ac9083610f44565b9392505050565b6000918252602082815260408084206001600160a01b0393909316845291905290205460ff1690565b60606006805461047d90611eca565b600081565b600080600360006108ff610a70565b6001600160a01b039081168252602080830193909352604091820160009081209188168152925290205490508281101561094b5760405162461bcd60e51b815260040161056490611cd9565b610961610956610a70565b856106088685611e6c565b5060019392505050565b6000610514610978610a70565b8484610b28565b600081815260016020526040812061046690610f50565b7f9f2df0fed2c77648de5860a4cc508cd0818c85b8b8a1ab4ceeef8d981c8956a681565b6106638282610f5b565b6001600160a01b03918216600090815260036020908152604080832093909416825291909152205490565b7f65d7a28e3265b37a6474929f336521b332c1681b933f6cb9f3376673440d862a81565b6105778282610f7a565b60006108ac836001600160a01b038416610fff565b60006001600160e01b031982167f7965db0b000000000000000000000000000000000000000000000000000000001480610466575061046682611049565b3390565b6001600160a01b038316610a9a5760405162461bcd60e51b815260040161056490611c1f565b6001600160a01b038216610ac05760405162461bcd60e51b81526004016105649061195d565b6001600160a01b0380841660008181526003602090815260408083209487168084529490915290819020849055517f8c5be1e5ebec7d5bd14f71427d1e84f3dd0314c0f7b2291e5b200ac8c7c3b92590610b1b90859061170a565b60405180910390a3505050565b6001600160a01b038316610b4e5760405162461bcd60e51b815260040161056490611bc2565b6001600160a01b038216610b745760405162461bcd60e51b81526004016105649061180f565b610b7f83838361107b565b6001600160a01b03831660009081526002602052604090205481811015610bb85760405162461bcd60e51b8152600401610564906119ba565b610bc28282611e6c565b6001600160a01b038086166000908152600260205260408082209390935590851681529081208054849290610bf8908490611e35565b92505081905550826001600160a01b0316846001600160a01b03167fddf252ad1be2c89b69c2b068fc378daa952ba7f163c4a11628f55a4df523b3ef84604051610c42919061170a565b60405180910390a350505050565b610c5982610618565b610c6a81610c65610a70565b611086565b61064f8383610f7a565b610c7c610a70565b6001600160a01b0316816001600160a01b031614610cac5760405162461bcd60e51b815260040161056490611d36565b61057782826110ea565b60006108ac836001600160a01b03841661116d565b610cd36107ac565b610cef5760405162461bcd60e51b81526004016105649061186c565b6007805460ff191690557f5db9ee0a495bf2e6ff9c91a7834c1ba4fdd244a5e8aa4e537bd38aeae4b073aa610d22610a70565b604051610d2f91906116eb565b60405180910390a1565b6001600160a01b038216610d5f5760405162461bcd60e51b815260040161056490611d93565b610d6b6000838361107b565b8060046000828254610d7d9190611e35565b90915550506001600160a01b03821660009081526002602052604081208054839290610daa908490611e35565b90915550506040516001600160a01b038316906000907fddf252ad1be2c89b69c2b068fc378daa952ba7f163c4a11628f55a4df523b3ef90610ded90859061170a565b60405180910390a35050565b6001600160a01b038216610e1f5760405162461bcd60e51b815260040161056490611b65565b610e2b8260008361107b565b6001600160a01b03821660009081526002602052604090205481811015610e645760405162461bcd60e51b8152600401610564906118a3565b610e6e8282611e6c565b6001600160a01b03841660009081526002602052604081209190915560048054849290610e9c908490611e6c565b90915550506040516000906001600160a01b038516907fddf252ad1be2c89b69c2b068fc378daa952ba7f163c4a11628f55a4df523b3ef90610b1b90869061170a565b6106378282610a13565b610ef16107ac565b15610f0e5760405162461bcd60e51b815260040161056490611a17565b6007805460ff191660011790557f62e78cea01bee320cd4e420270b5ea74000d11b0c9f74754ebdbfc544b05a258610d22610a70565b60006108ac8383611284565b6000610466826112dd565b610f6482610618565b610f7081610c65610a70565b61064f83836110ea565b610f8482826108b3565b610577576000828152602081815260408083206001600160a01b03851684529091529020805460ff19166001179055610fbb610a70565b6001600160a01b0316816001600160a01b0316837f2f8788117e7eff1d82e926ec794901d17c78024a50270940304540a733656f0d60405160405180910390a45050565b600061100b83836112e1565b61104157508154600181810184556000848152602080822090930184905584548482528286019093526040902091909155610518565b506000610518565b6001600160e01b031981167f01ffc9a70000000000000000000000000000000000000000000000000000000014919050565b61064f8383836112f9565b61109082826108b3565b610577576110a8816001600160a01b03166014611329565b6110b3836020611329565b6040516020016110c492919061166a565b60408051601f198184030181529082905262461bcd60e51b825261056491600401611713565b6110f482826108b3565b15610577576000828152602081815260408083206001600160a01b03851684529091529020805460ff19169055611129610a70565b6001600160a01b0316816001600160a01b0316837ff6391f5c32d9c69d2a47ea670b442974b53935d1edc7fd64eb21e047a839171b60405160405180910390a45050565b6000818152600183016020526040812054801561127a576000611191600183611e6c565b85549091506000906111a590600190611e6c565b905060008660000182815481106111cc57634e487b7160e01b600052603260045260246000fd5b90600052602060002001549050808760000184815481106111fd57634e487b7160e01b600052603260045260246000fd5b60009182526020808320909101929092558281526001890190915260409020849055865487908061123e57634e487b7160e01b600052603160045260246000fd5b60019003818190600052602060002001600090559055866001016000878152602001908152602001600020600090556001945050505050610518565b6000915050610518565b815460009082106112a75760405162461bcd60e51b81526004016105649061177d565b8260000182815481106112ca57634e487b7160e01b600052603260045260246000fd5b9060005260206000200154905092915050565b5490565b60009081526001919091016020526040902054151590565b61130483838361064f565b61130c6107ac565b1561064f5760405162461bcd60e51b815260040161056490611dca565b60606000611338836002611e4d565b611343906002611e35565b67ffffffffffffffff81111561136957634e487b7160e01b600052604160045260246000fd5b6040519080825280601f01601f191660200182016040528015611393576020820181803683370190505b5090507f3000000000000000000000000000000000000000000000000000000000000000816000815181106113d857634e487b7160e01b600052603260045260246000fd5b60200101906001600160f81b031916908160001a9053507f78000000000000000000000000000000000000000000000000000000000000008160018151811061143157634e487b7160e01b600052603260045260246000fd5b60200101906001600160f81b031916908160001a9053506000611455846002611e4d565b611460906001611e35565b90505b6001811115611501577f303132333435363738396162636465660000000000000000000000000000000085600f16601081106114af57634e487b7160e01b600052603260045260246000fd5b1a60f81b8282815181106114d357634e487b7160e01b600052603260045260246000fd5b60200101906001600160f81b031916908160001a90535060049490941c936114fa81611eb3565b9050611463565b5083156108ac5760405162461bcd60e51b8152600401610564906117da565b80356001600160a01b038116811461046957600080fd5b600060208284031215611548578081fd5b6108ac82611520565b60008060408385031215611563578081fd5b61156c83611520565b915061157a60208401611520565b90509250929050565b600080600060608486031215611597578081fd5b6115a084611520565b92506115ae60208501611520565b9150604084013590509250925092565b600080604083850312156115d0578182fd5b6115d983611520565b946020939093013593505050565b6000602082840312156115f8578081fd5b5035919050565b60008060408385031215611611578182fd5b8235915061157a60208401611520565b60008060408385031215611633578182fd5b50508035926020909101359150565b600060208284031215611653578081fd5b81356001600160e01b0319811681146108ac578182fd5b60007f416363657373436f6e74726f6c3a206163636f756e7420000000000000000000825283516116a2816017850160208801611e83565b7f206973206d697373696e6720726f6c652000000000000000000000000000000060179184019182015283516116df816028840160208801611e83565b01602801949350505050565b6001600160a01b0391909116815260200190565b901515815260200190565b90815260200190565b6000602082528251806020840152611732816040850160208701611e83565b601f01601f19169190910160400192915050565b6020808252601d908201527f4d75737420686176652041444d494e20726f6c6520746f206275726e2e000000604082015260600190565b60208082526022908201527f456e756d657261626c655365743a20696e646578206f7574206f6620626f756e60408201527f6473000000000000000000000000000000000000000000000000000000000000606082015260800190565b6020808252818101527f537472696e67733a20686578206c656e67746820696e73756666696369656e74604082015260600190565b60208082526023908201527f45524332303a207472616e7366657220746f20746865207a65726f206164647260408201527f6573730000000000000000000000000000000000000000000000000000000000606082015260800190565b60208082526014908201527f5061757361626c653a206e6f7420706175736564000000000000000000000000604082015260600190565b60208082526022908201527f45524332303a206275726e20616d6f756e7420657863656564732062616c616e60408201527f6365000000000000000000000000000000000000000000000000000000000000606082015260800190565b60208082526039908201527f45524332305072657365744d696e7465725061757365723a206d75737420686160408201527f76652070617573657220726f6c6520746f20756e706175736500000000000000606082015260800190565b60208082526022908201527f45524332303a20617070726f766520746f20746865207a65726f20616464726560408201527f7373000000000000000000000000000000000000000000000000000000000000606082015260800190565b60208082526026908201527f45524332303a207472616e7366657220616d6f756e742065786365656473206260408201527f616c616e63650000000000000000000000000000000000000000000000000000606082015260800190565b60208082526010908201527f5061757361626c653a2070617573656400000000000000000000000000000000604082015260600190565b60208082526028908201527f45524332303a207472616e7366657220616d6f756e742065786365656473206160408201527f6c6c6f77616e6365000000000000000000000000000000000000000000000000606082015260800190565b60208082526036908201527f45524332305072657365744d696e7465725061757365723a206d75737420686160408201527f7665206d696e74657220726f6c6520746f206d696e7400000000000000000000606082015260800190565b60208082526024908201527f45524332303a206275726e20616d6f756e74206578636565647320616c6c6f7760408201527f616e636500000000000000000000000000000000000000000000000000000000606082015260800190565b60208082526021908201527f45524332303a206275726e2066726f6d20746865207a65726f2061646472657360408201527f7300000000000000000000000000000000000000000000000000000000000000606082015260800190565b60208082526025908201527f45524332303a207472616e736665722066726f6d20746865207a65726f20616460408201527f6472657373000000000000000000000000000000000000000000000000000000606082015260800190565b60208082526024908201527f45524332303a20617070726f76652066726f6d20746865207a65726f2061646460408201527f7265737300000000000000000000000000000000000000000000000000000000606082015260800190565b60208082526037908201527f45524332305072657365744d696e7465725061757365723a206d75737420686160408201527f76652070617573657220726f6c6520746f207061757365000000000000000000606082015260800190565b60208082526025908201527f45524332303a2064656372656173656420616c6c6f77616e63652062656c6f7760408201527f207a65726f000000000000000000000000000000000000000000000000000000606082015260800190565b6020808252602f908201527f416363657373436f6e74726f6c3a2063616e206f6e6c792072656e6f756e636560408201527f20726f6c657320666f722073656c660000000000000000000000000000000000606082015260800190565b6020808252601f908201527f45524332303a206d696e7420746f20746865207a65726f206164647265737300604082015260600190565b6020808252602a908201527f45524332305061757361626c653a20746f6b656e207472616e7366657220776860408201527f696c652070617573656400000000000000000000000000000000000000000000606082015260800190565b60ff91909116815260200190565b60008219821115611e4857611e48611f05565b500190565b6000816000190483118215151615611e6757611e67611f05565b500290565b600082821015611e7e57611e7e611f05565b500390565b60005b83811015611e9e578181015183820152602001611e86565b83811115611ead576000848401525b50505050565b600081611ec257611ec2611f05565b506000190190565b600281046001821680611ede57607f821691505b60208210811415611eff57634e487b7160e01b600052602260045260246000fd5b50919050565b634e487b7160e01b600052601160045260246000fdfea2646970667358221220291f351d9f4e0146e776484005aacb936957f89cbd10a739400d95f940188a7564736f6c63430008000033",
  "linkReferences": {},
  "deployedLinkReferences": {}
}