{
  "_format": "hh-sol-artifact-1",
  "contractName": "LibToken",
  "sourceName": "contracts/governence/LibToken.sol",
  "abi": [
    {
      "inputs": [
        {
          "internalType": "address",
          "name": "_owner",
          "type": "address"
        }
      ],
      "stateMutability": "nonpayable",
      "type": "constructor"
    },
    {
      "anonymous": false,
      "inputs": [
        {
          "indexed": true,
          "internalType": "address",
          "name": "owner",
          "type": "address"
        },
        {
          "indexed": true,
          "internalType": "address",
          "name": "spender",
          "type": "address"
        },
        {
          "indexed": false,
          "internalType": "uint256",
          "name": "value",
          "type": "uint256"
        }
      ],
      "name": "Approval",
      "type": "event"
    },
    {
      "anonymous": false,
      "inputs": [
        {
          "indexed": true,
          "internalType": "address",
          "name": "delegator",
          "type": "address"
        },
        {
          "indexed": true,
          "internalType": "address",
          "name": "fromDelegate",
          "type": "address"
        },
        {
          "indexed": true,
          "internalType": "address",
          "name": "toDelegate",
          "type": "address"
        }
      ],
      "name": "DelegateChanged",
      "type": "event"
    },
    {
      "anonymous": false,
      "inputs": [
        {
          "indexed": true,
          "internalType": "address",
          "name": "delegate",
          "type": "address"
        },
        {
          "indexed": false,
          "internalType": "uint256",
          "name": "previousBalance",
          "type": "uint256"
        },
        {
          "indexed": false,
          "internalType": "uint256",
          "name": "newBalance",
          "type": "uint256"
        }
      ],
      "name": "DelegateVotesChanged",
      "type": "event"
    },
    {
      "anonymous": false,
      "inputs": [
        {
          "indexed": true,
          "internalType": "address",
          "name": "from",
          "type": "address"
        },
        {
          "indexed": true,
          "internalType": "address",
          "name": "to",
          "type": "address"
        },
        {
          "indexed": false,
          "internalType": "uint256",
          "name": "value",
          "type": "uint256"
        }
      ],
      "name": "Transfer",
      "type": "event"
    },
    {
      "inputs": [],
      "name": "DELEGATION_TYPEHASH",
      "outputs": [
        {
          "internalType": "bytes32",
          "name": "",
          "type": "bytes32"
        }
      ],
      "stateMutability": "view",
      "type": "function"
    },
    {
      "inputs": [],
      "name": "DOMAIN_TYPEHASH",
      "outputs": [
        {
          "internalType": "bytes32",
          "name": "",
          "type": "bytes32"
        }
      ],
      "stateMutability": "view",
      "type": "function"
    },
    {
      "inputs": [
        {
          "internalType": "address",
          "name": "owner",
          "type": "address"
        },
        {
          "internalType": "address",
          "name": "spender",
          "type": "address"
        }
      ],
      "name": "allowance",
      "outputs": [
        {
          "internalType": "uint256",
          "name": "",
          "type": "uint256"
        }
      ],
      "stateMutability": "view",
      "type": "function"
    },
    {
      "inputs": [
        {
          "internalType": "address",
          "name": "spender",
          "type": "address"
        },
        {
          "internalType": "uint256",
          "name": "amount",
          "type": "uint256"
        }
      ],
      "name": "approve",
      "outputs": [
        {
          "internalType": "bool",
          "name": "",
          "type": "bool"
        }
      ],
      "stateMutability": "nonpayable",
      "type": "function"
    },
    {
      "inputs": [
        {
          "internalType": "address",
          "name": "account",
          "type": "address"
        }
      ],
      "name": "balanceOf",
      "outputs": [
        {
          "internalType": "uint256",
          "name": "",
          "type": "uint256"
        }
      ],
      "stateMutability": "view",
      "type": "function"
    },
    {
      "inputs": [
        {
          "internalType": "uint256",
          "name": "amount",
          "type": "uint256"
        }
      ],
      "name": "burn",
      "outputs": [],
      "stateMutability": "nonpayable",
      "type": "function"
    },
    {
      "inputs": [
        {
          "internalType": "address",
          "name": "",
          "type": "address"
        },
        {
          "internalType": "uint32",
          "name": "",
          "type": "uint32"
        }
      ],
      "name": "checkpoints",
      "outputs": [
        {
          "internalType": "uint32",
          "name": "fromBlock",
          "type": "uint32"
        },
        {
          "internalType": "uint96",
          "name": "votes",
          "type": "uint96"
        }
      ],
      "stateMutability": "view",
      "type": "function"
    },
    {
      "inputs": [],
      "name": "decimals",
      "outputs": [
        {
          "internalType": "uint8",
          "name": "",
          "type": "uint8"
        }
      ],
      "stateMutability": "pure",
      "type": "function"
    },
    {
      "inputs": [
        {
          "internalType": "address",
          "name": "spender",
          "type": "address"
        },
        {
          "internalType": "uint256",
          "name": "subtractedValue",
          "type": "uint256"
        }
      ],
      "name": "decreaseAllowance",
      "outputs": [
        {
          "internalType": "bool",
          "name": "",
          "type": "bool"
        }
      ],
      "stateMutability": "nonpayable",
      "type": "function"
    },
    {
      "inputs": [
        {
          "internalType": "address",
          "name": "delegatee",
          "type": "address"
        }
      ],
      "name": "delegate",
      "outputs": [],
      "stateMutability": "nonpayable",
      "type": "function"
    },
    {
      "inputs": [
        {
          "internalType": "address",
          "name": "delegatee",
          "type": "address"
        },
        {
          "internalType": "uint256",
          "name": "nonce",
          "type": "uint256"
        },
        {
          "internalType": "uint256",
          "name": "expiry",
          "type": "uint256"
        },
        {
          "internalType": "uint8",
          "name": "v",
          "type": "uint8"
        },
        {
          "internalType": "bytes32",
          "name": "r",
          "type": "bytes32"
        },
        {
          "internalType": "bytes32",
          "name": "s",
          "type": "bytes32"
        }
      ],
      "name": "delegateBySig",
      "outputs": [],
      "stateMutability": "nonpayable",
      "type": "function"
    },
    {
      "inputs": [
        {
          "internalType": "address",
          "name": "",
          "type": "address"
        }
      ],
      "name": "delegates",
      "outputs": [
        {
          "internalType": "address",
          "name": "",
          "type": "address"
        }
      ],
      "stateMutability": "view",
      "type": "function"
    },
    {
      "inputs": [
        {
          "internalType": "address",
          "name": "account",
          "type": "address"
        }
      ],
      "name": "getCurrentVotes",
      "outputs": [
        {
          "internalType": "uint96",
          "name": "",
          "type": "uint96"
        }
      ],
      "stateMutability": "view",
      "type": "function"
    },
    {
      "inputs": [
        {
          "internalType": "address",
          "name": "account",
          "type": "address"
        },
        {
          "internalType": "uint256",
          "name": "blockNumber",
          "type": "uint256"
        }
      ],
      "name": "getPriorVotes",
      "outputs": [
        {
          "internalType": "uint96",
          "name": "",
          "type": "uint96"
        }
      ],
      "stateMutability": "view",
      "type": "function"
    },
    {
      "inputs": [
        {
          "internalType": "address",
          "name": "spender",
          "type": "address"
        },
        {
          "internalType": "uint256",
          "name": "addedValue",
          "type": "uint256"
        }
      ],
      "name": "increaseAllowance",
      "outputs": [
        {
          "internalType": "bool",
          "name": "",
          "type": "bool"
        }
      ],
      "stateMutability": "nonpayable",
      "type": "function"
    },
    {
      "inputs": [
        {
          "internalType": "address",
          "name": "_to",
          "type": "address"
        },
        {
          "internalType": "uint256",
          "name": "_amount",
          "type": "uint256"
        }
      ],
      "name": "mint",
      "outputs": [],
      "stateMutability": "nonpayable",
      "type": "function"
    },
    {
      "inputs": [],
      "name": "name",
      "outputs": [
        {
          "internalType": "string",
          "name": "",
          "type": "string"
        }
      ],
      "stateMutability": "pure",
      "type": "function"
    },
    {
      "inputs": [
        {
          "internalType": "address",
          "name": "",
          "type": "address"
        }
      ],
      "name": "nonces",
      "outputs": [
        {
          "internalType": "uint256",
          "name": "",
          "type": "uint256"
        }
      ],
      "stateMutability": "view",
      "type": "function"
    },
    {
      "inputs": [
        {
          "internalType": "address",
          "name": "",
          "type": "address"
        }
      ],
      "name": "numCheckpoints",
      "outputs": [
        {
          "internalType": "uint32",
          "name": "",
          "type": "uint32"
        }
      ],
      "stateMutability": "view",
      "type": "function"
    },
    {
      "inputs": [],
      "name": "rounding",
      "outputs": [
        {
          "internalType": "uint8",
          "name": "",
          "type": "uint8"
        }
      ],
      "stateMutability": "pure",
      "type": "function"
    },
    {
      "inputs": [],
      "name": "symbol",
      "outputs": [
        {
          "internalType": "string",
          "name": "",
          "type": "string"
        }
      ],
      "stateMutability": "pure",
      "type": "function"
    },
    {
      "inputs": [],
      "name": "totalSupply",
      "outputs": [
        {
          "internalType": "uint256",
          "name": "",
          "type": "uint256"
        }
      ],
      "stateMutability": "view",
      "type": "function"
    },
    {
      "inputs": [
        {
          "internalType": "address",
          "name": "recipient",
          "type": "address"
        },
        {
          "internalType": "uint256",
          "name": "amount",
          "type": "uint256"
        }
      ],
      "name": "transfer",
      "outputs": [
        {
          "internalType": "bool",
          "name": "",
          "type": "bool"
        }
      ],
      "stateMutability": "nonpayable",
      "type": "function"
    },
    {
      "inputs": [
        {
          "internalType": "address",
          "name": "sender",
          "type": "address"
        },
        {
          "internalType": "address",
          "name": "recipient",
          "type": "address"
        },
        {
          "internalType": "uint256",
          "name": "amount",
          "type": "uint256"
        }
      ],
      "name": "transferFrom",
      "outputs": [
        {
          "internalType": "bool",
          "name": "",
          "type": "bool"
        }
      ],
      "stateMutability": "nonpayable",
      "type": "function"
    }
  ],
  "bytecode": "0x60806040523480156200001157600080fd5b506040516200256738038062002567833981016040819052620000349162000186565b6200003e6200009d565b62000048620000c3565b81516200005d906003906020850190620000e0565b50805162000073906004906020840190620000e0565b5050600980546001600160a01b0319166001600160a01b03939093169290921790915550620001f3565b60408051808201909152600c81526b2634b132b93a3caa37b5b2b760a11b602082015290565b6040805180820190915260038152622624a160e91b602082015290565b828054620000ee90620001b6565b90600052602060002090601f0160209004810192826200011257600085556200015d565b82601f106200012d57805160ff19168380011785556200015d565b828001600101855582156200015d579182015b828111156200015d57825182559160200191906001019062000140565b506200016b9291506200016f565b5090565b5b808211156200016b576000815560010162000170565b60006020828403121562000198578081fd5b81516001600160a01b0381168114620001af578182fd5b9392505050565b600281046001821680620001cb57607f821691505b60208210811415620001ed57634e487b7160e01b600052602260045260246000fd5b50919050565b61236480620002036000396000f3fe608060405234801561001057600080fd5b50600436106101985760003560e01c80636fcfff45116100e3578063a9059cbb1161008c578063dd62ed3e11610066578063dd62ed3e14610350578063e7a324dc14610363578063f1127ed81461036b57610198565b8063a9059cbb14610317578063b4b5ea571461032a578063c3cda5201461033d57610198565b80637ecebe00116100bd5780637ecebe00146102e957806395d89b41146102fc578063a457c2d71461030457610198565b80636fcfff451461029657806370a08231146102b6578063782d6fe1146102c957610198565b8063313ce5671161014557806342966c681161011f57806342966c6814610250578063587cde1e146102635780635c19a95c1461028357610198565b8063313ce56714610220578063395093511461022857806340c10f191461023b57610198565b806320606b701161017657806320606b70146101f057806323b872dd146101f85780632e4404031461020b57610198565b806306fdde031461019d578063095ea7b3146101bb57806318160ddd146101db575b600080fd5b6101a561038c565b6040516101b29190611b46565b60405180910390f35b6101ce6101c936600461195a565b6103c3565b6040516101b29190611acc565b6101e36103e1565b6040516101b29190611ad7565b6101e36103e7565b6101ce61020636600461191f565b61040b565b6102136104a4565b6040516101b29190612143565b6102136104a9565b6101ce61023636600461195a565b6104ae565b61024e61024936600461195a565b610502565b005b61024e61025e366004611a1f565b610578565b6102766102713660046118d3565b6105af565b6040516101b29190611ab8565b61024e6102913660046118d3565b6105ca565b6102a96102a43660046118d3565b6105d4565b6040516101b29190612113565b6101e36102c43660046118d3565b6105ec565b6102dc6102d736600461195a565b61060b565b6040516101b29190612151565b6101e36102f73660046118d3565b610855565b6101a5610867565b6101ce61031236600461195a565b61089e565b6101ce61032536600461195a565b610917565b6102dc6103383660046118d3565b61092b565b61024e61034b366004611983565b6109aa565b6101e361035e3660046118ed565b610b85565b6101e3610bb0565b61037e6103793660046119e1565b610bd4565b6040516101b2929190612124565b60408051808201909152600c81527f4c696265727479546f6b656e0000000000000000000000000000000000000000602082015290565b60006103d76103d0610c0a565b8484610c0e565b5060015b92915050565b60025490565b7f8cad95687ba82c2ce50e74f7b754645e5117c3a5bec8151c0726d5857980a86681565b6000610418848484610cc2565b6001600160a01b038416600090815260016020526040812081610439610c0a565b6001600160a01b03166001600160a01b03168152602001908152602001600020549050828110156104855760405162461bcd60e51b815260040161047c90611e77565b60405180910390fd5b61049985610491610c0a565b858403610c0e565b506001949350505050565b600890565b601290565b60006103d76104bb610c0a565b8484600160006104c9610c0a565b6001600160a01b03908116825260208083019390935260409182016000908120918b16815292529020546104fd919061217f565b610c0e565b6009546001600160a01b0316331461052c5760405162461bcd60e51b815260040161047c90611ed4565b61056a6040518060400160405280601281526020017f696e7369646520706172656e74206d696e740000000000000000000000000000815250610cfb565b6105748282610d6c565b5050565b6009546001600160a01b031633146105a25760405162461bcd60e51b815260040161047c90611ed4565b6105ac3382610e1e565b50565b6005602052600090815260409020546001600160a01b031681565b6105ac3382610ea5565b60076020526000908152604090205463ffffffff1681565b6001600160a01b0381166000908152602081905260409020545b919050565b600043821061062c5760405162461bcd60e51b815260040161047c90612022565b6001600160a01b03831660009081526007602052604090205463ffffffff168061065a5760009150506103db565b6001600160a01b0384166000908152600660205260408120849161067f600185612227565b63ffffffff908116825260208201929092526040016000205416116106f3576001600160a01b0384166000908152600660205260408120906106c2600184612227565b63ffffffff16815260208101919091526040016000205464010000000090046001600160601b031691506103db9050565b6001600160a01b038416600090815260066020908152604080832083805290915290205463ffffffff1683101561072e5760009150506103db565b60008061073c600184612227565b90505b8163ffffffff168163ffffffff16111561080f57600060026107618484612227565b61076b91906121e1565b6107759083612227565b6001600160a01b038816600090815260066020908152604080832063ffffffff8581168552908352928190208151808301909252549283168082526401000000009093046001600160601b0316918101919091529192508714156107e3576020015194506103db9350505050565b805163ffffffff168711156107fa57819350610808565b610805600183612227565b92505b505061073f565b506001600160a01b038516600090815260066020908152604080832063ffffffff909416835292905220546001600160601b036401000000009091041691505092915050565b60086020526000908152604090205481565b60408051808201909152600381527f4c49420000000000000000000000000000000000000000000000000000000000602082015290565b600080600160006108ad610c0a565b6001600160a01b03908116825260208083019390935260409182016000908120918816815292529020549050828110156108f95760405162461bcd60e51b815260040161047c9061207f565b61090d610904610c0a565b85858403610c0e565b5060019392505050565b60006103d7610924610c0a565b8484610cc2565b6001600160a01b03811660009081526007602052604081205463ffffffff16806109565760006109a3565b6001600160a01b03831660009081526006602052604081209061097a600184612227565b63ffffffff16815260208101919091526040016000205464010000000090046001600160601b03165b9392505050565b60007f8cad95687ba82c2ce50e74f7b754645e5117c3a5bec8151c0726d5857980a8666109d561038c565b805190602001206109e4610f90565b306040516020016109f89493929190611b04565b60405160208183030381529060405280519060200120905060007fe48329057bfd03d55e49b547132e39cffd9c1820ad7b9d4c5307691425d15adf888888604051602001610a499493929190611ae0565b60405160208183030381529060405280519060200120905060008282604051602001610a76929190611a82565b604051602081830303815290604052805190602001209050600060018288888860405160008152602001604052604051610ab39493929190611b28565b6020604051602081039080840390855afa158015610ad5573d6000803e3d6000fd5b5050604051601f1901519150506001600160a01b038116610b085760405162461bcd60e51b815260040161047c90611d60565b6001600160a01b0381166000908152600860205260408120805491610b2c8361226c565b919050558914610b4e5760405162461bcd60e51b815260040161047c90611e1a565b87421115610b6e5760405162461bcd60e51b815260040161047c90611c49565b610b78818b610ea5565b505050505b505050505050565b6001600160a01b03918216600090815260016020908152604080832093909416825291909152205490565b7fe48329057bfd03d55e49b547132e39cffd9c1820ad7b9d4c5307691425d15adf81565b600660209081526000928352604080842090915290825290205463ffffffff81169064010000000090046001600160601b031682565b3390565b6001600160a01b038316610c345760405162461bcd60e51b815260040161047c90611fc5565b6001600160a01b038216610c5a5760405162461bcd60e51b815260040161047c90611d03565b6001600160a01b0380841660008181526001602090815260408083209487168084529490915290819020849055517f8c5be1e5ebec7d5bd14f71427d1e84f3dd0314c0f7b2291e5b200ac8c7c3b92590610cb5908590611ad7565b60405180910390a3505050565b6001600160a01b038216301415610ceb5760405162461bcd60e51b815260040161047c90611ca6565b610cf6838383610f94565b505050565b6105ac81604051602401610d0f9190611b46565b60408051601f198184030181529190526020810180517bffffffffffffffffffffffffffffffffffffffffffffffffffffffff167f41304fac00000000000000000000000000000000000000000000000000000000179052611012565b610daa6040518060400160405280600d81526020017f696e73696465206275726e657200000000000000000000000000000000000000815250610cfb565b610db48282611033565b6001600160a01b038083166000908152600560209081526040808320548151808301909252601982527f4c6962546f6b656e3a2075696e743936206f766572666c6f770000000000000092820192909252610574939190911690610e199085906110fb565b611133565b610e288282611369565b61057460056000846001600160a01b03166001600160a01b0316815260200190815260200160002060009054906101000a90046001600160a01b03166000610e19846040518060400160405280601981526020017f4c6962546f6b656e3a2075696e743936206f766572666c6f77000000000000008152506110fb565b6001600160a01b0380831660009081526005602052604081205490911690610f0a610ecf8561145a565b6040518060400160405280601981526020017f4c6962546f6b656e3a2075696e743936206f766572666c6f77000000000000008152506110fb565b6001600160a01b0385811660008181526005602052604080822080547fffffffffffffffffffffffff000000000000000000000000000000000000000016898616908117909155905194955093928616927f3134e8a2e6d97e929a7e54011ea5485d7d196dd5f0ba4d4ef95803e8e3fc257f9190a4610f8a828483611133565b50505050565b4690565b610f9f838383611465565b6001600160a01b03808416600090815260056020908152604080832054868516845292819020548151808301909252601982527f4c6962546f6b656e3a2075696e743936206f766572666c6f770000000000000092820192909252610cf693928316929190911690610e199085906110fb565b80516a636f6e736f6c652e6c6f67602083016000808483855afa5050505050565b6001600160a01b0382166110595760405162461bcd60e51b815260040161047c906120dc565b61106560008383610cf6565b8060026000828254611077919061217f565b90915550506001600160a01b038216600090815260208190526040812080548392906110a490849061217f565b90915550506040516001600160a01b038316906000907fddf252ad1be2c89b69c2b068fc378daa952ba7f163c4a11628f55a4df523b3ef906110e7908590611ad7565b60405180910390a361057460008383610cf6565b6000816c01000000000000000000000000841061112b5760405162461bcd60e51b815260040161047c9190611b46565b509192915050565b61117d6040518060400160405280601181526020017f6d6f76696e672064656c65676174696f6e0000000000000000000000000000008152508484846001600160601b0316611589565b816001600160a01b0316836001600160a01b0316141580156111a857506000816001600160601b0316115b15610cf6576001600160a01b038316156112ac576111fa6040518060400160405280601081526020017f777269746520636865636b706f69746e00000000000000000000000000000000815250610cfb565b6001600160a01b03831660009081526007602052604081205463ffffffff169081611226576000611273565b6001600160a01b03851660009081526006602052604081209061124a600185612227565b63ffffffff16815260208101919091526040016000205464010000000090046001600160601b03165b9050600061129a82856040518060600160405280602d815260200161229e602d9139611600565b90506112a88684848461164a565b5050505b6001600160a01b03821615610cf6576001600160a01b03821660009081526007602052604081205463ffffffff1690816112e7576000611334565b6001600160a01b03841660009081526006602052604081209061130b600185612227565b63ffffffff16815260208101919091526040016000205464010000000090046001600160601b03165b9050600061135b82856040518060600160405280602c8152602001612303602c9139611847565b9050610b7d8584848461164a565b6001600160a01b03821661138f5760405162461bcd60e51b815260040161047c90611f0b565b61139b82600083610cf6565b6001600160a01b038216600090815260208190526040902054818110156113d45760405162461bcd60e51b815260040161047c90611bec565b6001600160a01b0383166000908152602081905260408120838303905560028054849290611403908490612210565b90915550506040516000906001600160a01b038516907fddf252ad1be2c89b69c2b068fc378daa952ba7f163c4a11628f55a4df523b3ef90611446908690611ad7565b60405180910390a3610cf683600084610cf6565b60006103db826105ec565b6001600160a01b03831661148b5760405162461bcd60e51b815260040161047c90611f68565b6001600160a01b0382166114b15760405162461bcd60e51b815260040161047c90611b8f565b6114bc838383610cf6565b6001600160a01b038316600090815260208190526040902054818110156114f55760405162461bcd60e51b815260040161047c90611dbd565b6001600160a01b0380851660009081526020819052604080822085850390559185168152908120805484929061152c90849061217f565b92505081905550826001600160a01b0316846001600160a01b03167fddf252ad1be2c89b69c2b068fc378daa952ba7f163c4a11628f55a4df523b3ef846040516115769190611ad7565b60405180910390a3610f8a848484610cf6565b610f8a848484846040516024016115a39493929190611b59565b60408051601f198184030181529190526020810180517bffffffffffffffffffffffffffffffffffffffffffffffffffffffff167f6eb7943d00000000000000000000000000000000000000000000000000000000179052611012565b6000836001600160601b0316836001600160601b0316111582906116375760405162461bcd60e51b815260040161047c9190611b46565b50611642838561224c565b949350505050565b600061166e436040518060600160405280603881526020016122cb60389139611894565b905060008463ffffffff161180156116c857506001600160a01b038516600090815260066020526040812063ffffffff8316916116ac600188612227565b63ffffffff908116825260208201929092526040016000205416145b1561173d576001600160a01b038516600090815260066020526040812083916116f2600188612227565b63ffffffff168152602081019190915260400160002080546001600160601b0392909216640100000000026fffffffffffffffffffffffff00000000199092169190911790556117fd565b60408051808201825263ffffffff83811682526001600160601b0385811660208085019182526001600160a01b038b166000908152600682528681208b861682529091529490942092518354945163ffffffff199095169216919091176fffffffffffffffffffffffff00000000191664010000000093909116929092029190911790556117cc846001612197565b6001600160a01b0386166000908152600760205260409020805463ffffffff191663ffffffff929092169190911790555b846001600160a01b03167fdec2bacdd2f05b59de34da9b523dff8be42e5e38e818c82fdb0bae774387a7248484604051611838929190612165565b60405180910390a25050505050565b60008061185484866121bf565b9050846001600160601b0316816001600160601b03161015839061188b5760405162461bcd60e51b815260040161047c9190611b46565b50949350505050565b600081640100000000841061112b5760405162461bcd60e51b815260040161047c9190611b46565b80356001600160a01b038116811461060657600080fd5b6000602082840312156118e4578081fd5b6109a3826118bc565b600080604083850312156118ff578081fd5b611908836118bc565b9150611916602084016118bc565b90509250929050565b600080600060608486031215611933578081fd5b61193c846118bc565b925061194a602085016118bc565b9150604084013590509250925092565b6000806040838503121561196c578182fd5b611975836118bc565b946020939093013593505050565b60008060008060008060c0878903121561199b578182fd5b6119a4876118bc565b95506020870135945060408701359350606087013560ff811681146119c7578283fd5b9598949750929560808101359460a0909101359350915050565b600080604083850312156119f3578182fd5b6119fc836118bc565b9150602083013563ffffffff81168114611a14578182fd5b809150509250929050565b600060208284031215611a30578081fd5b5035919050565b60008151808452815b81811015611a5c57602081850181015186830182015201611a40565b81811115611a6d5782602083870101525b50601f01601f19169290920160200192915050565b7f190100000000000000000000000000000000000000000000000000000000000081526002810192909252602282015260420190565b6001600160a01b0391909116815260200190565b901515815260200190565b90815260200190565b9384526001600160a01b039290921660208401526040830152606082015260800190565b938452602084019290925260408301526001600160a01b0316606082015260800190565b93845260ff9290921660208401526040830152606082015260800190565b6000602082526109a36020830184611a37565b600060808252611b6c6080830187611a37565b6001600160a01b0395861660208401529390941660408201526060015292915050565b60208082526023908201527f45524332303a207472616e7366657220746f20746865207a65726f206164647260408201527f6573730000000000000000000000000000000000000000000000000000000000606082015260800190565b60208082526022908201527f45524332303a206275726e20616d6f756e7420657863656564732062616c616e60408201527f6365000000000000000000000000000000000000000000000000000000000000606082015260800190565b6020808252602a908201527f4c6962546f6b656e3a3a64656c656761746542795369673a207369676e61747560408201527f7265206578706972656400000000000000000000000000000000000000000000606082015260800190565b60208082526033908201527f4c6962546f6b656e3a2043616e2774207472616e7366657220746f207468652060408201527f4c494220636f6e747261637420697473656c6600000000000000000000000000606082015260800190565b60208082526022908201527f45524332303a20617070726f766520746f20746865207a65726f20616464726560408201527f7373000000000000000000000000000000000000000000000000000000000000606082015260800190565b6020808252602a908201527f4c6962546f6b656e3a3a64656c656761746542795369673a20696e76616c696460408201527f207369676e617475726500000000000000000000000000000000000000000000606082015260800190565b60208082526026908201527f45524332303a207472616e7366657220616d6f756e742065786365656473206260408201527f616c616e63650000000000000000000000000000000000000000000000000000606082015260800190565b60208082526026908201527f4c6962546f6b656e3a3a64656c656761746542795369673a20696e76616c696460408201527f206e6f6e63650000000000000000000000000000000000000000000000000000606082015260800190565b60208082526028908201527f45524332303a207472616e7366657220616d6f756e742065786365656473206160408201527f6c6c6f77616e6365000000000000000000000000000000000000000000000000606082015260800190565b6020808252600a908201527f6f6e6c79206f776e657200000000000000000000000000000000000000000000604082015260600190565b60208082526021908201527f45524332303a206275726e2066726f6d20746865207a65726f2061646472657360408201527f7300000000000000000000000000000000000000000000000000000000000000606082015260800190565b60208082526025908201527f45524332303a207472616e736665722066726f6d20746865207a65726f20616460408201527f6472657373000000000000000000000000000000000000000000000000000000606082015260800190565b60208082526024908201527f45524332303a20617070726f76652066726f6d20746865207a65726f2061646460408201527f7265737300000000000000000000000000000000000000000000000000000000606082015260800190565b6020808252602b908201527f4c6962546f6b656e3a3a6765745072696f72566f7465733a206e6f742079657460408201527f2064657465726d696e6564000000000000000000000000000000000000000000606082015260800190565b60208082526025908201527f45524332303a2064656372656173656420616c6c6f77616e63652062656c6f7760408201527f207a65726f000000000000000000000000000000000000000000000000000000606082015260800190565b6020808252601f908201527f45524332303a206d696e7420746f20746865207a65726f206164647265737300604082015260600190565b63ffffffff91909116815260200190565b63ffffffff9290921682526001600160601b0316602082015260400190565b60ff91909116815260200190565b6001600160601b0391909116815260200190565b6001600160601b0392831681529116602082015260400190565b6000821982111561219257612192612287565b500190565b600063ffffffff8083168185168083038211156121b6576121b6612287565b01949350505050565b60006001600160601b038083168185168083038211156121b6576121b6612287565b600063ffffffff8084168061220457634e487b7160e01b83526012600452602483fd5b92169190910492915050565b60008282101561222257612222612287565b500390565b600063ffffffff8381169083168181101561224457612244612287565b039392505050565b60006001600160601b038381169083168181101561224457612244612287565b600060001982141561228057612280612287565b5060010190565b634e487b7160e01b600052601160045260246000fdfe4c6962546f6b656e733a3a5f6d6f7665566f7465733a20766f746520616d6f756e7420756e646572666c6f77734c6962546f6b656e3a3a5f7772697465436865636b706f696e743a20626c6f636b206e756d626572206578636565647320333220626974734c6962546f6b656e733a3a5f6d6f7665566f7465733a20766f746520616d6f756e74206f766572666c6f7773a26469706673582212209e3e5e60621c66bb20ef1fe7c8649328d6870830337caebf157b587a4224711664736f6c63430008000033",
  "linkReferences": {},
  "deployedLinkReferences": {}
}