{
  "_format": "hh-sol-artifact-1",
  "contractName": "Pool",
  "sourceName": "contracts/Pool.sol",
  "abi": [
    {
      "inputs": [
        {
          "internalType": "string",
          "name": "_name",
          "type": "string"
        },
        {
          "internalType": "address",
          "name": "_governer",
          "type": "address"
        },
        {
          "internalType": "address[]",
          "name": "_admins",
          "type": "address[]"
        },
        {
          "internalType": "contract KoloToken",
          "name": "_kToken",
          "type": "address"
        }
      ],
      "stateMutability": "nonpayable",
      "type": "constructor"
    },
    {
      "anonymous": false,
      "inputs": [
        {
          "indexed": false,
          "internalType": "address",
          "name": "_address",
          "type": "address"
        }
      ],
      "name": "AddedAdmin",
      "type": "event"
    },
    {
      "anonymous": false,
      "inputs": [
        {
          "components": [
            {
              "internalType": "address[]",
              "name": "auditors",
              "type": "address[]"
            },
            {
              "internalType": "string",
              "name": "fullAuditReport",
              "type": "string"
            }
          ],
          "indexed": false,
          "internalType": "struct AuditorReports.Audit",
          "name": "_audit",
          "type": "tuple"
        }
      ],
      "name": "AddedAuditReport",
      "type": "event"
    },
    {
      "anonymous": false,
      "inputs": [
        {
          "indexed": true,
          "internalType": "address",
          "name": "sender",
          "type": "address"
        },
        {
          "indexed": true,
          "internalType": "uint256",
          "name": "transactionId",
          "type": "uint256"
        }
      ],
      "name": "Confirmation",
      "type": "event"
    },
    {
      "anonymous": false,
      "inputs": [
        {
          "indexed": true,
          "internalType": "address",
          "name": "sender",
          "type": "address"
        },
        {
          "indexed": false,
          "internalType": "uint256",
          "name": "value",
          "type": "uint256"
        }
      ],
      "name": "Deposit",
      "type": "event"
    },
    {
      "anonymous": false,
      "inputs": [
        {
          "indexed": false,
          "internalType": "address",
          "name": "_address",
          "type": "address"
        },
        {
          "indexed": false,
          "internalType": "uint256",
          "name": "usdcAmount",
          "type": "uint256"
        }
      ],
      "name": "Deposited",
      "type": "event"
    },
    {
      "anonymous": false,
      "inputs": [
        {
          "indexed": true,
          "internalType": "uint256",
          "name": "transactionId",
          "type": "uint256"
        }
      ],
      "name": "Execution",
      "type": "event"
    },
    {
      "anonymous": false,
      "inputs": [
        {
          "indexed": true,
          "internalType": "uint256",
          "name": "transactionId",
          "type": "uint256"
        }
      ],
      "name": "ExecutionFailure",
      "type": "event"
    },
    {
      "anonymous": false,
      "inputs": [
        {
          "indexed": true,
          "internalType": "address",
          "name": "owner",
          "type": "address"
        }
      ],
      "name": "OwnerAddition",
      "type": "event"
    },
    {
      "anonymous": false,
      "inputs": [
        {
          "indexed": true,
          "internalType": "address",
          "name": "owner",
          "type": "address"
        }
      ],
      "name": "OwnerRemoval",
      "type": "event"
    },
    {
      "anonymous": false,
      "inputs": [
        {
          "indexed": false,
          "internalType": "address",
          "name": "_adddress",
          "type": "address"
        }
      ],
      "name": "RemovedAdmin",
      "type": "event"
    },
    {
      "anonymous": false,
      "inputs": [
        {
          "indexed": false,
          "internalType": "uint256",
          "name": "required",
          "type": "uint256"
        }
      ],
      "name": "RequirementChange",
      "type": "event"
    },
    {
      "anonymous": false,
      "inputs": [
        {
          "indexed": true,
          "internalType": "address",
          "name": "sender",
          "type": "address"
        },
        {
          "indexed": true,
          "internalType": "uint256",
          "name": "transactionId",
          "type": "uint256"
        }
      ],
      "name": "Revocation",
      "type": "event"
    },
    {
      "anonymous": false,
      "inputs": [
        {
          "indexed": true,
          "internalType": "uint256",
          "name": "transactionId",
          "type": "uint256"
        }
      ],
      "name": "Submission",
      "type": "event"
    },
    {
      "anonymous": false,
      "inputs": [
        {
          "indexed": false,
          "internalType": "address",
          "name": "_address",
          "type": "address"
        },
        {
          "indexed": false,
          "internalType": "uint256",
          "name": "kTokenAmount",
          "type": "uint256"
        }
      ],
      "name": "Withdrew",
      "type": "event"
    },
    {
      "stateMutability": "payable",
      "type": "fallback"
    },
    {
      "inputs": [
        {
          "components": [
            {
              "internalType": "address[]",
              "name": "auditors",
              "type": "address[]"
            },
            {
              "internalType": "string",
              "name": "fullAuditReport",
              "type": "string"
            }
          ],
          "internalType": "struct AuditorReports.Audit",
          "name": "_audit",
          "type": "tuple"
        }
      ],
      "name": "AddAuditReport",
      "outputs": [],
      "stateMutability": "nonpayable",
      "type": "function"
    },
    {
      "inputs": [],
      "name": "MAX_OWNER_COUNT",
      "outputs": [
        {
          "internalType": "uint256",
          "name": "",
          "type": "uint256"
        }
      ],
      "stateMutability": "view",
      "type": "function"
    },
    {
      "inputs": [
        {
          "internalType": "address",
          "name": "owner",
          "type": "address"
        }
      ],
      "name": "addOwner",
      "outputs": [],
      "stateMutability": "nonpayable",
      "type": "function"
    },
    {
      "inputs": [
        {
          "internalType": "uint256",
          "name": "_required",
          "type": "uint256"
        }
      ],
      "name": "changeRequirement",
      "outputs": [],
      "stateMutability": "nonpayable",
      "type": "function"
    },
    {
      "inputs": [
        {
          "internalType": "uint256",
          "name": "transactionId",
          "type": "uint256"
        }
      ],
      "name": "confirmTransaction",
      "outputs": [],
      "stateMutability": "nonpayable",
      "type": "function"
    },
    {
      "inputs": [
        {
          "internalType": "uint256",
          "name": "",
          "type": "uint256"
        },
        {
          "internalType": "address",
          "name": "",
          "type": "address"
        }
      ],
      "name": "confirmations",
      "outputs": [
        {
          "internalType": "bool",
          "name": "",
          "type": "bool"
        }
      ],
      "stateMutability": "view",
      "type": "function"
    },
    {
      "inputs": [
        {
          "internalType": "uint256",
          "name": "amount",
          "type": "uint256"
        }
      ],
      "name": "deposit",
      "outputs": [],
      "stateMutability": "nonpayable",
      "type": "function"
    },
    {
      "inputs": [
        {
          "internalType": "uint256",
          "name": "transactionId",
          "type": "uint256"
        }
      ],
      "name": "executeTransaction",
      "outputs": [],
      "stateMutability": "nonpayable",
      "type": "function"
    },
    {
      "inputs": [],
      "name": "getAudits",
      "outputs": [
        {
          "components": [
            {
              "components": [
                {
                  "internalType": "address[]",
                  "name": "auditors",
                  "type": "address[]"
                },
                {
                  "internalType": "string",
                  "name": "fullAuditReport",
                  "type": "string"
                }
              ],
              "internalType": "struct AuditorReports.Audit[]",
              "name": "HistoricalAudits",
              "type": "tuple[]"
            }
          ],
          "internalType": "struct AuditorReports.Reports",
          "name": "",
          "type": "tuple"
        }
      ],
      "stateMutability": "view",
      "type": "function"
    },
    {
      "inputs": [
        {
          "internalType": "uint256",
          "name": "transactionId",
          "type": "uint256"
        }
      ],
      "name": "getConfirmationCount",
      "outputs": [
        {
          "internalType": "uint256",
          "name": "count",
          "type": "uint256"
        }
      ],
      "stateMutability": "view",
      "type": "function"
    },
    {
      "inputs": [
        {
          "internalType": "uint256",
          "name": "transactionId",
          "type": "uint256"
        }
      ],
      "name": "getConfirmations",
      "outputs": [
        {
          "internalType": "address[]",
          "name": "_confirmations",
          "type": "address[]"
        }
      ],
      "stateMutability": "view",
      "type": "function"
    },
    {
      "inputs": [],
      "name": "getOwners",
      "outputs": [
        {
          "internalType": "address[]",
          "name": "",
          "type": "address[]"
        }
      ],
      "stateMutability": "view",
      "type": "function"
    },
    {
      "inputs": [],
      "name": "getTotalReserveBalance",
      "outputs": [
        {
          "internalType": "uint256",
          "name": "",
          "type": "uint256"
        }
      ],
      "stateMutability": "view",
      "type": "function"
    },
    {
      "inputs": [
        {
          "internalType": "bool",
          "name": "pending",
          "type": "bool"
        },
        {
          "internalType": "bool",
          "name": "executed",
          "type": "bool"
        }
      ],
      "name": "getTransactionCount",
      "outputs": [
        {
          "internalType": "uint256",
          "name": "count",
          "type": "uint256"
        }
      ],
      "stateMutability": "view",
      "type": "function"
    },
    {
      "inputs": [
        {
          "internalType": "uint256",
          "name": "from",
          "type": "uint256"
        },
        {
          "internalType": "uint256",
          "name": "to",
          "type": "uint256"
        },
        {
          "internalType": "bool",
          "name": "pending",
          "type": "bool"
        },
        {
          "internalType": "bool",
          "name": "executed",
          "type": "bool"
        }
      ],
      "name": "getTransactionIds",
      "outputs": [
        {
          "internalType": "uint256[]",
          "name": "_transactionIds",
          "type": "uint256[]"
        }
      ],
      "stateMutability": "view",
      "type": "function"
    },
    {
      "inputs": [
        {
          "internalType": "uint256",
          "name": "transactionId",
          "type": "uint256"
        }
      ],
      "name": "isConfirmed",
      "outputs": [
        {
          "internalType": "bool",
          "name": "",
          "type": "bool"
        }
      ],
      "stateMutability": "view",
      "type": "function"
    },
    {
      "inputs": [
        {
          "internalType": "address",
          "name": "",
          "type": "address"
        }
      ],
      "name": "isOwner",
      "outputs": [
        {
          "internalType": "bool",
          "name": "",
          "type": "bool"
        }
      ],
      "stateMutability": "view",
      "type": "function"
    },
    {
      "inputs": [
        {
          "internalType": "address",
          "name": "to",
          "type": "address"
        },
        {
          "internalType": "uint256",
          "name": "amount",
          "type": "uint256"
        }
      ],
      "name": "lend",
      "outputs": [
        {
          "internalType": "bool",
          "name": "",
          "type": "bool"
        }
      ],
      "stateMutability": "nonpayable",
      "type": "function"
    },
    {
      "inputs": [],
      "name": "name",
      "outputs": [
        {
          "internalType": "string",
          "name": "",
          "type": "string"
        }
      ],
      "stateMutability": "view",
      "type": "function"
    },
    {
      "inputs": [
        {
          "internalType": "uint256",
          "name": "",
          "type": "uint256"
        }
      ],
      "name": "owners",
      "outputs": [
        {
          "internalType": "address",
          "name": "",
          "type": "address"
        }
      ],
      "stateMutability": "view",
      "type": "function"
    },
    {
      "inputs": [
        {
          "internalType": "address",
          "name": "owner",
          "type": "address"
        }
      ],
      "name": "removeOwner",
      "outputs": [],
      "stateMutability": "nonpayable",
      "type": "function"
    },
    {
      "inputs": [
        {
          "internalType": "address",
          "name": "owner",
          "type": "address"
        },
        {
          "internalType": "address",
          "name": "newOwner",
          "type": "address"
        }
      ],
      "name": "replaceOwner",
      "outputs": [],
      "stateMutability": "nonpayable",
      "type": "function"
    },
    {
      "inputs": [],
      "name": "required",
      "outputs": [
        {
          "internalType": "uint256",
          "name": "",
          "type": "uint256"
        }
      ],
      "stateMutability": "view",
      "type": "function"
    },
    {
      "inputs": [
        {
          "internalType": "uint256",
          "name": "transactionId",
          "type": "uint256"
        }
      ],
      "name": "revokeConfirmation",
      "outputs": [],
      "stateMutability": "nonpayable",
      "type": "function"
    },
    {
      "inputs": [
        {
          "internalType": "address",
          "name": "_usdcAddress",
          "type": "address"
        }
      ],
      "name": "setUsdcAddress",
      "outputs": [],
      "stateMutability": "nonpayable",
      "type": "function"
    },
    {
      "inputs": [
        {
          "internalType": "address",
          "name": "destination",
          "type": "address"
        },
        {
          "internalType": "string",
          "name": "name",
          "type": "string"
        },
        {
          "internalType": "uint256",
          "name": "value",
          "type": "uint256"
        },
        {
          "internalType": "bytes",
          "name": "data",
          "type": "bytes"
        }
      ],
      "name": "submitTransaction",
      "outputs": [
        {
          "internalType": "uint256",
          "name": "transactionId",
          "type": "uint256"
        }
      ],
      "stateMutability": "nonpayable",
      "type": "function"
    },
    {
      "inputs": [],
      "name": "transactionCount",
      "outputs": [
        {
          "internalType": "uint256",
          "name": "",
          "type": "uint256"
        }
      ],
      "stateMutability": "view",
      "type": "function"
    },
    {
      "inputs": [
        {
          "internalType": "uint256",
          "name": "",
          "type": "uint256"
        }
      ],
      "name": "transactions",
      "outputs": [
        {
          "internalType": "address",
          "name": "destination",
          "type": "address"
        },
        {
          "internalType": "string",
          "name": "name",
          "type": "string"
        },
        {
          "internalType": "uint256",
          "name": "value",
          "type": "uint256"
        },
        {
          "internalType": "bytes",
          "name": "data",
          "type": "bytes"
        },
        {
          "internalType": "bool",
          "name": "executed",
          "type": "bool"
        }
      ],
      "stateMutability": "view",
      "type": "function"
    },
    {
      "inputs": [
        {
          "internalType": "uint256",
          "name": "amount",
          "type": "uint256"
        }
      ],
      "name": "withdraw",
      "outputs": [],
      "stateMutability": "nonpayable",
      "type": "function"
    }
  ],
  "bytecode": "0x60806040526000600655600a80546001600160a01b03191673a0b86991c6218b36c1d19d4a2e9eb0ce3606eb481790553480156200003c57600080fd5b5060405162003451380380620034518339810160408190526200005f91620004a4565b81600281518160328210620000915760405162461bcd60e51b81526004016200008890620005bb565b60405180910390fd5b818110620000b35760405162461bcd60e51b8152600401620000889062000629565b80620000d35760405162461bcd60e51b81526004016200008890620005f2565b81620000f35760405162461bcd60e51b81526004016200008890620006d3565b60005b84518110156200023857600260008683815181106200012557634e487b7160e01b600052603260045260246000fd5b6020908102919091018101516001600160a01b031682528101919091526040016000205460ff16156200016c5760405162461bcd60e51b81526004016200008890620006ab565b60006001600160a01b03168582815181106200019857634e487b7160e01b600052603260045260246000fd5b60200260200101516001600160a01b03161415620001ca5760405162461bcd60e51b8152600401620000889062000674565b600160026000878481518110620001f157634e487b7160e01b600052603260045260246000fd5b6020908102919091018101516001600160a01b03168252810191909152604001600020805460ff1916911515919091179055806200022f8162000773565b915050620000f6565b5083516200024e906003906020870190620002ff565b5050506004555083516200026a90600790602087019062000369565b50600980546001600160a01b038086166001600160a01b031992831617909255600b805484841692169190911790819055604051634adc7cfd60e01b8152911690634adc7cfd90620002c1903090600401620005a7565b600060405180830381600087803b158015620002dc57600080fd5b505af1158015620002f1573d6000803e3d6000fd5b5050505050505050620007ca565b82805482825590600052602060002090810192821562000357579160200282015b828111156200035757825182546001600160a01b0319166001600160a01b0390911617825560209092019160019091019062000320565b5062000365929150620003e6565b5090565b828054620003779062000736565b90600052602060002090601f0160209004810192826200039b576000855562000357565b82601f10620003b657805160ff191683800117855562000357565b8280016001018555821562000357579182015b8281111562000357578251825591602001919060010190620003c9565b5b80821115620003655760008155600101620003e7565b80516200040a81620007b1565b919050565b600082601f83011262000420578081fd5b815160206001600160401b038211156200043e576200043e6200079b565b8082026200044e8282016200070a565b83815282810190868401838801850189101562000469578687fd5b8693505b85841015620004985780516200048381620007b1565b8352600193909301929184019184016200046d565b50979650505050505050565b60008060008060808587031215620004ba578384fd5b84516001600160401b0380821115620004d1578586fd5b818701915087601f830112620004e5578586fd5b815181811115620004fa57620004fa6200079b565b602062000510601f8301601f191682016200070a565b8281528a8284870101111562000524578889fd5b885b838110156200054357858101830151828201840152820162000526565b838111156200055457898385840101525b50975062000564898201620003fd565b9650505060408701519150808211156200057c578384fd5b506200058b878288016200040f565b9250506200059c60608601620003fd565b905092959194509250565b6001600160a01b0391909116815260200190565b60208082526019908201527f6d617820206f776e657220636f756e7420657863656564656400000000000000604082015260600190565b60208082526019908201527f7a65726f207265717569726564206e6f7420616c6c6f77656400000000000000604082015260600190565b6020808252602b908201527f63616e277420686176652072657175697265642067726561746572207468616e60408201526a081bdddb995c90dbdd5b9d60aa1b606082015260800190565b60208082526018908201527f7a65726f2061646472657373206e6f7420616c6c6f7765640000000000000000604082015260600190565b6020808252600e908201526d39b7b6b29031b7b73234ba34b7b760911b604082015260600190565b60208082526016908201527f43616e27742068617665207a65726f206f776e65727300000000000000000000604082015260600190565b6040518181016001600160401b03811182821017156200072e576200072e6200079b565b604052919050565b6002810460018216806200074b57607f821691505b602082108114156200076d57634e487b7160e01b600052602260045260246000fd5b50919050565b60006000198214156200079457634e487b7160e01b81526011600452602481fd5b5060010190565b634e487b7160e01b600052604160045260246000fd5b6001600160a01b0381168114620007c757600080fd5b50565b612c7780620007da6000396000f3fe6080604052600436106101c25760003560e01c80639ace38c2116100f7578063b77bf60011610095578063d74f8edd11610064578063d74f8edd1461056a578063dc8452cd1461057f578063e20056e614610594578063ee22610b146105b4576101c2565b8063b77bf600146104f5578063ba51a6df1461050a578063c01a8c841461052a578063d38bcdee1461054a576101c2565b8063a8abe69a116100d1578063a8abe69a14610473578063b5317375146104a0578063b5dc40c3146104b5578063b6b55f25146104d5576101c2565b80639ace38c214610400578063a0e67e2b14610431578063a2fb342d14610453576101c2565b8063523ec1d0116101645780637065cb481161013e5780637065cb4814610380578063722f8ee2146103a0578063784547a7146103c05780638b51d13f146103e0576101c2565b8063523ec1d01461031157806354741525146103335780636e6a97cf14610360576101c2565b806320ea8d86116101a057806320ea8d86146102845780632e1a7d4d146102a45780632f54bf6e146102c45780633411c81c146102f1576101c2565b8063025e7c271461020c57806306fdde0314610242578063173825d914610264575b341561020a57336001600160a01b03167fe1fffcc4923d04b559f4d29a8bfc6cda04eb5b0d3c460751c2402c5c5cc9109c346040516102019190612b07565b60405180910390a25b005b34801561021857600080fd5b5061022c610227366004612382565b6105d4565b604051610239919061255c565b60405180910390f35b34801561024e57600080fd5b506102576105fe565b604051610239919061265e565b34801561027057600080fd5b5061020a61027f36600461211c565b61068c565b34801561029057600080fd5b5061020a61029f366004612382565b610871565b3480156102b057600080fd5b5061020a6102bf366004612382565b610960565b3480156102d057600080fd5b506102e46102df36600461211c565b610a6e565b6040516102399190612653565b3480156102fd57600080fd5b506102e461030c36600461239a565b610a83565b34801561031d57600080fd5b50610326610aa3565b6040516102399190612a9d565b34801561033f57600080fd5b5061035361034e36600461223b565b610c06565b6040516102399190612b07565b34801561036c57600080fd5b5061035361037b366004612168565b610c83565b34801561038c57600080fd5b5061020a61039b36600461211c565b610ca4565b3480156103ac57600080fd5b5061020a6103bb366004612273565b610e4c565b3480156103cc57600080fd5b506102e46103db366004612382565b610f17565b3480156103ec57600080fd5b506103536103fb366004612382565b610fc7565b34801561040c57600080fd5b5061042061041b366004612382565b61105b565b604051610239959493929190612594565b34801561043d57600080fd5b506104466111a7565b60405161023991906125fc565b34801561045f57600080fd5b506102e461046e3660046121f6565b611209565b34801561047f57600080fd5b5061049361048e3660046123bc565b6112d0565b604051610239919061260f565b3480156104ac57600080fd5b506103536114ae565b3480156104c157600080fd5b506104466104d0366004612382565b6114b4565b3480156104e157600080fd5b5061020a6104f0366004612382565b6116ee565b34801561050157600080fd5b506103536117e5565b34801561051657600080fd5b5061020a610525366004612382565b6117eb565b34801561053657600080fd5b5061020a610545366004612382565b6118c9565b34801561055657600080fd5b5061020a61056536600461211c565b6119c2565b34801561057657600080fd5b506103536119f1565b34801561058b57600080fd5b506103536119f6565b3480156105a057600080fd5b5061020a6105af366004612136565b6119fc565b3480156105c057600080fd5b5061020a6105cf366004612382565b611be4565b600381815481106105e457600080fd5b6000918252602090912001546001600160a01b0316905081565b6007805461060b90612bb4565b80601f016020809104026020016040519081016040528092919081815260200182805461063790612bb4565b80156106845780601f1061065957610100808354040283529160200191610684565b820191906000526020600020905b81548152906001019060200180831161066757829003601f168201915b505050505081565b3330146106b45760405162461bcd60e51b81526004016106ab90612818565b60405180910390fd5b6001600160a01b038116600090815260026020526040902054819060ff166106ee5760405162461bcd60e51b81526004016106ab906128ac565b6001600160a01b0382166000908152600260205260408120805460ff191690555b60035461071e90600190612b9d565b81101561081857826001600160a01b03166003828154811061075057634e487b7160e01b600052603260045260246000fd5b6000918252602090912001546001600160a01b03161415610806576003805461077b90600190612b9d565b8154811061079957634e487b7160e01b600052603260045260246000fd5b600091825260209091200154600380546001600160a01b0390921691839081106107d357634e487b7160e01b600052603260045260246000fd5b9060005260206000200160006101000a8154816001600160a01b0302191690836001600160a01b03160217905550610818565b8061081081612be9565b91505061070f565b506003805160001901815254600454111561083957600354610839906117eb565b6040516001600160a01b038316907f8001553a916ef2f495d26a907cc54d96ed840d7bda71e73194bf5a9df7a76b9090600090a25050565b3360008181526002602052604090205460ff166108a05760405162461bcd60e51b81526004016106ab906128ac565b60008281526001602090815260408083203380855292529091205483919060ff166108dd5760405162461bcd60e51b81526004016106ab90612784565b600084815260208190526040902060040154849060ff16156109115760405162461bcd60e51b81526004016106ab90612a53565b6000858152600160209081526040808320338085529252808320805460ff191690555187927ff6a317157440607f36269043eb55f1287a5a19ba2216afeab88cd46cbcfb88e991a35050505050565b600061096b82611d28565b905061097681611d2b565b610981303383611d6c565b61099d5760405162461bcd60e51b81526004016106ab90612988565b7fb244b9a17ad633c6e83b7983ee04320484956a68ddbe96a0b70dfca1cf19d72333836040516109ce9291906125e3565b60405180910390a180600660008282546109e89190612b9d565b9091555050600b546040517f17fc336d0000000000000000000000000000000000000000000000000000000081526001600160a01b03909116906317fc336d90610a3890339086906004016125e3565b600060405180830381600087803b158015610a5257600080fd5b505af1158015610a66573d6000803e3d6000fd5b505050505050565b60026020526000908152604090205460ff1681565b600160209081526000928352604080842090915290825290205460ff1681565b610aab611f79565b6040805160088054602081810284018501855283018181529293919284929091849160009085015b82821015610bf9578382906000526020600020906002020160405180604001604052908160008201805480602002602001604051908101604052809291908181526020018280548015610b4f57602002820191906000526020600020905b81546001600160a01b03168152600190910190602001808311610b31575b50505050508152602001600182018054610b6890612bb4565b80601f0160208091040260200160405190810160405280929190818152602001828054610b9490612bb4565b8015610be15780601f10610bb657610100808354040283529160200191610be1565b820191906000526020600020905b815481529060010190602001808311610bc457829003601f168201915b50505050508152505081526020019060010190610ad3565b5050505081525050905090565b6000805b600554811015610c7c57838015610c33575060008181526020819052604090206004015460ff16155b80610c575750828015610c57575060008181526020819052604090206004015460ff165b15610c6a57610c67600183612b46565b91505b80610c7481612be9565b915050610c0a565b5092915050565b6000610c9185858585611e3e565b9050610c9c816118c9565b949350505050565b333014610cc35760405162461bcd60e51b81526004016106ab90612818565b6001600160a01b038116600090815260026020526040902054819060ff1615610cfe5760405162461bcd60e51b81526004016106ab90612716565b816001600160a01b038116610d255760405162461bcd60e51b81526004016106ab90612671565b600354610d33906001612b46565b60045460328210610d565760405162461bcd60e51b81526004016106ab906126a8565b818110610d755760405162461bcd60e51b81526004016106ab906127bb565b80610d925760405162461bcd60e51b81526004016106ab906126df565b81610daf5760405162461bcd60e51b81526004016106ab90612a1c565b6001600160a01b038516600081815260026020526040808220805460ff1916600190811790915560038054918201815583527fc2575a0e9e593c00f959f8c92f12db2869c3395a3b0502d05e2516446f71f85b01805473ffffffffffffffffffffffffffffffffffffffff191684179055517ff39e6e1eb0edcf53c221607b54b00cd28f3196fed0a24994dc308b8f611b682d9190a25050505050565b6009546001600160a01b03163314610e765760405162461bcd60e51b81526004016106ab9061284f565b600880546001810182556000919091528151805183926002027ff3f7a9fe364faab93b216da50a3214154f22a0a2b415b23a84c8169e8b636ee30191610ec191839160200190611f8c565b506020828101518051610eda9260018501920190611ffe565b5050507f1296b70fc9141190fd21db15fabe3f067aa5dc48f440e5cde726a311a8e2c18081604051610f0c9190612a8a565b60405180910390a150565b600080805b600354811015610fbb5760008481526001602052604081206003805491929184908110610f5957634e487b7160e01b600052603260045260246000fd5b60009182526020808320909101546001600160a01b0316835282019290925260400190205460ff1615610f9457610f91600183612b46565b91505b600454821415610fa957600192505050610fc2565b80610fb381612be9565b915050610f1c565b5060009150505b919050565b6000805b600354811015611055576000838152600160205260408120600380549192918490811061100857634e487b7160e01b600052603260045260246000fd5b60009182526020808320909101546001600160a01b0316835282019290925260400190205460ff161561104357611040600183612b46565b91505b8061104d81612be9565b915050610fcb565b50919050565b600060208190529081526040902080546001820180546001600160a01b03909216929161108790612bb4565b80601f01602080910402602001604051908101604052809291908181526020018280546110b390612bb4565b80156111005780601f106110d557610100808354040283529160200191611100565b820191906000526020600020905b8154815290600101906020018083116110e357829003601f168201915b50505050509080600201549080600301805461111b90612bb4565b80601f016020809104026020016040519081016040528092919081815260200182805461114790612bb4565b80156111945780601f1061116957610100808354040283529160200191611194565b820191906000526020600020905b81548152906001019060200180831161117757829003601f168201915b5050506004909301549192505060ff1685565b606060038054806020026020016040519081016040528092919081815260200182805480156111ff57602002820191906000526020600020905b81546001600160a01b031681526001909101906020018083116111e1575b5050505050905090565b60006001600160a01b0383166112315760405162461bcd60e51b81526004016106ab9061274d565b600a546040517fa9059cbb0000000000000000000000000000000000000000000000000000000081526001600160a01b0390911690819063a9059cbb9061127e90879087906004016125e3565b602060405180830381600087803b15801561129857600080fd5b505af11580156112ac573d6000803e3d6000fd5b505050506040513d601f19601f82011682018060405250810190610c9c919061221f565b6060600060055467ffffffffffffffff8111156112fd57634e487b7160e01b600052604160045260246000fd5b604051908082528060200260200182016040528015611326578160200160208202803683370190505b5090506000805b6005548110156113cb57858015611356575060008181526020819052604090206004015460ff16155b8061137a575084801561137a575060008181526020819052604090206004015460ff165b156113b957808383815181106113a057634e487b7160e01b600052603260045260246000fd5b60209081029190910101526113b6600183612b46565b91505b806113c381612be9565b91505061132d565b6113d58888612b9d565b67ffffffffffffffff8111156113fb57634e487b7160e01b600052604160045260246000fd5b604051908082528060200260200182016040528015611424578160200160208202803683370190505b5093508790505b868110156114a35782818151811061145357634e487b7160e01b600052603260045260246000fd5b60200260200101518489836114689190612b9d565b8151811061148657634e487b7160e01b600052603260045260246000fd5b60209081029190910101528061149b81612be9565b91505061142b565b505050949350505050565b60065490565b60035460609060009067ffffffffffffffff8111156114e357634e487b7160e01b600052604160045260246000fd5b60405190808252806020026020018201604052801561150c578160200160208202803683370190505b5090506000805b600354811015611614576000858152600160205260408120600380549192918490811061155057634e487b7160e01b600052603260045260246000fd5b60009182526020808320909101546001600160a01b0316835282019290925260400190205460ff1615611602576003818154811061159e57634e487b7160e01b600052603260045260246000fd5b9060005260206000200160009054906101000a90046001600160a01b03168383815181106115dc57634e487b7160e01b600052603260045260246000fd5b6001600160a01b03909216602092830291909101909101526115ff600183612b46565b91505b8061160c81612be9565b915050611513565b8167ffffffffffffffff81111561163b57634e487b7160e01b600052604160045260246000fd5b604051908082528060200260200182016040528015611664578160200160208202803683370190505b509350600090505b818110156116e65782818151811061169457634e487b7160e01b600052603260045260246000fd5b60200260200101518482815181106116bc57634e487b7160e01b600052603260045260246000fd5b6001600160a01b0390921660209283029190910190910152806116de81612be9565b91505061166c565b505050919050565b6116f9333083611d6c565b6117155760405162461bcd60e51b81526004016106ab906128e3565b7f2da466a7b24304f47e87fa2e1e5a81b9831ce54fec19055ce277ca2f39ba42c433826040516117469291906125e3565b60405180910390a180600660008282546117609190612b46565b9091555050600b546040517fcc6e12370000000000000000000000000000000000000000000000000000000081526001600160a01b039091169063cc6e1237906117b090339085906004016125e3565b600060405180830381600087803b1580156117ca57600080fd5b505af11580156117de573d6000803e3d6000fd5b5050505050565b60055481565b33301461180a5760405162461bcd60e51b81526004016106ab90612818565b600354816032821061182e5760405162461bcd60e51b81526004016106ab906126a8565b81811061184d5760405162461bcd60e51b81526004016106ab906127bb565b8061186a5760405162461bcd60e51b81526004016106ab906126df565b816118875760405162461bcd60e51b81526004016106ab90612a1c565b60048390556040517fa3f1ee9126a074d9326c682f561767f710e927faa811f7a99829d49dc421797a906118bc908590612b07565b60405180910390a1505050565b3360008181526002602052604090205460ff166118f85760405162461bcd60e51b81526004016106ab906128ac565b60008281526020819052604090205482906001600160a01b031661192e5760405162461bcd60e51b81526004016106ab90612951565b60008381526001602090815260408083203380855292529091205484919060ff161561196c5760405162461bcd60e51b81526004016106ab9061291a565b6000858152600160208181526040808420338086529252808420805460ff1916909317909255905187927f4a504a94899432a9846e1aa406dceb1bcfd538bb839071d49d1e5e23f5be30ef91a36117de85611be4565b600a805473ffffffffffffffffffffffffffffffffffffffff19166001600160a01b0392909216919091179055565b603281565b60045481565b333014611a1b5760405162461bcd60e51b81526004016106ab90612818565b6001600160a01b038216600090815260026020526040902054829060ff16611a555760405162461bcd60e51b81526004016106ab906128ac565b6001600160a01b038216600090815260026020526040902054829060ff1615611a905760405162461bcd60e51b81526004016106ab90612716565b60005b600354811015611b4a57846001600160a01b031660038281548110611ac857634e487b7160e01b600052603260045260246000fd5b6000918252602090912001546001600160a01b03161415611b38578360038281548110611b0557634e487b7160e01b600052603260045260246000fd5b9060005260206000200160006101000a8154816001600160a01b0302191690836001600160a01b03160217905550611b4a565b80611b4281612be9565b915050611a93565b506001600160a01b03808516600081815260026020526040808220805460ff1990811690915593871682528082208054909416600117909355915190917f8001553a916ef2f495d26a907cc54d96ed840d7bda71e73194bf5a9df7a76b9091a26040516001600160a01b038416907ff39e6e1eb0edcf53c221607b54b00cd28f3196fed0a24994dc308b8f611b682d90600090a250505050565b600081815260208190526040902060040154819060ff1615611c185760405162461bcd60e51b81526004016106ab90612a53565b611c2182610f17565b15611d245760008281526020819052604080822060048101805460ff191660011790558054600282015492519193926060926001600160a01b0390921691611c6d9060038701906124c1565b60006040518083038185875af1925050503d8060008114611caa576040519150601f19603f3d011682016040523d82523d6000602084013e611caf565b606091505b5090925090508115611ceb5760405185907f33e13ecb54c3076d8e8bb8c2881800a4d972b792045ffae98fdf46df365fed7590600090a26117de565b60405185907f526441bb6c1aba3c9a4a6ca1d6545da9c2333c8c48343ef398eb858d72b7923690600090a25050600401805460ff191690555b5050565b90565b600654600090611d3e83620186a0612b7e565b611d489190612b5e565b9050614e20811115611d245760405162461bcd60e51b81526004016106ab906129bf565b60006001600160a01b038316611d945760405162461bcd60e51b81526004016106ab9061274d565b600a546040517f23b872dd0000000000000000000000000000000000000000000000000000000081526001600160a01b039091169081906323b872dd90611de390889088908890600401612570565b602060405180830381600087803b158015611dfd57600080fd5b505af1158015611e11573d6000803e3d6000fd5b505050506040513d601f19601f82011682018060405250810190611e35919061221f565b95945050505050565b6000846001600160a01b038116611e675760405162461bcd60e51b81526004016106ab90612671565b6005546040805160a0810182526001600160a01b03898116825260208083018a81528385018a905260608401899052600060808501819052868152808352949094208351815473ffffffffffffffffffffffffffffffffffffffff191693169290921782559251805194965091939092611ee8926001850192910190611ffe565b506040820151600282015560608201518051611f0e916003840191602090910190611ffe565b50608091909101516004909101805460ff19169115159190911790556005805460019190600090611f40908490612b46565b909155505060405182907fc0ba8fe4b176c1714197d43b9cc6bcf797a4a7461c5fe8d0ef6e184ae7601e5190600090a250949350505050565b6040518060200160405280606081525090565b828054828255906000526020600020908101928215611fee579160200282015b82811115611fee578251825473ffffffffffffffffffffffffffffffffffffffff19166001600160a01b03909116178255602090920191600190910190611fac565b50611ffa929150612072565b5090565b82805461200a90612bb4565b90600052602060002090601f01602090048101928261202c5760008555611fee565b82601f1061204557805160ff1916838001178555611fee565b82800160010185558215611fee579182015b82811115611fee578251825591602001919060010190612057565b5b80821115611ffa5760008155600101612073565b600067ffffffffffffffff8311156120a1576120a1612c1a565b6120b4601f8401601f1916602001612b10565b90508281528383830111156120c857600080fd5b828260208301376000602084830101529392505050565b80356001600160a01b0381168114610fc257600080fd5b600082601f830112612106578081fd5b61211583833560208501612087565b9392505050565b60006020828403121561212d578081fd5b612115826120df565b60008060408385031215612148578081fd5b612151836120df565b915061215f602084016120df565b90509250929050565b6000806000806080858703121561217d578182fd5b612186856120df565b9350602085013567ffffffffffffffff808211156121a2578384fd5b6121ae888389016120f6565b94506040870135935060608701359150808211156121ca578283fd5b508501601f810187136121db578182fd5b6121ea87823560208401612087565b91505092959194509250565b60008060408385031215612208578182fd5b612211836120df565b946020939093013593505050565b600060208284031215612230578081fd5b815161211581612c30565b6000806040838503121561224d578182fd5b823561225881612c30565b9150602083013561226881612c30565b809150509250929050565b60006020808385031215612285578182fd5b823567ffffffffffffffff8082111561229c578384fd5b90840190604082870312156122af578384fd5b6040516040810181811083821117156122ca576122ca612c1a565b6040528235828111156122db578586fd5b8301601f810188136122eb578586fd5b8035838111156122fd576122fd612c1a565b85810261230b878201612b10565b828152878101908489018386018a018d1015612325578a8bfd5b8a95505b8486101561234e5761233a816120df565b835260019590950194918901918901612329565b508552505050508284013582811115612365578586fd5b612371888286016120f6565b948201949094529695505050505050565b600060208284031215612393578081fd5b5035919050565b600080604083850312156123ac578182fd5b8235915061215f602084016120df565b600080600080608085870312156123d1578384fd5b843593506020850135925060408501356123ea81612c30565b915060608501356123fa81612c30565b939692955090935050565b6000815180845260208085019450808401835b8381101561243d5781516001600160a01b031687529582019590820190600101612418565b509495945050505050565b60008151808452815b8181101561246d57602081850181015186830182015201612451565b8181111561247e5782602083870101525b50601f01601f19169290920160200192915050565b60008151604084526124a86040850182612405565b905060208301518482036020860152611e358282612448565b81546000908190600281046001808316806124dd57607f831692505b60208084108214156124fd57634e487b7160e01b87526022600452602487fd5b81801561251157600181146125225761254e565b60ff1986168952848901965061254e565b61252b8a612b3a565b885b868110156125465781548b82015290850190830161252d565b505084890196505b509498975050505050505050565b6001600160a01b0391909116815260200190565b6001600160a01b039384168152919092166020820152604081019190915260600190565b60006001600160a01b038716825260a060208301526125b660a0830187612448565b85604084015282810360608401526125ce8186612448565b91505082151560808301529695505050505050565b6001600160a01b03929092168252602082015260400190565b6000602082526121156020830184612405565b6020808252825182820181905260009190848201906040850190845b818110156126475783518352928401929184019160010161262b565b50909695505050505050565b901515815260200190565b6000602082526121156020830184612448565b60208082526017908201527f726571757265206e6f74206e756c6c2061646472657373000000000000000000604082015260600190565b60208082526019908201527f6d617820206f776e657220636f756e7420657863656564656400000000000000604082015260600190565b60208082526019908201527f7a65726f207265717569726564206e6f7420616c6c6f77656400000000000000604082015260600190565b60208082526015908201527f4f776e65722073686f756c646e27742065786973740000000000000000000000604082015260600190565b6020808252601b908201527f43616e27742073656e6420746f207a65726f20616464726573732e0000000000604082015260600190565b6020808252600d908201527f6e6f7420636f6e6669726d656400000000000000000000000000000000000000604082015260600190565b6020808252602b908201527f63616e277420686176652072657175697265642067726561746572207468616e60408201527f206f776e6572436f756e74000000000000000000000000000000000000000000606082015260800190565b60208082526013908201527f4f6e6c792077616c6c657420616c6c6f77656400000000000000000000000000604082015260600190565b60208082526021908201527f4f6e6c7920476f7665726e656e636520616c6c6f776564206f7065726174696f60408201527f6e00000000000000000000000000000000000000000000000000000000000000606082015260800190565b60208082526013908201527f4f776e657220646f65736e277420657869737400000000000000000000000000604082015260600190565b60208082526017908201527f4465706f736974206e6f74207375636365737366756c2e000000000000000000604082015260600190565b60208082526009908201527f636f6e6669726d65640000000000000000000000000000000000000000000000604082015260600190565b60208082526016908201527f7472616e736374696f6e20697320706f737369626c6500000000000000000000604082015260600190565b6020808252601a908201527f5769746864726177616c206e6f74207375636365737366756c2e000000000000604082015260600190565b6020808252602e908201527f43616e6e6f74207769746864726177206d6f7265207468616e20323025206f6660408201527f20506f6f6c2062616c616e63652e000000000000000000000000000000000000606082015260800190565b60208082526016908201527f43616e27742068617665207a65726f206f776e65727300000000000000000000604082015260600190565b60208082526019908201527f68617320616c7265616479206265656e20657865637574656400000000000000604082015260600190565b6000602082526121156020830184612493565b600060208083526040830184518283860152818151808452606087019150606085820288010193508483019250855b81811015612afa57605f19888603018352612ae8858551612493565b94509285019291850191600101612acc565b5092979650505050505050565b90815260200190565b60405181810167ffffffffffffffff81118282101715612b3257612b32612c1a565b604052919050565b60009081526020902090565b60008219821115612b5957612b59612c04565b500190565b600082612b7957634e487b7160e01b81526012600452602481fd5b500490565b6000816000190483118215151615612b9857612b98612c04565b500290565b600082821015612baf57612baf612c04565b500390565b600281046001821680612bc857607f821691505b6020821081141561105557634e487b7160e01b600052602260045260246000fd5b6000600019821415612bfd57612bfd612c04565b5060010190565b634e487b7160e01b600052601160045260246000fd5b634e487b7160e01b600052604160045260246000fd5b8015158114612c3e57600080fd5b5056fea264697066735822122018790c203b5ef915a6b196cc9ccc2a93fc3315f18ba206101be2c58e495247a364736f6c63430008000033",
  "linkReferences": {},
  "deployedLinkReferences": {}
}