{
  "_format": "hh-sol-artifact-1",
  "contractName": "Pool",
  "sourceName": "contracts/Pool.sol",
  "abi": [
    {
      "inputs": [
        {
          "internalType": "string",
          "name": "_name",
          "type": "string"
        },
        {
          "internalType": "address",
          "name": "_governer",
          "type": "address"
        },
        {
          "internalType": "address[]",
          "name": "_admins",
          "type": "address[]"
        }
      ],
      "stateMutability": "nonpayable",
      "type": "constructor"
    },
    {
      "anonymous": false,
      "inputs": [
        {
          "indexed": false,
          "internalType": "address",
          "name": "_address",
          "type": "address"
        }
      ],
      "name": "AddedAdmin",
      "type": "event"
    },
    {
      "anonymous": false,
      "inputs": [
        {
          "components": [
            {
              "internalType": "address[]",
              "name": "auditors",
              "type": "address[]"
            },
            {
              "internalType": "string",
              "name": "fullAuditReport",
              "type": "string"
            }
          ],
          "indexed": false,
          "internalType": "struct AuditorReports.Audit",
          "name": "_audit",
          "type": "tuple"
        }
      ],
      "name": "AddedAuditReport",
      "type": "event"
    },
    {
      "anonymous": false,
      "inputs": [
        {
          "indexed": true,
          "internalType": "address",
          "name": "sender",
          "type": "address"
        },
        {
          "indexed": true,
          "internalType": "uint256",
          "name": "transactionId",
          "type": "uint256"
        }
      ],
      "name": "Confirmation",
      "type": "event"
    },
    {
      "anonymous": false,
      "inputs": [
        {
          "indexed": true,
          "internalType": "address",
          "name": "sender",
          "type": "address"
        },
        {
          "indexed": false,
          "internalType": "uint256",
          "name": "value",
          "type": "uint256"
        }
      ],
      "name": "Deposit",
      "type": "event"
    },
    {
      "anonymous": false,
      "inputs": [
        {
          "indexed": true,
          "internalType": "uint256",
          "name": "transactionId",
          "type": "uint256"
        }
      ],
      "name": "Execution",
      "type": "event"
    },
    {
      "anonymous": false,
      "inputs": [
        {
          "indexed": true,
          "internalType": "uint256",
          "name": "transactionId",
          "type": "uint256"
        }
      ],
      "name": "ExecutionFailure",
      "type": "event"
    },
    {
      "anonymous": false,
      "inputs": [
        {
          "indexed": true,
          "internalType": "address",
          "name": "owner",
          "type": "address"
        }
      ],
      "name": "OwnerAddition",
      "type": "event"
    },
    {
      "anonymous": false,
      "inputs": [
        {
          "indexed": true,
          "internalType": "address",
          "name": "owner",
          "type": "address"
        }
      ],
      "name": "OwnerRemoval",
      "type": "event"
    },
    {
      "anonymous": false,
      "inputs": [
        {
          "indexed": false,
          "internalType": "address",
          "name": "_adddress",
          "type": "address"
        }
      ],
      "name": "RemovedAdmin",
      "type": "event"
    },
    {
      "anonymous": false,
      "inputs": [
        {
          "indexed": false,
          "internalType": "uint256",
          "name": "required",
          "type": "uint256"
        }
      ],
      "name": "RequirementChange",
      "type": "event"
    },
    {
      "anonymous": false,
      "inputs": [
        {
          "indexed": true,
          "internalType": "address",
          "name": "sender",
          "type": "address"
        },
        {
          "indexed": true,
          "internalType": "uint256",
          "name": "transactionId",
          "type": "uint256"
        }
      ],
      "name": "Revocation",
      "type": "event"
    },
    {
      "anonymous": false,
      "inputs": [
        {
          "indexed": true,
          "internalType": "uint256",
          "name": "transactionId",
          "type": "uint256"
        }
      ],
      "name": "Submission",
      "type": "event"
    },
    {
      "stateMutability": "payable",
      "type": "fallback"
    },
    {
      "inputs": [
        {
          "components": [
            {
              "internalType": "address[]",
              "name": "auditors",
              "type": "address[]"
            },
            {
              "internalType": "string",
              "name": "fullAuditReport",
              "type": "string"
            }
          ],
          "internalType": "struct AuditorReports.Audit",
          "name": "_audit",
          "type": "tuple"
        }
      ],
      "name": "AddAuditReport",
      "outputs": [],
      "stateMutability": "nonpayable",
      "type": "function"
    },
    {
      "inputs": [],
      "name": "MAX_OWNER_COUNT",
      "outputs": [
        {
          "internalType": "uint256",
          "name": "",
          "type": "uint256"
        }
      ],
      "stateMutability": "view",
      "type": "function"
    },
    {
      "inputs": [
        {
          "internalType": "address",
          "name": "owner",
          "type": "address"
        }
      ],
      "name": "addOwner",
      "outputs": [],
      "stateMutability": "nonpayable",
      "type": "function"
    },
    {
      "inputs": [
        {
          "internalType": "uint256",
          "name": "_required",
          "type": "uint256"
        }
      ],
      "name": "changeRequirement",
      "outputs": [],
      "stateMutability": "nonpayable",
      "type": "function"
    },
    {
      "inputs": [
        {
          "internalType": "uint256",
          "name": "transactionId",
          "type": "uint256"
        }
      ],
      "name": "confirmTransaction",
      "outputs": [],
      "stateMutability": "nonpayable",
      "type": "function"
    },
    {
      "inputs": [
        {
          "internalType": "uint256",
          "name": "",
          "type": "uint256"
        },
        {
          "internalType": "address",
          "name": "",
          "type": "address"
        }
      ],
      "name": "confirmations",
      "outputs": [
        {
          "internalType": "bool",
          "name": "",
          "type": "bool"
        }
      ],
      "stateMutability": "view",
      "type": "function"
    },
    {
      "inputs": [
        {
          "internalType": "uint256",
          "name": "_amount",
          "type": "uint256"
        }
      ],
      "name": "deposit",
      "outputs": [],
      "stateMutability": "nonpayable",
      "type": "function"
    },
    {
      "inputs": [
        {
          "internalType": "uint256",
          "name": "transactionId",
          "type": "uint256"
        }
      ],
      "name": "executeTransaction",
      "outputs": [],
      "stateMutability": "nonpayable",
      "type": "function"
    },
    {
      "inputs": [],
      "name": "getAudits",
      "outputs": [
        {
          "components": [
            {
              "components": [
                {
                  "internalType": "address[]",
                  "name": "auditors",
                  "type": "address[]"
                },
                {
                  "internalType": "string",
                  "name": "fullAuditReport",
                  "type": "string"
                }
              ],
              "internalType": "struct AuditorReports.Audit[]",
              "name": "HistoricalAudits",
              "type": "tuple[]"
            }
          ],
          "internalType": "struct AuditorReports.Reports",
          "name": "",
          "type": "tuple"
        }
      ],
      "stateMutability": "view",
      "type": "function"
    },
    {
      "inputs": [
        {
          "internalType": "uint256",
          "name": "transactionId",
          "type": "uint256"
        }
      ],
      "name": "getConfirmationCount",
      "outputs": [
        {
          "internalType": "uint256",
          "name": "count",
          "type": "uint256"
        }
      ],
      "stateMutability": "view",
      "type": "function"
    },
    {
      "inputs": [
        {
          "internalType": "uint256",
          "name": "transactionId",
          "type": "uint256"
        }
      ],
      "name": "getConfirmations",
      "outputs": [
        {
          "internalType": "address[]",
          "name": "_confirmations",
          "type": "address[]"
        }
      ],
      "stateMutability": "view",
      "type": "function"
    },
    {
      "inputs": [],
      "name": "getOwners",
      "outputs": [
        {
          "internalType": "address[]",
          "name": "",
          "type": "address[]"
        }
      ],
      "stateMutability": "view",
      "type": "function"
    },
    {
      "inputs": [
        {
          "internalType": "bool",
          "name": "pending",
          "type": "bool"
        },
        {
          "internalType": "bool",
          "name": "executed",
          "type": "bool"
        }
      ],
      "name": "getTransactionCount",
      "outputs": [
        {
          "internalType": "uint256",
          "name": "count",
          "type": "uint256"
        }
      ],
      "stateMutability": "view",
      "type": "function"
    },
    {
      "inputs": [
        {
          "internalType": "uint256",
          "name": "from",
          "type": "uint256"
        },
        {
          "internalType": "uint256",
          "name": "to",
          "type": "uint256"
        },
        {
          "internalType": "bool",
          "name": "pending",
          "type": "bool"
        },
        {
          "internalType": "bool",
          "name": "executed",
          "type": "bool"
        }
      ],
      "name": "getTransactionIds",
      "outputs": [
        {
          "internalType": "uint256[]",
          "name": "_transactionIds",
          "type": "uint256[]"
        }
      ],
      "stateMutability": "view",
      "type": "function"
    },
    {
      "inputs": [
        {
          "internalType": "uint256",
          "name": "transactionId",
          "type": "uint256"
        }
      ],
      "name": "isConfirmed",
      "outputs": [
        {
          "internalType": "bool",
          "name": "",
          "type": "bool"
        }
      ],
      "stateMutability": "view",
      "type": "function"
    },
    {
      "inputs": [
        {
          "internalType": "address",
          "name": "",
          "type": "address"
        }
      ],
      "name": "isOwner",
      "outputs": [
        {
          "internalType": "bool",
          "name": "",
          "type": "bool"
        }
      ],
      "stateMutability": "view",
      "type": "function"
    },
    {
      "inputs": [],
      "name": "name",
      "outputs": [
        {
          "internalType": "string",
          "name": "",
          "type": "string"
        }
      ],
      "stateMutability": "view",
      "type": "function"
    },
    {
      "inputs": [
        {
          "internalType": "uint256",
          "name": "",
          "type": "uint256"
        }
      ],
      "name": "owners",
      "outputs": [
        {
          "internalType": "address",
          "name": "",
          "type": "address"
        }
      ],
      "stateMutability": "view",
      "type": "function"
    },
    {
      "inputs": [
        {
          "internalType": "address",
          "name": "owner",
          "type": "address"
        }
      ],
      "name": "removeOwner",
      "outputs": [],
      "stateMutability": "nonpayable",
      "type": "function"
    },
    {
      "inputs": [
        {
          "internalType": "address",
          "name": "owner",
          "type": "address"
        },
        {
          "internalType": "address",
          "name": "newOwner",
          "type": "address"
        }
      ],
      "name": "replaceOwner",
      "outputs": [],
      "stateMutability": "nonpayable",
      "type": "function"
    },
    {
      "inputs": [],
      "name": "required",
      "outputs": [
        {
          "internalType": "uint256",
          "name": "",
          "type": "uint256"
        }
      ],
      "stateMutability": "view",
      "type": "function"
    },
    {
      "inputs": [
        {
          "internalType": "uint256",
          "name": "transactionId",
          "type": "uint256"
        }
      ],
      "name": "revokeConfirmation",
      "outputs": [],
      "stateMutability": "nonpayable",
      "type": "function"
    },
    {
      "inputs": [
        {
          "internalType": "address",
          "name": "destination",
          "type": "address"
        },
        {
          "internalType": "uint256",
          "name": "value",
          "type": "uint256"
        },
        {
          "internalType": "bytes",
          "name": "data",
          "type": "bytes"
        }
      ],
      "name": "submitTransaction",
      "outputs": [
        {
          "internalType": "uint256",
          "name": "transactionId",
          "type": "uint256"
        }
      ],
      "stateMutability": "nonpayable",
      "type": "function"
    },
    {
      "inputs": [],
      "name": "transactionCount",
      "outputs": [
        {
          "internalType": "uint256",
          "name": "",
          "type": "uint256"
        }
      ],
      "stateMutability": "view",
      "type": "function"
    },
    {
      "inputs": [
        {
          "internalType": "uint256",
          "name": "",
          "type": "uint256"
        }
      ],
      "name": "transactions",
      "outputs": [
        {
          "internalType": "address",
          "name": "destination",
          "type": "address"
        },
        {
          "internalType": "uint256",
          "name": "value",
          "type": "uint256"
        },
        {
          "internalType": "bytes",
          "name": "data",
          "type": "bytes"
        },
        {
          "internalType": "bool",
          "name": "executed",
          "type": "bool"
        }
      ],
      "stateMutability": "view",
      "type": "function"
    },
    {
      "inputs": [
        {
          "internalType": "uint256",
          "name": "_amount",
          "type": "uint256"
        }
      ],
      "name": "withdraw",
      "outputs": [],
      "stateMutability": "nonpayable",
      "type": "function"
    }
  ],
  "bytecode": "0x608060405260006006553480156200001657600080fd5b5060405162002c3b38038062002c3b83398101604081905262000039916200041b565b806002815181603282106200006b5760405162461bcd60e51b815260040162000062906200050b565b60405180910390fd5b8181106200008d5760405162461bcd60e51b8152600401620000629062000579565b80620000ad5760405162461bcd60e51b8152600401620000629062000542565b81620000cd5760405162461bcd60e51b8152600401620000629062000623565b60005b8451811015620002125760026000868381518110620000ff57634e487b7160e01b600052603260045260246000fd5b6020908102919091018101516001600160a01b031682528101919091526040016000205460ff1615620001465760405162461bcd60e51b81526004016200006290620005fb565b60006001600160a01b03168582815181106200017257634e487b7160e01b600052603260045260246000fd5b60200260200101516001600160a01b03161415620001a45760405162461bcd60e51b81526004016200006290620005c4565b600160026000878481518110620001cb57634e487b7160e01b600052603260045260246000fd5b6020908102919091018101516001600160a01b03168252810191909152604001600020805460ff1916911515919091179055806200020981620006c3565b915050620000d0565b508351620002289060039060208701906200026d565b50505060045550825162000244906007906020860190620002d7565b5050600980546001600160a01b0319166001600160a01b03929092169190911790555062000701565b828054828255906000526020600020908101928215620002c5579160200282015b82811115620002c557825182546001600160a01b0319166001600160a01b039091161782556020909201916001909101906200028e565b50620002d392915062000354565b5090565b828054620002e59062000686565b90600052602060002090601f016020900481019282620003095760008555620002c5565b82601f106200032457805160ff1916838001178555620002c5565b82800160010185558215620002c5579182015b82811115620002c557825182559160200191906001019062000337565b5b80821115620002d3576000815560010162000355565b80516001600160a01b03811681146200038357600080fd5b919050565b600082601f83011262000399578081fd5b815160206001600160401b03821115620003b757620003b7620006eb565b808202620003c78282016200065a565b838152828101908684018388018501891015620003e2578687fd5b8693505b858410156200040f57620003fa816200036b565b835260019390930192918401918401620003e6565b50979650505050505050565b60008060006060848603121562000430578283fd5b83516001600160401b038082111562000447578485fd5b818601915086601f8301126200045b578485fd5b815181811115620004705762000470620006eb565b602062000486601f8301601f191682016200065a565b82815289828487010111156200049a578788fd5b875b83811015620004b95785810183015182820184015282016200049c565b83811115620004ca57888385840101525b509650620004da8882016200036b565b955050506040860151915080821115620004f2578283fd5b50620005018682870162000388565b9150509250925092565b60208082526019908201527f6d617820206f776e657220636f756e7420657863656564656400000000000000604082015260600190565b60208082526019908201527f7a65726f207265717569726564206e6f7420616c6c6f77656400000000000000604082015260600190565b6020808252602b908201527f63616e277420686176652072657175697265642067726561746572207468616e60408201526a081bdddb995c90dbdd5b9d60aa1b606082015260800190565b60208082526018908201527f7a65726f2061646472657373206e6f7420616c6c6f7765640000000000000000604082015260600190565b6020808252600e908201526d39b7b6b29031b7b73234ba34b7b760911b604082015260600190565b60208082526016908201527f43616e27742068617665207a65726f206f776e65727300000000000000000000604082015260600190565b6040518181016001600160401b03811182821017156200067e576200067e620006eb565b604052919050565b6002810460018216806200069b57607f821691505b60208210811415620006bd57634e487b7160e01b600052602260045260246000fd5b50919050565b6000600019821415620006e457634e487b7160e01b81526011600452602481fd5b5060010190565b634e487b7160e01b600052604160045260246000fd5b61252a80620007116000396000f3fe6080604052600436106101a15760003560e01c80639ace38c2116100e1578063ba51a6df1161008a578063d74f8edd11610064578063d74f8edd146104d3578063dc8452cd146104e8578063e20056e6146104fd578063ee22610b1461051d576101a1565b8063ba51a6df14610473578063c01a8c8414610493578063c6427474146104b3576101a1565b8063b5dc40c3116100bb578063b5dc40c31461043e578063b6b55f2514610283578063b77bf6001461045e576101a1565b80639ace38c2146103bf578063a0e67e2b146103ef578063a8abe69a14610411576101a1565b80633411c81c1161014e5780637065cb48116101285780637065cb481461033f578063722f8ee21461035f578063784547a71461037f5780638b51d13f1461039f576101a1565b80633411c81c146102d0578063523ec1d0146102f05780635474152514610312576101a1565b806320ea8d861161017f57806320ea8d86146102635780632e1a7d4d146102835780632f54bf6e146102a3576101a1565b8063025e7c27146101eb57806306fdde0314610221578063173825d914610243575b34156101e957336001600160a01b03167fe1fffcc4923d04b559f4d29a8bfc6cda04eb5b0d3c460751c2402c5c5cc9109c346040516101e0919061240a565b60405180910390a25b005b3480156101f757600080fd5b5061020b610206366004611db7565b61053d565b6040516102189190611f84565b60405180910390f35b34801561022d57600080fd5b50610236610567565b6040516102189190612063565b34801561024f57600080fd5b506101e961025e366004611bcb565b6105f5565b34801561026f57600080fd5b506101e961027e366004611db7565b6107da565b34801561028f57600080fd5b506101e961029e366004611db7565b6108c9565b3480156102af57600080fd5b506102c36102be366004611bcb565b6108cc565b6040516102189190612058565b3480156102dc57600080fd5b506102c36102eb366004611dcf565b6108e1565b3480156102fc57600080fd5b50610305610901565b60405161021891906123a0565b34801561031e57600080fd5b5061033261032d366004611c7f565b610a64565b604051610218919061240a565b34801561034b57600080fd5b506101e961035a366004611bcb565b610ae1565b34801561036b57600080fd5b506101e961037a366004611ca8565b610c89565b34801561038b57600080fd5b506102c361039a366004611db7565b610d54565b3480156103ab57600080fd5b506103326103ba366004611db7565b610e04565b3480156103cb57600080fd5b506103df6103da366004611db7565b610e98565b6040516102189493929190611f98565b3480156103fb57600080fd5b50610404610f56565b6040516102189190611fd3565b34801561041d57600080fd5b5061043161042c366004611df1565b610fb8565b6040516102189190612020565b34801561044a57600080fd5b50610404610459366004611db7565b611196565b34801561046a57600080fd5b506103326113d0565b34801561047f57600080fd5b506101e961048e366004611db7565b6113d6565b34801561049f57600080fd5b506101e96104ae366004611db7565b6114b4565b3480156104bf57600080fd5b506103326104ce366004611c17565b6115b4565b3480156104df57600080fd5b506103326115d3565b3480156104f457600080fd5b506103326115d8565b34801561050957600080fd5b506101e9610518366004611be5565b6115de565b34801561052957600080fd5b506101e9610538366004611db7565b6117c6565b6003818154811061054d57600080fd5b6000918252602090912001546001600160a01b0316905081565b6007805461057490612478565b80601f01602080910402602001604051908101604052809291908181526020018280546105a090612478565b80156105ed5780601f106105c2576101008083540402835291602001916105ed565b820191906000526020600020905b8154815290600101906020018083116105d057829003601f168201915b505050505081565b33301461061d5760405162461bcd60e51b8152600401610614906121e6565b60405180910390fd5b6001600160a01b038116600090815260026020526040902054819060ff166106575760405162461bcd60e51b81526004016106149061227a565b6001600160a01b0382166000908152600260205260408120805460ff191690555b60035461068790600190612461565b81101561078157826001600160a01b0316600382815481106106b957634e487b7160e01b600052603260045260246000fd5b6000918252602090912001546001600160a01b0316141561076f57600380546106e490600190612461565b8154811061070257634e487b7160e01b600052603260045260246000fd5b600091825260209091200154600380546001600160a01b03909216918390811061073c57634e487b7160e01b600052603260045260246000fd5b9060005260206000200160006101000a8154816001600160a01b0302191690836001600160a01b03160217905550610781565b80610779816124ad565b915050610678565b50600380516000190181525460045411156107a2576003546107a2906113d6565b6040516001600160a01b038316907f8001553a916ef2f495d26a907cc54d96ed840d7bda71e73194bf5a9df7a76b9090600090a25050565b3360008181526002602052604090205460ff166108095760405162461bcd60e51b81526004016106149061227a565b60008281526001602090815260408083203380855292529091205483919060ff166108465760405162461bcd60e51b815260040161061490612152565b600084815260208190526040902060030154849060ff161561087a5760405162461bcd60e51b815260040161061490612356565b6000858152600160209081526040808320338085529252808320805460ff191690555187927ff6a317157440607f36269043eb55f1287a5a19ba2216afeab88cd46cbcfb88e991a35050505050565b50565b60026020526000908152604090205460ff1681565b600160209081526000928352604080842090915290825290205460ff1681565b610909611a1f565b6040805160088054602081810284018501855283018181529293919284929091849160009085015b82821015610a575783829060005260206000209060020201604051806040016040529081600082018054806020026020016040519081016040528092919081815260200182805480156109ad57602002820191906000526020600020905b81546001600160a01b0316815260019091019060200180831161098f575b505050505081526020016001820180546109c690612478565b80601f01602080910402602001604051908101604052809291908181526020018280546109f290612478565b8015610a3f5780601f10610a1457610100808354040283529160200191610a3f565b820191906000526020600020905b815481529060010190602001808311610a2257829003601f168201915b50505050508152505081526020019060010190610931565b5050505081525050905090565b6000805b600554811015610ada57838015610a91575060008181526020819052604090206003015460ff16155b80610ab55750828015610ab5575060008181526020819052604090206003015460ff165b15610ac857610ac5600183612449565b91505b80610ad2816124ad565b915050610a68565b5092915050565b333014610b005760405162461bcd60e51b8152600401610614906121e6565b6001600160a01b038116600090815260026020526040902054819060ff1615610b3b5760405162461bcd60e51b81526004016106149061211b565b816001600160a01b038116610b625760405162461bcd60e51b815260040161061490612076565b600354610b70906001612449565b60045460328210610b935760405162461bcd60e51b8152600401610614906120ad565b818110610bb25760405162461bcd60e51b815260040161061490612189565b80610bcf5760405162461bcd60e51b8152600401610614906120e4565b81610bec5760405162461bcd60e51b81526004016106149061231f565b6001600160a01b038516600081815260026020526040808220805460ff1916600190811790915560038054918201815583527fc2575a0e9e593c00f959f8c92f12db2869c3395a3b0502d05e2516446f71f85b01805473ffffffffffffffffffffffffffffffffffffffff191684179055517ff39e6e1eb0edcf53c221607b54b00cd28f3196fed0a24994dc308b8f611b682d9190a25050505050565b6009546001600160a01b03163314610cb35760405162461bcd60e51b81526004016106149061221d565b600880546001810182556000919091528151805183926002027ff3f7a9fe364faab93b216da50a3214154f22a0a2b415b23a84c8169e8b636ee30191610cfe91839160200190611a32565b506020828101518051610d179260018501920190611aa4565b5050507f1296b70fc9141190fd21db15fabe3f067aa5dc48f440e5cde726a311a8e2c18081604051610d49919061238d565b60405180910390a150565b600080805b600354811015610df85760008481526001602052604081206003805491929184908110610d9657634e487b7160e01b600052603260045260246000fd5b60009182526020808320909101546001600160a01b0316835282019290925260400190205460ff1615610dd157610dce600183612449565b91505b600454821415610de657600192505050610dff565b80610df0816124ad565b915050610d59565b5060009150505b919050565b6000805b600354811015610e925760008381526001602052604081206003805491929184908110610e4557634e487b7160e01b600052603260045260246000fd5b60009182526020808320909101546001600160a01b0316835282019290925260400190205460ff1615610e8057610e7d600183612449565b91505b80610e8a816124ad565b915050610e08565b50919050565b6000602081905290815260409020805460018201546002830180546001600160a01b03909316939192610eca90612478565b80601f0160208091040260200160405190810160405280929190818152602001828054610ef690612478565b8015610f435780601f10610f1857610100808354040283529160200191610f43565b820191906000526020600020905b815481529060010190602001808311610f2657829003601f168201915b5050506003909301549192505060ff1684565b60606003805480602002602001604051908101604052809291908181526020018280548015610fae57602002820191906000526020600020905b81546001600160a01b03168152600190910190602001808311610f90575b5050505050905090565b6060600060055467ffffffffffffffff811115610fe557634e487b7160e01b600052604160045260246000fd5b60405190808252806020026020018201604052801561100e578160200160208202803683370190505b5090506000805b6005548110156110b35785801561103e575060008181526020819052604090206003015460ff16155b806110625750848015611062575060008181526020819052604090206003015460ff165b156110a1578083838151811061108857634e487b7160e01b600052603260045260246000fd5b602090810291909101015261109e600183612449565b91505b806110ab816124ad565b915050611015565b6110bd8888612461565b67ffffffffffffffff8111156110e357634e487b7160e01b600052604160045260246000fd5b60405190808252806020026020018201604052801561110c578160200160208202803683370190505b5093508790505b8681101561118b5782818151811061113b57634e487b7160e01b600052603260045260246000fd5b60200260200101518489836111509190612461565b8151811061116e57634e487b7160e01b600052603260045260246000fd5b602090810291909101015280611183816124ad565b915050611113565b505050949350505050565b60035460609060009067ffffffffffffffff8111156111c557634e487b7160e01b600052604160045260246000fd5b6040519080825280602002602001820160405280156111ee578160200160208202803683370190505b5090506000805b6003548110156112f6576000858152600160205260408120600380549192918490811061123257634e487b7160e01b600052603260045260246000fd5b60009182526020808320909101546001600160a01b0316835282019290925260400190205460ff16156112e4576003818154811061128057634e487b7160e01b600052603260045260246000fd5b9060005260206000200160009054906101000a90046001600160a01b03168383815181106112be57634e487b7160e01b600052603260045260246000fd5b6001600160a01b03909216602092830291909101909101526112e1600183612449565b91505b806112ee816124ad565b9150506111f5565b8167ffffffffffffffff81111561131d57634e487b7160e01b600052604160045260246000fd5b604051908082528060200260200182016040528015611346578160200160208202803683370190505b509350600090505b818110156113c85782818151811061137657634e487b7160e01b600052603260045260246000fd5b602002602001015184828151811061139e57634e487b7160e01b600052603260045260246000fd5b6001600160a01b0390921660209283029190910190910152806113c0816124ad565b91505061134e565b505050919050565b60055481565b3330146113f55760405162461bcd60e51b8152600401610614906121e6565b60035481603282106114195760405162461bcd60e51b8152600401610614906120ad565b8181106114385760405162461bcd60e51b815260040161061490612189565b806114555760405162461bcd60e51b8152600401610614906120e4565b816114725760405162461bcd60e51b81526004016106149061231f565b60048390556040517fa3f1ee9126a074d9326c682f561767f710e927faa811f7a99829d49dc421797a906114a790859061240a565b60405180910390a1505050565b3360008181526002602052604090205460ff166114e35760405162461bcd60e51b81526004016106149061227a565b60008281526020819052604090205482906001600160a01b03166115195760405162461bcd60e51b8152600401610614906122e8565b60008381526001602090815260408083203380855292529091205484919060ff16156115575760405162461bcd60e51b8152600401610614906122b1565b6000858152600160208181526040808420338086529252808420805460ff1916909317909255905187927f4a504a94899432a9846e1aa406dceb1bcfd538bb839071d49d1e5e23f5be30ef91a36115ad856117c6565b5050505050565b60006115c184848461190c565b90506115cc816114b4565b9392505050565b603281565b60045481565b3330146115fd5760405162461bcd60e51b8152600401610614906121e6565b6001600160a01b038216600090815260026020526040902054829060ff166116375760405162461bcd60e51b81526004016106149061227a565b6001600160a01b038216600090815260026020526040902054829060ff16156116725760405162461bcd60e51b81526004016106149061211b565b60005b60035481101561172c57846001600160a01b0316600382815481106116aa57634e487b7160e01b600052603260045260246000fd5b6000918252602090912001546001600160a01b0316141561171a5783600382815481106116e757634e487b7160e01b600052603260045260246000fd5b9060005260206000200160006101000a8154816001600160a01b0302191690836001600160a01b0316021790555061172c565b80611724816124ad565b915050611675565b506001600160a01b03808516600081815260026020526040808220805460ff1990811690915593871682528082208054909416600117909355915190917f8001553a916ef2f495d26a907cc54d96ed840d7bda71e73194bf5a9df7a76b9091a26040516001600160a01b038416907ff39e6e1eb0edcf53c221607b54b00cd28f3196fed0a24994dc308b8f611b682d90600090a250505050565b600081815260208190526040902060030154819060ff16156117fa5760405162461bcd60e51b815260040161061490612356565b61180382610d54565b156119085760008281526020819052604080822060038101805460ff1916600190811790915581549082015492519193926060926001600160a01b0390921691611851906002870190611ee9565b60006040518083038185875af1925050503d806000811461188e576040519150601f19603f3d011682016040523d82523d6000602084013e611893565b606091505b50909250905081156118cf5760405185907f33e13ecb54c3076d8e8bb8c2881800a4d972b792045ffae98fdf46df365fed7590600090a26115ad565b60405185907f526441bb6c1aba3c9a4a6ca1d6545da9c2333c8c48343ef398eb858d72b7923690600090a25050600301805460ff191690555b5050565b6000836001600160a01b0381166119355760405162461bcd60e51b815260040161061490612076565b600554604080516080810182526001600160a01b0388811682526020808301898152838501898152600060608601819052878152808452959095208451815473ffffffffffffffffffffffffffffffffffffffff1916941693909317835551600183015592518051949650919390926119b5926002850192910190611aa4565b50606091909101516003909101805460ff191691151591909117905560058054600191906000906119e7908490612449565b909155505060405182907fc0ba8fe4b176c1714197d43b9cc6bcf797a4a7461c5fe8d0ef6e184ae7601e5190600090a2509392505050565b6040518060200160405280606081525090565b828054828255906000526020600020908101928215611a94579160200282015b82811115611a94578251825473ffffffffffffffffffffffffffffffffffffffff19166001600160a01b03909116178255602090920191600190910190611a52565b50611aa0929150611b18565b5090565b828054611ab090612478565b90600052602060002090601f016020900481019282611ad25760008555611a94565b82601f10611aeb57805160ff1916838001178555611a94565b82800160010185558215611a94579182015b82811115611a94578251825591602001919060010190611afd565b5b80821115611aa05760008155600101611b19565b600067ffffffffffffffff831115611b4757611b476124de565b611b5a601f8401601f1916602001612413565b9050828152838383011115611b6e57600080fd5b828260208301376000602084830101529392505050565b80356001600160a01b0381168114610dff57600080fd5b80358015158114610dff57600080fd5b600082601f830112611bbc578081fd5b6115cc83833560208501611b2d565b600060208284031215611bdc578081fd5b6115cc82611b85565b60008060408385031215611bf7578081fd5b611c0083611b85565b9150611c0e60208401611b85565b90509250929050565b600080600060608486031215611c2b578081fd5b611c3484611b85565b925060208401359150604084013567ffffffffffffffff811115611c56578182fd5b8401601f81018613611c66578182fd5b611c7586823560208401611b2d565b9150509250925092565b60008060408385031215611c91578182fd5b611c9a83611b9c565b9150611c0e60208401611b9c565b60006020808385031215611cba578182fd5b823567ffffffffffffffff80821115611cd1578384fd5b9084019060408287031215611ce4578384fd5b604051604081018181108382111715611cff57611cff6124de565b604052823582811115611d10578586fd5b8301601f81018813611d20578586fd5b803583811115611d3257611d326124de565b858102611d40878201612413565b828152878101908489018386018a018d1015611d5a578a8bfd5b8a95505b84861015611d8357611d6f81611b85565b835260019590950194918901918901611d5e565b508552505050508284013582811115611d9a578586fd5b611da688828601611bac565b948201949094529695505050505050565b600060208284031215611dc8578081fd5b5035919050565b60008060408385031215611de1578182fd5b82359150611c0e60208401611b85565b60008060008060808587031215611e06578081fd5b8435935060208501359250611e1d60408601611b9c565b9150611e2b60608601611b9c565b905092959194509250565b60008151808452815b81811015611e5b57602081850181015186830182015201611e3f565b81811115611e6c5782602083870101525b50601f01601f19169290920160200192915050565b805160408084528151908401819052600091602091908201906060860190845b81811015611ec65783516001600160a01b031683529284019291840191600101611ea1565b505082850151915085810383870152611edf8183611e36565b9695505050505050565b8154600090819060028104600180831680611f0557607f831692505b6020808410821415611f2557634e487b7160e01b87526022600452602487fd5b818015611f395760018114611f4a57611f76565b60ff19861689528489019650611f76565b611f538a61243d565b885b86811015611f6e5781548b820152908501908301611f55565b505084890196505b509498975050505050505050565b6001600160a01b0391909116815260200190565b60006001600160a01b038616825284602083015260806040830152611fc06080830185611e36565b9050821515606083015295945050505050565b6020808252825182820181905260009190848201906040850190845b818110156120145783516001600160a01b031683529284019291840191600101611fef565b50909695505050505050565b6020808252825182820181905260009190848201906040850190845b818110156120145783518352928401929184019160010161203c565b901515815260200190565b6000602082526115cc6020830184611e36565b60208082526017908201527f726571757265206e6f74206e756c6c2061646472657373000000000000000000604082015260600190565b60208082526019908201527f6d617820206f776e657220636f756e7420657863656564656400000000000000604082015260600190565b60208082526019908201527f7a65726f207265717569726564206e6f7420616c6c6f77656400000000000000604082015260600190565b60208082526015908201527f4f776e65722073686f756c646e27742065786973740000000000000000000000604082015260600190565b6020808252600d908201527f6e6f7420636f6e6669726d656400000000000000000000000000000000000000604082015260600190565b6020808252602b908201527f63616e277420686176652072657175697265642067726561746572207468616e60408201527f206f776e6572436f756e74000000000000000000000000000000000000000000606082015260800190565b60208082526013908201527f4f6e6c792077616c6c657420616c6c6f77656400000000000000000000000000604082015260600190565b60208082526021908201527f4f6e6c7920476f7665726e656e636520616c6c6f776564206f7065726174696f60408201527f6e00000000000000000000000000000000000000000000000000000000000000606082015260800190565b60208082526013908201527f4f776e657220646f65736e277420657869737400000000000000000000000000604082015260600190565b60208082526009908201527f636f6e6669726d65640000000000000000000000000000000000000000000000604082015260600190565b60208082526016908201527f7472616e736374696f6e20697320706f737369626c6500000000000000000000604082015260600190565b60208082526016908201527f43616e27742068617665207a65726f206f776e65727300000000000000000000604082015260600190565b60208082526019908201527f68617320616c7265616479206265656e20657865637574656400000000000000604082015260600190565b6000602082526115cc6020830184611e81565b600060208083526040830184518283860152818151808452606087019150606085820288010193508483019250855b818110156123fd57605f198886030183526123eb858551611e81565b945092850192918501916001016123cf565b5092979650505050505050565b90815260200190565b60405181810167ffffffffffffffff81118282101715612435576124356124de565b604052919050565b60009081526020902090565b6000821982111561245c5761245c6124c8565b500190565b600082821015612473576124736124c8565b500390565b60028104600182168061248c57607f821691505b60208210811415610e9257634e487b7160e01b600052602260045260246000fd5b60006000198214156124c1576124c16124c8565b5060010190565b634e487b7160e01b600052601160045260246000fd5b634e487b7160e01b600052604160045260246000fdfea2646970667358221220408154328a873a876e6afb2a29ee6576b389dc135492b6672d1b31da41fafd4164736f6c63430008000033",
  "linkReferences": {},
  "deployedLinkReferences": {}
}