{
  "_format": "hh-sol-artifact-1",
  "contractName": "PoolFactory",
  "sourceName": "contracts/PoolFactory.sol",
  "abi": [
    {
      "inputs": [
        {
          "internalType": "address",
          "name": "_stkToken",
          "type": "address"
        },
        {
          "internalType": "address",
          "name": "_goverence",
          "type": "address"
        }
      ],
      "stateMutability": "nonpayable",
      "type": "constructor"
    },
    {
      "inputs": [
        {
          "internalType": "string",
          "name": "name",
          "type": "string"
        },
        {
          "internalType": "address[]",
          "name": "admins",
          "type": "address[]"
        }
      ],
      "name": "createPool",
      "outputs": [
        {
          "internalType": "contract Pool",
          "name": "",
          "type": "address"
        }
      ],
      "stateMutability": "nonpayable",
      "type": "function"
    },
    {
      "inputs": [],
      "name": "getMinStakeAmount",
      "outputs": [
        {
          "internalType": "uint256",
          "name": "",
          "type": "uint256"
        }
      ],
      "stateMutability": "view",
      "type": "function"
    },
    {
      "inputs": [],
      "name": "getNumPools",
      "outputs": [
        {
          "internalType": "uint256",
          "name": "",
          "type": "uint256"
        }
      ],
      "stateMutability": "view",
      "type": "function"
    },
    {
      "inputs": [],
      "name": "listPools",
      "outputs": [
        {
          "internalType": "contract Pool[]",
          "name": "",
          "type": "address[]"
        }
      ],
      "stateMutability": "view",
      "type": "function"
    },
    {
      "inputs": [
        {
          "internalType": "uint256",
          "name": "",
          "type": "uint256"
        }
      ],
      "name": "pools",
      "outputs": [
        {
          "internalType": "contract Pool",
          "name": "",
          "type": "address"
        }
      ],
      "stateMutability": "view",
      "type": "function"
    }
  ],
  "bytecode": "0x6080604052683635c9adc5dea0000060035534801561001d57600080fd5b5060405161618038038061618083398101604081905261003c91610089565b600180546001600160a01b039384166001600160a01b031991821617909155600280549290931691161790556100bb565b80516001600160a01b038116811461008457600080fd5b919050565b6000806040838503121561009b578182fd5b6100a48361006d565b91506100b26020840161006d565b90509250929050565b6160b6806100ca6000396000f3fe60806040523480156200001157600080fd5b5060043610620000705760003560e01c80636879586211620000575780636879586214620000a1578063ac4afa3814620000ba578063df48bbda14620000e05762000070565b80633c7e19811462000075578063527cb1d71462000097575b600080fd5b6200007f620000f7565b6040516200008e919062000799565b60405180910390f35b6200007f620000fd565b620000ab62000103565b6040516200008e919062000642565b620000d1620000cb36600462000540565b62000167565b6040516200008e91906200062e565b620000d1620000f136600462000485565b62000192565b60005490565b60035490565b606060008054806020026020016040519081016040528092919081815260200182805480156200015d57602002820191906000526020600020905b81546001600160a01b031681526001909101906020018083116200013e575b5050505050905090565b600081815481106200017857600080fd5b6000918252602090912001546001600160a01b0316905081565b6001546040517f70a0823100000000000000000000000000000000000000000000000000000000815260009182916001600160a01b03909116906370a0823190620001e29033906004016200062e565b60206040518083038186803b158015620001fb57600080fd5b505afa15801562000210573d6000803e3d6000fd5b505050506040513d601f19601f8201168201806040525081019062000236919062000559565b905060035481101562000280576040517f08c379a000000000000000000000000000000000000000000000000000000000815260040162000277906200073c565b60405180910390fd5b600084604051602001620002959190620005e7565b6040516020818303038152906040529050600085604051602001620002bb9190620005a0565b604051602081830303815290604052905060008282604051620002de90620003c9565b620002eb9291906200070a565b604051809103906000f08015801562000308573d6000803e3d6000fd5b5060025460405191925060009189916001600160a01b031690899085906200033090620003d7565b6200033f949392919062000691565b604051809103906000f0801580156200035c573d6000803e3d6000fd5b50600080546001810182559080527f290decd9548b62a8d60345a988386fc84ba6bc95484008f6362f93160ef3e5630180547fffffffffffffffffffffffff0000000000000000000000000000000000000000166001600160a01b03831617905598975050505050505050565b6123fe806200083283390190565b6134518062002c3083390190565b600082601f830112620003f6578081fd5b8135602067ffffffffffffffff82111562000415576200041562000802565b80820262000425828201620007a2565b83815282810190868401838801850189101562000440578687fd5b8693505b85841015620004795780356001600160a01b038116811462000464578788fd5b83526001939093019291840191840162000444565b50979650505050505050565b6000806040838503121562000498578182fd5b823567ffffffffffffffff80821115620004b0578384fd5b818501915085601f830112620004c4578384fd5b8135602082821115620004db57620004db62000802565b620004ef601f8301601f19168201620007a2565b828152888284870101111562000503578687fd5b82828601838301379182018101959095529385013591508082111562000527578283fd5b506200053685828601620003e5565b9150509250929050565b60006020828403121562000552578081fd5b5035919050565b6000602082840312156200056b578081fd5b5051919050565b600081518084526200058c816020860160208601620007cf565b601f01601f19169290920160200192915050565b60007f4b4f4c4f2d00000000000000000000000000000000000000000000000000000082528251620005da816005850160208701620007cf565b9190910160050192915050565b60007f4b6f6c6f546f6b656e2d00000000000000000000000000000000000000000000825282516200062181600a850160208701620007cf565b91909101600a0192915050565b6001600160a01b0391909116815260200190565b6020808252825182820181905260009190848201906040850190845b81811015620006855783516001600160a01b0316835292840192918401916001016200065e565b50909695505050505050565b600060808252620006a6608083018762000572565b60206001600160a01b0380881682860152848303604086015282875180855283850191508389019450855b81811015620006f1578551841683529484019491840191600101620006d1565b5050951660609490940193909352509195945050505050565b6000604082526200071f604083018562000572565b828103602084015262000733818562000572565b95945050505050565b6020808252602a908201527f496e73756666696369656e74207374616b65642062616c616e636520746f206360408201527f726561746520706f6f6c00000000000000000000000000000000000000000000606082015260800190565b90815260200190565b60405181810167ffffffffffffffff81118282101715620007c757620007c762000802565b604052919050565b60005b83811015620007ec578181015183820152602001620007d2565b83811115620007fc576000848401525b50505050565b7f4e487b7100000000000000000000000000000000000000000000000000000000600052604160045260246000fdfe60806040523480156200001157600080fd5b50604051620023fe380380620023fe8339810160408190526200003491620003d3565b8181818181600590805190602001906200005092919062000282565b5080516200006690600690602084019062000282565b50506007805460ff191690555062000089600062000083620000f1565b620000f5565b620000b87f9f2df0fed2c77648de5860a4cc508cd0818c85b8b8a1ab4ceeef8d981c8956a662000083620000f1565b620000e77f65d7a28e3265b37a6474929f336521b332c1681b933f6cb9f3376673440d862a62000083620000f1565b505050506200048d565b3390565b6200010c82826200013860201b62000a531760201c565b60008281526001602090815260409091206200013391839062000a5d62000148821b17901c565b505050565b62000144828262000168565b5050565b60006200015f836001600160a01b038416620001f2565b90505b92915050565b62000174828262000241565b62000144576000828152602081815260408083206001600160a01b03851684529091529020805460ff19166001179055620001ae620000f1565b6001600160a01b0316816001600160a01b0316837f2f8788117e7eff1d82e926ec794901d17c78024a50270940304540a733656f0d60405160405180910390a45050565b60006200020083836200026a565b620002385750815460018181018455600084815260208082209093018490558454848252828601909352604090209190915562000162565b50600062000162565b6000918252602082815260408084206001600160a01b0393909316845291905290205460ff1690565b60009081526001919091016020526040902054151590565b82805462000290906200043a565b90600052602060002090601f016020900481019282620002b45760008555620002ff565b82601f10620002cf57805160ff1916838001178555620002ff565b82800160010185558215620002ff579182015b82811115620002ff578251825591602001919060010190620002e2565b506200030d92915062000311565b5090565b5b808211156200030d576000815560010162000312565b600082601f83011262000339578081fd5b81516001600160401b038082111562000356576200035662000477565b6040516020601f8401601f19168201810183811183821017156200037e576200037e62000477565b604052838252858401810187101562000395578485fd5b8492505b83831015620003b8578583018101518284018201529182019162000399565b83831115620003c957848185840101525b5095945050505050565b60008060408385031215620003e6578182fd5b82516001600160401b0380821115620003fd578384fd5b6200040b8683870162000328565b9350602085015191508082111562000421578283fd5b50620004308582860162000328565b9150509250929050565b6002810460018216806200044f57607f821691505b602082108114156200047157634e487b7160e01b600052602260045260246000fd5b50919050565b634e487b7160e01b600052604160045260246000fd5b611f61806200049d6000396000f3fe608060405234801561001057600080fd5b50600436106101f05760003560e01c806370a082311161010f578063a457c2d7116100a2578063d539139311610071578063d5391393146103f2578063d547741f146103fa578063dd62ed3e1461040d578063e63ab1e914610420576101f0565b8063a457c2d7146103a6578063a9059cbb146103b9578063ca15c873146103cc578063cc6e1237146103df576101f0565b80639010d07c116100de5780639010d07c1461036357806391d148541461038357806395d89b4114610396578063a217fddf1461039e576101f0565b806370a082311461032d57806375b238fc1461034057806379cc6790146103485780638456cb591461035b576101f0565b8063313ce5671161018757806340c10f191161015657806340c10f19146102ec57806342966c68146102ff5780634adc7cfd146103125780635c975abb14610325576101f0565b8063313ce567146102a957806336568abe146102be57806339509351146102d15780633f4ba83a146102e4576101f0565b806318160ddd116101c357806318160ddd1461025b57806323b872dd14610270578063248a9ca3146102835780632f2ff15d14610296576101f0565b806301ffc9a7146101f557806306fdde031461021e578063095ea7b31461023357806317fc336d14610246575b600080fd5b61020861020336600461167c565b610428565b6040516102159190611739565b60405180910390f35b61022661046e565b604051610215919061174d565b6102086102413660046115f8565b610500565b6102596102543660046115f8565b61051e565b005b61026361057b565b6040516102159190611744565b61020861027e3660046115bd565b610581565b610263610291366004611621565b610611565b6102596102a4366004611639565b610626565b6102b161064d565b6040516102159190611e3b565b6102596102cc366004611639565b610652565b6102086102df3660046115f8565b610674565b6102596106c8565b6102596102fa3660046115f8565b61071a565b61025961030d366004611621565b61076c565b610259610320366004611571565b610780565b6102086107aa565b61026361033b366004611571565b6107b3565b6102636107ce565b6102596103563660046115f8565b6107f2565b610259610840565b61037661037136600461165b565b610890565b6040516102159190611725565b610208610391366004611639565b6108af565b6102266108d8565b6102636108e7565b6102086103b43660046115f8565b6108ec565b6102086103c73660046115f8565b610965565b6102636103da366004611621565b610979565b6102596103ed3660046115f8565b610990565b6102636109d6565b610259610408366004611639565b6109fa565b61026361041b36600461158b565b610a04565b610263610a2f565b60006001600160e01b031982167f5a05180f000000000000000000000000000000000000000000000000000000001480610466575061046682610a72565b90505b919050565b60606005805461047d90611eda565b80601f01602080910402602001604051908101604052809291908181526020018280546104a990611eda565b80156104f65780601f106104cb576101008083540402835291602001916104f6565b820191906000526020600020905b8154815290600101906020018083116104d957829003601f168201915b5050505050905090565b600061051461050d610ab0565b8484610ab4565b5060015b92915050565b6105487fa49807205ce4d355092ef5a8a18f56e8913cf4a201fbe287825b095693c21775336108af565b61056d5760405162461bcd60e51b815260040161056490611780565b60405180910390fd5b61057782826107f2565b5050565b60045490565b600061058e848484610b68565b6001600160a01b0384166000908152600360205260408120816105af610ab0565b6001600160a01b03166001600160a01b03168152602001908152602001600020549050828110156105f25760405162461bcd60e51b815260040161056490611a2b565b610606856105fe610ab0565b858403610ab4565b506001949350505050565b60009081526020819052604090206001015490565b6106308282610c92565b60008281526001602052604090206106489082610a5d565b505050565b601290565b61065c8282610cb6565b60008281526001602052604090206106489082610cf8565b6000610514610681610ab0565b84846003600061068f610ab0565b6001600160a01b03908116825260208083019390935260409182016000908120918b16815292529020546106c39190611e49565b610ab4565b6106f47f65d7a28e3265b37a6474929f336521b332c1681b933f6cb9f3376673440d862a610391610ab0565b6107105760405162461bcd60e51b8152600401610564906118dd565b610718610d0d565b565b6107467f9f2df0fed2c77648de5860a4cc508cd0818c85b8b8a1ab4ceeef8d981c8956a6610391610ab0565b6107625760405162461bcd60e51b815260040161056490611a88565b6105778282610d7b565b61077d610777610ab0565b82610e43565b50565b61077d7fa49807205ce4d355092ef5a8a18f56e8913cf4a201fbe287825b095693c2177582610f34565b60075460ff1690565b6001600160a01b031660009081526002602052604090205490565b7fa49807205ce4d355092ef5a8a18f56e8913cf4a201fbe287825b095693c2177581565b60006108008361041b610ab0565b9050818110156108225760405162461bcd60e51b815260040161056490611ae5565b6108368361082e610ab0565b848403610ab4565b6106488383610e43565b61086c7f65d7a28e3265b37a6474929f336521b332c1681b933f6cb9f3376673440d862a610391610ab0565b6108885760405162461bcd60e51b815260040161056490611c59565b610718610f3e565b60008281526001602052604081206108a89083610f99565b9392505050565b6000918252602082815260408084206001600160a01b0393909316845291905290205460ff1690565b60606006805461047d90611eda565b600081565b600080600360006108fb610ab0565b6001600160a01b03908116825260208083019390935260409182016000908120918816815292529020549050828110156109475760405162461bcd60e51b815260040161056490611ced565b61095b610952610ab0565b85858403610ab4565b5060019392505050565b6000610514610972610ab0565b8484610b68565b600081815260016020526040812061046690610fa5565b6109ba7fa49807205ce4d355092ef5a8a18f56e8913cf4a201fbe287825b095693c21775336108af565b6107625760405162461bcd60e51b815260040161056490611cb6565b7f9f2df0fed2c77648de5860a4cc508cd0818c85b8b8a1ab4ceeef8d981c8956a681565b61065c8282610fb0565b6001600160a01b03918216600090815260036020908152604080832093909416825291909152205490565b7f65d7a28e3265b37a6474929f336521b332c1681b933f6cb9f3376673440d862a81565b6105778282610fcf565b60006108a8836001600160a01b038416611054565b60006001600160e01b031982167f7965db0b00000000000000000000000000000000000000000000000000000000148061046657506104668261109e565b3390565b6001600160a01b038316610ada5760405162461bcd60e51b815260040161056490611bfc565b6001600160a01b038216610b005760405162461bcd60e51b81526004016105649061193a565b6001600160a01b0380841660008181526003602090815260408083209487168084529490915290819020849055517f8c5be1e5ebec7d5bd14f71427d1e84f3dd0314c0f7b2291e5b200ac8c7c3b92590610b5b908590611744565b60405180910390a3505050565b6001600160a01b038316610b8e5760405162461bcd60e51b815260040161056490611b9f565b6001600160a01b038216610bb45760405162461bcd60e51b8152600401610564906117ec565b610bbf8383836110d0565b6001600160a01b03831660009081526002602052604090205481811015610bf85760405162461bcd60e51b815260040161056490611997565b6001600160a01b03808516600090815260026020526040808220858503905591851681529081208054849290610c2f908490611e49565b92505081905550826001600160a01b0316846001600160a01b03167fddf252ad1be2c89b69c2b068fc378daa952ba7f163c4a11628f55a4df523b3ef84604051610c799190611744565b60405180910390a3610c8c848484610648565b50505050565b610c9b82610611565b610cac81610ca7610ab0565b6110db565b6106488383610fcf565b610cbe610ab0565b6001600160a01b0316816001600160a01b031614610cee5760405162461bcd60e51b815260040161056490611d4a565b610577828261113f565b60006108a8836001600160a01b0384166111c2565b610d156107aa565b610d315760405162461bcd60e51b815260040161056490611849565b6007805460ff191690557f5db9ee0a495bf2e6ff9c91a7834c1ba4fdd244a5e8aa4e537bd38aeae4b073aa610d64610ab0565b604051610d719190611725565b60405180910390a1565b6001600160a01b038216610da15760405162461bcd60e51b815260040161056490611da7565b610dad600083836110d0565b8060046000828254610dbf9190611e49565b90915550506001600160a01b03821660009081526002602052604081208054839290610dec908490611e49565b90915550506040516001600160a01b038316906000907fddf252ad1be2c89b69c2b068fc378daa952ba7f163c4a11628f55a4df523b3ef90610e2f908590611744565b60405180910390a361057760008383610648565b6001600160a01b038216610e695760405162461bcd60e51b815260040161056490611b42565b610e75826000836110d0565b6001600160a01b03821660009081526002602052604090205481811015610eae5760405162461bcd60e51b815260040161056490611880565b6001600160a01b0383166000908152600260205260408120838303905560048054849290610edd908490611e80565b90915550506040516000906001600160a01b038516907fddf252ad1be2c89b69c2b068fc378daa952ba7f163c4a11628f55a4df523b3ef90610f20908690611744565b60405180910390a361064883600084610648565b6106308282610a53565b610f466107aa565b15610f635760405162461bcd60e51b8152600401610564906119f4565b6007805460ff191660011790557f62e78cea01bee320cd4e420270b5ea74000d11b0c9f74754ebdbfc544b05a258610d64610ab0565b60006108a883836112df565b600061046682611317565b610fb982610611565b610fc581610ca7610ab0565b610648838361113f565b610fd982826108af565b610577576000828152602081815260408083206001600160a01b03851684529091529020805460ff19166001179055611010610ab0565b6001600160a01b0316816001600160a01b0316837f2f8788117e7eff1d82e926ec794901d17c78024a50270940304540a733656f0d60405160405180910390a45050565b6000611060838361131b565b61109657508154600181810184556000848152602080822090930184905584548482528286019093526040902091909155610518565b506000610518565b6001600160e01b031981167f01ffc9a70000000000000000000000000000000000000000000000000000000014919050565b610648838383611333565b6110e582826108af565b610577576110fd816001600160a01b03166014611363565b611108836020611363565b6040516020016111199291906116a4565b60408051601f198184030181529082905262461bcd60e51b82526105649160040161174d565b61114982826108af565b15610577576000828152602081815260408083206001600160a01b03851684529091529020805460ff1916905561117e610ab0565b6001600160a01b0316816001600160a01b0316837ff6391f5c32d9c69d2a47ea670b442974b53935d1edc7fd64eb21e047a839171b60405160405180910390a45050565b600081815260018301602052604081205480156112d55760006111e6600183611e80565b85549091506000906111fa90600190611e80565b905081811461127b57600086600001828154811061122857634e487b7160e01b600052603260045260246000fd5b906000526020600020015490508087600001848154811061125957634e487b7160e01b600052603260045260246000fd5b6000918252602080832090910192909255918252600188019052604090208390555b855486908061129a57634e487b7160e01b600052603160045260246000fd5b600190038181906000526020600020016000905590558560010160008681526020019081526020016000206000905560019350505050610518565b6000915050610518565b600082600001828154811061130457634e487b7160e01b600052603260045260246000fd5b9060005260206000200154905092915050565b5490565b60009081526001919091016020526040902054151590565b61133e838383610648565b6113466107aa565b156106485760405162461bcd60e51b815260040161056490611dde565b60606000611372836002611e61565b61137d906002611e49565b67ffffffffffffffff8111156113a357634e487b7160e01b600052604160045260246000fd5b6040519080825280601f01601f1916602001820160405280156113cd576020820181803683370190505b5090507f30000000000000000000000000000000000000000000000000000000000000008160008151811061141257634e487b7160e01b600052603260045260246000fd5b60200101906001600160f81b031916908160001a9053507f78000000000000000000000000000000000000000000000000000000000000008160018151811061146b57634e487b7160e01b600052603260045260246000fd5b60200101906001600160f81b031916908160001a905350600061148f846002611e61565b61149a906001611e49565b90505b600181111561153b577f303132333435363738396162636465660000000000000000000000000000000085600f16601081106114e957634e487b7160e01b600052603260045260246000fd5b1a60f81b82828151811061150d57634e487b7160e01b600052603260045260246000fd5b60200101906001600160f81b031916908160001a90535060049490941c9361153481611ec3565b905061149d565b5083156108a85760405162461bcd60e51b8152600401610564906117b7565b80356001600160a01b038116811461046957600080fd5b600060208284031215611582578081fd5b6108a88261155a565b6000806040838503121561159d578081fd5b6115a68361155a565b91506115b46020840161155a565b90509250929050565b6000806000606084860312156115d1578081fd5b6115da8461155a565b92506115e86020850161155a565b9150604084013590509250925092565b6000806040838503121561160a578182fd5b6116138361155a565b946020939093013593505050565b600060208284031215611632578081fd5b5035919050565b6000806040838503121561164b578182fd5b823591506115b46020840161155a565b6000806040838503121561166d578182fd5b50508035926020909101359150565b60006020828403121561168d578081fd5b81356001600160e01b0319811681146108a8578182fd5b60007f416363657373436f6e74726f6c3a206163636f756e7420000000000000000000825283516116dc816017850160208801611e97565b7f206973206d697373696e6720726f6c65200000000000000000000000000000006017918401918201528351611719816028840160208801611e97565b01602801949350505050565b6001600160a01b0391909116815260200190565b901515815260200190565b90815260200190565b600060208252825180602084015261176c816040850160208701611e97565b601f01601f19169190910160400192915050565b6020808252601d908201527f4d75737420686176652041444d494e20726f6c6520746f206275726e2e000000604082015260600190565b6020808252818101527f537472696e67733a20686578206c656e67746820696e73756666696369656e74604082015260600190565b60208082526023908201527f45524332303a207472616e7366657220746f20746865207a65726f206164647260408201527f6573730000000000000000000000000000000000000000000000000000000000606082015260800190565b60208082526014908201527f5061757361626c653a206e6f7420706175736564000000000000000000000000604082015260600190565b60208082526022908201527f45524332303a206275726e20616d6f756e7420657863656564732062616c616e60408201527f6365000000000000000000000000000000000000000000000000000000000000606082015260800190565b60208082526039908201527f45524332305072657365744d696e7465725061757365723a206d75737420686160408201527f76652070617573657220726f6c6520746f20756e706175736500000000000000606082015260800190565b60208082526022908201527f45524332303a20617070726f766520746f20746865207a65726f20616464726560408201527f7373000000000000000000000000000000000000000000000000000000000000606082015260800190565b60208082526026908201527f45524332303a207472616e7366657220616d6f756e742065786365656473206260408201527f616c616e63650000000000000000000000000000000000000000000000000000606082015260800190565b60208082526010908201527f5061757361626c653a2070617573656400000000000000000000000000000000604082015260600190565b60208082526028908201527f45524332303a207472616e7366657220616d6f756e742065786365656473206160408201527f6c6c6f77616e6365000000000000000000000000000000000000000000000000606082015260800190565b60208082526036908201527f45524332305072657365744d696e7465725061757365723a206d75737420686160408201527f7665206d696e74657220726f6c6520746f206d696e7400000000000000000000606082015260800190565b60208082526024908201527f45524332303a206275726e20616d6f756e74206578636565647320616c6c6f7760408201527f616e636500000000000000000000000000000000000000000000000000000000606082015260800190565b60208082526021908201527f45524332303a206275726e2066726f6d20746865207a65726f2061646472657360408201527f7300000000000000000000000000000000000000000000000000000000000000606082015260800190565b60208082526025908201527f45524332303a207472616e736665722066726f6d20746865207a65726f20616460408201527f6472657373000000000000000000000000000000000000000000000000000000606082015260800190565b60208082526024908201527f45524332303a20617070726f76652066726f6d20746865207a65726f2061646460408201527f7265737300000000000000000000000000000000000000000000000000000000606082015260800190565b60208082526037908201527f45524332305072657365744d696e7465725061757365723a206d75737420686160408201527f76652070617573657220726f6c6520746f207061757365000000000000000000606082015260800190565b6020808252601d908201527f4d75737420686176652041444d494e20726f6c6520746f206d696e742e000000604082015260600190565b60208082526025908201527f45524332303a2064656372656173656420616c6c6f77616e63652062656c6f7760408201527f207a65726f000000000000000000000000000000000000000000000000000000606082015260800190565b6020808252602f908201527f416363657373436f6e74726f6c3a2063616e206f6e6c792072656e6f756e636560408201527f20726f6c657320666f722073656c660000000000000000000000000000000000606082015260800190565b6020808252601f908201527f45524332303a206d696e7420746f20746865207a65726f206164647265737300604082015260600190565b6020808252602a908201527f45524332305061757361626c653a20746f6b656e207472616e7366657220776860408201527f696c652070617573656400000000000000000000000000000000000000000000606082015260800190565b60ff91909116815260200190565b60008219821115611e5c57611e5c611f15565b500190565b6000816000190483118215151615611e7b57611e7b611f15565b500290565b600082821015611e9257611e92611f15565b500390565b60005b83811015611eb2578181015183820152602001611e9a565b83811115610c8c5750506000910152565b600081611ed257611ed2611f15565b506000190190565b600281046001821680611eee57607f821691505b60208210811415611f0f57634e487b7160e01b600052602260045260246000fd5b50919050565b634e487b7160e01b600052601160045260246000fdfea2646970667358221220971bf5a0738802810b63479982032f1cd94e827e193e4669f858931f2b4a9a9164736f6c6343000800003360806040526000600655600a80546001600160a01b03191673a0b86991c6218b36c1d19d4a2e9eb0ce3606eb481790553480156200003c57600080fd5b5060405162003451380380620034518339810160408190526200005f91620004a4565b81600281518160328210620000915760405162461bcd60e51b81526004016200008890620005bb565b60405180910390fd5b818110620000b35760405162461bcd60e51b8152600401620000889062000629565b80620000d35760405162461bcd60e51b81526004016200008890620005f2565b81620000f35760405162461bcd60e51b81526004016200008890620006d3565b60005b84518110156200023857600260008683815181106200012557634e487b7160e01b600052603260045260246000fd5b6020908102919091018101516001600160a01b031682528101919091526040016000205460ff16156200016c5760405162461bcd60e51b81526004016200008890620006ab565b60006001600160a01b03168582815181106200019857634e487b7160e01b600052603260045260246000fd5b60200260200101516001600160a01b03161415620001ca5760405162461bcd60e51b8152600401620000889062000674565b600160026000878481518110620001f157634e487b7160e01b600052603260045260246000fd5b6020908102919091018101516001600160a01b03168252810191909152604001600020805460ff1916911515919091179055806200022f8162000773565b915050620000f6565b5083516200024e906003906020870190620002ff565b5050506004555083516200026a90600790602087019062000369565b50600980546001600160a01b038086166001600160a01b031992831617909255600b805484841692169190911790819055604051634adc7cfd60e01b8152911690634adc7cfd90620002c1903090600401620005a7565b600060405180830381600087803b158015620002dc57600080fd5b505af1158015620002f1573d6000803e3d6000fd5b5050505050505050620007ca565b82805482825590600052602060002090810192821562000357579160200282015b828111156200035757825182546001600160a01b0319166001600160a01b0390911617825560209092019160019091019062000320565b5062000365929150620003e6565b5090565b828054620003779062000736565b90600052602060002090601f0160209004810192826200039b576000855562000357565b82601f10620003b657805160ff191683800117855562000357565b8280016001018555821562000357579182015b8281111562000357578251825591602001919060010190620003c9565b5b80821115620003655760008155600101620003e7565b80516200040a81620007b1565b919050565b600082601f83011262000420578081fd5b815160206001600160401b038211156200043e576200043e6200079b565b8082026200044e8282016200070a565b83815282810190868401838801850189101562000469578687fd5b8693505b85841015620004985780516200048381620007b1565b8352600193909301929184019184016200046d565b50979650505050505050565b60008060008060808587031215620004ba578384fd5b84516001600160401b0380821115620004d1578586fd5b818701915087601f830112620004e5578586fd5b815181811115620004fa57620004fa6200079b565b602062000510601f8301601f191682016200070a565b8281528a8284870101111562000524578889fd5b885b838110156200054357858101830151828201840152820162000526565b838111156200055457898385840101525b50975062000564898201620003fd565b9650505060408701519150808211156200057c578384fd5b506200058b878288016200040f565b9250506200059c60608601620003fd565b905092959194509250565b6001600160a01b0391909116815260200190565b60208082526019908201527f6d617820206f776e657220636f756e7420657863656564656400000000000000604082015260600190565b60208082526019908201527f7a65726f207265717569726564206e6f7420616c6c6f77656400000000000000604082015260600190565b6020808252602b908201527f63616e277420686176652072657175697265642067726561746572207468616e60408201526a081bdddb995c90dbdd5b9d60aa1b606082015260800190565b60208082526018908201527f7a65726f2061646472657373206e6f7420616c6c6f7765640000000000000000604082015260600190565b6020808252600e908201526d39b7b6b29031b7b73234ba34b7b760911b604082015260600190565b60208082526016908201527f43616e27742068617665207a65726f206f776e65727300000000000000000000604082015260600190565b6040518181016001600160401b03811182821017156200072e576200072e6200079b565b604052919050565b6002810460018216806200074b57607f821691505b602082108114156200076d57634e487b7160e01b600052602260045260246000fd5b50919050565b60006000198214156200079457634e487b7160e01b81526011600452602481fd5b5060010190565b634e487b7160e01b600052604160045260246000fd5b6001600160a01b0381168114620007c757600080fd5b50565b612c7780620007da6000396000f3fe6080604052600436106101c25760003560e01c80639ace38c2116100f7578063b77bf60011610095578063d74f8edd11610064578063d74f8edd1461056a578063dc8452cd1461057f578063e20056e614610594578063ee22610b146105b4576101c2565b8063b77bf600146104f5578063ba51a6df1461050a578063c01a8c841461052a578063d38bcdee1461054a576101c2565b8063a8abe69a116100d1578063a8abe69a14610473578063b5317375146104a0578063b5dc40c3146104b5578063b6b55f25146104d5576101c2565b80639ace38c214610400578063a0e67e2b14610431578063a2fb342d14610453576101c2565b8063523ec1d0116101645780637065cb481161013e5780637065cb4814610380578063722f8ee2146103a0578063784547a7146103c05780638b51d13f146103e0576101c2565b8063523ec1d01461031157806354741525146103335780636e6a97cf14610360576101c2565b806320ea8d86116101a057806320ea8d86146102845780632e1a7d4d146102a45780632f54bf6e146102c45780633411c81c146102f1576101c2565b8063025e7c271461020c57806306fdde0314610242578063173825d914610264575b341561020a57336001600160a01b03167fe1fffcc4923d04b559f4d29a8bfc6cda04eb5b0d3c460751c2402c5c5cc9109c346040516102019190612b07565b60405180910390a25b005b34801561021857600080fd5b5061022c610227366004612382565b6105d4565b604051610239919061255c565b60405180910390f35b34801561024e57600080fd5b506102576105fe565b604051610239919061265e565b34801561027057600080fd5b5061020a61027f36600461211c565b61068c565b34801561029057600080fd5b5061020a61029f366004612382565b610871565b3480156102b057600080fd5b5061020a6102bf366004612382565b610960565b3480156102d057600080fd5b506102e46102df36600461211c565b610a6e565b6040516102399190612653565b3480156102fd57600080fd5b506102e461030c36600461239a565b610a83565b34801561031d57600080fd5b50610326610aa3565b6040516102399190612a9d565b34801561033f57600080fd5b5061035361034e36600461223b565b610c06565b6040516102399190612b07565b34801561036c57600080fd5b5061035361037b366004612168565b610c83565b34801561038c57600080fd5b5061020a61039b36600461211c565b610ca4565b3480156103ac57600080fd5b5061020a6103bb366004612273565b610e4c565b3480156103cc57600080fd5b506102e46103db366004612382565b610f17565b3480156103ec57600080fd5b506103536103fb366004612382565b610fc7565b34801561040c57600080fd5b5061042061041b366004612382565b61105b565b604051610239959493929190612594565b34801561043d57600080fd5b506104466111a7565b60405161023991906125fc565b34801561045f57600080fd5b506102e461046e3660046121f6565b611209565b34801561047f57600080fd5b5061049361048e3660046123bc565b6112d0565b604051610239919061260f565b3480156104ac57600080fd5b506103536114ae565b3480156104c157600080fd5b506104466104d0366004612382565b6114b4565b3480156104e157600080fd5b5061020a6104f0366004612382565b6116ee565b34801561050157600080fd5b506103536117e5565b34801561051657600080fd5b5061020a610525366004612382565b6117eb565b34801561053657600080fd5b5061020a610545366004612382565b6118c9565b34801561055657600080fd5b5061020a61056536600461211c565b6119c2565b34801561057657600080fd5b506103536119f1565b34801561058b57600080fd5b506103536119f6565b3480156105a057600080fd5b5061020a6105af366004612136565b6119fc565b3480156105c057600080fd5b5061020a6105cf366004612382565b611be4565b600381815481106105e457600080fd5b6000918252602090912001546001600160a01b0316905081565b6007805461060b90612bb4565b80601f016020809104026020016040519081016040528092919081815260200182805461063790612bb4565b80156106845780601f1061065957610100808354040283529160200191610684565b820191906000526020600020905b81548152906001019060200180831161066757829003601f168201915b505050505081565b3330146106b45760405162461bcd60e51b81526004016106ab90612818565b60405180910390fd5b6001600160a01b038116600090815260026020526040902054819060ff166106ee5760405162461bcd60e51b81526004016106ab906128ac565b6001600160a01b0382166000908152600260205260408120805460ff191690555b60035461071e90600190612b9d565b81101561081857826001600160a01b03166003828154811061075057634e487b7160e01b600052603260045260246000fd5b6000918252602090912001546001600160a01b03161415610806576003805461077b90600190612b9d565b8154811061079957634e487b7160e01b600052603260045260246000fd5b600091825260209091200154600380546001600160a01b0390921691839081106107d357634e487b7160e01b600052603260045260246000fd5b9060005260206000200160006101000a8154816001600160a01b0302191690836001600160a01b03160217905550610818565b8061081081612be9565b91505061070f565b506003805160001901815254600454111561083957600354610839906117eb565b6040516001600160a01b038316907f8001553a916ef2f495d26a907cc54d96ed840d7bda71e73194bf5a9df7a76b9090600090a25050565b3360008181526002602052604090205460ff166108a05760405162461bcd60e51b81526004016106ab906128ac565b60008281526001602090815260408083203380855292529091205483919060ff166108dd5760405162461bcd60e51b81526004016106ab90612784565b600084815260208190526040902060040154849060ff16156109115760405162461bcd60e51b81526004016106ab90612a53565b6000858152600160209081526040808320338085529252808320805460ff191690555187927ff6a317157440607f36269043eb55f1287a5a19ba2216afeab88cd46cbcfb88e991a35050505050565b600061096b82611d28565b905061097681611d2b565b610981303383611d6c565b61099d5760405162461bcd60e51b81526004016106ab90612988565b7fb244b9a17ad633c6e83b7983ee04320484956a68ddbe96a0b70dfca1cf19d72333836040516109ce9291906125e3565b60405180910390a180600660008282546109e89190612b9d565b9091555050600b546040517f17fc336d0000000000000000000000000000000000000000000000000000000081526001600160a01b03909116906317fc336d90610a3890339086906004016125e3565b600060405180830381600087803b158015610a5257600080fd5b505af1158015610a66573d6000803e3d6000fd5b505050505050565b60026020526000908152604090205460ff1681565b600160209081526000928352604080842090915290825290205460ff1681565b610aab611f79565b6040805160088054602081810284018501855283018181529293919284929091849160009085015b82821015610bf9578382906000526020600020906002020160405180604001604052908160008201805480602002602001604051908101604052809291908181526020018280548015610b4f57602002820191906000526020600020905b81546001600160a01b03168152600190910190602001808311610b31575b50505050508152602001600182018054610b6890612bb4565b80601f0160208091040260200160405190810160405280929190818152602001828054610b9490612bb4565b8015610be15780601f10610bb657610100808354040283529160200191610be1565b820191906000526020600020905b815481529060010190602001808311610bc457829003601f168201915b50505050508152505081526020019060010190610ad3565b5050505081525050905090565b6000805b600554811015610c7c57838015610c33575060008181526020819052604090206004015460ff16155b80610c575750828015610c57575060008181526020819052604090206004015460ff165b15610c6a57610c67600183612b46565b91505b80610c7481612be9565b915050610c0a565b5092915050565b6000610c9185858585611e3e565b9050610c9c816118c9565b949350505050565b333014610cc35760405162461bcd60e51b81526004016106ab90612818565b6001600160a01b038116600090815260026020526040902054819060ff1615610cfe5760405162461bcd60e51b81526004016106ab90612716565b816001600160a01b038116610d255760405162461bcd60e51b81526004016106ab90612671565b600354610d33906001612b46565b60045460328210610d565760405162461bcd60e51b81526004016106ab906126a8565b818110610d755760405162461bcd60e51b81526004016106ab906127bb565b80610d925760405162461bcd60e51b81526004016106ab906126df565b81610daf5760405162461bcd60e51b81526004016106ab90612a1c565b6001600160a01b038516600081815260026020526040808220805460ff1916600190811790915560038054918201815583527fc2575a0e9e593c00f959f8c92f12db2869c3395a3b0502d05e2516446f71f85b01805473ffffffffffffffffffffffffffffffffffffffff191684179055517ff39e6e1eb0edcf53c221607b54b00cd28f3196fed0a24994dc308b8f611b682d9190a25050505050565b6009546001600160a01b03163314610e765760405162461bcd60e51b81526004016106ab9061284f565b600880546001810182556000919091528151805183926002027ff3f7a9fe364faab93b216da50a3214154f22a0a2b415b23a84c8169e8b636ee30191610ec191839160200190611f8c565b506020828101518051610eda9260018501920190611ffe565b5050507f1296b70fc9141190fd21db15fabe3f067aa5dc48f440e5cde726a311a8e2c18081604051610f0c9190612a8a565b60405180910390a150565b600080805b600354811015610fbb5760008481526001602052604081206003805491929184908110610f5957634e487b7160e01b600052603260045260246000fd5b60009182526020808320909101546001600160a01b0316835282019290925260400190205460ff1615610f9457610f91600183612b46565b91505b600454821415610fa957600192505050610fc2565b80610fb381612be9565b915050610f1c565b5060009150505b919050565b6000805b600354811015611055576000838152600160205260408120600380549192918490811061100857634e487b7160e01b600052603260045260246000fd5b60009182526020808320909101546001600160a01b0316835282019290925260400190205460ff161561104357611040600183612b46565b91505b8061104d81612be9565b915050610fcb565b50919050565b600060208190529081526040902080546001820180546001600160a01b03909216929161108790612bb4565b80601f01602080910402602001604051908101604052809291908181526020018280546110b390612bb4565b80156111005780601f106110d557610100808354040283529160200191611100565b820191906000526020600020905b8154815290600101906020018083116110e357829003601f168201915b50505050509080600201549080600301805461111b90612bb4565b80601f016020809104026020016040519081016040528092919081815260200182805461114790612bb4565b80156111945780601f1061116957610100808354040283529160200191611194565b820191906000526020600020905b81548152906001019060200180831161117757829003601f168201915b5050506004909301549192505060ff1685565b606060038054806020026020016040519081016040528092919081815260200182805480156111ff57602002820191906000526020600020905b81546001600160a01b031681526001909101906020018083116111e1575b5050505050905090565b60006001600160a01b0383166112315760405162461bcd60e51b81526004016106ab9061274d565b600a546040517fa9059cbb0000000000000000000000000000000000000000000000000000000081526001600160a01b0390911690819063a9059cbb9061127e90879087906004016125e3565b602060405180830381600087803b15801561129857600080fd5b505af11580156112ac573d6000803e3d6000fd5b505050506040513d601f19601f82011682018060405250810190610c9c919061221f565b6060600060055467ffffffffffffffff8111156112fd57634e487b7160e01b600052604160045260246000fd5b604051908082528060200260200182016040528015611326578160200160208202803683370190505b5090506000805b6005548110156113cb57858015611356575060008181526020819052604090206004015460ff16155b8061137a575084801561137a575060008181526020819052604090206004015460ff165b156113b957808383815181106113a057634e487b7160e01b600052603260045260246000fd5b60209081029190910101526113b6600183612b46565b91505b806113c381612be9565b91505061132d565b6113d58888612b9d565b67ffffffffffffffff8111156113fb57634e487b7160e01b600052604160045260246000fd5b604051908082528060200260200182016040528015611424578160200160208202803683370190505b5093508790505b868110156114a35782818151811061145357634e487b7160e01b600052603260045260246000fd5b60200260200101518489836114689190612b9d565b8151811061148657634e487b7160e01b600052603260045260246000fd5b60209081029190910101528061149b81612be9565b91505061142b565b505050949350505050565b60065490565b60035460609060009067ffffffffffffffff8111156114e357634e487b7160e01b600052604160045260246000fd5b60405190808252806020026020018201604052801561150c578160200160208202803683370190505b5090506000805b600354811015611614576000858152600160205260408120600380549192918490811061155057634e487b7160e01b600052603260045260246000fd5b60009182526020808320909101546001600160a01b0316835282019290925260400190205460ff1615611602576003818154811061159e57634e487b7160e01b600052603260045260246000fd5b9060005260206000200160009054906101000a90046001600160a01b03168383815181106115dc57634e487b7160e01b600052603260045260246000fd5b6001600160a01b03909216602092830291909101909101526115ff600183612b46565b91505b8061160c81612be9565b915050611513565b8167ffffffffffffffff81111561163b57634e487b7160e01b600052604160045260246000fd5b604051908082528060200260200182016040528015611664578160200160208202803683370190505b509350600090505b818110156116e65782818151811061169457634e487b7160e01b600052603260045260246000fd5b60200260200101518482815181106116bc57634e487b7160e01b600052603260045260246000fd5b6001600160a01b0390921660209283029190910190910152806116de81612be9565b91505061166c565b505050919050565b6116f9333083611d6c565b6117155760405162461bcd60e51b81526004016106ab906128e3565b7f2da466a7b24304f47e87fa2e1e5a81b9831ce54fec19055ce277ca2f39ba42c433826040516117469291906125e3565b60405180910390a180600660008282546117609190612b46565b9091555050600b546040517fcc6e12370000000000000000000000000000000000000000000000000000000081526001600160a01b039091169063cc6e1237906117b090339085906004016125e3565b600060405180830381600087803b1580156117ca57600080fd5b505af11580156117de573d6000803e3d6000fd5b5050505050565b60055481565b33301461180a5760405162461bcd60e51b81526004016106ab90612818565b600354816032821061182e5760405162461bcd60e51b81526004016106ab906126a8565b81811061184d5760405162461bcd60e51b81526004016106ab906127bb565b8061186a5760405162461bcd60e51b81526004016106ab906126df565b816118875760405162461bcd60e51b81526004016106ab90612a1c565b60048390556040517fa3f1ee9126a074d9326c682f561767f710e927faa811f7a99829d49dc421797a906118bc908590612b07565b60405180910390a1505050565b3360008181526002602052604090205460ff166118f85760405162461bcd60e51b81526004016106ab906128ac565b60008281526020819052604090205482906001600160a01b031661192e5760405162461bcd60e51b81526004016106ab90612951565b60008381526001602090815260408083203380855292529091205484919060ff161561196c5760405162461bcd60e51b81526004016106ab9061291a565b6000858152600160208181526040808420338086529252808420805460ff1916909317909255905187927f4a504a94899432a9846e1aa406dceb1bcfd538bb839071d49d1e5e23f5be30ef91a36117de85611be4565b600a805473ffffffffffffffffffffffffffffffffffffffff19166001600160a01b0392909216919091179055565b603281565b60045481565b333014611a1b5760405162461bcd60e51b81526004016106ab90612818565b6001600160a01b038216600090815260026020526040902054829060ff16611a555760405162461bcd60e51b81526004016106ab906128ac565b6001600160a01b038216600090815260026020526040902054829060ff1615611a905760405162461bcd60e51b81526004016106ab90612716565b60005b600354811015611b4a57846001600160a01b031660038281548110611ac857634e487b7160e01b600052603260045260246000fd5b6000918252602090912001546001600160a01b03161415611b38578360038281548110611b0557634e487b7160e01b600052603260045260246000fd5b9060005260206000200160006101000a8154816001600160a01b0302191690836001600160a01b03160217905550611b4a565b80611b4281612be9565b915050611a93565b506001600160a01b03808516600081815260026020526040808220805460ff1990811690915593871682528082208054909416600117909355915190917f8001553a916ef2f495d26a907cc54d96ed840d7bda71e73194bf5a9df7a76b9091a26040516001600160a01b038416907ff39e6e1eb0edcf53c221607b54b00cd28f3196fed0a24994dc308b8f611b682d90600090a250505050565b600081815260208190526040902060040154819060ff1615611c185760405162461bcd60e51b81526004016106ab90612a53565b611c2182610f17565b15611d245760008281526020819052604080822060048101805460ff191660011790558054600282015492519193926060926001600160a01b0390921691611c6d9060038701906124c1565b60006040518083038185875af1925050503d8060008114611caa576040519150601f19603f3d011682016040523d82523d6000602084013e611caf565b606091505b5090925090508115611ceb5760405185907f33e13ecb54c3076d8e8bb8c2881800a4d972b792045ffae98fdf46df365fed7590600090a26117de565b60405185907f526441bb6c1aba3c9a4a6ca1d6545da9c2333c8c48343ef398eb858d72b7923690600090a25050600401805460ff191690555b5050565b90565b600654600090611d3e83620186a0612b7e565b611d489190612b5e565b9050614e20811115611d245760405162461bcd60e51b81526004016106ab906129bf565b60006001600160a01b038316611d945760405162461bcd60e51b81526004016106ab9061274d565b600a546040517f23b872dd0000000000000000000000000000000000000000000000000000000081526001600160a01b039091169081906323b872dd90611de390889088908890600401612570565b602060405180830381600087803b158015611dfd57600080fd5b505af1158015611e11573d6000803e3d6000fd5b505050506040513d601f19601f82011682018060405250810190611e35919061221f565b95945050505050565b6000846001600160a01b038116611e675760405162461bcd60e51b81526004016106ab90612671565b6005546040805160a0810182526001600160a01b03898116825260208083018a81528385018a905260608401899052600060808501819052868152808352949094208351815473ffffffffffffffffffffffffffffffffffffffff191693169290921782559251805194965091939092611ee8926001850192910190611ffe565b506040820151600282015560608201518051611f0e916003840191602090910190611ffe565b50608091909101516004909101805460ff19169115159190911790556005805460019190600090611f40908490612b46565b909155505060405182907fc0ba8fe4b176c1714197d43b9cc6bcf797a4a7461c5fe8d0ef6e184ae7601e5190600090a250949350505050565b6040518060200160405280606081525090565b828054828255906000526020600020908101928215611fee579160200282015b82811115611fee578251825473ffffffffffffffffffffffffffffffffffffffff19166001600160a01b03909116178255602090920191600190910190611fac565b50611ffa929150612072565b5090565b82805461200a90612bb4565b90600052602060002090601f01602090048101928261202c5760008555611fee565b82601f1061204557805160ff1916838001178555611fee565b82800160010185558215611fee579182015b82811115611fee578251825591602001919060010190612057565b5b80821115611ffa5760008155600101612073565b600067ffffffffffffffff8311156120a1576120a1612c1a565b6120b4601f8401601f1916602001612b10565b90508281528383830111156120c857600080fd5b828260208301376000602084830101529392505050565b80356001600160a01b0381168114610fc257600080fd5b600082601f830112612106578081fd5b61211583833560208501612087565b9392505050565b60006020828403121561212d578081fd5b612115826120df565b60008060408385031215612148578081fd5b612151836120df565b915061215f602084016120df565b90509250929050565b6000806000806080858703121561217d578182fd5b612186856120df565b9350602085013567ffffffffffffffff808211156121a2578384fd5b6121ae888389016120f6565b94506040870135935060608701359150808211156121ca578283fd5b508501601f810187136121db578182fd5b6121ea87823560208401612087565b91505092959194509250565b60008060408385031215612208578182fd5b612211836120df565b946020939093013593505050565b600060208284031215612230578081fd5b815161211581612c30565b6000806040838503121561224d578182fd5b823561225881612c30565b9150602083013561226881612c30565b809150509250929050565b60006020808385031215612285578182fd5b823567ffffffffffffffff8082111561229c578384fd5b90840190604082870312156122af578384fd5b6040516040810181811083821117156122ca576122ca612c1a565b6040528235828111156122db578586fd5b8301601f810188136122eb578586fd5b8035838111156122fd576122fd612c1a565b85810261230b878201612b10565b828152878101908489018386018a018d1015612325578a8bfd5b8a95505b8486101561234e5761233a816120df565b835260019590950194918901918901612329565b508552505050508284013582811115612365578586fd5b612371888286016120f6565b948201949094529695505050505050565b600060208284031215612393578081fd5b5035919050565b600080604083850312156123ac578182fd5b8235915061215f602084016120df565b600080600080608085870312156123d1578384fd5b843593506020850135925060408501356123ea81612c30565b915060608501356123fa81612c30565b939692955090935050565b6000815180845260208085019450808401835b8381101561243d5781516001600160a01b031687529582019590820190600101612418565b509495945050505050565b60008151808452815b8181101561246d57602081850181015186830182015201612451565b8181111561247e5782602083870101525b50601f01601f19169290920160200192915050565b60008151604084526124a86040850182612405565b905060208301518482036020860152611e358282612448565b81546000908190600281046001808316806124dd57607f831692505b60208084108214156124fd57634e487b7160e01b87526022600452602487fd5b81801561251157600181146125225761254e565b60ff1986168952848901965061254e565b61252b8a612b3a565b885b868110156125465781548b82015290850190830161252d565b505084890196505b509498975050505050505050565b6001600160a01b0391909116815260200190565b6001600160a01b039384168152919092166020820152604081019190915260600190565b60006001600160a01b038716825260a060208301526125b660a0830187612448565b85604084015282810360608401526125ce8186612448565b91505082151560808301529695505050505050565b6001600160a01b03929092168252602082015260400190565b6000602082526121156020830184612405565b6020808252825182820181905260009190848201906040850190845b818110156126475783518352928401929184019160010161262b565b50909695505050505050565b901515815260200190565b6000602082526121156020830184612448565b60208082526017908201527f726571757265206e6f74206e756c6c2061646472657373000000000000000000604082015260600190565b60208082526019908201527f6d617820206f776e657220636f756e7420657863656564656400000000000000604082015260600190565b60208082526019908201527f7a65726f207265717569726564206e6f7420616c6c6f77656400000000000000604082015260600190565b60208082526015908201527f4f776e65722073686f756c646e27742065786973740000000000000000000000604082015260600190565b6020808252601b908201527f43616e27742073656e6420746f207a65726f20616464726573732e0000000000604082015260600190565b6020808252600d908201527f6e6f7420636f6e6669726d656400000000000000000000000000000000000000604082015260600190565b6020808252602b908201527f63616e277420686176652072657175697265642067726561746572207468616e60408201527f206f776e6572436f756e74000000000000000000000000000000000000000000606082015260800190565b60208082526013908201527f4f6e6c792077616c6c657420616c6c6f77656400000000000000000000000000604082015260600190565b60208082526021908201527f4f6e6c7920476f7665726e656e636520616c6c6f776564206f7065726174696f60408201527f6e00000000000000000000000000000000000000000000000000000000000000606082015260800190565b60208082526013908201527f4f776e657220646f65736e277420657869737400000000000000000000000000604082015260600190565b60208082526017908201527f4465706f736974206e6f74207375636365737366756c2e000000000000000000604082015260600190565b60208082526009908201527f636f6e6669726d65640000000000000000000000000000000000000000000000604082015260600190565b60208082526016908201527f7472616e736374696f6e20697320706f737369626c6500000000000000000000604082015260600190565b6020808252601a908201527f5769746864726177616c206e6f74207375636365737366756c2e000000000000604082015260600190565b6020808252602e908201527f43616e6e6f74207769746864726177206d6f7265207468616e20323025206f6660408201527f20506f6f6c2062616c616e63652e000000000000000000000000000000000000606082015260800190565b60208082526016908201527f43616e27742068617665207a65726f206f776e65727300000000000000000000604082015260600190565b60208082526019908201527f68617320616c7265616479206265656e20657865637574656400000000000000604082015260600190565b6000602082526121156020830184612493565b600060208083526040830184518283860152818151808452606087019150606085820288010193508483019250855b81811015612afa57605f19888603018352612ae8858551612493565b94509285019291850191600101612acc565b5092979650505050505050565b90815260200190565b60405181810167ffffffffffffffff81118282101715612b3257612b32612c1a565b604052919050565b60009081526020902090565b60008219821115612b5957612b59612c04565b500190565b600082612b7957634e487b7160e01b81526012600452602481fd5b500490565b6000816000190483118215151615612b9857612b98612c04565b500290565b600082821015612baf57612baf612c04565b500390565b600281046001821680612bc857607f821691505b6020821081141561105557634e487b7160e01b600052602260045260246000fd5b6000600019821415612bfd57612bfd612c04565b5060010190565b634e487b7160e01b600052601160045260246000fd5b634e487b7160e01b600052604160045260246000fd5b8015158114612c3e57600080fd5b5056fea264697066735822122061429c4634ac17f656baa123f6dc235d6b4223f9c4c745b7f7eb3ab347250c0964736f6c63430008000033a264697066735822122050ade60e895ece1e7c76f6d45cc87eb687e76fd863b568f93fa9a4a3b5065aac64736f6c63430008000033",
  "linkReferences": {},
  "deployedLinkReferences": {}
}