{
  "_format": "hh-sol-artifact-1",
  "contractName": "Pool",
  "sourceName": "contracts/Pool.sol",
  "abi": [
    {
      "inputs": [
        {
          "internalType": "string",
          "name": "_name",
          "type": "string"
        },
        {
          "internalType": "address",
          "name": "_governer",
          "type": "address"
        },
        {
          "internalType": "address[]",
          "name": "_admins",
          "type": "address[]"
        },
        {
          "internalType": "contract KoloToken",
          "name": "_kToken",
          "type": "address"
        }
      ],
      "stateMutability": "nonpayable",
      "type": "constructor"
    },
    {
      "anonymous": false,
      "inputs": [
        {
          "indexed": false,
          "internalType": "address",
          "name": "_address",
          "type": "address"
        }
      ],
      "name": "AddedAdmin",
      "type": "event"
    },
    {
      "anonymous": false,
      "inputs": [
        {
          "components": [
            {
              "internalType": "address[]",
              "name": "auditors",
              "type": "address[]"
            },
            {
              "internalType": "string",
              "name": "fullAuditReport",
              "type": "string"
            }
          ],
          "indexed": false,
          "internalType": "struct AuditorReports.Audit",
          "name": "_audit",
          "type": "tuple"
        }
      ],
      "name": "AddedAuditReport",
      "type": "event"
    },
    {
      "anonymous": false,
      "inputs": [
        {
          "indexed": true,
          "internalType": "address",
          "name": "sender",
          "type": "address"
        },
        {
          "indexed": true,
          "internalType": "uint256",
          "name": "transactionId",
          "type": "uint256"
        }
      ],
      "name": "Confirmation",
      "type": "event"
    },
    {
      "anonymous": false,
      "inputs": [
        {
          "indexed": true,
          "internalType": "address",
          "name": "sender",
          "type": "address"
        },
        {
          "indexed": false,
          "internalType": "uint256",
          "name": "value",
          "type": "uint256"
        }
      ],
      "name": "Deposit",
      "type": "event"
    },
    {
      "anonymous": false,
      "inputs": [
        {
          "indexed": false,
          "internalType": "address",
          "name": "_address",
          "type": "address"
        },
        {
          "indexed": false,
          "internalType": "uint256",
          "name": "usdcAmount",
          "type": "uint256"
        }
      ],
      "name": "Deposited",
      "type": "event"
    },
    {
      "anonymous": false,
      "inputs": [
        {
          "indexed": true,
          "internalType": "uint256",
          "name": "transactionId",
          "type": "uint256"
        }
      ],
      "name": "Execution",
      "type": "event"
    },
    {
      "anonymous": false,
      "inputs": [
        {
          "indexed": true,
          "internalType": "uint256",
          "name": "transactionId",
          "type": "uint256"
        }
      ],
      "name": "ExecutionFailure",
      "type": "event"
    },
    {
      "anonymous": false,
      "inputs": [
        {
          "indexed": true,
          "internalType": "address",
          "name": "owner",
          "type": "address"
        }
      ],
      "name": "OwnerAddition",
      "type": "event"
    },
    {
      "anonymous": false,
      "inputs": [
        {
          "indexed": true,
          "internalType": "address",
          "name": "owner",
          "type": "address"
        }
      ],
      "name": "OwnerRemoval",
      "type": "event"
    },
    {
      "anonymous": false,
      "inputs": [
        {
          "indexed": false,
          "internalType": "address",
          "name": "_adddress",
          "type": "address"
        }
      ],
      "name": "RemovedAdmin",
      "type": "event"
    },
    {
      "anonymous": false,
      "inputs": [
        {
          "indexed": false,
          "internalType": "uint256",
          "name": "required",
          "type": "uint256"
        }
      ],
      "name": "RequirementChange",
      "type": "event"
    },
    {
      "anonymous": false,
      "inputs": [
        {
          "indexed": true,
          "internalType": "address",
          "name": "sender",
          "type": "address"
        },
        {
          "indexed": true,
          "internalType": "uint256",
          "name": "transactionId",
          "type": "uint256"
        }
      ],
      "name": "Revocation",
      "type": "event"
    },
    {
      "anonymous": false,
      "inputs": [
        {
          "indexed": true,
          "internalType": "uint256",
          "name": "transactionId",
          "type": "uint256"
        }
      ],
      "name": "Submission",
      "type": "event"
    },
    {
      "anonymous": false,
      "inputs": [
        {
          "indexed": false,
          "internalType": "address",
          "name": "_address",
          "type": "address"
        },
        {
          "indexed": false,
          "internalType": "uint256",
          "name": "kTokenAmount",
          "type": "uint256"
        }
      ],
      "name": "Withdrew",
      "type": "event"
    },
    {
      "stateMutability": "payable",
      "type": "fallback"
    },
    {
      "inputs": [
        {
          "components": [
            {
              "internalType": "address[]",
              "name": "auditors",
              "type": "address[]"
            },
            {
              "internalType": "string",
              "name": "fullAuditReport",
              "type": "string"
            }
          ],
          "internalType": "struct AuditorReports.Audit",
          "name": "_audit",
          "type": "tuple"
        }
      ],
      "name": "AddAuditReport",
      "outputs": [],
      "stateMutability": "nonpayable",
      "type": "function"
    },
    {
      "inputs": [],
      "name": "MAX_OWNER_COUNT",
      "outputs": [
        {
          "internalType": "uint256",
          "name": "",
          "type": "uint256"
        }
      ],
      "stateMutability": "view",
      "type": "function"
    },
    {
      "inputs": [
        {
          "internalType": "address",
          "name": "owner",
          "type": "address"
        }
      ],
      "name": "addOwner",
      "outputs": [],
      "stateMutability": "nonpayable",
      "type": "function"
    },
    {
      "inputs": [
        {
          "internalType": "uint256",
          "name": "_required",
          "type": "uint256"
        }
      ],
      "name": "changeRequirement",
      "outputs": [],
      "stateMutability": "nonpayable",
      "type": "function"
    },
    {
      "inputs": [
        {
          "internalType": "uint256",
          "name": "transactionId",
          "type": "uint256"
        }
      ],
      "name": "confirmTransaction",
      "outputs": [],
      "stateMutability": "nonpayable",
      "type": "function"
    },
    {
      "inputs": [
        {
          "internalType": "uint256",
          "name": "",
          "type": "uint256"
        },
        {
          "internalType": "address",
          "name": "",
          "type": "address"
        }
      ],
      "name": "confirmations",
      "outputs": [
        {
          "internalType": "bool",
          "name": "",
          "type": "bool"
        }
      ],
      "stateMutability": "view",
      "type": "function"
    },
    {
      "inputs": [
        {
          "internalType": "uint256",
          "name": "amount",
          "type": "uint256"
        }
      ],
      "name": "deposit",
      "outputs": [],
      "stateMutability": "nonpayable",
      "type": "function"
    },
    {
      "inputs": [
        {
          "internalType": "uint256",
          "name": "transactionId",
          "type": "uint256"
        }
      ],
      "name": "executeTransaction",
      "outputs": [],
      "stateMutability": "nonpayable",
      "type": "function"
    },
    {
      "inputs": [],
      "name": "getAudits",
      "outputs": [
        {
          "components": [
            {
              "components": [
                {
                  "internalType": "address[]",
                  "name": "auditors",
                  "type": "address[]"
                },
                {
                  "internalType": "string",
                  "name": "fullAuditReport",
                  "type": "string"
                }
              ],
              "internalType": "struct AuditorReports.Audit[]",
              "name": "HistoricalAudits",
              "type": "tuple[]"
            }
          ],
          "internalType": "struct AuditorReports.Reports",
          "name": "",
          "type": "tuple"
        }
      ],
      "stateMutability": "view",
      "type": "function"
    },
    {
      "inputs": [
        {
          "internalType": "uint256",
          "name": "transactionId",
          "type": "uint256"
        }
      ],
      "name": "getConfirmationCount",
      "outputs": [
        {
          "internalType": "uint256",
          "name": "count",
          "type": "uint256"
        }
      ],
      "stateMutability": "view",
      "type": "function"
    },
    {
      "inputs": [
        {
          "internalType": "uint256",
          "name": "transactionId",
          "type": "uint256"
        }
      ],
      "name": "getConfirmations",
      "outputs": [
        {
          "internalType": "address[]",
          "name": "_confirmations",
          "type": "address[]"
        }
      ],
      "stateMutability": "view",
      "type": "function"
    },
    {
      "inputs": [],
      "name": "getOwners",
      "outputs": [
        {
          "internalType": "address[]",
          "name": "",
          "type": "address[]"
        }
      ],
      "stateMutability": "view",
      "type": "function"
    },
    {
      "inputs": [],
      "name": "getTotalReserveBalance",
      "outputs": [
        {
          "internalType": "uint256",
          "name": "",
          "type": "uint256"
        }
      ],
      "stateMutability": "view",
      "type": "function"
    },
    {
      "inputs": [
        {
          "internalType": "bool",
          "name": "pending",
          "type": "bool"
        },
        {
          "internalType": "bool",
          "name": "executed",
          "type": "bool"
        }
      ],
      "name": "getTransactionCount",
      "outputs": [
        {
          "internalType": "uint256",
          "name": "count",
          "type": "uint256"
        }
      ],
      "stateMutability": "view",
      "type": "function"
    },
    {
      "inputs": [
        {
          "internalType": "uint256",
          "name": "from",
          "type": "uint256"
        },
        {
          "internalType": "uint256",
          "name": "to",
          "type": "uint256"
        },
        {
          "internalType": "bool",
          "name": "pending",
          "type": "bool"
        },
        {
          "internalType": "bool",
          "name": "executed",
          "type": "bool"
        }
      ],
      "name": "getTransactionIds",
      "outputs": [
        {
          "internalType": "uint256[]",
          "name": "_transactionIds",
          "type": "uint256[]"
        }
      ],
      "stateMutability": "view",
      "type": "function"
    },
    {
      "inputs": [
        {
          "internalType": "uint256",
          "name": "transactionId",
          "type": "uint256"
        }
      ],
      "name": "isConfirmed",
      "outputs": [
        {
          "internalType": "bool",
          "name": "",
          "type": "bool"
        }
      ],
      "stateMutability": "view",
      "type": "function"
    },
    {
      "inputs": [
        {
          "internalType": "address",
          "name": "",
          "type": "address"
        }
      ],
      "name": "isOwner",
      "outputs": [
        {
          "internalType": "bool",
          "name": "",
          "type": "bool"
        }
      ],
      "stateMutability": "view",
      "type": "function"
    },
    {
      "inputs": [
        {
          "internalType": "address",
          "name": "to",
          "type": "address"
        },
        {
          "internalType": "uint256",
          "name": "amount",
          "type": "uint256"
        }
      ],
      "name": "lend",
      "outputs": [
        {
          "internalType": "bool",
          "name": "",
          "type": "bool"
        }
      ],
      "stateMutability": "nonpayable",
      "type": "function"
    },
    {
      "inputs": [],
      "name": "name",
      "outputs": [
        {
          "internalType": "string",
          "name": "",
          "type": "string"
        }
      ],
      "stateMutability": "view",
      "type": "function"
    },
    {
      "inputs": [
        {
          "internalType": "uint256",
          "name": "",
          "type": "uint256"
        }
      ],
      "name": "owners",
      "outputs": [
        {
          "internalType": "address",
          "name": "",
          "type": "address"
        }
      ],
      "stateMutability": "view",
      "type": "function"
    },
    {
      "inputs": [
        {
          "internalType": "address",
          "name": "owner",
          "type": "address"
        }
      ],
      "name": "removeOwner",
      "outputs": [],
      "stateMutability": "nonpayable",
      "type": "function"
    },
    {
      "inputs": [
        {
          "internalType": "address",
          "name": "owner",
          "type": "address"
        },
        {
          "internalType": "address",
          "name": "newOwner",
          "type": "address"
        }
      ],
      "name": "replaceOwner",
      "outputs": [],
      "stateMutability": "nonpayable",
      "type": "function"
    },
    {
      "inputs": [],
      "name": "required",
      "outputs": [
        {
          "internalType": "uint256",
          "name": "",
          "type": "uint256"
        }
      ],
      "stateMutability": "view",
      "type": "function"
    },
    {
      "inputs": [
        {
          "internalType": "uint256",
          "name": "transactionId",
          "type": "uint256"
        }
      ],
      "name": "revokeConfirmation",
      "outputs": [],
      "stateMutability": "nonpayable",
      "type": "function"
    },
    {
      "inputs": [
        {
          "internalType": "address",
          "name": "_usdcAddress",
          "type": "address"
        }
      ],
      "name": "setUsdcAddress",
      "outputs": [],
      "stateMutability": "nonpayable",
      "type": "function"
    },
    {
      "inputs": [
        {
          "internalType": "address",
          "name": "destination",
          "type": "address"
        },
        {
          "internalType": "uint256",
          "name": "value",
          "type": "uint256"
        },
        {
          "internalType": "bytes",
          "name": "data",
          "type": "bytes"
        }
      ],
      "name": "submitTransaction",
      "outputs": [
        {
          "internalType": "uint256",
          "name": "transactionId",
          "type": "uint256"
        }
      ],
      "stateMutability": "nonpayable",
      "type": "function"
    },
    {
      "inputs": [],
      "name": "transactionCount",
      "outputs": [
        {
          "internalType": "uint256",
          "name": "",
          "type": "uint256"
        }
      ],
      "stateMutability": "view",
      "type": "function"
    },
    {
      "inputs": [
        {
          "internalType": "uint256",
          "name": "",
          "type": "uint256"
        }
      ],
      "name": "transactions",
      "outputs": [
        {
          "internalType": "address",
          "name": "destination",
          "type": "address"
        },
        {
          "internalType": "uint256",
          "name": "value",
          "type": "uint256"
        },
        {
          "internalType": "bytes",
          "name": "data",
          "type": "bytes"
        },
        {
          "internalType": "bool",
          "name": "executed",
          "type": "bool"
        }
      ],
      "stateMutability": "view",
      "type": "function"
    },
    {
      "inputs": [
        {
          "internalType": "uint256",
          "name": "amount",
          "type": "uint256"
        }
      ],
      "name": "withdraw",
      "outputs": [],
      "stateMutability": "nonpayable",
      "type": "function"
    }
  ],
  "bytecode": "0x60806040526000600655600a80546001600160a01b03191673a0b86991c6218b36c1d19d4a2e9eb0ce3606eb481790553480156200003c57600080fd5b5060405162003361380380620033618339810160408190526200005f91620004a4565b81600281518160328210620000915760405162461bcd60e51b81526004016200008890620005bb565b60405180910390fd5b818110620000b35760405162461bcd60e51b8152600401620000889062000629565b80620000d35760405162461bcd60e51b81526004016200008890620005f2565b81620000f35760405162461bcd60e51b81526004016200008890620006d3565b60005b84518110156200023857600260008683815181106200012557634e487b7160e01b600052603260045260246000fd5b6020908102919091018101516001600160a01b031682528101919091526040016000205460ff16156200016c5760405162461bcd60e51b81526004016200008890620006ab565b60006001600160a01b03168582815181106200019857634e487b7160e01b600052603260045260246000fd5b60200260200101516001600160a01b03161415620001ca5760405162461bcd60e51b8152600401620000889062000674565b600160026000878481518110620001f157634e487b7160e01b600052603260045260246000fd5b6020908102919091018101516001600160a01b03168252810191909152604001600020805460ff1916911515919091179055806200022f8162000773565b915050620000f6565b5083516200024e906003906020870190620002ff565b5050506004555083516200026a90600790602087019062000369565b50600980546001600160a01b038086166001600160a01b031992831617909255600b805484841692169190911790819055604051634adc7cfd60e01b8152911690634adc7cfd90620002c1903090600401620005a7565b600060405180830381600087803b158015620002dc57600080fd5b505af1158015620002f1573d6000803e3d6000fd5b5050505050505050620007ca565b82805482825590600052602060002090810192821562000357579160200282015b828111156200035757825182546001600160a01b0319166001600160a01b0390911617825560209092019160019091019062000320565b5062000365929150620003e6565b5090565b828054620003779062000736565b90600052602060002090601f0160209004810192826200039b576000855562000357565b82601f10620003b657805160ff191683800117855562000357565b8280016001018555821562000357579182015b8281111562000357578251825591602001919060010190620003c9565b5b80821115620003655760008155600101620003e7565b80516200040a81620007b1565b919050565b600082601f83011262000420578081fd5b815160206001600160401b038211156200043e576200043e6200079b565b8082026200044e8282016200070a565b83815282810190868401838801850189101562000469578687fd5b8693505b85841015620004985780516200048381620007b1565b8352600193909301929184019184016200046d565b50979650505050505050565b60008060008060808587031215620004ba578384fd5b84516001600160401b0380821115620004d1578586fd5b818701915087601f830112620004e5578586fd5b815181811115620004fa57620004fa6200079b565b602062000510601f8301601f191682016200070a565b8281528a8284870101111562000524578889fd5b885b838110156200054357858101830151828201840152820162000526565b838111156200055457898385840101525b50975062000564898201620003fd565b9650505060408701519150808211156200057c578384fd5b506200058b878288016200040f565b9250506200059c60608601620003fd565b905092959194509250565b6001600160a01b0391909116815260200190565b60208082526019908201527f6d617820206f776e657220636f756e7420657863656564656400000000000000604082015260600190565b60208082526019908201527f7a65726f207265717569726564206e6f7420616c6c6f77656400000000000000604082015260600190565b6020808252602b908201527f63616e277420686176652072657175697265642067726561746572207468616e60408201526a081bdddb995c90dbdd5b9d60aa1b606082015260800190565b60208082526018908201527f7a65726f2061646472657373206e6f7420616c6c6f7765640000000000000000604082015260600190565b6020808252600e908201526d39b7b6b29031b7b73234ba34b7b760911b604082015260600190565b60208082526016908201527f43616e27742068617665207a65726f206f776e65727300000000000000000000604082015260600190565b6040518181016001600160401b03811182821017156200072e576200072e6200079b565b604052919050565b6002810460018216806200074b57607f821691505b602082108114156200076d57634e487b7160e01b600052602260045260246000fd5b50919050565b60006000198214156200079457634e487b7160e01b81526011600452602481fd5b5060010190565b634e487b7160e01b600052604160045260246000fd5b6001600160a01b0381168114620007c757600080fd5b50565b612b8780620007da6000396000f3fe6080604052600436106101c25760003560e01c8063a0e67e2b116100f7578063ba51a6df11610095578063d74f8edd11610064578063d74f8edd14610569578063dc8452cd1461057e578063e20056e614610593578063ee22610b146105b3576101c2565b8063ba51a6df146104e9578063c01a8c8414610509578063c642747414610529578063d38bcdee14610549576101c2565b8063b5317375116100d1578063b53173751461047f578063b5dc40c314610494578063b6b55f25146104b4578063b77bf600146104d4576101c2565b8063a0e67e2b14610410578063a2fb342d14610432578063a8abe69a14610452576101c2565b8063523ec1d011610164578063722f8ee21161013e578063722f8ee214610380578063784547a7146103a05780638b51d13f146103c05780639ace38c2146103e0576101c2565b8063523ec1d01461031157806354741525146103335780637065cb4814610360576101c2565b806320ea8d86116101a057806320ea8d86146102845780632e1a7d4d146102a45780632f54bf6e146102c45780633411c81c146102f1576101c2565b8063025e7c271461020c57806306fdde0314610242578063173825d914610264575b341561020a57336001600160a01b03167fe1fffcc4923d04b559f4d29a8bfc6cda04eb5b0d3c460751c2402c5c5cc9109c346040516102019190612a17565b60405180910390a25b005b34801561021857600080fd5b5061022c6102273660046122a6565b6105d3565b6040516102399190612480565b60405180910390f35b34801561024e57600080fd5b506102576105fd565b604051610239919061256e565b34801561027057600080fd5b5061020a61027f366004612066565b61068b565b34801561029057600080fd5b5061020a61029f3660046122a6565b610870565b3480156102b057600080fd5b5061020a6102bf3660046122a6565b61095f565b3480156102d057600080fd5b506102e46102df366004612066565b610a6d565b6040516102399190612563565b3480156102fd57600080fd5b506102e461030c3660046122be565b610a82565b34801561031d57600080fd5b50610326610aa2565b60405161023991906129ad565b34801561033f57600080fd5b5061035361034e36600461215f565b610c05565b6040516102399190612a17565b34801561036c57600080fd5b5061020a61037b366004612066565b610c82565b34801561038c57600080fd5b5061020a61039b366004612197565b610e2a565b3480156103ac57600080fd5b506102e46103bb3660046122a6565b610ef5565b3480156103cc57600080fd5b506103536103db3660046122a6565b610fa5565b3480156103ec57600080fd5b506104006103fb3660046122a6565b611039565b60405161023994939291906124d1565b34801561041c57600080fd5b506104256110f7565b604051610239919061250c565b34801561043e57600080fd5b506102e461044d3660046120b2565b611159565b34801561045e57600080fd5b5061047261046d3660046122e0565b611228565b604051610239919061251f565b34801561048b57600080fd5b50610353611406565b3480156104a057600080fd5b506104256104af3660046122a6565b61140c565b3480156104c057600080fd5b5061020a6104cf3660046122a6565b611646565b3480156104e057600080fd5b5061035361173d565b3480156104f557600080fd5b5061020a6105043660046122a6565b611743565b34801561051557600080fd5b5061020a6105243660046122a6565b611821565b34801561053557600080fd5b506103536105443660046120db565b61191a565b34801561055557600080fd5b5061020a610564366004612066565b611939565b34801561057557600080fd5b50610353611968565b34801561058a57600080fd5b5061035361196d565b34801561059f57600080fd5b5061020a6105ae366004612080565b611973565b3480156105bf57600080fd5b5061020a6105ce3660046122a6565b611b5b565b600381815481106105e357600080fd5b6000918252602090912001546001600160a01b0316905081565b6007805461060a90612ac4565b80601f016020809104026020016040519081016040528092919081815260200182805461063690612ac4565b80156106835780601f1061065857610100808354040283529160200191610683565b820191906000526020600020905b81548152906001019060200180831161066657829003601f168201915b505050505081565b3330146106b35760405162461bcd60e51b81526004016106aa90612728565b60405180910390fd5b6001600160a01b038116600090815260026020526040902054819060ff166106ed5760405162461bcd60e51b81526004016106aa906127bc565b6001600160a01b0382166000908152600260205260408120805460ff191690555b60035461071d90600190612aad565b81101561081757826001600160a01b03166003828154811061074f57634e487b7160e01b600052603260045260246000fd5b6000918252602090912001546001600160a01b03161415610805576003805461077a90600190612aad565b8154811061079857634e487b7160e01b600052603260045260246000fd5b600091825260209091200154600380546001600160a01b0390921691839081106107d257634e487b7160e01b600052603260045260246000fd5b9060005260206000200160006101000a8154816001600160a01b0302191690836001600160a01b03160217905550610817565b8061080f81612af9565b91505061070e565b50600380516000190181525460045411156108385760035461083890611743565b6040516001600160a01b038316907f8001553a916ef2f495d26a907cc54d96ed840d7bda71e73194bf5a9df7a76b9090600090a25050565b3360008181526002602052604090205460ff1661089f5760405162461bcd60e51b81526004016106aa906127bc565b60008281526001602090815260408083203380855292529091205483919060ff166108dc5760405162461bcd60e51b81526004016106aa90612694565b600084815260208190526040902060030154849060ff16156109105760405162461bcd60e51b81526004016106aa90612963565b6000858152600160209081526040808320338085529252808320805460ff191690555187927ff6a317157440607f36269043eb55f1287a5a19ba2216afeab88cd46cbcfb88e991a35050505050565b600061096a82611ca1565b905061097581611ca4565b610980303383611ce5565b61099c5760405162461bcd60e51b81526004016106aa90612898565b7fb244b9a17ad633c6e83b7983ee04320484956a68ddbe96a0b70dfca1cf19d72333836040516109cd9291906124b8565b60405180910390a180600660008282546109e79190612aad565b9091555050600b546040517f17fc336d0000000000000000000000000000000000000000000000000000000081526001600160a01b03909116906317fc336d90610a3790339086906004016124b8565b600060405180830381600087803b158015610a5157600080fd5b505af1158015610a65573d6000803e3d6000fd5b505050505050565b60026020526000908152604090205460ff1681565b600160209081526000928352604080842090915290825290205460ff1681565b610aaa611eca565b6040805160088054602081810284018501855283018181529293919284929091849160009085015b82821015610bf8578382906000526020600020906002020160405180604001604052908160008201805480602002602001604051908101604052809291908181526020018280548015610b4e57602002820191906000526020600020905b81546001600160a01b03168152600190910190602001808311610b30575b50505050508152602001600182018054610b6790612ac4565b80601f0160208091040260200160405190810160405280929190818152602001828054610b9390612ac4565b8015610be05780601f10610bb557610100808354040283529160200191610be0565b820191906000526020600020905b815481529060010190602001808311610bc357829003601f168201915b50505050508152505081526020019060010190610ad2565b5050505081525050905090565b6000805b600554811015610c7b57838015610c32575060008181526020819052604090206003015460ff16155b80610c565750828015610c56575060008181526020819052604090206003015460ff165b15610c6957610c66600183612a56565b91505b80610c7381612af9565b915050610c09565b5092915050565b333014610ca15760405162461bcd60e51b81526004016106aa90612728565b6001600160a01b038116600090815260026020526040902054819060ff1615610cdc5760405162461bcd60e51b81526004016106aa90612626565b816001600160a01b038116610d035760405162461bcd60e51b81526004016106aa90612581565b600354610d11906001612a56565b60045460328210610d345760405162461bcd60e51b81526004016106aa906125b8565b818110610d535760405162461bcd60e51b81526004016106aa906126cb565b80610d705760405162461bcd60e51b81526004016106aa906125ef565b81610d8d5760405162461bcd60e51b81526004016106aa9061292c565b6001600160a01b038516600081815260026020526040808220805460ff1916600190811790915560038054918201815583527fc2575a0e9e593c00f959f8c92f12db2869c3395a3b0502d05e2516446f71f85b01805473ffffffffffffffffffffffffffffffffffffffff191684179055517ff39e6e1eb0edcf53c221607b54b00cd28f3196fed0a24994dc308b8f611b682d9190a25050505050565b6009546001600160a01b03163314610e545760405162461bcd60e51b81526004016106aa9061275f565b600880546001810182556000919091528151805183926002027ff3f7a9fe364faab93b216da50a3214154f22a0a2b415b23a84c8169e8b636ee30191610e9f91839160200190611edd565b506020828101518051610eb89260018501920190611f4f565b5050507f1296b70fc9141190fd21db15fabe3f067aa5dc48f440e5cde726a311a8e2c18081604051610eea919061299a565b60405180910390a150565b600080805b600354811015610f995760008481526001602052604081206003805491929184908110610f3757634e487b7160e01b600052603260045260246000fd5b60009182526020808320909101546001600160a01b0316835282019290925260400190205460ff1615610f7257610f6f600183612a56565b91505b600454821415610f8757600192505050610fa0565b80610f9181612af9565b915050610efa565b5060009150505b919050565b6000805b6003548110156110335760008381526001602052604081206003805491929184908110610fe657634e487b7160e01b600052603260045260246000fd5b60009182526020808320909101546001600160a01b0316835282019290925260400190205460ff16156110215761101e600183612a56565b91505b8061102b81612af9565b915050610fa9565b50919050565b6000602081905290815260409020805460018201546002830180546001600160a01b0390931693919261106b90612ac4565b80601f016020809104026020016040519081016040528092919081815260200182805461109790612ac4565b80156110e45780601f106110b9576101008083540402835291602001916110e4565b820191906000526020600020905b8154815290600101906020018083116110c757829003601f168201915b5050506003909301549192505060ff1684565b6060600380548060200260200160405190810160405280929190818152602001828054801561114f57602002820191906000526020600020905b81546001600160a01b03168152600190910190602001808311611131575b5050505050905090565b60006001600160a01b0383166111815760405162461bcd60e51b81526004016106aa9061265d565b600a546040517fa9059cbb0000000000000000000000000000000000000000000000000000000081526001600160a01b0390911690819063a9059cbb906111ce90879087906004016124b8565b602060405180830381600087803b1580156111e857600080fd5b505af11580156111fc573d6000803e3d6000fd5b505050506040513d601f19601f820116820180604052508101906112209190612143565b949350505050565b6060600060055467ffffffffffffffff81111561125557634e487b7160e01b600052604160045260246000fd5b60405190808252806020026020018201604052801561127e578160200160208202803683370190505b5090506000805b600554811015611323578580156112ae575060008181526020819052604090206003015460ff16155b806112d257508480156112d2575060008181526020819052604090206003015460ff165b1561131157808383815181106112f857634e487b7160e01b600052603260045260246000fd5b602090810291909101015261130e600183612a56565b91505b8061131b81612af9565b915050611285565b61132d8888612aad565b67ffffffffffffffff81111561135357634e487b7160e01b600052604160045260246000fd5b60405190808252806020026020018201604052801561137c578160200160208202803683370190505b5093508790505b868110156113fb578281815181106113ab57634e487b7160e01b600052603260045260246000fd5b60200260200101518489836113c09190612aad565b815181106113de57634e487b7160e01b600052603260045260246000fd5b6020908102919091010152806113f381612af9565b915050611383565b505050949350505050565b60065490565b60035460609060009067ffffffffffffffff81111561143b57634e487b7160e01b600052604160045260246000fd5b604051908082528060200260200182016040528015611464578160200160208202803683370190505b5090506000805b60035481101561156c57600085815260016020526040812060038054919291849081106114a857634e487b7160e01b600052603260045260246000fd5b60009182526020808320909101546001600160a01b0316835282019290925260400190205460ff161561155a57600381815481106114f657634e487b7160e01b600052603260045260246000fd5b9060005260206000200160009054906101000a90046001600160a01b031683838151811061153457634e487b7160e01b600052603260045260246000fd5b6001600160a01b0390921660209283029190910190910152611557600183612a56565b91505b8061156481612af9565b91505061146b565b8167ffffffffffffffff81111561159357634e487b7160e01b600052604160045260246000fd5b6040519080825280602002602001820160405280156115bc578160200160208202803683370190505b509350600090505b8181101561163e578281815181106115ec57634e487b7160e01b600052603260045260246000fd5b602002602001015184828151811061161457634e487b7160e01b600052603260045260246000fd5b6001600160a01b03909216602092830291909101909101528061163681612af9565b9150506115c4565b505050919050565b611651333083611ce5565b61166d5760405162461bcd60e51b81526004016106aa906127f3565b7f2da466a7b24304f47e87fa2e1e5a81b9831ce54fec19055ce277ca2f39ba42c4338260405161169e9291906124b8565b60405180910390a180600660008282546116b89190612a56565b9091555050600b546040517fcc6e12370000000000000000000000000000000000000000000000000000000081526001600160a01b039091169063cc6e12379061170890339085906004016124b8565b600060405180830381600087803b15801561172257600080fd5b505af1158015611736573d6000803e3d6000fd5b5050505050565b60055481565b3330146117625760405162461bcd60e51b81526004016106aa90612728565b60035481603282106117865760405162461bcd60e51b81526004016106aa906125b8565b8181106117a55760405162461bcd60e51b81526004016106aa906126cb565b806117c25760405162461bcd60e51b81526004016106aa906125ef565b816117df5760405162461bcd60e51b81526004016106aa9061292c565b60048390556040517fa3f1ee9126a074d9326c682f561767f710e927faa811f7a99829d49dc421797a90611814908590612a17565b60405180910390a1505050565b3360008181526002602052604090205460ff166118505760405162461bcd60e51b81526004016106aa906127bc565b60008281526020819052604090205482906001600160a01b03166118865760405162461bcd60e51b81526004016106aa90612861565b60008381526001602090815260408083203380855292529091205484919060ff16156118c45760405162461bcd60e51b81526004016106aa9061282a565b6000858152600160208181526040808420338086529252808420805460ff1916909317909255905187927f4a504a94899432a9846e1aa406dceb1bcfd538bb839071d49d1e5e23f5be30ef91a361173685611b5b565b6000611927848484611db7565b905061193281611821565b9392505050565b600a805473ffffffffffffffffffffffffffffffffffffffff19166001600160a01b0392909216919091179055565b603281565b60045481565b3330146119925760405162461bcd60e51b81526004016106aa90612728565b6001600160a01b038216600090815260026020526040902054829060ff166119cc5760405162461bcd60e51b81526004016106aa906127bc565b6001600160a01b038216600090815260026020526040902054829060ff1615611a075760405162461bcd60e51b81526004016106aa90612626565b60005b600354811015611ac157846001600160a01b031660038281548110611a3f57634e487b7160e01b600052603260045260246000fd5b6000918252602090912001546001600160a01b03161415611aaf578360038281548110611a7c57634e487b7160e01b600052603260045260246000fd5b9060005260206000200160006101000a8154816001600160a01b0302191690836001600160a01b03160217905550611ac1565b80611ab981612af9565b915050611a0a565b506001600160a01b03808516600081815260026020526040808220805460ff1990811690915593871682528082208054909416600117909355915190917f8001553a916ef2f495d26a907cc54d96ed840d7bda71e73194bf5a9df7a76b9091a26040516001600160a01b038416907ff39e6e1eb0edcf53c221607b54b00cd28f3196fed0a24994dc308b8f611b682d90600090a250505050565b600081815260208190526040902060030154819060ff1615611b8f5760405162461bcd60e51b81526004016106aa90612963565b611b9882610ef5565b15611c9d5760008281526020819052604080822060038101805460ff1916600190811790915581549082015492519193926060926001600160a01b0390921691611be69060028701906123e5565b60006040518083038185875af1925050503d8060008114611c23576040519150601f19603f3d011682016040523d82523d6000602084013e611c28565b606091505b5090925090508115611c645760405185907f33e13ecb54c3076d8e8bb8c2881800a4d972b792045ffae98fdf46df365fed7590600090a2611736565b60405185907f526441bb6c1aba3c9a4a6ca1d6545da9c2333c8c48343ef398eb858d72b7923690600090a25050600301805460ff191690555b5050565b90565b600654600090611cb783620186a0612a8e565b611cc19190612a6e565b9050614e20811115611c9d5760405162461bcd60e51b81526004016106aa906128cf565b60006001600160a01b038316611d0d5760405162461bcd60e51b81526004016106aa9061265d565b600a546040517f23b872dd0000000000000000000000000000000000000000000000000000000081526001600160a01b039091169081906323b872dd90611d5c90889088908890600401612494565b602060405180830381600087803b158015611d7657600080fd5b505af1158015611d8a573d6000803e3d6000fd5b505050506040513d601f19601f82011682018060405250810190611dae9190612143565b95945050505050565b6000836001600160a01b038116611de05760405162461bcd60e51b81526004016106aa90612581565b600554604080516080810182526001600160a01b0388811682526020808301898152838501898152600060608601819052878152808452959095208451815473ffffffffffffffffffffffffffffffffffffffff191694169390931783555160018301559251805194965091939092611e60926002850192910190611f4f565b50606091909101516003909101805460ff19169115159190911790556005805460019190600090611e92908490612a56565b909155505060405182907fc0ba8fe4b176c1714197d43b9cc6bcf797a4a7461c5fe8d0ef6e184ae7601e5190600090a2509392505050565b6040518060200160405280606081525090565b828054828255906000526020600020908101928215611f3f579160200282015b82811115611f3f578251825473ffffffffffffffffffffffffffffffffffffffff19166001600160a01b03909116178255602090920191600190910190611efd565b50611f4b929150611fc3565b5090565b828054611f5b90612ac4565b90600052602060002090601f016020900481019282611f7d5760008555611f3f565b82601f10611f9657805160ff1916838001178555611f3f565b82800160010185558215611f3f579182015b82811115611f3f578251825591602001919060010190611fa8565b5b80821115611f4b5760008155600101611fc4565b600067ffffffffffffffff831115611ff257611ff2612b2a565b612005601f8401601f1916602001612a20565b905082815283838301111561201957600080fd5b828260208301376000602084830101529392505050565b80356001600160a01b0381168114610fa057600080fd5b600082601f830112612057578081fd5b61193283833560208501611fd8565b600060208284031215612077578081fd5b61193282612030565b60008060408385031215612092578081fd5b61209b83612030565b91506120a960208401612030565b90509250929050565b600080604083850312156120c4578182fd5b6120cd83612030565b946020939093013593505050565b6000806000606084860312156120ef578081fd5b6120f884612030565b925060208401359150604084013567ffffffffffffffff81111561211a578182fd5b8401601f8101861361212a578182fd5b61213986823560208401611fd8565b9150509250925092565b600060208284031215612154578081fd5b815161193281612b40565b60008060408385031215612171578182fd5b823561217c81612b40565b9150602083013561218c81612b40565b809150509250929050565b600060208083850312156121a9578182fd5b823567ffffffffffffffff808211156121c0578384fd5b90840190604082870312156121d3578384fd5b6040516040810181811083821117156121ee576121ee612b2a565b6040528235828111156121ff578586fd5b8301601f8101881361220f578586fd5b80358381111561222157612221612b2a565b85810261222f878201612a20565b828152878101908489018386018a018d1015612249578a8bfd5b8a95505b848610156122725761225e81612030565b83526001959095019491890191890161224d565b508552505050508284013582811115612289578586fd5b61229588828601612047565b948201949094529695505050505050565b6000602082840312156122b7578081fd5b5035919050565b600080604083850312156122d0578182fd5b823591506120a960208401612030565b600080600080608085870312156122f5578081fd5b8435935060208501359250604085013561230e81612b40565b9150606085013561231e81612b40565b939692955090935050565b6000815180845260208085019450808401835b838110156123615781516001600160a01b03168752958201959082019060010161233c565b509495945050505050565b60008151808452815b8181101561239157602081850181015186830182015201612375565b818111156123a25782602083870101525b50601f01601f19169290920160200192915050565b60008151604084526123cc6040850182612329565b905060208301518482036020860152611dae828261236c565b815460009081906002810460018083168061240157607f831692505b602080841082141561242157634e487b7160e01b87526022600452602487fd5b818015612435576001811461244657612472565b60ff19861689528489019650612472565b61244f8a612a4a565b885b8681101561246a5781548b820152908501908301612451565b505084890196505b509498975050505050505050565b6001600160a01b0391909116815260200190565b6001600160a01b039384168152919092166020820152604081019190915260600190565b6001600160a01b03929092168252602082015260400190565b60006001600160a01b0386168252846020830152608060408301526124f9608083018561236c565b9050821515606083015295945050505050565b6000602082526119326020830184612329565b6020808252825182820181905260009190848201906040850190845b818110156125575783518352928401929184019160010161253b565b50909695505050505050565b901515815260200190565b600060208252611932602083018461236c565b60208082526017908201527f726571757265206e6f74206e756c6c2061646472657373000000000000000000604082015260600190565b60208082526019908201527f6d617820206f776e657220636f756e7420657863656564656400000000000000604082015260600190565b60208082526019908201527f7a65726f207265717569726564206e6f7420616c6c6f77656400000000000000604082015260600190565b60208082526015908201527f4f776e65722073686f756c646e27742065786973740000000000000000000000604082015260600190565b6020808252601b908201527f43616e27742073656e6420746f207a65726f20616464726573732e0000000000604082015260600190565b6020808252600d908201527f6e6f7420636f6e6669726d656400000000000000000000000000000000000000604082015260600190565b6020808252602b908201527f63616e277420686176652072657175697265642067726561746572207468616e60408201527f206f776e6572436f756e74000000000000000000000000000000000000000000606082015260800190565b60208082526013908201527f4f6e6c792077616c6c657420616c6c6f77656400000000000000000000000000604082015260600190565b60208082526021908201527f4f6e6c7920476f7665726e656e636520616c6c6f776564206f7065726174696f60408201527f6e00000000000000000000000000000000000000000000000000000000000000606082015260800190565b60208082526013908201527f4f776e657220646f65736e277420657869737400000000000000000000000000604082015260600190565b60208082526017908201527f4465706f736974206e6f74207375636365737366756c2e000000000000000000604082015260600190565b60208082526009908201527f636f6e6669726d65640000000000000000000000000000000000000000000000604082015260600190565b60208082526016908201527f7472616e736374696f6e20697320706f737369626c6500000000000000000000604082015260600190565b6020808252601a908201527f5769746864726177616c206e6f74207375636365737366756c2e000000000000604082015260600190565b6020808252602e908201527f43616e6e6f74207769746864726177206d6f7265207468616e20323025206f6660408201527f20506f6f6c2062616c616e63652e000000000000000000000000000000000000606082015260800190565b60208082526016908201527f43616e27742068617665207a65726f206f776e65727300000000000000000000604082015260600190565b60208082526019908201527f68617320616c7265616479206265656e20657865637574656400000000000000604082015260600190565b60006020825261193260208301846123b7565b600060208083526040830184518283860152818151808452606087019150606085820288010193508483019250855b81811015612a0a57605f198886030183526129f88585516123b7565b945092850192918501916001016129dc565b5092979650505050505050565b90815260200190565b60405181810167ffffffffffffffff81118282101715612a4257612a42612b2a565b604052919050565b60009081526020902090565b60008219821115612a6957612a69612b14565b500190565b600082612a8957634e487b7160e01b81526012600452602481fd5b500490565b6000816000190483118215151615612aa857612aa8612b14565b500290565b600082821015612abf57612abf612b14565b500390565b600281046001821680612ad857607f821691505b6020821081141561103357634e487b7160e01b600052602260045260246000fd5b6000600019821415612b0d57612b0d612b14565b5060010190565b634e487b7160e01b600052601160045260246000fd5b634e487b7160e01b600052604160045260246000fd5b8015158114612b4e57600080fd5b5056fea26469706673582212201af965bb5204f9c1a27a3d80d82954bb5c7ee50bf5b382ab552d2437a3065a2764736f6c63430008000033",
  "linkReferences": {},
  "deployedLinkReferences": {}
}