{
  "_format": "hh-sol-artifact-1",
  "contractName": "Pool",
  "sourceName": "contracts/Pool.sol",
  "abi": [
    {
      "inputs": [
        {
          "internalType": "string",
          "name": "_name",
          "type": "string"
        },
        {
          "internalType": "address[]",
          "name": "_admins",
          "type": "address[]"
        }
      ],
      "stateMutability": "nonpayable",
      "type": "constructor"
    },
    {
      "anonymous": false,
      "inputs": [
        {
          "indexed": false,
          "internalType": "address",
          "name": "_address",
          "type": "address"
        }
      ],
      "name": "AddedAdmin",
      "type": "event"
    },
    {
      "anonymous": false,
      "inputs": [
        {
          "indexed": false,
          "internalType": "address",
          "name": "_adddress",
          "type": "address"
        }
      ],
      "name": "RemovedAdmin",
      "type": "event"
    },
    {
      "inputs": [
        {
          "internalType": "address",
          "name": "_address",
          "type": "address"
        }
      ],
      "name": "addAdmin",
      "outputs": [],
      "stateMutability": "nonpayable",
      "type": "function"
    },
    {
      "inputs": [
        {
          "internalType": "address",
          "name": "",
          "type": "address"
        }
      ],
      "name": "admins",
      "outputs": [
        {
          "internalType": "bool",
          "name": "",
          "type": "bool"
        }
      ],
      "stateMutability": "view",
      "type": "function"
    },
    {
      "inputs": [
        {
          "internalType": "uint256",
          "name": "_amount",
          "type": "uint256"
        }
      ],
      "name": "deposit",
      "outputs": [],
      "stateMutability": "nonpayable",
      "type": "function"
    },
    {
      "inputs": [],
      "name": "name",
      "outputs": [
        {
          "internalType": "string",
          "name": "",
          "type": "string"
        }
      ],
      "stateMutability": "view",
      "type": "function"
    },
    {
      "inputs": [
        {
          "internalType": "address",
          "name": "_address",
          "type": "address"
        }
      ],
      "name": "removeAdmin",
      "outputs": [],
      "stateMutability": "nonpayable",
      "type": "function"
    },
    {
      "inputs": [
        {
          "internalType": "address",
          "name": "to",
          "type": "address"
        },
        {
          "internalType": "address",
          "name": "from",
          "type": "address"
        },
        {
          "internalType": "uint256",
          "name": "_amount",
          "type": "uint256"
        }
      ],
      "name": "transfer",
      "outputs": [],
      "stateMutability": "nonpayable",
      "type": "function"
    },
    {
      "inputs": [
        {
          "internalType": "uint256",
          "name": "_amount",
          "type": "uint256"
        }
      ],
      "name": "withdraw",
      "outputs": [],
      "stateMutability": "nonpayable",
      "type": "function"
    }
  ],
  "bytecode": "0x6080604052600080553480156200001557600080fd5b50604051620008c8380380620008c8833981016040819052620000389162000217565b81516200004d906001906020850190620000d2565b5060005b8151811015620000c9576001600260008484815181106200008257634e487b7160e01b600052603260045260246000fd5b6020908102919091018101516001600160a01b03168252810191909152604001600020805460ff191691151591909117905580620000c0816200035e565b91505062000051565b5050506200039c565b828054620000e09062000321565b90600052602060002090601f0160209004810192826200010457600085556200014f565b82601f106200011f57805160ff19168380011785556200014f565b828001600101855582156200014f579182015b828111156200014f57825182559160200191906001019062000132565b506200015d92915062000161565b5090565b5b808211156200015d576000815560010162000162565b600082601f83011262000189578081fd5b815160206001600160401b03821115620001a757620001a762000386565b808202620001b7828201620002f5565b838152828101908684018388018501891015620001d2578687fd5b8693505b858410156200020b5780516001600160a01b0381168114620001f6578788fd5b835260019390930192918401918401620001d6565b50979650505050505050565b600080604083850312156200022a578182fd5b82516001600160401b038082111562000241578384fd5b818501915085601f83011262000255578384fd5b8151818111156200026a576200026a62000386565b602062000280601f8301601f19168201620002f5565b828152888284870101111562000294578687fd5b865b83811015620002b357858101830151828201840152820162000296565b83811115620002c457878385840101525b509087015190955092505080821115620002dc578283fd5b50620002eb8582860162000178565b9150509250929050565b6040518181016001600160401b038111828210171562000319576200031962000386565b604052919050565b6002810460018216806200033657607f821691505b602082108114156200035857634e487b7160e01b600052602260045260246000fd5b50919050565b60006000198214156200037f57634e487b7160e01b81526011600452602481fd5b5060010190565b634e487b7160e01b600052604160045260246000fd5b61051c80620003ac6000396000f3fe608060405234801561001057600080fd5b506004361061007d5760003560e01c8063429b62e51161005b578063429b62e5146100c857806370480275146100e8578063b6b55f25146100b5578063beabacc8146100fb5761007d565b806306fdde03146100825780631785f53c146100a05780632e1a7d4d146100b5575b600080fd5b61008a61010e565b60405161009791906103bc565b60405180910390f35b6100b36100ae36600461031c565b61019c565b005b6100b36100c3366004610378565b610242565b6100db6100d636600461031c565b610245565b60405161009791906103b1565b6100b36100f636600461031c565b61025a565b6100b361010936600461033d565b6102ee565b6001805461011b90610492565b80601f016020809104026020016040519081016040528092919081815260200182805461014790610492565b80156101945780601f1061016957610100808354040283529160200191610194565b820191906000526020600020905b81548152906001019060200180831161017757829003601f168201915b505050505081565b3360008181526002602052604090205460ff1615156001146101d95760405162461bcd60e51b81526004016101d09061040f565b60405180910390fd5b73ffffffffffffffffffffffffffffffffffffffff821660009081526002602052604090819020805460ff19169055517f3137a7fedbfedb7895dfa5a6812a4566dae9ded68d00aeec13c6ed1fa84a1c8090610236908490610390565b60405180910390a15050565b50565b60026020526000908152604090205460ff1681565b3360008181526002602052604090205460ff16151560011461028e5760405162461bcd60e51b81526004016101d09061040f565b73ffffffffffffffffffffffffffffffffffffffff821660009081526002602052604090819020805460ff19166001179055517f7849194239ab1d31b991b5436d81370256505cf25eaafbcccbc66acd1189691690610236908490610390565b505050565b803573ffffffffffffffffffffffffffffffffffffffff8116811461031757600080fd5b919050565b60006020828403121561032d578081fd5b610336826102f3565b9392505050565b600080600060608486031215610351578182fd5b61035a846102f3565b9250610368602085016102f3565b9150604084013590509250925092565b600060208284031215610389578081fd5b5035919050565b73ffffffffffffffffffffffffffffffffffffffff91909116815260200190565b901515815260200190565b6000602080835283518082850152825b818110156103e8578581018301518582016040015282016103cc565b818111156103f95783604083870101525b50601f01601f1916929092016040019392505050565b6020808252604a908201527f55736572206973206e6f7420617574686f72697a656420746f20706572666f7260408201527f6d206f7065726174696f6e2062656361757365207468657920617265206e6f7460608201527f20616e2041646d696e2e00000000000000000000000000000000000000000000608082015260a00190565b6002810460018216806104a657607f821691505b602082108114156104e0577f4e487b7100000000000000000000000000000000000000000000000000000000600052602260045260246000fd5b5091905056fea2646970667358221220b04b41b84d9714a3aeff3bbc0d88898e161402235917e436735cf6d9e988233a64736f6c63430008000033",
  "linkReferences": {},
  "deployedLinkReferences": {}
}