{
  "_format": "hh-sol-artifact-1",
  "contractName": "Pool",
  "sourceName": "contracts/Pool.sol",
  "abi": [
    {
      "inputs": [
        {
          "internalType": "string",
          "name": "_name",
          "type": "string"
        },
        {
          "internalType": "address",
          "name": "_governer",
          "type": "address"
        },
        {
          "internalType": "address[]",
          "name": "_admins",
          "type": "address[]"
        }
      ],
      "stateMutability": "nonpayable",
      "type": "constructor"
    },
    {
      "anonymous": false,
      "inputs": [
        {
          "indexed": false,
          "internalType": "address",
          "name": "_address",
          "type": "address"
        }
      ],
      "name": "AddedAdmin",
      "type": "event"
    },
    {
      "anonymous": false,
      "inputs": [
        {
          "components": [
            {
              "internalType": "address[]",
              "name": "auditors",
              "type": "address[]"
            },
            {
              "internalType": "string",
              "name": "fullAuditReport",
              "type": "string"
            }
          ],
          "indexed": false,
          "internalType": "struct AuditorReports.Audit",
          "name": "_audit",
          "type": "tuple"
        }
      ],
      "name": "AddedAuditReport",
      "type": "event"
    },
    {
      "anonymous": false,
      "inputs": [
        {
          "indexed": false,
          "internalType": "address",
          "name": "_adddress",
          "type": "address"
        }
      ],
      "name": "RemovedAdmin",
      "type": "event"
    },
    {
      "inputs": [
        {
          "components": [
            {
              "internalType": "address[]",
              "name": "auditors",
              "type": "address[]"
            },
            {
              "internalType": "string",
              "name": "fullAuditReport",
              "type": "string"
            }
          ],
          "internalType": "struct AuditorReports.Audit",
          "name": "_audit",
          "type": "tuple"
        }
      ],
      "name": "AddAuditReport",
      "outputs": [],
      "stateMutability": "nonpayable",
      "type": "function"
    },
    {
      "inputs": [
        {
          "internalType": "address",
          "name": "_address",
          "type": "address"
        }
      ],
      "name": "addAdmin",
      "outputs": [],
      "stateMutability": "nonpayable",
      "type": "function"
    },
    {
      "inputs": [
        {
          "internalType": "uint256",
          "name": "_amount",
          "type": "uint256"
        }
      ],
      "name": "deposit",
      "outputs": [],
      "stateMutability": "nonpayable",
      "type": "function"
    },
    {
      "inputs": [],
      "name": "getAudits",
      "outputs": [
        {
          "components": [
            {
              "components": [
                {
                  "internalType": "address[]",
                  "name": "auditors",
                  "type": "address[]"
                },
                {
                  "internalType": "string",
                  "name": "fullAuditReport",
                  "type": "string"
                }
              ],
              "internalType": "struct AuditorReports.Audit[]",
              "name": "HistoricalAudits",
              "type": "tuple[]"
            }
          ],
          "internalType": "struct AuditorReports.Reports",
          "name": "",
          "type": "tuple"
        }
      ],
      "stateMutability": "view",
      "type": "function"
    },
    {
      "inputs": [
        {
          "internalType": "address",
          "name": "",
          "type": "address"
        }
      ],
      "name": "isAdmin",
      "outputs": [
        {
          "internalType": "bool",
          "name": "",
          "type": "bool"
        }
      ],
      "stateMutability": "view",
      "type": "function"
    },
    {
      "inputs": [],
      "name": "name",
      "outputs": [
        {
          "internalType": "string",
          "name": "",
          "type": "string"
        }
      ],
      "stateMutability": "view",
      "type": "function"
    },
    {
      "inputs": [
        {
          "internalType": "address",
          "name": "_address",
          "type": "address"
        }
      ],
      "name": "removeAdmin",
      "outputs": [],
      "stateMutability": "nonpayable",
      "type": "function"
    },
    {
      "inputs": [],
      "name": "totalAdmins",
      "outputs": [
        {
          "internalType": "uint256",
          "name": "",
          "type": "uint256"
        }
      ],
      "stateMutability": "view",
      "type": "function"
    },
    {
      "inputs": [
        {
          "internalType": "address",
          "name": "to",
          "type": "address"
        },
        {
          "internalType": "address",
          "name": "from",
          "type": "address"
        },
        {
          "internalType": "uint256",
          "name": "_amount",
          "type": "uint256"
        }
      ],
      "name": "transfer",
      "outputs": [],
      "stateMutability": "nonpayable",
      "type": "function"
    },
    {
      "inputs": [
        {
          "internalType": "uint256",
          "name": "_amount",
          "type": "uint256"
        }
      ],
      "name": "withdraw",
      "outputs": [],
      "stateMutability": "nonpayable",
      "type": "function"
    }
  ],
  "bytecode": "0x60806040526000805560006003553480156200001a57600080fd5b50604051620010f3380380620010f38339810160408190526200003d91620002c3565b8251620000529060019060208601906200016d565b50600580546001600160a01b0319166001600160a01b03841617905560005b8151811015620001635760026000838381518110620000a057634e487b7160e01b600052603260045260246000fd5b6020908102919091018101516001600160a01b031682528101919091526040016000205460ff166200013357600160026000848481518110620000f357634e487b7160e01b600052603260045260246000fd5b60200260200101516001600160a01b03166001600160a01b0316815260200190815260200160002060006101000a81548160ff0219169083151502179055505b600160036000828254620001489190620003df565b909155508190506200015a8162000437565b91505062000071565b5050505062000481565b8280546200017b90620003fa565b90600052602060002090601f0160209004810192826200019f5760008555620001ea565b82601f10620001ba57805160ff1916838001178555620001ea565b82800160010185558215620001ea579182015b82811115620001ea578251825591602001919060010190620001cd565b50620001f8929150620001fc565b5090565b5b80821115620001f85760008155600101620001fd565b80516001600160a01b03811681146200022b57600080fd5b919050565b600082601f83011262000241578081fd5b815160206001600160401b038211156200025f576200025f6200046b565b8082026200026f828201620003b3565b8381528281019086840183880185018910156200028a578687fd5b8693505b85841015620002b757620002a28162000213565b8352600193909301929184019184016200028e565b50979650505050505050565b600080600060608486031215620002d8578283fd5b83516001600160401b0380821115620002ef578485fd5b818601915086601f83011262000303578485fd5b8151818111156200031857620003186200046b565b60206200032e601f8301601f19168201620003b3565b828152898284870101111562000342578788fd5b875b838110156200036157858101830151828201840152820162000344565b838111156200037257888385840101525b5096506200038288820162000213565b9550505060408601519150808211156200039a578283fd5b50620003a98682870162000230565b9150509250925092565b6040518181016001600160401b0381118282101715620003d757620003d76200046b565b604052919050565b60008219821115620003f557620003f562000455565b500190565b6002810460018216806200040f57607f821691505b602082108114156200043157634e487b7160e01b600052602260045260246000fd5b50919050565b60006000198214156200044e576200044e62000455565b5060010190565b634e487b7160e01b600052601160045260246000fd5b634e487b7160e01b600052604160045260246000fd5b610c6280620004916000396000f3fe608060405234801561001057600080fd5b50600436106100be5760003560e01c80637048027511610076578063b6b55f251161005b578063b6b55f2514610116578063beabacc814610164578063eb68048b14610177576100be565b8063704802751461013e578063722f8ee214610151576100be565b806324d7806c116100a757806324d7806c146100f65780632e1a7d4d14610116578063523ec1d014610129576100be565b806306fdde03146100c35780631785f53c146100e1575b600080fd5b6100cb61018c565b6040516100d891906109f3565b60405180910390f35b6100f46100ef36600461079e565b61021a565b005b61010961010436600461079e565b6102ed565b6040516100d891906109e8565b6100f4610124366004610909565b610302565b610131610305565b6040516100d89190610af9565b6100f461014c36600461079e565b610468565b6100f461015f3660046107fa565b610528565b6100f46101723660046107bf565b6105f3565b61017f6105f8565b6040516100d89190610b63565b6001805461019990610bc5565b80601f01602080910402602001604051908101604052809291908181526020018280546101c590610bc5565b80156102125780601f106101e757610100808354040283529160200191610212565b820191906000526020600020905b8154815290600101906020018083116101f557829003601f168201915b505050505081565b3360008181526002602052604090205460ff1615156001146102575760405162461bcd60e51b815260040161024e90610a63565b60405180910390fd5b6001600160a01b03821660009081526002602052604090205460ff1615610299576001600160a01b0382166000908152600260205260409020805460ff191690555b6001600360008282546102ac9190610bae565b90915550506040517f3137a7fedbfedb7895dfa5a6812a4566dae9ded68d00aeec13c6ed1fa84a1c80906102e19084906109d4565b60405180910390a15050565b60026020526000908152604090205460ff1681565b50565b61030d6105fe565b6040805160048054602081810284018501855283018181529293919284929091849160009085015b8282101561045b5783829060005260206000209060020201604051806040016040529081600082018054806020026020016040519081016040528092919081815260200182805480156103b157602002820191906000526020600020905b81546001600160a01b03168152600190910190602001808311610393575b505050505081526020016001820180546103ca90610bc5565b80601f01602080910402602001604051908101604052809291908181526020018280546103f690610bc5565b80156104435780601f1061041857610100808354040283529160200191610443565b820191906000526020600020905b81548152906001019060200180831161042657829003601f168201915b50505050508152505081526020019060010190610335565b5050505081525050905090565b3360008181526002602052604090205460ff16151560011461049c5760405162461bcd60e51b815260040161024e90610a63565b6001600160a01b03821660009081526002602052604090205460ff166104e0576001600160a01b0382166000908152600260205260409020805460ff191660011790555b6001600360008282546104f39190610b96565b90915550506040517f7849194239ab1d31b991b5436d81370256505cf25eaafbcccbc66acd11896916906102e19084906109d4565b6005546001600160a01b031633146105525760405162461bcd60e51b815260040161024e90610a06565b600480546001810182556000919091528151805183926002027f8a35acfbc15ff81a39ae7d344fd709f28e8600b4aa8c65c6b64bfe7fe36bd19b019161059d91839160200190610611565b5060208281015180516105b6926001850192019061068e565b5050507f1296b70fc9141190fd21db15fabe3f067aa5dc48f440e5cde726a311a8e2c180816040516105e89190610ae6565b60405180910390a150565b505050565b60035481565b6040518060200160405280606081525090565b82805482825590600052602060002090810192821561067e579160200282015b8281111561067e57825182547fffffffffffffffffffffffff0000000000000000000000000000000000000000166001600160a01b03909116178255602090920191600190910190610631565b5061068a929150610702565b5090565b82805461069a90610bc5565b90600052602060002090601f0160209004810192826106bc576000855561067e565b82601f106106d557805160ff191683800117855561067e565b8280016001018555821561067e579182015b8281111561067e5782518255916020019190600101906106e7565b5b8082111561068a5760008155600101610703565b80356001600160a01b038116811461072e57600080fd5b919050565b600082601f830112610743578081fd5b813567ffffffffffffffff81111561075d5761075d610c16565b610770601f8201601f1916602001610b6c565b818152846020838601011115610784578283fd5b816020850160208301379081016020019190915292915050565b6000602082840312156107af578081fd5b6107b882610717565b9392505050565b6000806000606084860312156107d3578182fd5b6107dc84610717565b92506107ea60208501610717565b9150604084013590509250925092565b6000602080838503121561080c578182fd5b823567ffffffffffffffff80821115610823578384fd5b9084019060408287031215610836578384fd5b60405160408101818110838211171561085157610851610c16565b604052823582811115610862578586fd5b8301601f81018813610872578586fd5b80358381111561088457610884610c16565b858102610892878201610b6c565b828152878101908489018386018a018d10156108ac578a8bfd5b8a95505b848610156108d5576108c181610717565b8352600195909501949189019189016108b0565b5085525050505082840135828111156108ec578586fd5b6108f888828601610733565b948201949094529695505050505050565b60006020828403121561091a578081fd5b5035919050565b60008151808452815b818110156109465760208185018101518683018201520161092a565b818111156109575782602083870101525b50601f01601f19169290920160200192915050565b805160408084528151908401819052600091602091908201906060860190845b818110156109b15783516001600160a01b03168352928401929184019160010161098c565b5050828501519150858103838701526109ca8183610921565b9695505050505050565b6001600160a01b0391909116815260200190565b901515815260200190565b6000602082526107b86020830184610921565b60208082526021908201527f4f6e6c7920476f7665726e656e636520616c6c6f776564206f7065726174696f60408201527f6e00000000000000000000000000000000000000000000000000000000000000606082015260800190565b6020808252604a908201527f55736572206973206e6f7420617574686f72697a656420746f20706572666f7260408201527f6d206f7065726174696f6e2062656361757365207468657920617265206e6f7460608201527f20616e2041646d696e2e00000000000000000000000000000000000000000000608082015260a00190565b6000602082526107b8602083018461096c565b600060208083526040830184518283860152818151808452606087019150606085820288010193508483019250855b81811015610b5657605f19888603018352610b4485855161096c565b94509285019291850191600101610b28565b5092979650505050505050565b90815260200190565b60405181810167ffffffffffffffff81118282101715610b8e57610b8e610c16565b604052919050565b60008219821115610ba957610ba9610c00565b500190565b600082821015610bc057610bc0610c00565b500390565b600281046001821680610bd957607f821691505b60208210811415610bfa57634e487b7160e01b600052602260045260246000fd5b50919050565b634e487b7160e01b600052601160045260246000fd5b634e487b7160e01b600052604160045260246000fdfea2646970667358221220b80f611af7692b0cf90c056baea1dd2f4cf33aa9f4b3b24f5c1854cec3d819e864736f6c63430008000033",
  "linkReferences": {},
  "deployedLinkReferences": {}
}