{
  "_format": "hh-sol-artifact-1",
  "contractName": "PoolFactory",
  "sourceName": "contracts/PoolFactory.sol",
  "abi": [
    {
      "inputs": [
        {
          "internalType": "address",
          "name": "_stkToken",
          "type": "address"
        },
        {
          "internalType": "address",
          "name": "_goverence",
          "type": "address"
        }
      ],
      "stateMutability": "nonpayable",
      "type": "constructor"
    },
    {
      "inputs": [
        {
          "internalType": "string",
          "name": "name",
          "type": "string"
        },
        {
          "internalType": "address[]",
          "name": "admins",
          "type": "address[]"
        }
      ],
      "name": "createPool",
      "outputs": [
        {
          "internalType": "contract Pool",
          "name": "",
          "type": "address"
        }
      ],
      "stateMutability": "nonpayable",
      "type": "function"
    },
    {
      "inputs": [],
      "name": "getMinStakeAmount",
      "outputs": [
        {
          "internalType": "uint256",
          "name": "",
          "type": "uint256"
        }
      ],
      "stateMutability": "view",
      "type": "function"
    },
    {
      "inputs": [],
      "name": "getNumPools",
      "outputs": [
        {
          "internalType": "uint256",
          "name": "",
          "type": "uint256"
        }
      ],
      "stateMutability": "view",
      "type": "function"
    },
    {
      "inputs": [],
      "name": "listPools",
      "outputs": [
        {
          "internalType": "contract Pool[]",
          "name": "",
          "type": "address[]"
        }
      ],
      "stateMutability": "view",
      "type": "function"
    },
    {
      "inputs": [
        {
          "internalType": "uint256",
          "name": "",
          "type": "uint256"
        }
      ],
      "name": "pools",
      "outputs": [
        {
          "internalType": "contract Pool",
          "name": "",
          "type": "address"
        }
      ],
      "stateMutability": "view",
      "type": "function"
    }
  ],
  "bytecode": "0x6080604052683635c9adc5dea0000060035534801561001d57600080fd5b506040516160a73803806160a783398101604081905261003c91610089565b600180546001600160a01b039384166001600160a01b031991821617909155600280549290931691161790556100bb565b80516001600160a01b038116811461008457600080fd5b919050565b6000806040838503121561009b578182fd5b6100a48361006d565b91506100b26020840161006d565b90509250929050565b615fdd806100ca6000396000f3fe60806040523480156200001157600080fd5b5060043610620000705760003560e01c80636879586211620000575780636879586214620000a1578063ac4afa3814620000ba578063df48bbda14620000e05762000070565b80633c7e19811462000075578063527cb1d71462000097575b600080fd5b6200007f620000f7565b6040516200008e919062000799565b60405180910390f35b6200007f620000fd565b620000ab62000103565b6040516200008e919062000642565b620000d1620000cb36600462000540565b62000167565b6040516200008e91906200062e565b620000d1620000f136600462000485565b62000192565b60005490565b60035490565b606060008054806020026020016040519081016040528092919081815260200182805480156200015d57602002820191906000526020600020905b81546001600160a01b031681526001909101906020018083116200013e575b5050505050905090565b600081815481106200017857600080fd5b6000918252602090912001546001600160a01b0316905081565b6001546040517f70a0823100000000000000000000000000000000000000000000000000000000815260009182916001600160a01b03909116906370a0823190620001e29033906004016200062e565b60206040518083038186803b158015620001fb57600080fd5b505afa15801562000210573d6000803e3d6000fd5b505050506040513d601f19601f8201168201806040525081019062000236919062000559565b905060035481101562000280576040517f08c379a000000000000000000000000000000000000000000000000000000000815260040162000277906200073c565b60405180910390fd5b600084604051602001620002959190620005e7565b6040516020818303038152906040529050600085604051602001620002bb9190620005a0565b604051602081830303815290604052905060008282604051620002de90620003c9565b620002eb9291906200070a565b604051809103906000f08015801562000308573d6000803e3d6000fd5b5060025460405191925060009189916001600160a01b031690899085906200033090620003d7565b6200033f949392919062000691565b604051809103906000f0801580156200035c573d6000803e3d6000fd5b50600080546001810182559080527f290decd9548b62a8d60345a988386fc84ba6bc95484008f6362f93160ef3e5630180547fffffffffffffffffffffffff0000000000000000000000000000000000000000166001600160a01b03831617905598975050505050505050565b61246b806200083283390190565b61330b8062002c9d83390190565b600082601f830112620003f6578081fd5b8135602067ffffffffffffffff82111562000415576200041562000802565b80820262000425828201620007a2565b83815282810190868401838801850189101562000440578687fd5b8693505b85841015620004795780356001600160a01b038116811462000464578788fd5b83526001939093019291840191840162000444565b50979650505050505050565b6000806040838503121562000498578182fd5b823567ffffffffffffffff80821115620004b0578384fd5b818501915085601f830112620004c4578384fd5b8135602082821115620004db57620004db62000802565b620004ef601f8301601f19168201620007a2565b828152888284870101111562000503578687fd5b82828601838301379182018101959095529385013591508082111562000527578283fd5b506200053685828601620003e5565b9150509250929050565b60006020828403121562000552578081fd5b5035919050565b6000602082840312156200056b578081fd5b5051919050565b600081518084526200058c816020860160208601620007cf565b601f01601f19169290920160200192915050565b60007f4b4f4c4f2d00000000000000000000000000000000000000000000000000000082528251620005da816005850160208701620007cf565b9190910160050192915050565b60007f4b6f6c6f546f6b656e2d00000000000000000000000000000000000000000000825282516200062181600a850160208701620007cf565b91909101600a0192915050565b6001600160a01b0391909116815260200190565b6020808252825182820181905260009190848201906040850190845b81811015620006855783516001600160a01b0316835292840192918401916001016200065e565b50909695505050505050565b600060808252620006a6608083018762000572565b60206001600160a01b0380881682860152848303604086015282875180855283850191508389019450855b81811015620006f1578551841683529484019491840191600101620006d1565b5050951660609490940193909352509195945050505050565b6000604082526200071f604083018562000572565b828103602084015262000733818562000572565b95945050505050565b6020808252602a908201527f496e73756666696369656e74207374616b65642062616c616e636520746f206360408201527f726561746520706f6f6c00000000000000000000000000000000000000000000606082015260800190565b90815260200190565b60405181810167ffffffffffffffff81118282101715620007c757620007c762000802565b604052919050565b60005b83811015620007ec578181015183820152602001620007d2565b83811115620007fc576000848401525b50505050565b7f4e487b7100000000000000000000000000000000000000000000000000000000600052604160045260246000fdfe60806040523480156200001157600080fd5b506040516200246b3803806200246b8339810160408190526200003491620003d3565b8181818181600590805190602001906200005092919062000282565b5080516200006690600690602084019062000282565b50506007805460ff191690555062000089600062000083620000f1565b620000f5565b620000b87f9f2df0fed2c77648de5860a4cc508cd0818c85b8b8a1ab4ceeef8d981c8956a662000083620000f1565b620000e77f65d7a28e3265b37a6474929f336521b332c1681b933f6cb9f3376673440d862a62000083620000f1565b505050506200048d565b3390565b6200010c82826200013860201b62000a591760201c565b60008281526001602090815260409091206200013391839062000a6362000148821b17901c565b505050565b62000144828262000168565b5050565b60006200015f836001600160a01b038416620001f2565b90505b92915050565b62000174828262000241565b62000144576000828152602081815260408083206001600160a01b03851684529091529020805460ff19166001179055620001ae620000f1565b6001600160a01b0316816001600160a01b0316837f2f8788117e7eff1d82e926ec794901d17c78024a50270940304540a733656f0d60405160405180910390a45050565b60006200020083836200026a565b620002385750815460018181018455600084815260208082209093018490558454848252828601909352604090209190915562000162565b50600062000162565b6000918252602082815260408084206001600160a01b0393909316845291905290205460ff1690565b60009081526001919091016020526040902054151590565b82805462000290906200043a565b90600052602060002090601f016020900481019282620002b45760008555620002ff565b82601f10620002cf57805160ff1916838001178555620002ff565b82800160010185558215620002ff579182015b82811115620002ff578251825591602001919060010190620002e2565b506200030d92915062000311565b5090565b5b808211156200030d576000815560010162000312565b600082601f83011262000339578081fd5b81516001600160401b038082111562000356576200035662000477565b6040516020601f8401601f19168201810183811183821017156200037e576200037e62000477565b604052838252858401810187101562000395578485fd5b8492505b83831015620003b8578583018101518284018201529182019162000399565b83831115620003c957848185840101525b5095945050505050565b60008060408385031215620003e6578182fd5b82516001600160401b0380821115620003fd578384fd5b6200040b8683870162000328565b9350602085015191508082111562000421578283fd5b50620004308582860162000328565b9150509250929050565b6002810460018216806200044f57607f821691505b602082108114156200047157634e487b7160e01b600052602260045260246000fd5b50919050565b634e487b7160e01b600052604160045260246000fd5b611fce806200049d6000396000f3fe608060405234801561001057600080fd5b50600436106101f05760003560e01c806370a082311161010f578063a457c2d7116100a2578063d539139311610071578063d5391393146103f2578063d547741f146103fa578063dd62ed3e1461040d578063e63ab1e914610420576101f0565b8063a457c2d7146103a6578063a9059cbb146103b9578063ca15c873146103cc578063cc6e1237146103df576101f0565b80639010d07c116100de5780639010d07c1461036357806391d148541461038357806395d89b4114610396578063a217fddf1461039e576101f0565b806370a082311461032d57806375b238fc1461034057806379cc6790146103485780638456cb591461035b576101f0565b8063313ce5671161018757806340c10f191161015657806340c10f19146102ec57806342966c68146102ff5780634adc7cfd146103125780635c975abb14610325576101f0565b8063313ce567146102a957806336568abe146102be57806339509351146102d15780633f4ba83a146102e4576101f0565b806318160ddd116101c357806318160ddd1461025b57806323b872dd14610270578063248a9ca3146102835780632f2ff15d14610296576101f0565b806301ffc9a7146101f557806306fdde031461021e578063095ea7b31461023357806317fc336d14610246575b600080fd5b610208610203366004611688565b610428565b6040516102159190611745565b60405180910390f35b61022661046e565b6040516102159190611759565b610208610241366004611604565b610500565b610259610254366004611604565b61051e565b005b61026361057b565b6040516102159190611750565b61020861027e3660046115c9565b610581565b61026361029136600461162d565b610618565b6102596102a4366004611645565b61062d565b6102b1610654565b6040516102159190611ea4565b6102596102cc366004611645565b610659565b6102086102df366004611604565b61067b565b6102596106ca565b6102596102fa366004611604565b61071c565b61025961030d36600461162d565b61076e565b61025961032036600461157d565b610782565b6102086107ac565b61026361033b36600461157d565b6107b5565b6102636107d0565b610259610356366004611604565b6107f4565b610259610844565b610376610371366004611667565b610894565b6040516102159190611731565b610208610391366004611645565b6108b3565b6102266108dc565b6102636108eb565b6102086103b4366004611604565b6108f0565b6102086103c7366004611604565b61096b565b6102636103da36600461162d565b61097f565b6102596103ed366004611604565b610996565b6102636109dc565b610259610408366004611645565b610a00565b61026361041b366004611597565b610a0a565b610263610a35565b60006001600160e01b031982167f5a05180f000000000000000000000000000000000000000000000000000000001480610466575061046682610a78565b90505b919050565b60606005805461047d90611f47565b80601f01602080910402602001604051908101604052809291908181526020018280546104a990611f47565b80156104f65780601f106104cb576101008083540402835291602001916104f6565b820191906000526020600020905b8154815290600101906020018083116104d957829003601f168201915b5050505050905090565b600061051461050d610ab6565b8484610aba565b5060015b92915050565b6105487fa49807205ce4d355092ef5a8a18f56e8913cf4a201fbe287825b095693c21775336108b3565b61056d5760405162461bcd60e51b81526004016105649061178c565b60405180910390fd5b61057782826107f4565b5050565b60045490565b600061058e848484610b6e565b6001600160a01b0384166000908152600360205260408120816105af610ab6565b6001600160a01b03166001600160a01b03168152602001908152602001600020549050828110156105f25760405162461bcd60e51b815260040161056490611a94565b61060d856105fe610ab6565b6106088685611ee9565b610aba565b506001949350505050565b60009081526020819052604090206001015490565b6106378282610c96565b600082815260016020526040902061064f9082610a63565b505050565b601290565b6106638282610cba565b600082815260016020526040902061064f9082610cfc565b6000610514610688610ab6565b848460036000610696610ab6565b6001600160a01b03908116825260208083019390935260409182016000908120918b16815292529020546106089190611eb2565b6106f67f65d7a28e3265b37a6474929f336521b332c1681b933f6cb9f3376673440d862a610391610ab6565b6107125760405162461bcd60e51b815260040161056490611946565b61071a610d11565b565b6107487f9f2df0fed2c77648de5860a4cc508cd0818c85b8b8a1ab4ceeef8d981c8956a6610391610ab6565b6107645760405162461bcd60e51b815260040161056490611af1565b6105778282610d7f565b61077f610779610ab6565b82610e3f565b50565b61077f7fa49807205ce4d355092ef5a8a18f56e8913cf4a201fbe287825b095693c2177582610f25565b60075460ff1690565b6001600160a01b031660009081526002602052604090205490565b7fa49807205ce4d355092ef5a8a18f56e8913cf4a201fbe287825b095693c2177581565b60006108028361041b610ab6565b9050818110156108245760405162461bcd60e51b815260040161056490611b4e565b61083a83610830610ab6565b6106088585611ee9565b61064f8383610e3f565b6108707f65d7a28e3265b37a6474929f336521b332c1681b933f6cb9f3376673440d862a610391610ab6565b61088c5760405162461bcd60e51b815260040161056490611cc2565b61071a610f2f565b60008281526001602052604081206108ac9083610f8a565b9392505050565b6000918252602082815260408084206001600160a01b0393909316845291905290205460ff1690565b60606006805461047d90611f47565b600081565b600080600360006108ff610ab6565b6001600160a01b039081168252602080830193909352604091820160009081209188168152925290205490508281101561094b5760405162461bcd60e51b815260040161056490611d56565b610961610956610ab6565b856106088685611ee9565b5060019392505050565b6000610514610978610ab6565b8484610b6e565b600081815260016020526040812061046690610f96565b6109c07fa49807205ce4d355092ef5a8a18f56e8913cf4a201fbe287825b095693c21775336108b3565b6107645760405162461bcd60e51b815260040161056490611d1f565b7f9f2df0fed2c77648de5860a4cc508cd0818c85b8b8a1ab4ceeef8d981c8956a681565b6106638282610fa1565b6001600160a01b03918216600090815260036020908152604080832093909416825291909152205490565b7f65d7a28e3265b37a6474929f336521b332c1681b933f6cb9f3376673440d862a81565b6105778282610fc0565b60006108ac836001600160a01b038416611045565b60006001600160e01b031982167f7965db0b00000000000000000000000000000000000000000000000000000000148061046657506104668261108f565b3390565b6001600160a01b038316610ae05760405162461bcd60e51b815260040161056490611c65565b6001600160a01b038216610b065760405162461bcd60e51b8152600401610564906119a3565b6001600160a01b0380841660008181526003602090815260408083209487168084529490915290819020849055517f8c5be1e5ebec7d5bd14f71427d1e84f3dd0314c0f7b2291e5b200ac8c7c3b92590610b61908590611750565b60405180910390a3505050565b6001600160a01b038316610b945760405162461bcd60e51b815260040161056490611c08565b6001600160a01b038216610bba5760405162461bcd60e51b815260040161056490611855565b610bc58383836110c1565b6001600160a01b03831660009081526002602052604090205481811015610bfe5760405162461bcd60e51b815260040161056490611a00565b610c088282611ee9565b6001600160a01b038086166000908152600260205260408082209390935590851681529081208054849290610c3e908490611eb2565b92505081905550826001600160a01b0316846001600160a01b03167fddf252ad1be2c89b69c2b068fc378daa952ba7f163c4a11628f55a4df523b3ef84604051610c889190611750565b60405180910390a350505050565b610c9f82610618565b610cb081610cab610ab6565b6110cc565b61064f8383610fc0565b610cc2610ab6565b6001600160a01b0316816001600160a01b031614610cf25760405162461bcd60e51b815260040161056490611db3565b6105778282611130565b60006108ac836001600160a01b0384166111b3565b610d196107ac565b610d355760405162461bcd60e51b8152600401610564906118b2565b6007805460ff191690557f5db9ee0a495bf2e6ff9c91a7834c1ba4fdd244a5e8aa4e537bd38aeae4b073aa610d68610ab6565b604051610d759190611731565b60405180910390a1565b6001600160a01b038216610da55760405162461bcd60e51b815260040161056490611e10565b610db1600083836110c1565b8060046000828254610dc39190611eb2565b90915550506001600160a01b03821660009081526002602052604081208054839290610df0908490611eb2565b90915550506040516001600160a01b038316906000907fddf252ad1be2c89b69c2b068fc378daa952ba7f163c4a11628f55a4df523b3ef90610e33908590611750565b60405180910390a35050565b6001600160a01b038216610e655760405162461bcd60e51b815260040161056490611bab565b610e71826000836110c1565b6001600160a01b03821660009081526002602052604090205481811015610eaa5760405162461bcd60e51b8152600401610564906118e9565b610eb48282611ee9565b6001600160a01b03841660009081526002602052604081209190915560048054849290610ee2908490611ee9565b90915550506040516000906001600160a01b038516907fddf252ad1be2c89b69c2b068fc378daa952ba7f163c4a11628f55a4df523b3ef90610b61908690611750565b6106378282610a59565b610f376107ac565b15610f545760405162461bcd60e51b815260040161056490611a5d565b6007805460ff191660011790557f62e78cea01bee320cd4e420270b5ea74000d11b0c9f74754ebdbfc544b05a258610d68610ab6565b60006108ac83836112ca565b600061046682611323565b610faa82610618565b610fb681610cab610ab6565b61064f8383611130565b610fca82826108b3565b610577576000828152602081815260408083206001600160a01b03851684529091529020805460ff19166001179055611001610ab6565b6001600160a01b0316816001600160a01b0316837f2f8788117e7eff1d82e926ec794901d17c78024a50270940304540a733656f0d60405160405180910390a45050565b60006110518383611327565b61108757508154600181810184556000848152602080822090930184905584548482528286019093526040902091909155610518565b506000610518565b6001600160e01b031981167f01ffc9a70000000000000000000000000000000000000000000000000000000014919050565b61064f83838361133f565b6110d682826108b3565b610577576110ee816001600160a01b0316601461136f565b6110f983602061136f565b60405160200161110a9291906116b0565b60408051601f198184030181529082905262461bcd60e51b825261056491600401611759565b61113a82826108b3565b15610577576000828152602081815260408083206001600160a01b03851684529091529020805460ff1916905561116f610ab6565b6001600160a01b0316816001600160a01b0316837ff6391f5c32d9c69d2a47ea670b442974b53935d1edc7fd64eb21e047a839171b60405160405180910390a45050565b600081815260018301602052604081205480156112c05760006111d7600183611ee9565b85549091506000906111eb90600190611ee9565b9050600086600001828154811061121257634e487b7160e01b600052603260045260246000fd5b906000526020600020015490508087600001848154811061124357634e487b7160e01b600052603260045260246000fd5b60009182526020808320909101929092558281526001890190915260409020849055865487908061128457634e487b7160e01b600052603160045260246000fd5b60019003818190600052602060002001600090559055866001016000878152602001908152602001600020600090556001945050505050610518565b6000915050610518565b815460009082106112ed5760405162461bcd60e51b8152600401610564906117c3565b82600001828154811061131057634e487b7160e01b600052603260045260246000fd5b9060005260206000200154905092915050565b5490565b60009081526001919091016020526040902054151590565b61134a83838361064f565b6113526107ac565b1561064f5760405162461bcd60e51b815260040161056490611e47565b6060600061137e836002611eca565b611389906002611eb2565b67ffffffffffffffff8111156113af57634e487b7160e01b600052604160045260246000fd5b6040519080825280601f01601f1916602001820160405280156113d9576020820181803683370190505b5090507f30000000000000000000000000000000000000000000000000000000000000008160008151811061141e57634e487b7160e01b600052603260045260246000fd5b60200101906001600160f81b031916908160001a9053507f78000000000000000000000000000000000000000000000000000000000000008160018151811061147757634e487b7160e01b600052603260045260246000fd5b60200101906001600160f81b031916908160001a905350600061149b846002611eca565b6114a6906001611eb2565b90505b6001811115611547577f303132333435363738396162636465660000000000000000000000000000000085600f16601081106114f557634e487b7160e01b600052603260045260246000fd5b1a60f81b82828151811061151957634e487b7160e01b600052603260045260246000fd5b60200101906001600160f81b031916908160001a90535060049490941c9361154081611f30565b90506114a9565b5083156108ac5760405162461bcd60e51b815260040161056490611820565b80356001600160a01b038116811461046957600080fd5b60006020828403121561158e578081fd5b6108ac82611566565b600080604083850312156115a9578081fd5b6115b283611566565b91506115c060208401611566565b90509250929050565b6000806000606084860312156115dd578081fd5b6115e684611566565b92506115f460208501611566565b9150604084013590509250925092565b60008060408385031215611616578182fd5b61161f83611566565b946020939093013593505050565b60006020828403121561163e578081fd5b5035919050565b60008060408385031215611657578182fd5b823591506115c060208401611566565b60008060408385031215611679578182fd5b50508035926020909101359150565b600060208284031215611699578081fd5b81356001600160e01b0319811681146108ac578182fd5b60007f416363657373436f6e74726f6c3a206163636f756e7420000000000000000000825283516116e8816017850160208801611f00565b7f206973206d697373696e6720726f6c65200000000000000000000000000000006017918401918201528351611725816028840160208801611f00565b01602801949350505050565b6001600160a01b0391909116815260200190565b901515815260200190565b90815260200190565b6000602082528251806020840152611778816040850160208701611f00565b601f01601f19169190910160400192915050565b6020808252601d908201527f4d75737420686176652041444d494e20726f6c6520746f206275726e2e000000604082015260600190565b60208082526022908201527f456e756d657261626c655365743a20696e646578206f7574206f6620626f756e60408201527f6473000000000000000000000000000000000000000000000000000000000000606082015260800190565b6020808252818101527f537472696e67733a20686578206c656e67746820696e73756666696369656e74604082015260600190565b60208082526023908201527f45524332303a207472616e7366657220746f20746865207a65726f206164647260408201527f6573730000000000000000000000000000000000000000000000000000000000606082015260800190565b60208082526014908201527f5061757361626c653a206e6f7420706175736564000000000000000000000000604082015260600190565b60208082526022908201527f45524332303a206275726e20616d6f756e7420657863656564732062616c616e60408201527f6365000000000000000000000000000000000000000000000000000000000000606082015260800190565b60208082526039908201527f45524332305072657365744d696e7465725061757365723a206d75737420686160408201527f76652070617573657220726f6c6520746f20756e706175736500000000000000606082015260800190565b60208082526022908201527f45524332303a20617070726f766520746f20746865207a65726f20616464726560408201527f7373000000000000000000000000000000000000000000000000000000000000606082015260800190565b60208082526026908201527f45524332303a207472616e7366657220616d6f756e742065786365656473206260408201527f616c616e63650000000000000000000000000000000000000000000000000000606082015260800190565b60208082526010908201527f5061757361626c653a2070617573656400000000000000000000000000000000604082015260600190565b60208082526028908201527f45524332303a207472616e7366657220616d6f756e742065786365656473206160408201527f6c6c6f77616e6365000000000000000000000000000000000000000000000000606082015260800190565b60208082526036908201527f45524332305072657365744d696e7465725061757365723a206d75737420686160408201527f7665206d696e74657220726f6c6520746f206d696e7400000000000000000000606082015260800190565b60208082526024908201527f45524332303a206275726e20616d6f756e74206578636565647320616c6c6f7760408201527f616e636500000000000000000000000000000000000000000000000000000000606082015260800190565b60208082526021908201527f45524332303a206275726e2066726f6d20746865207a65726f2061646472657360408201527f7300000000000000000000000000000000000000000000000000000000000000606082015260800190565b60208082526025908201527f45524332303a207472616e736665722066726f6d20746865207a65726f20616460408201527f6472657373000000000000000000000000000000000000000000000000000000606082015260800190565b60208082526024908201527f45524332303a20617070726f76652066726f6d20746865207a65726f2061646460408201527f7265737300000000000000000000000000000000000000000000000000000000606082015260800190565b60208082526037908201527f45524332305072657365744d696e7465725061757365723a206d75737420686160408201527f76652070617573657220726f6c6520746f207061757365000000000000000000606082015260800190565b6020808252601d908201527f4d75737420686176652041444d494e20726f6c6520746f206d696e742e000000604082015260600190565b60208082526025908201527f45524332303a2064656372656173656420616c6c6f77616e63652062656c6f7760408201527f207a65726f000000000000000000000000000000000000000000000000000000606082015260800190565b6020808252602f908201527f416363657373436f6e74726f6c3a2063616e206f6e6c792072656e6f756e636560408201527f20726f6c657320666f722073656c660000000000000000000000000000000000606082015260800190565b6020808252601f908201527f45524332303a206d696e7420746f20746865207a65726f206164647265737300604082015260600190565b6020808252602a908201527f45524332305061757361626c653a20746f6b656e207472616e7366657220776860408201527f696c652070617573656400000000000000000000000000000000000000000000606082015260800190565b60ff91909116815260200190565b60008219821115611ec557611ec5611f82565b500190565b6000816000190483118215151615611ee457611ee4611f82565b500290565b600082821015611efb57611efb611f82565b500390565b60005b83811015611f1b578181015183820152602001611f03565b83811115611f2a576000848401525b50505050565b600081611f3f57611f3f611f82565b506000190190565b600281046001821680611f5b57607f821691505b60208210811415611f7c57634e487b7160e01b600052602260045260246000fd5b50919050565b634e487b7160e01b600052601160045260246000fdfea2646970667358221220e67ca067e0e0d2f00acb70de6a21a65e260429277500f00181adbec1cbaeb67064736f6c6343000800003360806040526000600655600a80546001600160a01b03191673a0b86991c6218b36c1d19d4a2e9eb0ce3606eb481790553480156200003c57600080fd5b506040516200330b3803806200330b8339810160408190526200005f91620004a4565b81600281518160328210620000915760405162461bcd60e51b81526004016200008890620005bb565b60405180910390fd5b818110620000b35760405162461bcd60e51b8152600401620000889062000629565b80620000d35760405162461bcd60e51b81526004016200008890620005f2565b81620000f35760405162461bcd60e51b81526004016200008890620006d3565b60005b84518110156200023857600260008683815181106200012557634e487b7160e01b600052603260045260246000fd5b6020908102919091018101516001600160a01b031682528101919091526040016000205460ff16156200016c5760405162461bcd60e51b81526004016200008890620006ab565b60006001600160a01b03168582815181106200019857634e487b7160e01b600052603260045260246000fd5b60200260200101516001600160a01b03161415620001ca5760405162461bcd60e51b8152600401620000889062000674565b600160026000878481518110620001f157634e487b7160e01b600052603260045260246000fd5b6020908102919091018101516001600160a01b03168252810191909152604001600020805460ff1916911515919091179055806200022f8162000773565b915050620000f6565b5083516200024e906003906020870190620002ff565b5050506004555083516200026a90600790602087019062000369565b50600980546001600160a01b038086166001600160a01b031992831617909255600b805484841692169190911790819055604051634adc7cfd60e01b8152911690634adc7cfd90620002c1903090600401620005a7565b600060405180830381600087803b158015620002dc57600080fd5b505af1158015620002f1573d6000803e3d6000fd5b5050505050505050620007ca565b82805482825590600052602060002090810192821562000357579160200282015b828111156200035757825182546001600160a01b0319166001600160a01b0390911617825560209092019160019091019062000320565b5062000365929150620003e6565b5090565b828054620003779062000736565b90600052602060002090601f0160209004810192826200039b576000855562000357565b82601f10620003b657805160ff191683800117855562000357565b8280016001018555821562000357579182015b8281111562000357578251825591602001919060010190620003c9565b5b80821115620003655760008155600101620003e7565b80516200040a81620007b1565b919050565b600082601f83011262000420578081fd5b815160206001600160401b038211156200043e576200043e6200079b565b8082026200044e8282016200070a565b83815282810190868401838801850189101562000469578687fd5b8693505b85841015620004985780516200048381620007b1565b8352600193909301929184019184016200046d565b50979650505050505050565b60008060008060808587031215620004ba578384fd5b84516001600160401b0380821115620004d1578586fd5b818701915087601f830112620004e5578586fd5b815181811115620004fa57620004fa6200079b565b602062000510601f8301601f191682016200070a565b8281528a8284870101111562000524578889fd5b885b838110156200054357858101830151828201840152820162000526565b838111156200055457898385840101525b50975062000564898201620003fd565b9650505060408701519150808211156200057c578384fd5b506200058b878288016200040f565b9250506200059c60608601620003fd565b905092959194509250565b6001600160a01b0391909116815260200190565b60208082526019908201527f6d617820206f776e657220636f756e7420657863656564656400000000000000604082015260600190565b60208082526019908201527f7a65726f207265717569726564206e6f7420616c6c6f77656400000000000000604082015260600190565b6020808252602b908201527f63616e277420686176652072657175697265642067726561746572207468616e60408201526a081bdddb995c90dbdd5b9d60aa1b606082015260800190565b60208082526018908201527f7a65726f2061646472657373206e6f7420616c6c6f7765640000000000000000604082015260600190565b6020808252600e908201526d39b7b6b29031b7b73234ba34b7b760911b604082015260600190565b60208082526016908201527f43616e27742068617665207a65726f206f776e65727300000000000000000000604082015260600190565b6040518181016001600160401b03811182821017156200072e576200072e6200079b565b604052919050565b6002810460018216806200074b57607f821691505b602082108114156200076d57634e487b7160e01b600052602260045260246000fd5b50919050565b60006000198214156200079457634e487b7160e01b81526011600452602481fd5b5060010190565b634e487b7160e01b600052604160045260246000fd5b6001600160a01b0381168114620007c757600080fd5b50565b612b3180620007da6000396000f3fe6080604052600436106101b75760003560e01c8063a0e67e2b116100ec578063c01a8c841161008a578063d74f8edd11610064578063d74f8edd1461053e578063dc8452cd14610553578063e20056e614610568578063ee22610b14610588576101b7565b8063c01a8c84146104de578063c6427474146104fe578063d38bcdee1461051e576101b7565b8063b5dc40c3116100c6578063b5dc40c314610469578063b6b55f2514610489578063b77bf600146104a9578063ba51a6df146104be576101b7565b8063a0e67e2b14610405578063a8abe69a14610427578063b531737514610454576101b7565b8063523ec1d011610159578063722f8ee211610133578063722f8ee214610375578063784547a7146103955780638b51d13f146103b55780639ace38c2146103d5576101b7565b8063523ec1d01461030657806354741525146103285780637065cb4814610355576101b7565b806320ea8d861161019557806320ea8d86146102795780632e1a7d4d146102995780632f54bf6e146102b95780633411c81c146102e6576101b7565b8063025e7c271461020157806306fdde0314610237578063173825d914610259575b34156101ff57336001600160a01b03167fe1fffcc4923d04b559f4d29a8bfc6cda04eb5b0d3c460751c2402c5c5cc9109c346040516101f691906129c1565b60405180910390a25b005b34801561020d57600080fd5b5061022161021c3660046121ce565b6105a8565b60405161022e919061239f565b60405180910390f35b34801561024357600080fd5b5061024c6105d2565b60405161022e91906124bb565b34801561026557600080fd5b506101ff610274366004611fb7565b610660565b34801561028557600080fd5b506101ff6102943660046121ce565b610845565b3480156102a557600080fd5b506101ff6102b43660046121ce565b610934565b3480156102c557600080fd5b506102d96102d4366004611fb7565b610a64565b60405161022e91906124b0565b3480156102f257600080fd5b506102d96103013660046121e6565b610a79565b34801561031257600080fd5b5061031b610a99565b60405161022e9190612957565b34801561033457600080fd5b50610348610343366004612087565b610bfc565b60405161022e91906129c1565b34801561036157600080fd5b506101ff610370366004611fb7565b610c79565b34801561038157600080fd5b506101ff6103903660046120bf565b610e21565b3480156103a157600080fd5b506102d96103b03660046121ce565b610eec565b3480156103c157600080fd5b506103486103d03660046121ce565b610f9c565b3480156103e157600080fd5b506103f56103f03660046121ce565b611030565b60405161022e94939291906123f0565b34801561041157600080fd5b5061041a6110ee565b60405161022e919061242b565b34801561043357600080fd5b50610447610442366004612208565b611150565b60405161022e9190612478565b34801561046057600080fd5b5061034861132e565b34801561047557600080fd5b5061041a6104843660046121ce565b611334565b34801561049557600080fd5b506101ff6104a43660046121ce565b61156e565b3480156104b557600080fd5b50610348611687565b3480156104ca57600080fd5b506101ff6104d93660046121ce565b61168d565b3480156104ea57600080fd5b506101ff6104f93660046121ce565b61176b565b34801561050a57600080fd5b50610348610519366004612003565b61186b565b34801561052a57600080fd5b506101ff610539366004611fb7565b61188a565b34801561054a57600080fd5b506103486118b9565b34801561055f57600080fd5b506103486118be565b34801561057457600080fd5b506101ff610583366004611fd1565b6118c4565b34801561059457600080fd5b506101ff6105a33660046121ce565b611aac565b600381815481106105b857600080fd5b6000918252602090912001546001600160a01b0316905081565b600780546105df90612a6e565b80601f016020809104026020016040519081016040528092919081815260200182805461060b90612a6e565b80156106585780601f1061062d57610100808354040283529160200191610658565b820191906000526020600020905b81548152906001019060200180831161063b57829003601f168201915b505050505081565b3330146106885760405162461bcd60e51b815260040161067f90612675565b60405180910390fd5b6001600160a01b038116600090815260026020526040902054819060ff166106c25760405162461bcd60e51b815260040161067f90612709565b6001600160a01b0382166000908152600260205260408120805460ff191690555b6003546106f290600190612a57565b8110156107ec57826001600160a01b03166003828154811061072457634e487b7160e01b600052603260045260246000fd5b6000918252602090912001546001600160a01b031614156107da576003805461074f90600190612a57565b8154811061076d57634e487b7160e01b600052603260045260246000fd5b600091825260209091200154600380546001600160a01b0390921691839081106107a757634e487b7160e01b600052603260045260246000fd5b9060005260206000200160006101000a8154816001600160a01b0302191690836001600160a01b031602179055506107ec565b806107e481612aa3565b9150506106e3565b506003805160001901815254600454111561080d5760035461080d9061168d565b6040516001600160a01b038316907f8001553a916ef2f495d26a907cc54d96ed840d7bda71e73194bf5a9df7a76b9090600090a25050565b3360008181526002602052604090205460ff166108745760405162461bcd60e51b815260040161067f90612709565b60008281526001602090815260408083203380855292529091205483919060ff166108b15760405162461bcd60e51b815260040161067f906125e1565b600084815260208190526040902060030154849060ff16156108e55760405162461bcd60e51b815260040161067f9061290d565b6000858152600160209081526040808320338085529252808320805460ff191690555187927ff6a317157440607f36269043eb55f1287a5a19ba2216afeab88cd46cbcfb88e991a35050505050565b80600081116109555760405162461bcd60e51b815260040161067f906127e5565b600061096083611bf2565b905061096b81611bf5565b610976303383611c36565b6109925760405162461bcd60e51b815260040161067f90612842565b7fb244b9a17ad633c6e83b7983ee04320484956a68ddbe96a0b70dfca1cf19d72333846040516109c39291906123d7565b60405180910390a180600660008282546109dd9190612a57565b9091555050600b546040517f17fc336d0000000000000000000000000000000000000000000000000000000081526001600160a01b03909116906317fc336d90610a2d90339087906004016123d7565b600060405180830381600087803b158015610a4757600080fd5b505af1158015610a5b573d6000803e3d6000fd5b50505050505050565b60026020526000908152604090205460ff1681565b600160209081526000928352604080842090915290825290205460ff1681565b610aa1611e1b565b6040805160088054602081810284018501855283018181529293919284929091849160009085015b82821015610bef578382906000526020600020906002020160405180604001604052908160008201805480602002602001604051908101604052809291908181526020018280548015610b4557602002820191906000526020600020905b81546001600160a01b03168152600190910190602001808311610b27575b50505050508152602001600182018054610b5e90612a6e565b80601f0160208091040260200160405190810160405280929190818152602001828054610b8a90612a6e565b8015610bd75780601f10610bac57610100808354040283529160200191610bd7565b820191906000526020600020905b815481529060010190602001808311610bba57829003601f168201915b50505050508152505081526020019060010190610ac9565b5050505081525050905090565b6000805b600554811015610c7257838015610c29575060008181526020819052604090206003015460ff16155b80610c4d5750828015610c4d575060008181526020819052604090206003015460ff165b15610c6057610c5d600183612a00565b91505b80610c6a81612aa3565b915050610c00565b5092915050565b333014610c985760405162461bcd60e51b815260040161067f90612675565b6001600160a01b038116600090815260026020526040902054819060ff1615610cd35760405162461bcd60e51b815260040161067f90612573565b816001600160a01b038116610cfa5760405162461bcd60e51b815260040161067f906124ce565b600354610d08906001612a00565b60045460328210610d2b5760405162461bcd60e51b815260040161067f90612505565b818110610d4a5760405162461bcd60e51b815260040161067f90612618565b80610d675760405162461bcd60e51b815260040161067f9061253c565b81610d845760405162461bcd60e51b815260040161067f906128d6565b6001600160a01b038516600081815260026020526040808220805460ff1916600190811790915560038054918201815583527fc2575a0e9e593c00f959f8c92f12db2869c3395a3b0502d05e2516446f71f85b01805473ffffffffffffffffffffffffffffffffffffffff191684179055517ff39e6e1eb0edcf53c221607b54b00cd28f3196fed0a24994dc308b8f611b682d9190a25050505050565b6009546001600160a01b03163314610e4b5760405162461bcd60e51b815260040161067f906126ac565b600880546001810182556000919091528151805183926002027ff3f7a9fe364faab93b216da50a3214154f22a0a2b415b23a84c8169e8b636ee30191610e9691839160200190611e2e565b506020828101518051610eaf9260018501920190611ea0565b5050507f1296b70fc9141190fd21db15fabe3f067aa5dc48f440e5cde726a311a8e2c18081604051610ee19190612944565b60405180910390a150565b600080805b600354811015610f905760008481526001602052604081206003805491929184908110610f2e57634e487b7160e01b600052603260045260246000fd5b60009182526020808320909101546001600160a01b0316835282019290925260400190205460ff1615610f6957610f66600183612a00565b91505b600454821415610f7e57600192505050610f97565b80610f8881612aa3565b915050610ef1565b5060009150505b919050565b6000805b60035481101561102a5760008381526001602052604081206003805491929184908110610fdd57634e487b7160e01b600052603260045260246000fd5b60009182526020808320909101546001600160a01b0316835282019290925260400190205460ff161561101857611015600183612a00565b91505b8061102281612aa3565b915050610fa0565b50919050565b6000602081905290815260409020805460018201546002830180546001600160a01b0390931693919261106290612a6e565b80601f016020809104026020016040519081016040528092919081815260200182805461108e90612a6e565b80156110db5780601f106110b0576101008083540402835291602001916110db565b820191906000526020600020905b8154815290600101906020018083116110be57829003601f168201915b5050506003909301549192505060ff1684565b6060600380548060200260200160405190810160405280929190818152602001828054801561114657602002820191906000526020600020905b81546001600160a01b03168152600190910190602001808311611128575b5050505050905090565b6060600060055467ffffffffffffffff81111561117d57634e487b7160e01b600052604160045260246000fd5b6040519080825280602002602001820160405280156111a6578160200160208202803683370190505b5090506000805b60055481101561124b578580156111d6575060008181526020819052604090206003015460ff16155b806111fa57508480156111fa575060008181526020819052604090206003015460ff165b15611239578083838151811061122057634e487b7160e01b600052603260045260246000fd5b6020908102919091010152611236600183612a00565b91505b8061124381612aa3565b9150506111ad565b6112558888612a57565b67ffffffffffffffff81111561127b57634e487b7160e01b600052604160045260246000fd5b6040519080825280602002602001820160405280156112a4578160200160208202803683370190505b5093508790505b86811015611323578281815181106112d357634e487b7160e01b600052603260045260246000fd5b60200260200101518489836112e89190612a57565b8151811061130657634e487b7160e01b600052603260045260246000fd5b60209081029190910101528061131b81612aa3565b9150506112ab565b505050949350505050565b60065490565b60035460609060009067ffffffffffffffff81111561136357634e487b7160e01b600052604160045260246000fd5b60405190808252806020026020018201604052801561138c578160200160208202803683370190505b5090506000805b60035481101561149457600085815260016020526040812060038054919291849081106113d057634e487b7160e01b600052603260045260246000fd5b60009182526020808320909101546001600160a01b0316835282019290925260400190205460ff1615611482576003818154811061141e57634e487b7160e01b600052603260045260246000fd5b9060005260206000200160009054906101000a90046001600160a01b031683838151811061145c57634e487b7160e01b600052603260045260246000fd5b6001600160a01b039092166020928302919091019091015261147f600183612a00565b91505b8061148c81612aa3565b915050611393565b8167ffffffffffffffff8111156114bb57634e487b7160e01b600052604160045260246000fd5b6040519080825280602002602001820160405280156114e4578160200160208202803683370190505b509350600090505b818110156115665782818151811061151457634e487b7160e01b600052603260045260246000fd5b602002602001015184828151811061153c57634e487b7160e01b600052603260045260246000fd5b6001600160a01b03909216602092830291909101909101528061155e81612aa3565b9150506114ec565b505050919050565b806000811161158f5760405162461bcd60e51b815260040161067f906127e5565b61159a333084611c36565b6115b65760405162461bcd60e51b815260040161067f90612740565b7f2da466a7b24304f47e87fa2e1e5a81b9831ce54fec19055ce277ca2f39ba42c433836040516115e79291906123d7565b60405180910390a181600660008282546116019190612a00565b9091555050600b546040517fcc6e12370000000000000000000000000000000000000000000000000000000081526001600160a01b039091169063cc6e12379061165190339086906004016123d7565b600060405180830381600087803b15801561166b57600080fd5b505af115801561167f573d6000803e3d6000fd5b505050505050565b60055481565b3330146116ac5760405162461bcd60e51b815260040161067f90612675565b60035481603282106116d05760405162461bcd60e51b815260040161067f90612505565b8181106116ef5760405162461bcd60e51b815260040161067f90612618565b8061170c5760405162461bcd60e51b815260040161067f9061253c565b816117295760405162461bcd60e51b815260040161067f906128d6565b60048390556040517fa3f1ee9126a074d9326c682f561767f710e927faa811f7a99829d49dc421797a9061175e9085906129c1565b60405180910390a1505050565b3360008181526002602052604090205460ff1661179a5760405162461bcd60e51b815260040161067f90612709565b60008281526020819052604090205482906001600160a01b03166117d05760405162461bcd60e51b815260040161067f906127ae565b60008381526001602090815260408083203380855292529091205484919060ff161561180e5760405162461bcd60e51b815260040161067f90612777565b6000858152600160208181526040808420338086529252808420805460ff1916909317909255905187927f4a504a94899432a9846e1aa406dceb1bcfd538bb839071d49d1e5e23f5be30ef91a361186485611aac565b5050505050565b6000611878848484611d08565b90506118838161176b565b9392505050565b600a805473ffffffffffffffffffffffffffffffffffffffff19166001600160a01b0392909216919091179055565b603281565b60045481565b3330146118e35760405162461bcd60e51b815260040161067f90612675565b6001600160a01b038216600090815260026020526040902054829060ff1661191d5760405162461bcd60e51b815260040161067f90612709565b6001600160a01b038216600090815260026020526040902054829060ff16156119585760405162461bcd60e51b815260040161067f90612573565b60005b600354811015611a1257846001600160a01b03166003828154811061199057634e487b7160e01b600052603260045260246000fd5b6000918252602090912001546001600160a01b03161415611a005783600382815481106119cd57634e487b7160e01b600052603260045260246000fd5b9060005260206000200160006101000a8154816001600160a01b0302191690836001600160a01b03160217905550611a12565b80611a0a81612aa3565b91505061195b565b506001600160a01b03808516600081815260026020526040808220805460ff1990811690915593871682528082208054909416600117909355915190917f8001553a916ef2f495d26a907cc54d96ed840d7bda71e73194bf5a9df7a76b9091a26040516001600160a01b038416907ff39e6e1eb0edcf53c221607b54b00cd28f3196fed0a24994dc308b8f611b682d90600090a250505050565b600081815260208190526040902060030154819060ff1615611ae05760405162461bcd60e51b815260040161067f9061290d565b611ae982610eec565b15611bee5760008281526020819052604080822060038101805460ff1916600190811790915581549082015492519193926060926001600160a01b0390921691611b37906002870190612304565b60006040518083038185875af1925050503d8060008114611b74576040519150601f19603f3d011682016040523d82523d6000602084013e611b79565b606091505b5090925090508115611bb55760405185907f33e13ecb54c3076d8e8bb8c2881800a4d972b792045ffae98fdf46df365fed7590600090a2611864565b60405185907f526441bb6c1aba3c9a4a6ca1d6545da9c2333c8c48343ef398eb858d72b7923690600090a25050600301805460ff191690555b5050565b90565b600654600090611c0883620186a0612a38565b611c129190612a18565b9050614e20811115611bee5760405162461bcd60e51b815260040161067f90612879565b60006001600160a01b038316611c5e5760405162461bcd60e51b815260040161067f906125aa565b600a546040517f23b872dd0000000000000000000000000000000000000000000000000000000081526001600160a01b039091169081906323b872dd90611cad908890889088906004016123b3565b602060405180830381600087803b158015611cc757600080fd5b505af1158015611cdb573d6000803e3d6000fd5b505050506040513d601f19601f82011682018060405250810190611cff919061206b565b95945050505050565b6000836001600160a01b038116611d315760405162461bcd60e51b815260040161067f906124ce565b600554604080516080810182526001600160a01b0388811682526020808301898152838501898152600060608601819052878152808452959095208451815473ffffffffffffffffffffffffffffffffffffffff191694169390931783555160018301559251805194965091939092611db1926002850192910190611ea0565b50606091909101516003909101805460ff19169115159190911790556005805460019190600090611de3908490612a00565b909155505060405182907fc0ba8fe4b176c1714197d43b9cc6bcf797a4a7461c5fe8d0ef6e184ae7601e5190600090a2509392505050565b6040518060200160405280606081525090565b828054828255906000526020600020908101928215611e90579160200282015b82811115611e90578251825473ffffffffffffffffffffffffffffffffffffffff19166001600160a01b03909116178255602090920191600190910190611e4e565b50611e9c929150611f14565b5090565b828054611eac90612a6e565b90600052602060002090601f016020900481019282611ece5760008555611e90565b82601f10611ee757805160ff1916838001178555611e90565b82800160010185558215611e90579182015b82811115611e90578251825591602001919060010190611ef9565b5b80821115611e9c5760008155600101611f15565b600067ffffffffffffffff831115611f4357611f43612ad4565b611f56601f8401601f19166020016129ca565b9050828152838383011115611f6a57600080fd5b828260208301376000602084830101529392505050565b80356001600160a01b0381168114610f9757600080fd5b600082601f830112611fa8578081fd5b61188383833560208501611f29565b600060208284031215611fc8578081fd5b61188382611f81565b60008060408385031215611fe3578081fd5b611fec83611f81565b9150611ffa60208401611f81565b90509250929050565b600080600060608486031215612017578081fd5b61202084611f81565b925060208401359150604084013567ffffffffffffffff811115612042578182fd5b8401601f81018613612052578182fd5b61206186823560208401611f29565b9150509250925092565b60006020828403121561207c578081fd5b815161188381612aea565b60008060408385031215612099578182fd5b82356120a481612aea565b915060208301356120b481612aea565b809150509250929050565b600060208083850312156120d1578182fd5b823567ffffffffffffffff808211156120e8578384fd5b90840190604082870312156120fb578384fd5b60405160408101818110838211171561211657612116612ad4565b604052823582811115612127578586fd5b8301601f81018813612137578586fd5b80358381111561214957612149612ad4565b8581026121578782016129ca565b828152878101908489018386018a018d1015612171578a8bfd5b8a95505b8486101561219a5761218681611f81565b835260019590950194918901918901612175565b5085525050505082840135828111156121b1578586fd5b6121bd88828601611f98565b948201949094529695505050505050565b6000602082840312156121df578081fd5b5035919050565b600080604083850312156121f8578182fd5b82359150611ffa60208401611f81565b6000806000806080858703121561221d578081fd5b8435935060208501359250604085013561223681612aea565b9150606085013561224681612aea565b939692955090935050565b60008151808452815b818110156122765760208185018101518683018201520161225a565b818111156122875782602083870101525b50601f01601f19169290920160200192915050565b805160408084528151908401819052600091602091908201906060860190845b818110156122e15783516001600160a01b0316835292840192918401916001016122bc565b5050828501519150858103838701526122fa8183612251565b9695505050505050565b815460009081906002810460018083168061232057607f831692505b602080841082141561234057634e487b7160e01b87526022600452602487fd5b818015612354576001811461236557612391565b60ff19861689528489019650612391565b61236e8a6129f4565b885b868110156123895781548b820152908501908301612370565b505084890196505b509498975050505050505050565b6001600160a01b0391909116815260200190565b6001600160a01b039384168152919092166020820152604081019190915260600190565b6001600160a01b03929092168252602082015260400190565b60006001600160a01b0386168252846020830152608060408301526124186080830185612251565b9050821515606083015295945050505050565b6020808252825182820181905260009190848201906040850190845b8181101561246c5783516001600160a01b031683529284019291840191600101612447565b50909695505050505050565b6020808252825182820181905260009190848201906040850190845b8181101561246c57835183529284019291840191600101612494565b901515815260200190565b6000602082526118836020830184612251565b60208082526017908201527f726571757265206e6f74206e756c6c2061646472657373000000000000000000604082015260600190565b60208082526019908201527f6d617820206f776e657220636f756e7420657863656564656400000000000000604082015260600190565b60208082526019908201527f7a65726f207265717569726564206e6f7420616c6c6f77656400000000000000604082015260600190565b60208082526015908201527f4f776e65722073686f756c646e27742065786973740000000000000000000000604082015260600190565b6020808252601b908201527f43616e27742073656e6420746f207a65726f20616464726573732e0000000000604082015260600190565b6020808252600d908201527f6e6f7420636f6e6669726d656400000000000000000000000000000000000000604082015260600190565b6020808252602b908201527f63616e277420686176652072657175697265642067726561746572207468616e60408201527f206f776e6572436f756e74000000000000000000000000000000000000000000606082015260800190565b60208082526013908201527f4f6e6c792077616c6c657420616c6c6f77656400000000000000000000000000604082015260600190565b60208082526021908201527f4f6e6c7920476f7665726e656e636520616c6c6f776564206f7065726174696f60408201527f6e00000000000000000000000000000000000000000000000000000000000000606082015260800190565b60208082526013908201527f4f776e657220646f65736e277420657869737400000000000000000000000000604082015260600190565b60208082526017908201527f4465706f736974206e6f74207375636365737366756c2e000000000000000000604082015260600190565b60208082526009908201527f636f6e6669726d65640000000000000000000000000000000000000000000000604082015260600190565b60208082526016908201527f7472616e736374696f6e20697320706f737369626c6500000000000000000000604082015260600190565b60208082526028908201527f4d757374206465706f736974206f72207769746864726177206d6f726520746860408201527f616e207a65726f2e000000000000000000000000000000000000000000000000606082015260800190565b6020808252601a908201527f5769746864726177616c206e6f74207375636365737366756c2e000000000000604082015260600190565b6020808252602e908201527f43616e6e6f74207769746864726177206d6f7265207468616e20323025206f6660408201527f20506f6f6c2062616c616e63652e000000000000000000000000000000000000606082015260800190565b60208082526016908201527f43616e27742068617665207a65726f206f776e65727300000000000000000000604082015260600190565b60208082526019908201527f68617320616c7265616479206265656e20657865637574656400000000000000604082015260600190565b600060208252611883602083018461229c565b600060208083526040830184518283860152818151808452606087019150606085820288010193508483019250855b818110156129b457605f198886030183526129a285855161229c565b94509285019291850191600101612986565b5092979650505050505050565b90815260200190565b60405181810167ffffffffffffffff811182821017156129ec576129ec612ad4565b604052919050565b60009081526020902090565b60008219821115612a1357612a13612abe565b500190565b600082612a3357634e487b7160e01b81526012600452602481fd5b500490565b6000816000190483118215151615612a5257612a52612abe565b500290565b600082821015612a6957612a69612abe565b500390565b600281046001821680612a8257607f821691505b6020821081141561102a57634e487b7160e01b600052602260045260246000fd5b6000600019821415612ab757612ab7612abe565b5060010190565b634e487b7160e01b600052601160045260246000fd5b634e487b7160e01b600052604160045260246000fd5b8015158114612af857600080fd5b5056fea2646970667358221220d1f65e2787f3e1b3bc0c509346b26e700289f01a2c3798a12ab3689e12e7a46164736f6c63430008000033a2646970667358221220bbd5ea40fdccd5a73418b5468e82e5056262022c1e7ba9a154c38d522c1cdcb064736f6c63430008000033",
  "linkReferences": {},
  "deployedLinkReferences": {}
}