{
  "_format": "hh-sol-artifact-1",
  "contractName": "Pool",
  "sourceName": "contracts/Pool.sol",
  "abi": [
    {
      "inputs": [
        {
          "internalType": "string",
          "name": "_name",
          "type": "string"
        },
        {
          "internalType": "address",
          "name": "_governer",
          "type": "address"
        },
        {
          "internalType": "address[]",
          "name": "_admins",
          "type": "address[]"
        },
        {
          "internalType": "contract KoloToken",
          "name": "_kToken",
          "type": "address"
        }
      ],
      "stateMutability": "nonpayable",
      "type": "constructor"
    },
    {
      "anonymous": false,
      "inputs": [
        {
          "indexed": false,
          "internalType": "address",
          "name": "_address",
          "type": "address"
        }
      ],
      "name": "AddedAdmin",
      "type": "event"
    },
    {
      "anonymous": false,
      "inputs": [
        {
          "components": [
            {
              "internalType": "address[]",
              "name": "auditors",
              "type": "address[]"
            },
            {
              "internalType": "string",
              "name": "fullAuditReport",
              "type": "string"
            }
          ],
          "indexed": false,
          "internalType": "struct AuditorReports.Audit",
          "name": "_audit",
          "type": "tuple"
        }
      ],
      "name": "AddedAuditReport",
      "type": "event"
    },
    {
      "anonymous": false,
      "inputs": [
        {
          "indexed": true,
          "internalType": "address",
          "name": "sender",
          "type": "address"
        },
        {
          "indexed": true,
          "internalType": "uint256",
          "name": "transactionId",
          "type": "uint256"
        }
      ],
      "name": "Confirmation",
      "type": "event"
    },
    {
      "anonymous": false,
      "inputs": [
        {
          "indexed": true,
          "internalType": "address",
          "name": "sender",
          "type": "address"
        },
        {
          "indexed": false,
          "internalType": "uint256",
          "name": "value",
          "type": "uint256"
        }
      ],
      "name": "Deposit",
      "type": "event"
    },
    {
      "anonymous": false,
      "inputs": [
        {
          "indexed": false,
          "internalType": "address",
          "name": "_address",
          "type": "address"
        },
        {
          "indexed": false,
          "internalType": "uint256",
          "name": "usdcAmount",
          "type": "uint256"
        }
      ],
      "name": "Deposited",
      "type": "event"
    },
    {
      "anonymous": false,
      "inputs": [
        {
          "indexed": true,
          "internalType": "uint256",
          "name": "transactionId",
          "type": "uint256"
        }
      ],
      "name": "Execution",
      "type": "event"
    },
    {
      "anonymous": false,
      "inputs": [
        {
          "indexed": true,
          "internalType": "uint256",
          "name": "transactionId",
          "type": "uint256"
        }
      ],
      "name": "ExecutionFailure",
      "type": "event"
    },
    {
      "anonymous": false,
      "inputs": [
        {
          "indexed": true,
          "internalType": "address",
          "name": "owner",
          "type": "address"
        }
      ],
      "name": "OwnerAddition",
      "type": "event"
    },
    {
      "anonymous": false,
      "inputs": [
        {
          "indexed": true,
          "internalType": "address",
          "name": "owner",
          "type": "address"
        }
      ],
      "name": "OwnerRemoval",
      "type": "event"
    },
    {
      "anonymous": false,
      "inputs": [
        {
          "indexed": false,
          "internalType": "address",
          "name": "_adddress",
          "type": "address"
        }
      ],
      "name": "RemovedAdmin",
      "type": "event"
    },
    {
      "anonymous": false,
      "inputs": [
        {
          "indexed": false,
          "internalType": "uint256",
          "name": "required",
          "type": "uint256"
        }
      ],
      "name": "RequirementChange",
      "type": "event"
    },
    {
      "anonymous": false,
      "inputs": [
        {
          "indexed": true,
          "internalType": "address",
          "name": "sender",
          "type": "address"
        },
        {
          "indexed": true,
          "internalType": "uint256",
          "name": "transactionId",
          "type": "uint256"
        }
      ],
      "name": "Revocation",
      "type": "event"
    },
    {
      "anonymous": false,
      "inputs": [
        {
          "indexed": true,
          "internalType": "uint256",
          "name": "transactionId",
          "type": "uint256"
        }
      ],
      "name": "Submission",
      "type": "event"
    },
    {
      "anonymous": false,
      "inputs": [
        {
          "indexed": false,
          "internalType": "address",
          "name": "_address",
          "type": "address"
        },
        {
          "indexed": false,
          "internalType": "uint256",
          "name": "kTokenAmount",
          "type": "uint256"
        }
      ],
      "name": "Withdrew",
      "type": "event"
    },
    {
      "stateMutability": "payable",
      "type": "fallback"
    },
    {
      "inputs": [
        {
          "components": [
            {
              "internalType": "address[]",
              "name": "auditors",
              "type": "address[]"
            },
            {
              "internalType": "string",
              "name": "fullAuditReport",
              "type": "string"
            }
          ],
          "internalType": "struct AuditorReports.Audit",
          "name": "_audit",
          "type": "tuple"
        }
      ],
      "name": "AddAuditReport",
      "outputs": [],
      "stateMutability": "nonpayable",
      "type": "function"
    },
    {
      "inputs": [],
      "name": "MAX_OWNER_COUNT",
      "outputs": [
        {
          "internalType": "uint256",
          "name": "",
          "type": "uint256"
        }
      ],
      "stateMutability": "view",
      "type": "function"
    },
    {
      "inputs": [
        {
          "internalType": "address",
          "name": "owner",
          "type": "address"
        }
      ],
      "name": "addOwner",
      "outputs": [],
      "stateMutability": "nonpayable",
      "type": "function"
    },
    {
      "inputs": [
        {
          "internalType": "uint256",
          "name": "_required",
          "type": "uint256"
        }
      ],
      "name": "changeRequirement",
      "outputs": [],
      "stateMutability": "nonpayable",
      "type": "function"
    },
    {
      "inputs": [
        {
          "internalType": "uint256",
          "name": "transactionId",
          "type": "uint256"
        }
      ],
      "name": "confirmTransaction",
      "outputs": [],
      "stateMutability": "nonpayable",
      "type": "function"
    },
    {
      "inputs": [
        {
          "internalType": "uint256",
          "name": "",
          "type": "uint256"
        },
        {
          "internalType": "address",
          "name": "",
          "type": "address"
        }
      ],
      "name": "confirmations",
      "outputs": [
        {
          "internalType": "bool",
          "name": "",
          "type": "bool"
        }
      ],
      "stateMutability": "view",
      "type": "function"
    },
    {
      "inputs": [
        {
          "internalType": "uint256",
          "name": "amount",
          "type": "uint256"
        }
      ],
      "name": "deposit",
      "outputs": [],
      "stateMutability": "nonpayable",
      "type": "function"
    },
    {
      "inputs": [
        {
          "internalType": "uint256",
          "name": "transactionId",
          "type": "uint256"
        }
      ],
      "name": "executeTransaction",
      "outputs": [],
      "stateMutability": "nonpayable",
      "type": "function"
    },
    {
      "inputs": [],
      "name": "getAudits",
      "outputs": [
        {
          "components": [
            {
              "components": [
                {
                  "internalType": "address[]",
                  "name": "auditors",
                  "type": "address[]"
                },
                {
                  "internalType": "string",
                  "name": "fullAuditReport",
                  "type": "string"
                }
              ],
              "internalType": "struct AuditorReports.Audit[]",
              "name": "HistoricalAudits",
              "type": "tuple[]"
            }
          ],
          "internalType": "struct AuditorReports.Reports",
          "name": "",
          "type": "tuple"
        }
      ],
      "stateMutability": "view",
      "type": "function"
    },
    {
      "inputs": [
        {
          "internalType": "uint256",
          "name": "transactionId",
          "type": "uint256"
        }
      ],
      "name": "getConfirmationCount",
      "outputs": [
        {
          "internalType": "uint256",
          "name": "count",
          "type": "uint256"
        }
      ],
      "stateMutability": "view",
      "type": "function"
    },
    {
      "inputs": [
        {
          "internalType": "uint256",
          "name": "transactionId",
          "type": "uint256"
        }
      ],
      "name": "getConfirmations",
      "outputs": [
        {
          "internalType": "address[]",
          "name": "_confirmations",
          "type": "address[]"
        }
      ],
      "stateMutability": "view",
      "type": "function"
    },
    {
      "inputs": [],
      "name": "getOwners",
      "outputs": [
        {
          "internalType": "address[]",
          "name": "",
          "type": "address[]"
        }
      ],
      "stateMutability": "view",
      "type": "function"
    },
    {
      "inputs": [],
      "name": "getTotalReserveBalance",
      "outputs": [
        {
          "internalType": "uint256",
          "name": "",
          "type": "uint256"
        }
      ],
      "stateMutability": "view",
      "type": "function"
    },
    {
      "inputs": [
        {
          "internalType": "bool",
          "name": "pending",
          "type": "bool"
        },
        {
          "internalType": "bool",
          "name": "executed",
          "type": "bool"
        }
      ],
      "name": "getTransactionCount",
      "outputs": [
        {
          "internalType": "uint256",
          "name": "count",
          "type": "uint256"
        }
      ],
      "stateMutability": "view",
      "type": "function"
    },
    {
      "inputs": [
        {
          "internalType": "uint256",
          "name": "from",
          "type": "uint256"
        },
        {
          "internalType": "uint256",
          "name": "to",
          "type": "uint256"
        },
        {
          "internalType": "bool",
          "name": "pending",
          "type": "bool"
        },
        {
          "internalType": "bool",
          "name": "executed",
          "type": "bool"
        }
      ],
      "name": "getTransactionIds",
      "outputs": [
        {
          "internalType": "uint256[]",
          "name": "_transactionIds",
          "type": "uint256[]"
        }
      ],
      "stateMutability": "view",
      "type": "function"
    },
    {
      "inputs": [
        {
          "internalType": "uint256",
          "name": "transactionId",
          "type": "uint256"
        }
      ],
      "name": "isConfirmed",
      "outputs": [
        {
          "internalType": "bool",
          "name": "",
          "type": "bool"
        }
      ],
      "stateMutability": "view",
      "type": "function"
    },
    {
      "inputs": [
        {
          "internalType": "address",
          "name": "",
          "type": "address"
        }
      ],
      "name": "isOwner",
      "outputs": [
        {
          "internalType": "bool",
          "name": "",
          "type": "bool"
        }
      ],
      "stateMutability": "view",
      "type": "function"
    },
    {
      "inputs": [],
      "name": "name",
      "outputs": [
        {
          "internalType": "string",
          "name": "",
          "type": "string"
        }
      ],
      "stateMutability": "view",
      "type": "function"
    },
    {
      "inputs": [
        {
          "internalType": "uint256",
          "name": "",
          "type": "uint256"
        }
      ],
      "name": "owners",
      "outputs": [
        {
          "internalType": "address",
          "name": "",
          "type": "address"
        }
      ],
      "stateMutability": "view",
      "type": "function"
    },
    {
      "inputs": [
        {
          "internalType": "address",
          "name": "owner",
          "type": "address"
        }
      ],
      "name": "removeOwner",
      "outputs": [],
      "stateMutability": "nonpayable",
      "type": "function"
    },
    {
      "inputs": [
        {
          "internalType": "address",
          "name": "owner",
          "type": "address"
        },
        {
          "internalType": "address",
          "name": "newOwner",
          "type": "address"
        }
      ],
      "name": "replaceOwner",
      "outputs": [],
      "stateMutability": "nonpayable",
      "type": "function"
    },
    {
      "inputs": [],
      "name": "required",
      "outputs": [
        {
          "internalType": "uint256",
          "name": "",
          "type": "uint256"
        }
      ],
      "stateMutability": "view",
      "type": "function"
    },
    {
      "inputs": [
        {
          "internalType": "uint256",
          "name": "transactionId",
          "type": "uint256"
        }
      ],
      "name": "revokeConfirmation",
      "outputs": [],
      "stateMutability": "nonpayable",
      "type": "function"
    },
    {
      "inputs": [
        {
          "internalType": "address",
          "name": "destination",
          "type": "address"
        },
        {
          "internalType": "uint256",
          "name": "value",
          "type": "uint256"
        },
        {
          "internalType": "bytes",
          "name": "data",
          "type": "bytes"
        }
      ],
      "name": "submitTransaction",
      "outputs": [
        {
          "internalType": "uint256",
          "name": "transactionId",
          "type": "uint256"
        }
      ],
      "stateMutability": "nonpayable",
      "type": "function"
    },
    {
      "inputs": [],
      "name": "transactionCount",
      "outputs": [
        {
          "internalType": "uint256",
          "name": "",
          "type": "uint256"
        }
      ],
      "stateMutability": "view",
      "type": "function"
    },
    {
      "inputs": [
        {
          "internalType": "uint256",
          "name": "",
          "type": "uint256"
        }
      ],
      "name": "transactions",
      "outputs": [
        {
          "internalType": "address",
          "name": "destination",
          "type": "address"
        },
        {
          "internalType": "uint256",
          "name": "value",
          "type": "uint256"
        },
        {
          "internalType": "bytes",
          "name": "data",
          "type": "bytes"
        },
        {
          "internalType": "bool",
          "name": "executed",
          "type": "bool"
        }
      ],
      "stateMutability": "view",
      "type": "function"
    },
    {
      "inputs": [
        {
          "internalType": "uint256",
          "name": "amount",
          "type": "uint256"
        }
      ],
      "name": "withdraw",
      "outputs": [],
      "stateMutability": "nonpayable",
      "type": "function"
    }
  ],
  "bytecode": "0x608060405260006007553480156200001657600080fd5b506040516200332238038062003322833981016040819052620000399162000483565b816002815181603282106200006b5760405162461bcd60e51b815260040162000062906200059a565b60405180910390fd5b8181106200008d5760405162461bcd60e51b8152600401620000629062000608565b80620000ad5760405162461bcd60e51b81526004016200006290620005d1565b81620000cd5760405162461bcd60e51b81526004016200006290620006b2565b60005b8451811015620002125760026000868381518110620000ff57634e487b7160e01b600052603260045260246000fd5b6020908102919091018101516001600160a01b031682528101919091526040016000205460ff1615620001465760405162461bcd60e51b815260040162000062906200068a565b60006001600160a01b03168582815181106200017257634e487b7160e01b600052603260045260246000fd5b60200260200101516001600160a01b03161415620001a45760405162461bcd60e51b8152600401620000629062000653565b600160026000878481518110620001cb57634e487b7160e01b600052603260045260246000fd5b6020908102919091018101516001600160a01b03168252810191909152604001600020805460ff191691151591909117905580620002098162000752565b915050620000d0565b50835162000228906003906020870190620002de565b50505060045550600160065583516200024990600890602087019062000348565b50600a80546001600160a01b038086166001600160a01b031992831617909255600b805484841692169190911790819055604051634adc7cfd60e01b8152911690634adc7cfd90620002a090309060040162000586565b600060405180830381600087803b158015620002bb57600080fd5b505af1158015620002d0573d6000803e3d6000fd5b5050505050505050620007a9565b82805482825590600052602060002090810192821562000336579160200282015b828111156200033657825182546001600160a01b0319166001600160a01b03909116178255602090920191600190910190620002ff565b5062000344929150620003c5565b5090565b828054620003569062000715565b90600052602060002090601f0160209004810192826200037a576000855562000336565b82601f106200039557805160ff191683800117855562000336565b8280016001018555821562000336579182015b8281111562000336578251825591602001919060010190620003a8565b5b80821115620003445760008155600101620003c6565b8051620003e98162000790565b919050565b600082601f830112620003ff578081fd5b815160206001600160401b038211156200041d576200041d6200077a565b8082026200042d828201620006e9565b83815282810190868401838801850189101562000448578687fd5b8693505b8584101562000477578051620004628162000790565b8352600193909301929184019184016200044c565b50979650505050505050565b6000806000806080858703121562000499578384fd5b84516001600160401b0380821115620004b0578586fd5b818701915087601f830112620004c4578586fd5b815181811115620004d957620004d96200077a565b6020620004ef601f8301601f19168201620006e9565b8281528a8284870101111562000503578889fd5b885b838110156200052257858101830151828201840152820162000505565b838111156200053357898385840101525b50975062000543898201620003dc565b9650505060408701519150808211156200055b578384fd5b506200056a87828801620003ee565b9250506200057b60608601620003dc565b905092959194509250565b6001600160a01b0391909116815260200190565b60208082526019908201527f6d617820206f776e657220636f756e7420657863656564656400000000000000604082015260600190565b60208082526019908201527f7a65726f207265717569726564206e6f7420616c6c6f77656400000000000000604082015260600190565b6020808252602b908201527f63616e277420686176652072657175697265642067726561746572207468616e60408201526a081bdddb995c90dbdd5b9d60aa1b606082015260800190565b60208082526018908201527f7a65726f2061646472657373206e6f7420616c6c6f7765640000000000000000604082015260600190565b6020808252600e908201526d39b7b6b29031b7b73234ba34b7b760911b604082015260600190565b60208082526016908201527f43616e27742068617665207a65726f206f776e65727300000000000000000000604082015260600190565b6040518181016001600160401b03811182821017156200070d576200070d6200077a565b604052919050565b6002810460018216806200072a57607f821691505b602082108114156200074c57634e487b7160e01b600052602260045260246000fd5b50919050565b60006000198214156200077357634e487b7160e01b81526011600452602481fd5b5060010190565b634e487b7160e01b600052604160045260246000fd5b6001600160a01b0381168114620007a657600080fd5b50565b612b6980620007b96000396000f3fe6080604052600436106101ac5760003560e01c80639ace38c2116100ec578063ba51a6df1161008a578063d74f8edd11610064578063d74f8edd14610513578063dc8452cd14610528578063e20056e61461053d578063ee22610b1461055d576101ac565b8063ba51a6df146104b3578063c01a8c84146104d3578063c6427474146104f3576101ac565b8063b5317375116100c6578063b531737514610449578063b5dc40c31461045e578063b6b55f251461047e578063b77bf6001461049e576101ac565b80639ace38c2146103ca578063a0e67e2b146103fa578063a8abe69a1461041c576101ac565b80633411c81c116101595780637065cb48116101335780637065cb481461034a578063722f8ee21461036a578063784547a71461038a5780638b51d13f146103aa576101ac565b80633411c81c146102db578063523ec1d0146102fb578063547415251461031d576101ac565b806320ea8d861161018a57806320ea8d861461026e5780632e1a7d4d1461028e5780632f54bf6e146102ae576101ac565b8063025e7c27146101f657806306fdde031461022c578063173825d91461024e575b34156101f457336001600160a01b03167fe1fffcc4923d04b559f4d29a8bfc6cda04eb5b0d3c460751c2402c5c5cc9109c346040516101eb91906129f9565b60405180910390a25b005b34801561020257600080fd5b506102166102113660046121cf565b61057d565b60405161022391906123a0565b60405180910390f35b34801561023857600080fd5b506102416105a7565b60405161022391906124bc565b34801561025a57600080fd5b506101f4610269366004611fb8565b610635565b34801561027a57600080fd5b506101f46102893660046121cf565b61081a565b34801561029a57600080fd5b506101f46102a93660046121cf565b610909565b3480156102ba57600080fd5b506102ce6102c9366004611fb8565b610a63565b60405161022391906124b1565b3480156102e757600080fd5b506102ce6102f63660046121e7565b610a78565b34801561030757600080fd5b50610310610a98565b604051610223919061298f565b34801561032957600080fd5b5061033d610338366004612088565b610bfb565b60405161022391906129f9565b34801561035657600080fd5b506101f4610365366004611fb8565b610c78565b34801561037657600080fd5b506101f46103853660046120c0565b610e20565b34801561039657600080fd5b506102ce6103a53660046121cf565b610eeb565b3480156103b657600080fd5b5061033d6103c53660046121cf565b610f9b565b3480156103d657600080fd5b506103ea6103e53660046121cf565b61102f565b60405161022394939291906123f1565b34801561040657600080fd5b5061040f6110ed565b604051610223919061242c565b34801561042857600080fd5b5061043c610437366004612209565b61114f565b6040516102239190612479565b34801561045557600080fd5b5061033d61132d565b34801561046a57600080fd5b5061040f6104793660046121cf565b611333565b34801561048a57600080fd5b506101f46104993660046121cf565b61156d565b3480156104aa57600080fd5b5061033d6116b0565b3480156104bf57600080fd5b506101f46104ce3660046121cf565b6116b6565b3480156104df57600080fd5b506101f46104ee3660046121cf565b611794565b3480156104ff57600080fd5b5061033d61050e366004612004565b611894565b34801561051f57600080fd5b5061033d6118b3565b34801561053457600080fd5b5061033d6118b8565b34801561054957600080fd5b506101f4610558366004611fd2565b6118be565b34801561056957600080fd5b506101f46105783660046121cf565b611aa6565b6003818154811061058d57600080fd5b6000918252602090912001546001600160a01b0316905081565b600880546105b490612aa6565b80601f01602080910402602001604051908101604052809291908181526020018280546105e090612aa6565b801561062d5780601f106106025761010080835404028352916020019161062d565b820191906000526020600020905b81548152906001019060200180831161061057829003601f168201915b505050505081565b33301461065d5760405162461bcd60e51b815260040161065490612676565b60405180910390fd5b6001600160a01b038116600090815260026020526040902054819060ff166106975760405162461bcd60e51b81526004016106549061270a565b6001600160a01b0382166000908152600260205260408120805460ff191690555b6003546106c790600190612a8f565b8110156107c157826001600160a01b0316600382815481106106f957634e487b7160e01b600052603260045260246000fd5b6000918252602090912001546001600160a01b031614156107af576003805461072490600190612a8f565b8154811061074257634e487b7160e01b600052603260045260246000fd5b600091825260209091200154600380546001600160a01b03909216918390811061077c57634e487b7160e01b600052603260045260246000fd5b9060005260206000200160006101000a8154816001600160a01b0302191690836001600160a01b031602179055506107c1565b806107b981612adb565b9150506106b8565b50600380516000190181525460045411156107e2576003546107e2906116b6565b6040516001600160a01b038316907f8001553a916ef2f495d26a907cc54d96ed840d7bda71e73194bf5a9df7a76b9090600090a25050565b3360008181526002602052604090205460ff166108495760405162461bcd60e51b81526004016106549061270a565b60008281526001602090815260408083203380855292529091205483919060ff166108865760405162461bcd60e51b8152600401610654906125e2565b600084815260208190526040902060030154849060ff16156108ba5760405162461bcd60e51b81526004016106549061290e565b6000858152600160209081526040808320338085529252808320805460ff191690555187927ff6a317157440607f36269043eb55f1287a5a19ba2216afeab88cd46cbcfb88e991a35050505050565b6002600654141561092c5760405162461bcd60e51b815260040161065490612945565b6002600655808061094f5760405162461bcd60e51b8152600401610654906127e6565b600061095a83611bec565b905061096581611bef565b610970303383611c30565b61098c5760405162461bcd60e51b815260040161065490612843565b7fb244b9a17ad633c6e83b7983ee04320484956a68ddbe96a0b70dfca1cf19d72333846040516109bd9291906123d8565b60405180910390a180600760008282546109d79190612a8f565b9091555050600b546040517f17fc336d0000000000000000000000000000000000000000000000000000000081526001600160a01b03909116906317fc336d90610a2790339087906004016123d8565b600060405180830381600087803b158015610a4157600080fd5b505af1158015610a55573d6000803e3d6000fd5b505060016006555050505050565b60026020526000908152604090205460ff1681565b600160209081526000928352604080842090915290825290205460ff1681565b610aa0611e1c565b6040805160098054602081810284018501855283018181529293919284929091849160009085015b82821015610bee578382906000526020600020906002020160405180604001604052908160008201805480602002602001604051908101604052809291908181526020018280548015610b4457602002820191906000526020600020905b81546001600160a01b03168152600190910190602001808311610b26575b50505050508152602001600182018054610b5d90612aa6565b80601f0160208091040260200160405190810160405280929190818152602001828054610b8990612aa6565b8015610bd65780601f10610bab57610100808354040283529160200191610bd6565b820191906000526020600020905b815481529060010190602001808311610bb957829003601f168201915b50505050508152505081526020019060010190610ac8565b5050505081525050905090565b6000805b600554811015610c7157838015610c28575060008181526020819052604090206003015460ff16155b80610c4c5750828015610c4c575060008181526020819052604090206003015460ff165b15610c5f57610c5c600183612a38565b91505b80610c6981612adb565b915050610bff565b5092915050565b333014610c975760405162461bcd60e51b815260040161065490612676565b6001600160a01b038116600090815260026020526040902054819060ff1615610cd25760405162461bcd60e51b815260040161065490612574565b816001600160a01b038116610cf95760405162461bcd60e51b8152600401610654906124cf565b600354610d07906001612a38565b60045460328210610d2a5760405162461bcd60e51b815260040161065490612506565b818110610d495760405162461bcd60e51b815260040161065490612619565b80610d665760405162461bcd60e51b81526004016106549061253d565b81610d835760405162461bcd60e51b8152600401610654906128d7565b6001600160a01b038516600081815260026020526040808220805460ff1916600190811790915560038054918201815583527fc2575a0e9e593c00f959f8c92f12db2869c3395a3b0502d05e2516446f71f85b01805473ffffffffffffffffffffffffffffffffffffffff191684179055517ff39e6e1eb0edcf53c221607b54b00cd28f3196fed0a24994dc308b8f611b682d9190a25050505050565b600a546001600160a01b03163314610e4a5760405162461bcd60e51b8152600401610654906126ad565b600980546001810182556000919091528151805183926002027f6e1540171b6c0c960b71a7020d9f60077f6af931a8bbf590da0223dacf75c7af0191610e9591839160200190611e2f565b506020828101518051610eae9260018501920190611ea1565b5050507f1296b70fc9141190fd21db15fabe3f067aa5dc48f440e5cde726a311a8e2c18081604051610ee0919061297c565b60405180910390a150565b600080805b600354811015610f8f5760008481526001602052604081206003805491929184908110610f2d57634e487b7160e01b600052603260045260246000fd5b60009182526020808320909101546001600160a01b0316835282019290925260400190205460ff1615610f6857610f65600183612a38565b91505b600454821415610f7d57600192505050610f96565b80610f8781612adb565b915050610ef0565b5060009150505b919050565b6000805b6003548110156110295760008381526001602052604081206003805491929184908110610fdc57634e487b7160e01b600052603260045260246000fd5b60009182526020808320909101546001600160a01b0316835282019290925260400190205460ff161561101757611014600183612a38565b91505b8061102181612adb565b915050610f9f565b50919050565b6000602081905290815260409020805460018201546002830180546001600160a01b0390931693919261106190612aa6565b80601f016020809104026020016040519081016040528092919081815260200182805461108d90612aa6565b80156110da5780601f106110af576101008083540402835291602001916110da565b820191906000526020600020905b8154815290600101906020018083116110bd57829003601f168201915b5050506003909301549192505060ff1684565b6060600380548060200260200160405190810160405280929190818152602001828054801561114557602002820191906000526020600020905b81546001600160a01b03168152600190910190602001808311611127575b5050505050905090565b6060600060055467ffffffffffffffff81111561117c57634e487b7160e01b600052604160045260246000fd5b6040519080825280602002602001820160405280156111a5578160200160208202803683370190505b5090506000805b60055481101561124a578580156111d5575060008181526020819052604090206003015460ff16155b806111f957508480156111f9575060008181526020819052604090206003015460ff165b15611238578083838151811061121f57634e487b7160e01b600052603260045260246000fd5b6020908102919091010152611235600183612a38565b91505b8061124281612adb565b9150506111ac565b6112548888612a8f565b67ffffffffffffffff81111561127a57634e487b7160e01b600052604160045260246000fd5b6040519080825280602002602001820160405280156112a3578160200160208202803683370190505b5093508790505b86811015611322578281815181106112d257634e487b7160e01b600052603260045260246000fd5b60200260200101518489836112e79190612a8f565b8151811061130557634e487b7160e01b600052603260045260246000fd5b60209081029190910101528061131a81612adb565b9150506112aa565b505050949350505050565b60075490565b60035460609060009067ffffffffffffffff81111561136257634e487b7160e01b600052604160045260246000fd5b60405190808252806020026020018201604052801561138b578160200160208202803683370190505b5090506000805b60035481101561149357600085815260016020526040812060038054919291849081106113cf57634e487b7160e01b600052603260045260246000fd5b60009182526020808320909101546001600160a01b0316835282019290925260400190205460ff1615611481576003818154811061141d57634e487b7160e01b600052603260045260246000fd5b9060005260206000200160009054906101000a90046001600160a01b031683838151811061145b57634e487b7160e01b600052603260045260246000fd5b6001600160a01b039092166020928302919091019091015261147e600183612a38565b91505b8061148b81612adb565b915050611392565b8167ffffffffffffffff8111156114ba57634e487b7160e01b600052604160045260246000fd5b6040519080825280602002602001820160405280156114e3578160200160208202803683370190505b509350600090505b818110156115655782818151811061151357634e487b7160e01b600052603260045260246000fd5b602002602001015184828151811061153b57634e487b7160e01b600052603260045260246000fd5b6001600160a01b03909216602092830291909101909101528061155d81612adb565b9150506114eb565b505050919050565b600260065414156115905760405162461bcd60e51b815260040161065490612945565b600260065580806115b35760405162461bcd60e51b8152600401610654906127e6565b6115be333084611c30565b6115da5760405162461bcd60e51b815260040161065490612741565b7f2da466a7b24304f47e87fa2e1e5a81b9831ce54fec19055ce277ca2f39ba42c4338360405161160b9291906123d8565b60405180910390a181600760008282546116259190612a38565b9091555050600b546040517fcc6e12370000000000000000000000000000000000000000000000000000000081526001600160a01b039091169063cc6e12379061167590339086906004016123d8565b600060405180830381600087803b15801561168f57600080fd5b505af11580156116a3573d6000803e3d6000fd5b5050600160065550505050565b60055481565b3330146116d55760405162461bcd60e51b815260040161065490612676565b60035481603282106116f95760405162461bcd60e51b815260040161065490612506565b8181106117185760405162461bcd60e51b815260040161065490612619565b806117355760405162461bcd60e51b81526004016106549061253d565b816117525760405162461bcd60e51b8152600401610654906128d7565b60048390556040517fa3f1ee9126a074d9326c682f561767f710e927faa811f7a99829d49dc421797a906117879085906129f9565b60405180910390a1505050565b3360008181526002602052604090205460ff166117c35760405162461bcd60e51b81526004016106549061270a565b60008281526020819052604090205482906001600160a01b03166117f95760405162461bcd60e51b8152600401610654906127af565b60008381526001602090815260408083203380855292529091205484919060ff16156118375760405162461bcd60e51b815260040161065490612778565b6000858152600160208181526040808420338086529252808420805460ff1916909317909255905187927f4a504a94899432a9846e1aa406dceb1bcfd538bb839071d49d1e5e23f5be30ef91a361188d85611aa6565b5050505050565b60006118a1848484611d09565b90506118ac81611794565b9392505050565b603281565b60045481565b3330146118dd5760405162461bcd60e51b815260040161065490612676565b6001600160a01b038216600090815260026020526040902054829060ff166119175760405162461bcd60e51b81526004016106549061270a565b6001600160a01b038216600090815260026020526040902054829060ff16156119525760405162461bcd60e51b815260040161065490612574565b60005b600354811015611a0c57846001600160a01b03166003828154811061198a57634e487b7160e01b600052603260045260246000fd5b6000918252602090912001546001600160a01b031614156119fa5783600382815481106119c757634e487b7160e01b600052603260045260246000fd5b9060005260206000200160006101000a8154816001600160a01b0302191690836001600160a01b03160217905550611a0c565b80611a0481612adb565b915050611955565b506001600160a01b03808516600081815260026020526040808220805460ff1990811690915593871682528082208054909416600117909355915190917f8001553a916ef2f495d26a907cc54d96ed840d7bda71e73194bf5a9df7a76b9091a26040516001600160a01b038416907ff39e6e1eb0edcf53c221607b54b00cd28f3196fed0a24994dc308b8f611b682d90600090a250505050565b600081815260208190526040902060030154819060ff1615611ada5760405162461bcd60e51b81526004016106549061290e565b611ae382610eeb565b15611be85760008281526020819052604080822060038101805460ff1916600190811790915581549082015492519193926060926001600160a01b0390921691611b31906002870190612305565b60006040518083038185875af1925050503d8060008114611b6e576040519150601f19603f3d011682016040523d82523d6000602084013e611b73565b606091505b5090925090508115611baf5760405185907f33e13ecb54c3076d8e8bb8c2881800a4d972b792045ffae98fdf46df365fed7590600090a261188d565b60405185907f526441bb6c1aba3c9a4a6ca1d6545da9c2333c8c48343ef398eb858d72b7923690600090a25050600301805460ff191690555b5050565b90565b600754600090611c0283620186a0612a70565b611c0c9190612a50565b9050614e20811115611be85760405162461bcd60e51b81526004016106549061287a565b60006001600160a01b038316611c585760405162461bcd60e51b8152600401610654906125ab565b6040517f23b872dd00000000000000000000000000000000000000000000000000000000815273a0b86991c6218b36c1d19d4a2e9eb0ce3606eb489081906323b872dd90611cae908890889088906004016123b4565b602060405180830381600087803b158015611cc857600080fd5b505af1158015611cdc573d6000803e3d6000fd5b505050506040513d601f19601f82011682018060405250810190611d00919061206c565b95945050505050565b6000836001600160a01b038116611d325760405162461bcd60e51b8152600401610654906124cf565b600554604080516080810182526001600160a01b0388811682526020808301898152838501898152600060608601819052878152808452959095208451815473ffffffffffffffffffffffffffffffffffffffff191694169390931783555160018301559251805194965091939092611db2926002850192910190611ea1565b50606091909101516003909101805460ff19169115159190911790556005805460019190600090611de4908490612a38565b909155505060405182907fc0ba8fe4b176c1714197d43b9cc6bcf797a4a7461c5fe8d0ef6e184ae7601e5190600090a2509392505050565b6040518060200160405280606081525090565b828054828255906000526020600020908101928215611e91579160200282015b82811115611e91578251825473ffffffffffffffffffffffffffffffffffffffff19166001600160a01b03909116178255602090920191600190910190611e4f565b50611e9d929150611f15565b5090565b828054611ead90612aa6565b90600052602060002090601f016020900481019282611ecf5760008555611e91565b82601f10611ee857805160ff1916838001178555611e91565b82800160010185558215611e91579182015b82811115611e91578251825591602001919060010190611efa565b5b80821115611e9d5760008155600101611f16565b600067ffffffffffffffff831115611f4457611f44612b0c565b611f57601f8401601f1916602001612a02565b9050828152838383011115611f6b57600080fd5b828260208301376000602084830101529392505050565b80356001600160a01b0381168114610f9657600080fd5b600082601f830112611fa9578081fd5b6118ac83833560208501611f2a565b600060208284031215611fc9578081fd5b6118ac82611f82565b60008060408385031215611fe4578081fd5b611fed83611f82565b9150611ffb60208401611f82565b90509250929050565b600080600060608486031215612018578081fd5b61202184611f82565b925060208401359150604084013567ffffffffffffffff811115612043578182fd5b8401601f81018613612053578182fd5b61206286823560208401611f2a565b9150509250925092565b60006020828403121561207d578081fd5b81516118ac81612b22565b6000806040838503121561209a578182fd5b82356120a581612b22565b915060208301356120b581612b22565b809150509250929050565b600060208083850312156120d2578182fd5b823567ffffffffffffffff808211156120e9578384fd5b90840190604082870312156120fc578384fd5b60405160408101818110838211171561211757612117612b0c565b604052823582811115612128578586fd5b8301601f81018813612138578586fd5b80358381111561214a5761214a612b0c565b858102612158878201612a02565b828152878101908489018386018a018d1015612172578a8bfd5b8a95505b8486101561219b5761218781611f82565b835260019590950194918901918901612176565b5085525050505082840135828111156121b2578586fd5b6121be88828601611f99565b948201949094529695505050505050565b6000602082840312156121e0578081fd5b5035919050565b600080604083850312156121f9578182fd5b82359150611ffb60208401611f82565b6000806000806080858703121561221e578081fd5b8435935060208501359250604085013561223781612b22565b9150606085013561224781612b22565b939692955090935050565b60008151808452815b818110156122775760208185018101518683018201520161225b565b818111156122885782602083870101525b50601f01601f19169290920160200192915050565b805160408084528151908401819052600091602091908201906060860190845b818110156122e25783516001600160a01b0316835292840192918401916001016122bd565b5050828501519150858103838701526122fb8183612252565b9695505050505050565b815460009081906002810460018083168061232157607f831692505b602080841082141561234157634e487b7160e01b87526022600452602487fd5b818015612355576001811461236657612392565b60ff19861689528489019650612392565b61236f8a612a2c565b885b8681101561238a5781548b820152908501908301612371565b505084890196505b509498975050505050505050565b6001600160a01b0391909116815260200190565b6001600160a01b039384168152919092166020820152604081019190915260600190565b6001600160a01b03929092168252602082015260400190565b60006001600160a01b0386168252846020830152608060408301526124196080830185612252565b9050821515606083015295945050505050565b6020808252825182820181905260009190848201906040850190845b8181101561246d5783516001600160a01b031683529284019291840191600101612448565b50909695505050505050565b6020808252825182820181905260009190848201906040850190845b8181101561246d57835183529284019291840191600101612495565b901515815260200190565b6000602082526118ac6020830184612252565b60208082526017908201527f726571757265206e6f74206e756c6c2061646472657373000000000000000000604082015260600190565b60208082526019908201527f6d617820206f776e657220636f756e7420657863656564656400000000000000604082015260600190565b60208082526019908201527f7a65726f207265717569726564206e6f7420616c6c6f77656400000000000000604082015260600190565b60208082526015908201527f4f776e65722073686f756c646e27742065786973740000000000000000000000604082015260600190565b6020808252601b908201527f43616e27742073656e6420746f207a65726f20616464726573732e0000000000604082015260600190565b6020808252600d908201527f6e6f7420636f6e6669726d656400000000000000000000000000000000000000604082015260600190565b6020808252602b908201527f63616e277420686176652072657175697265642067726561746572207468616e60408201527f206f776e6572436f756e74000000000000000000000000000000000000000000606082015260800190565b60208082526013908201527f4f6e6c792077616c6c657420616c6c6f77656400000000000000000000000000604082015260600190565b60208082526021908201527f4f6e6c7920476f7665726e656e636520616c6c6f776564206f7065726174696f60408201527f6e00000000000000000000000000000000000000000000000000000000000000606082015260800190565b60208082526013908201527f4f776e657220646f65736e277420657869737400000000000000000000000000604082015260600190565b60208082526017908201527f4465706f736974206e6f74207375636365737366756c2e000000000000000000604082015260600190565b60208082526009908201527f636f6e6669726d65640000000000000000000000000000000000000000000000604082015260600190565b60208082526016908201527f7472616e736374696f6e20697320706f737369626c6500000000000000000000604082015260600190565b60208082526028908201527f4d757374206465706f736974206f72207769746864726177206d6f726520746860408201527f616e207a65726f2e000000000000000000000000000000000000000000000000606082015260800190565b6020808252601a908201527f5769746864726177616c206e6f74207375636365737366756c2e000000000000604082015260600190565b6020808252602e908201527f43616e6e6f74207769746864726177206d6f7265207468616e20323025206f6660408201527f20506f6f6c2062616c616e63652e000000000000000000000000000000000000606082015260800190565b60208082526016908201527f43616e27742068617665207a65726f206f776e65727300000000000000000000604082015260600190565b60208082526019908201527f68617320616c7265616479206265656e20657865637574656400000000000000604082015260600190565b6020808252601f908201527f5265656e7472616e637947756172643a207265656e7472616e742063616c6c00604082015260600190565b6000602082526118ac602083018461229d565b600060208083526040830184518283860152818151808452606087019150606085820288010193508483019250855b818110156129ec57605f198886030183526129da85855161229d565b945092850192918501916001016129be565b5092979650505050505050565b90815260200190565b60405181810167ffffffffffffffff81118282101715612a2457612a24612b0c565b604052919050565b60009081526020902090565b60008219821115612a4b57612a4b612af6565b500190565b600082612a6b57634e487b7160e01b81526012600452602481fd5b500490565b6000816000190483118215151615612a8a57612a8a612af6565b500290565b600082821015612aa157612aa1612af6565b500390565b600281046001821680612aba57607f821691505b6020821081141561102957634e487b7160e01b600052602260045260246000fd5b6000600019821415612aef57612aef612af6565b5060010190565b634e487b7160e01b600052601160045260246000fd5b634e487b7160e01b600052604160045260246000fd5b8015158114612b3057600080fd5b5056fea2646970667358221220a1da82805222e7175b3581fe2b8d6ba1cffd9cb73d63ef6ef557932b40e21d4764736f6c63430008000033",
  "linkReferences": {},
  "deployedLinkReferences": {}
}