{
  "_format": "hh-sol-artifact-1",
  "contractName": "Pool",
  "sourceName": "contracts/Pool.sol",
  "abi": [
    {
      "inputs": [
        {
          "internalType": "string",
          "name": "_name",
          "type": "string"
        },
        {
          "internalType": "address",
          "name": "_governer",
          "type": "address"
        },
        {
          "internalType": "address[]",
          "name": "_admins",
          "type": "address[]"
        },
        {
          "internalType": "contract KoloToken",
          "name": "_kToken",
          "type": "address"
        }
      ],
      "stateMutability": "nonpayable",
      "type": "constructor"
    },
    {
      "anonymous": false,
      "inputs": [
        {
          "indexed": false,
          "internalType": "address",
          "name": "_address",
          "type": "address"
        }
      ],
      "name": "AddedAdmin",
      "type": "event"
    },
    {
      "anonymous": false,
      "inputs": [
        {
          "components": [
            {
              "internalType": "address[]",
              "name": "auditors",
              "type": "address[]"
            },
            {
              "internalType": "string",
              "name": "fullAuditReport",
              "type": "string"
            }
          ],
          "indexed": false,
          "internalType": "struct AuditorReports.Audit",
          "name": "_audit",
          "type": "tuple"
        }
      ],
      "name": "AddedAuditReport",
      "type": "event"
    },
    {
      "anonymous": false,
      "inputs": [
        {
          "indexed": true,
          "internalType": "address",
          "name": "sender",
          "type": "address"
        },
        {
          "indexed": true,
          "internalType": "uint256",
          "name": "transactionId",
          "type": "uint256"
        }
      ],
      "name": "Confirmation",
      "type": "event"
    },
    {
      "anonymous": false,
      "inputs": [
        {
          "indexed": true,
          "internalType": "address",
          "name": "sender",
          "type": "address"
        },
        {
          "indexed": false,
          "internalType": "uint256",
          "name": "value",
          "type": "uint256"
        }
      ],
      "name": "Deposit",
      "type": "event"
    },
    {
      "anonymous": false,
      "inputs": [
        {
          "indexed": false,
          "internalType": "address",
          "name": "_address",
          "type": "address"
        },
        {
          "indexed": false,
          "internalType": "uint256",
          "name": "usdcAmount",
          "type": "uint256"
        }
      ],
      "name": "Deposited",
      "type": "event"
    },
    {
      "anonymous": false,
      "inputs": [
        {
          "indexed": true,
          "internalType": "uint256",
          "name": "transactionId",
          "type": "uint256"
        }
      ],
      "name": "Execution",
      "type": "event"
    },
    {
      "anonymous": false,
      "inputs": [
        {
          "indexed": true,
          "internalType": "uint256",
          "name": "transactionId",
          "type": "uint256"
        }
      ],
      "name": "ExecutionFailure",
      "type": "event"
    },
    {
      "anonymous": false,
      "inputs": [
        {
          "indexed": true,
          "internalType": "address",
          "name": "owner",
          "type": "address"
        }
      ],
      "name": "OwnerAddition",
      "type": "event"
    },
    {
      "anonymous": false,
      "inputs": [
        {
          "indexed": true,
          "internalType": "address",
          "name": "owner",
          "type": "address"
        }
      ],
      "name": "OwnerRemoval",
      "type": "event"
    },
    {
      "anonymous": false,
      "inputs": [
        {
          "indexed": false,
          "internalType": "address",
          "name": "_adddress",
          "type": "address"
        }
      ],
      "name": "RemovedAdmin",
      "type": "event"
    },
    {
      "anonymous": false,
      "inputs": [
        {
          "indexed": false,
          "internalType": "uint256",
          "name": "required",
          "type": "uint256"
        }
      ],
      "name": "RequirementChange",
      "type": "event"
    },
    {
      "anonymous": false,
      "inputs": [
        {
          "indexed": true,
          "internalType": "address",
          "name": "sender",
          "type": "address"
        },
        {
          "indexed": true,
          "internalType": "uint256",
          "name": "transactionId",
          "type": "uint256"
        }
      ],
      "name": "Revocation",
      "type": "event"
    },
    {
      "anonymous": false,
      "inputs": [
        {
          "indexed": true,
          "internalType": "uint256",
          "name": "transactionId",
          "type": "uint256"
        }
      ],
      "name": "Submission",
      "type": "event"
    },
    {
      "anonymous": false,
      "inputs": [
        {
          "indexed": false,
          "internalType": "address",
          "name": "_address",
          "type": "address"
        },
        {
          "indexed": false,
          "internalType": "uint256",
          "name": "kTokenAmount",
          "type": "uint256"
        }
      ],
      "name": "Withdrew",
      "type": "event"
    },
    {
      "stateMutability": "payable",
      "type": "fallback"
    },
    {
      "inputs": [
        {
          "components": [
            {
              "internalType": "address[]",
              "name": "auditors",
              "type": "address[]"
            },
            {
              "internalType": "string",
              "name": "fullAuditReport",
              "type": "string"
            }
          ],
          "internalType": "struct AuditorReports.Audit",
          "name": "_audit",
          "type": "tuple"
        }
      ],
      "name": "AddAuditReport",
      "outputs": [],
      "stateMutability": "nonpayable",
      "type": "function"
    },
    {
      "inputs": [],
      "name": "MAX_OWNER_COUNT",
      "outputs": [
        {
          "internalType": "uint256",
          "name": "",
          "type": "uint256"
        }
      ],
      "stateMutability": "view",
      "type": "function"
    },
    {
      "inputs": [
        {
          "internalType": "address",
          "name": "owner",
          "type": "address"
        }
      ],
      "name": "addOwner",
      "outputs": [],
      "stateMutability": "nonpayable",
      "type": "function"
    },
    {
      "inputs": [
        {
          "internalType": "uint256",
          "name": "_required",
          "type": "uint256"
        }
      ],
      "name": "changeRequirement",
      "outputs": [],
      "stateMutability": "nonpayable",
      "type": "function"
    },
    {
      "inputs": [
        {
          "internalType": "uint256",
          "name": "transactionId",
          "type": "uint256"
        }
      ],
      "name": "confirmTransaction",
      "outputs": [],
      "stateMutability": "nonpayable",
      "type": "function"
    },
    {
      "inputs": [
        {
          "internalType": "uint256",
          "name": "",
          "type": "uint256"
        },
        {
          "internalType": "address",
          "name": "",
          "type": "address"
        }
      ],
      "name": "confirmations",
      "outputs": [
        {
          "internalType": "bool",
          "name": "",
          "type": "bool"
        }
      ],
      "stateMutability": "view",
      "type": "function"
    },
    {
      "inputs": [
        {
          "internalType": "uint256",
          "name": "amount",
          "type": "uint256"
        }
      ],
      "name": "deposit",
      "outputs": [],
      "stateMutability": "nonpayable",
      "type": "function"
    },
    {
      "inputs": [
        {
          "internalType": "uint256",
          "name": "transactionId",
          "type": "uint256"
        }
      ],
      "name": "executeTransaction",
      "outputs": [],
      "stateMutability": "nonpayable",
      "type": "function"
    },
    {
      "inputs": [],
      "name": "getAudits",
      "outputs": [
        {
          "components": [
            {
              "components": [
                {
                  "internalType": "address[]",
                  "name": "auditors",
                  "type": "address[]"
                },
                {
                  "internalType": "string",
                  "name": "fullAuditReport",
                  "type": "string"
                }
              ],
              "internalType": "struct AuditorReports.Audit[]",
              "name": "HistoricalAudits",
              "type": "tuple[]"
            }
          ],
          "internalType": "struct AuditorReports.Reports",
          "name": "",
          "type": "tuple"
        }
      ],
      "stateMutability": "view",
      "type": "function"
    },
    {
      "inputs": [
        {
          "internalType": "uint256",
          "name": "transactionId",
          "type": "uint256"
        }
      ],
      "name": "getConfirmationCount",
      "outputs": [
        {
          "internalType": "uint256",
          "name": "count",
          "type": "uint256"
        }
      ],
      "stateMutability": "view",
      "type": "function"
    },
    {
      "inputs": [
        {
          "internalType": "uint256",
          "name": "transactionId",
          "type": "uint256"
        }
      ],
      "name": "getConfirmations",
      "outputs": [
        {
          "internalType": "address[]",
          "name": "_confirmations",
          "type": "address[]"
        }
      ],
      "stateMutability": "view",
      "type": "function"
    },
    {
      "inputs": [],
      "name": "getOwners",
      "outputs": [
        {
          "internalType": "address[]",
          "name": "",
          "type": "address[]"
        }
      ],
      "stateMutability": "view",
      "type": "function"
    },
    {
      "inputs": [],
      "name": "getTotalReserveBalance",
      "outputs": [
        {
          "internalType": "uint256",
          "name": "",
          "type": "uint256"
        }
      ],
      "stateMutability": "view",
      "type": "function"
    },
    {
      "inputs": [
        {
          "internalType": "bool",
          "name": "pending",
          "type": "bool"
        },
        {
          "internalType": "bool",
          "name": "executed",
          "type": "bool"
        }
      ],
      "name": "getTransactionCount",
      "outputs": [
        {
          "internalType": "uint256",
          "name": "count",
          "type": "uint256"
        }
      ],
      "stateMutability": "view",
      "type": "function"
    },
    {
      "inputs": [
        {
          "internalType": "uint256",
          "name": "from",
          "type": "uint256"
        },
        {
          "internalType": "uint256",
          "name": "to",
          "type": "uint256"
        },
        {
          "internalType": "bool",
          "name": "pending",
          "type": "bool"
        },
        {
          "internalType": "bool",
          "name": "executed",
          "type": "bool"
        }
      ],
      "name": "getTransactionIds",
      "outputs": [
        {
          "internalType": "uint256[]",
          "name": "_transactionIds",
          "type": "uint256[]"
        }
      ],
      "stateMutability": "view",
      "type": "function"
    },
    {
      "inputs": [
        {
          "internalType": "uint256",
          "name": "transactionId",
          "type": "uint256"
        }
      ],
      "name": "isConfirmed",
      "outputs": [
        {
          "internalType": "bool",
          "name": "",
          "type": "bool"
        }
      ],
      "stateMutability": "view",
      "type": "function"
    },
    {
      "inputs": [
        {
          "internalType": "address",
          "name": "",
          "type": "address"
        }
      ],
      "name": "isOwner",
      "outputs": [
        {
          "internalType": "bool",
          "name": "",
          "type": "bool"
        }
      ],
      "stateMutability": "view",
      "type": "function"
    },
    {
      "inputs": [],
      "name": "name",
      "outputs": [
        {
          "internalType": "string",
          "name": "",
          "type": "string"
        }
      ],
      "stateMutability": "view",
      "type": "function"
    },
    {
      "inputs": [
        {
          "internalType": "uint256",
          "name": "",
          "type": "uint256"
        }
      ],
      "name": "owners",
      "outputs": [
        {
          "internalType": "address",
          "name": "",
          "type": "address"
        }
      ],
      "stateMutability": "view",
      "type": "function"
    },
    {
      "inputs": [
        {
          "internalType": "address",
          "name": "owner",
          "type": "address"
        }
      ],
      "name": "removeOwner",
      "outputs": [],
      "stateMutability": "nonpayable",
      "type": "function"
    },
    {
      "inputs": [
        {
          "internalType": "address",
          "name": "owner",
          "type": "address"
        },
        {
          "internalType": "address",
          "name": "newOwner",
          "type": "address"
        }
      ],
      "name": "replaceOwner",
      "outputs": [],
      "stateMutability": "nonpayable",
      "type": "function"
    },
    {
      "inputs": [],
      "name": "required",
      "outputs": [
        {
          "internalType": "uint256",
          "name": "",
          "type": "uint256"
        }
      ],
      "stateMutability": "view",
      "type": "function"
    },
    {
      "inputs": [
        {
          "internalType": "uint256",
          "name": "transactionId",
          "type": "uint256"
        }
      ],
      "name": "revokeConfirmation",
      "outputs": [],
      "stateMutability": "nonpayable",
      "type": "function"
    },
    {
      "inputs": [
        {
          "internalType": "address",
          "name": "_usdcAddress",
          "type": "address"
        }
      ],
      "name": "setUsdcAddress",
      "outputs": [],
      "stateMutability": "nonpayable",
      "type": "function"
    },
    {
      "inputs": [
        {
          "internalType": "address",
          "name": "destination",
          "type": "address"
        },
        {
          "internalType": "uint256",
          "name": "value",
          "type": "uint256"
        },
        {
          "internalType": "bytes",
          "name": "data",
          "type": "bytes"
        }
      ],
      "name": "submitTransaction",
      "outputs": [
        {
          "internalType": "uint256",
          "name": "transactionId",
          "type": "uint256"
        }
      ],
      "stateMutability": "nonpayable",
      "type": "function"
    },
    {
      "inputs": [],
      "name": "transactionCount",
      "outputs": [
        {
          "internalType": "uint256",
          "name": "",
          "type": "uint256"
        }
      ],
      "stateMutability": "view",
      "type": "function"
    },
    {
      "inputs": [
        {
          "internalType": "uint256",
          "name": "",
          "type": "uint256"
        }
      ],
      "name": "transactions",
      "outputs": [
        {
          "internalType": "address",
          "name": "destination",
          "type": "address"
        },
        {
          "internalType": "uint256",
          "name": "value",
          "type": "uint256"
        },
        {
          "internalType": "bytes",
          "name": "data",
          "type": "bytes"
        },
        {
          "internalType": "bool",
          "name": "executed",
          "type": "bool"
        }
      ],
      "stateMutability": "view",
      "type": "function"
    },
    {
      "inputs": [
        {
          "internalType": "uint256",
          "name": "amount",
          "type": "uint256"
        }
      ],
      "name": "withdraw",
      "outputs": [],
      "stateMutability": "nonpayable",
      "type": "function"
    }
  ],
  "bytecode": "0x60806040526000600655600a80546001600160a01b03191673a0b86991c6218b36c1d19d4a2e9eb0ce3606eb481790553480156200003c57600080fd5b506040516200330b3803806200330b8339810160408190526200005f91620004a4565b81600281518160328210620000915760405162461bcd60e51b81526004016200008890620005bb565b60405180910390fd5b818110620000b35760405162461bcd60e51b8152600401620000889062000629565b80620000d35760405162461bcd60e51b81526004016200008890620005f2565b81620000f35760405162461bcd60e51b81526004016200008890620006d3565b60005b84518110156200023857600260008683815181106200012557634e487b7160e01b600052603260045260246000fd5b6020908102919091018101516001600160a01b031682528101919091526040016000205460ff16156200016c5760405162461bcd60e51b81526004016200008890620006ab565b60006001600160a01b03168582815181106200019857634e487b7160e01b600052603260045260246000fd5b60200260200101516001600160a01b03161415620001ca5760405162461bcd60e51b8152600401620000889062000674565b600160026000878481518110620001f157634e487b7160e01b600052603260045260246000fd5b6020908102919091018101516001600160a01b03168252810191909152604001600020805460ff1916911515919091179055806200022f8162000773565b915050620000f6565b5083516200024e906003906020870190620002ff565b5050506004555083516200026a90600790602087019062000369565b50600980546001600160a01b038086166001600160a01b031992831617909255600b805484841692169190911790819055604051634adc7cfd60e01b8152911690634adc7cfd90620002c1903090600401620005a7565b600060405180830381600087803b158015620002dc57600080fd5b505af1158015620002f1573d6000803e3d6000fd5b5050505050505050620007ca565b82805482825590600052602060002090810192821562000357579160200282015b828111156200035757825182546001600160a01b0319166001600160a01b0390911617825560209092019160019091019062000320565b5062000365929150620003e6565b5090565b828054620003779062000736565b90600052602060002090601f0160209004810192826200039b576000855562000357565b82601f10620003b657805160ff191683800117855562000357565b8280016001018555821562000357579182015b8281111562000357578251825591602001919060010190620003c9565b5b80821115620003655760008155600101620003e7565b80516200040a81620007b1565b919050565b600082601f83011262000420578081fd5b815160206001600160401b038211156200043e576200043e6200079b565b8082026200044e8282016200070a565b83815282810190868401838801850189101562000469578687fd5b8693505b85841015620004985780516200048381620007b1565b8352600193909301929184019184016200046d565b50979650505050505050565b60008060008060808587031215620004ba578384fd5b84516001600160401b0380821115620004d1578586fd5b818701915087601f830112620004e5578586fd5b815181811115620004fa57620004fa6200079b565b602062000510601f8301601f191682016200070a565b8281528a8284870101111562000524578889fd5b885b838110156200054357858101830151828201840152820162000526565b838111156200055457898385840101525b50975062000564898201620003fd565b9650505060408701519150808211156200057c578384fd5b506200058b878288016200040f565b9250506200059c60608601620003fd565b905092959194509250565b6001600160a01b0391909116815260200190565b60208082526019908201527f6d617820206f776e657220636f756e7420657863656564656400000000000000604082015260600190565b60208082526019908201527f7a65726f207265717569726564206e6f7420616c6c6f77656400000000000000604082015260600190565b6020808252602b908201527f63616e277420686176652072657175697265642067726561746572207468616e60408201526a081bdddb995c90dbdd5b9d60aa1b606082015260800190565b60208082526018908201527f7a65726f2061646472657373206e6f7420616c6c6f7765640000000000000000604082015260600190565b6020808252600e908201526d39b7b6b29031b7b73234ba34b7b760911b604082015260600190565b60208082526016908201527f43616e27742068617665207a65726f206f776e65727300000000000000000000604082015260600190565b6040518181016001600160401b03811182821017156200072e576200072e6200079b565b604052919050565b6002810460018216806200074b57607f821691505b602082108114156200076d57634e487b7160e01b600052602260045260246000fd5b50919050565b60006000198214156200079457634e487b7160e01b81526011600452602481fd5b5060010190565b634e487b7160e01b600052604160045260246000fd5b6001600160a01b0381168114620007c757600080fd5b50565b612b3180620007da6000396000f3fe6080604052600436106101b75760003560e01c8063a0e67e2b116100ec578063c01a8c841161008a578063d74f8edd11610064578063d74f8edd1461053e578063dc8452cd14610553578063e20056e614610568578063ee22610b14610588576101b7565b8063c01a8c84146104de578063c6427474146104fe578063d38bcdee1461051e576101b7565b8063b5dc40c3116100c6578063b5dc40c314610469578063b6b55f2514610489578063b77bf600146104a9578063ba51a6df146104be576101b7565b8063a0e67e2b14610405578063a8abe69a14610427578063b531737514610454576101b7565b8063523ec1d011610159578063722f8ee211610133578063722f8ee214610375578063784547a7146103955780638b51d13f146103b55780639ace38c2146103d5576101b7565b8063523ec1d01461030657806354741525146103285780637065cb4814610355576101b7565b806320ea8d861161019557806320ea8d86146102795780632e1a7d4d146102995780632f54bf6e146102b95780633411c81c146102e6576101b7565b8063025e7c271461020157806306fdde0314610237578063173825d914610259575b34156101ff57336001600160a01b03167fe1fffcc4923d04b559f4d29a8bfc6cda04eb5b0d3c460751c2402c5c5cc9109c346040516101f691906129c1565b60405180910390a25b005b34801561020d57600080fd5b5061022161021c3660046121ce565b6105a8565b60405161022e919061239f565b60405180910390f35b34801561024357600080fd5b5061024c6105d2565b60405161022e91906124bb565b34801561026557600080fd5b506101ff610274366004611fb7565b610660565b34801561028557600080fd5b506101ff6102943660046121ce565b610845565b3480156102a557600080fd5b506101ff6102b43660046121ce565b610934565b3480156102c557600080fd5b506102d96102d4366004611fb7565b610a64565b60405161022e91906124b0565b3480156102f257600080fd5b506102d96103013660046121e6565b610a79565b34801561031257600080fd5b5061031b610a99565b60405161022e9190612957565b34801561033457600080fd5b50610348610343366004612087565b610bfc565b60405161022e91906129c1565b34801561036157600080fd5b506101ff610370366004611fb7565b610c79565b34801561038157600080fd5b506101ff6103903660046120bf565b610e21565b3480156103a157600080fd5b506102d96103b03660046121ce565b610eec565b3480156103c157600080fd5b506103486103d03660046121ce565b610f9c565b3480156103e157600080fd5b506103f56103f03660046121ce565b611030565b60405161022e94939291906123f0565b34801561041157600080fd5b5061041a6110ee565b60405161022e919061242b565b34801561043357600080fd5b50610447610442366004612208565b611150565b60405161022e9190612478565b34801561046057600080fd5b5061034861132e565b34801561047557600080fd5b5061041a6104843660046121ce565b611334565b34801561049557600080fd5b506101ff6104a43660046121ce565b61156e565b3480156104b557600080fd5b50610348611687565b3480156104ca57600080fd5b506101ff6104d93660046121ce565b61168d565b3480156104ea57600080fd5b506101ff6104f93660046121ce565b61176b565b34801561050a57600080fd5b50610348610519366004612003565b61186b565b34801561052a57600080fd5b506101ff610539366004611fb7565b61188a565b34801561054a57600080fd5b506103486118b9565b34801561055f57600080fd5b506103486118be565b34801561057457600080fd5b506101ff610583366004611fd1565b6118c4565b34801561059457600080fd5b506101ff6105a33660046121ce565b611aac565b600381815481106105b857600080fd5b6000918252602090912001546001600160a01b0316905081565b600780546105df90612a6e565b80601f016020809104026020016040519081016040528092919081815260200182805461060b90612a6e565b80156106585780601f1061062d57610100808354040283529160200191610658565b820191906000526020600020905b81548152906001019060200180831161063b57829003601f168201915b505050505081565b3330146106885760405162461bcd60e51b815260040161067f90612675565b60405180910390fd5b6001600160a01b038116600090815260026020526040902054819060ff166106c25760405162461bcd60e51b815260040161067f90612709565b6001600160a01b0382166000908152600260205260408120805460ff191690555b6003546106f290600190612a57565b8110156107ec57826001600160a01b03166003828154811061072457634e487b7160e01b600052603260045260246000fd5b6000918252602090912001546001600160a01b031614156107da576003805461074f90600190612a57565b8154811061076d57634e487b7160e01b600052603260045260246000fd5b600091825260209091200154600380546001600160a01b0390921691839081106107a757634e487b7160e01b600052603260045260246000fd5b9060005260206000200160006101000a8154816001600160a01b0302191690836001600160a01b031602179055506107ec565b806107e481612aa3565b9150506106e3565b506003805160001901815254600454111561080d5760035461080d9061168d565b6040516001600160a01b038316907f8001553a916ef2f495d26a907cc54d96ed840d7bda71e73194bf5a9df7a76b9090600090a25050565b3360008181526002602052604090205460ff166108745760405162461bcd60e51b815260040161067f90612709565b60008281526001602090815260408083203380855292529091205483919060ff166108b15760405162461bcd60e51b815260040161067f906125e1565b600084815260208190526040902060030154849060ff16156108e55760405162461bcd60e51b815260040161067f9061290d565b6000858152600160209081526040808320338085529252808320805460ff191690555187927ff6a317157440607f36269043eb55f1287a5a19ba2216afeab88cd46cbcfb88e991a35050505050565b80600081116109555760405162461bcd60e51b815260040161067f906127e5565b600061096083611bf2565b905061096b81611bf5565b610976303383611c36565b6109925760405162461bcd60e51b815260040161067f90612842565b7fb244b9a17ad633c6e83b7983ee04320484956a68ddbe96a0b70dfca1cf19d72333846040516109c39291906123d7565b60405180910390a180600660008282546109dd9190612a57565b9091555050600b546040517f17fc336d0000000000000000000000000000000000000000000000000000000081526001600160a01b03909116906317fc336d90610a2d90339087906004016123d7565b600060405180830381600087803b158015610a4757600080fd5b505af1158015610a5b573d6000803e3d6000fd5b50505050505050565b60026020526000908152604090205460ff1681565b600160209081526000928352604080842090915290825290205460ff1681565b610aa1611e1b565b6040805160088054602081810284018501855283018181529293919284929091849160009085015b82821015610bef578382906000526020600020906002020160405180604001604052908160008201805480602002602001604051908101604052809291908181526020018280548015610b4557602002820191906000526020600020905b81546001600160a01b03168152600190910190602001808311610b27575b50505050508152602001600182018054610b5e90612a6e565b80601f0160208091040260200160405190810160405280929190818152602001828054610b8a90612a6e565b8015610bd75780601f10610bac57610100808354040283529160200191610bd7565b820191906000526020600020905b815481529060010190602001808311610bba57829003601f168201915b50505050508152505081526020019060010190610ac9565b5050505081525050905090565b6000805b600554811015610c7257838015610c29575060008181526020819052604090206003015460ff16155b80610c4d5750828015610c4d575060008181526020819052604090206003015460ff165b15610c6057610c5d600183612a00565b91505b80610c6a81612aa3565b915050610c00565b5092915050565b333014610c985760405162461bcd60e51b815260040161067f90612675565b6001600160a01b038116600090815260026020526040902054819060ff1615610cd35760405162461bcd60e51b815260040161067f90612573565b816001600160a01b038116610cfa5760405162461bcd60e51b815260040161067f906124ce565b600354610d08906001612a00565b60045460328210610d2b5760405162461bcd60e51b815260040161067f90612505565b818110610d4a5760405162461bcd60e51b815260040161067f90612618565b80610d675760405162461bcd60e51b815260040161067f9061253c565b81610d845760405162461bcd60e51b815260040161067f906128d6565b6001600160a01b038516600081815260026020526040808220805460ff1916600190811790915560038054918201815583527fc2575a0e9e593c00f959f8c92f12db2869c3395a3b0502d05e2516446f71f85b01805473ffffffffffffffffffffffffffffffffffffffff191684179055517ff39e6e1eb0edcf53c221607b54b00cd28f3196fed0a24994dc308b8f611b682d9190a25050505050565b6009546001600160a01b03163314610e4b5760405162461bcd60e51b815260040161067f906126ac565b600880546001810182556000919091528151805183926002027ff3f7a9fe364faab93b216da50a3214154f22a0a2b415b23a84c8169e8b636ee30191610e9691839160200190611e2e565b506020828101518051610eaf9260018501920190611ea0565b5050507f1296b70fc9141190fd21db15fabe3f067aa5dc48f440e5cde726a311a8e2c18081604051610ee19190612944565b60405180910390a150565b600080805b600354811015610f905760008481526001602052604081206003805491929184908110610f2e57634e487b7160e01b600052603260045260246000fd5b60009182526020808320909101546001600160a01b0316835282019290925260400190205460ff1615610f6957610f66600183612a00565b91505b600454821415610f7e57600192505050610f97565b80610f8881612aa3565b915050610ef1565b5060009150505b919050565b6000805b60035481101561102a5760008381526001602052604081206003805491929184908110610fdd57634e487b7160e01b600052603260045260246000fd5b60009182526020808320909101546001600160a01b0316835282019290925260400190205460ff161561101857611015600183612a00565b91505b8061102281612aa3565b915050610fa0565b50919050565b6000602081905290815260409020805460018201546002830180546001600160a01b0390931693919261106290612a6e565b80601f016020809104026020016040519081016040528092919081815260200182805461108e90612a6e565b80156110db5780601f106110b0576101008083540402835291602001916110db565b820191906000526020600020905b8154815290600101906020018083116110be57829003601f168201915b5050506003909301549192505060ff1684565b6060600380548060200260200160405190810160405280929190818152602001828054801561114657602002820191906000526020600020905b81546001600160a01b03168152600190910190602001808311611128575b5050505050905090565b6060600060055467ffffffffffffffff81111561117d57634e487b7160e01b600052604160045260246000fd5b6040519080825280602002602001820160405280156111a6578160200160208202803683370190505b5090506000805b60055481101561124b578580156111d6575060008181526020819052604090206003015460ff16155b806111fa57508480156111fa575060008181526020819052604090206003015460ff165b15611239578083838151811061122057634e487b7160e01b600052603260045260246000fd5b6020908102919091010152611236600183612a00565b91505b8061124381612aa3565b9150506111ad565b6112558888612a57565b67ffffffffffffffff81111561127b57634e487b7160e01b600052604160045260246000fd5b6040519080825280602002602001820160405280156112a4578160200160208202803683370190505b5093508790505b86811015611323578281815181106112d357634e487b7160e01b600052603260045260246000fd5b60200260200101518489836112e89190612a57565b8151811061130657634e487b7160e01b600052603260045260246000fd5b60209081029190910101528061131b81612aa3565b9150506112ab565b505050949350505050565b60065490565b60035460609060009067ffffffffffffffff81111561136357634e487b7160e01b600052604160045260246000fd5b60405190808252806020026020018201604052801561138c578160200160208202803683370190505b5090506000805b60035481101561149457600085815260016020526040812060038054919291849081106113d057634e487b7160e01b600052603260045260246000fd5b60009182526020808320909101546001600160a01b0316835282019290925260400190205460ff1615611482576003818154811061141e57634e487b7160e01b600052603260045260246000fd5b9060005260206000200160009054906101000a90046001600160a01b031683838151811061145c57634e487b7160e01b600052603260045260246000fd5b6001600160a01b039092166020928302919091019091015261147f600183612a00565b91505b8061148c81612aa3565b915050611393565b8167ffffffffffffffff8111156114bb57634e487b7160e01b600052604160045260246000fd5b6040519080825280602002602001820160405280156114e4578160200160208202803683370190505b509350600090505b818110156115665782818151811061151457634e487b7160e01b600052603260045260246000fd5b602002602001015184828151811061153c57634e487b7160e01b600052603260045260246000fd5b6001600160a01b03909216602092830291909101909101528061155e81612aa3565b9150506114ec565b505050919050565b806000811161158f5760405162461bcd60e51b815260040161067f906127e5565b61159a333084611c36565b6115b65760405162461bcd60e51b815260040161067f90612740565b7f2da466a7b24304f47e87fa2e1e5a81b9831ce54fec19055ce277ca2f39ba42c433836040516115e79291906123d7565b60405180910390a181600660008282546116019190612a00565b9091555050600b546040517fcc6e12370000000000000000000000000000000000000000000000000000000081526001600160a01b039091169063cc6e12379061165190339086906004016123d7565b600060405180830381600087803b15801561166b57600080fd5b505af115801561167f573d6000803e3d6000fd5b505050505050565b60055481565b3330146116ac5760405162461bcd60e51b815260040161067f90612675565b60035481603282106116d05760405162461bcd60e51b815260040161067f90612505565b8181106116ef5760405162461bcd60e51b815260040161067f90612618565b8061170c5760405162461bcd60e51b815260040161067f9061253c565b816117295760405162461bcd60e51b815260040161067f906128d6565b60048390556040517fa3f1ee9126a074d9326c682f561767f710e927faa811f7a99829d49dc421797a9061175e9085906129c1565b60405180910390a1505050565b3360008181526002602052604090205460ff1661179a5760405162461bcd60e51b815260040161067f90612709565b60008281526020819052604090205482906001600160a01b03166117d05760405162461bcd60e51b815260040161067f906127ae565b60008381526001602090815260408083203380855292529091205484919060ff161561180e5760405162461bcd60e51b815260040161067f90612777565b6000858152600160208181526040808420338086529252808420805460ff1916909317909255905187927f4a504a94899432a9846e1aa406dceb1bcfd538bb839071d49d1e5e23f5be30ef91a361186485611aac565b5050505050565b6000611878848484611d08565b90506118838161176b565b9392505050565b600a805473ffffffffffffffffffffffffffffffffffffffff19166001600160a01b0392909216919091179055565b603281565b60045481565b3330146118e35760405162461bcd60e51b815260040161067f90612675565b6001600160a01b038216600090815260026020526040902054829060ff1661191d5760405162461bcd60e51b815260040161067f90612709565b6001600160a01b038216600090815260026020526040902054829060ff16156119585760405162461bcd60e51b815260040161067f90612573565b60005b600354811015611a1257846001600160a01b03166003828154811061199057634e487b7160e01b600052603260045260246000fd5b6000918252602090912001546001600160a01b03161415611a005783600382815481106119cd57634e487b7160e01b600052603260045260246000fd5b9060005260206000200160006101000a8154816001600160a01b0302191690836001600160a01b03160217905550611a12565b80611a0a81612aa3565b91505061195b565b506001600160a01b03808516600081815260026020526040808220805460ff1990811690915593871682528082208054909416600117909355915190917f8001553a916ef2f495d26a907cc54d96ed840d7bda71e73194bf5a9df7a76b9091a26040516001600160a01b038416907ff39e6e1eb0edcf53c221607b54b00cd28f3196fed0a24994dc308b8f611b682d90600090a250505050565b600081815260208190526040902060030154819060ff1615611ae05760405162461bcd60e51b815260040161067f9061290d565b611ae982610eec565b15611bee5760008281526020819052604080822060038101805460ff1916600190811790915581549082015492519193926060926001600160a01b0390921691611b37906002870190612304565b60006040518083038185875af1925050503d8060008114611b74576040519150601f19603f3d011682016040523d82523d6000602084013e611b79565b606091505b5090925090508115611bb55760405185907f33e13ecb54c3076d8e8bb8c2881800a4d972b792045ffae98fdf46df365fed7590600090a2611864565b60405185907f526441bb6c1aba3c9a4a6ca1d6545da9c2333c8c48343ef398eb858d72b7923690600090a25050600301805460ff191690555b5050565b90565b600654600090611c0883620186a0612a38565b611c129190612a18565b9050614e20811115611bee5760405162461bcd60e51b815260040161067f90612879565b60006001600160a01b038316611c5e5760405162461bcd60e51b815260040161067f906125aa565b600a546040517f23b872dd0000000000000000000000000000000000000000000000000000000081526001600160a01b039091169081906323b872dd90611cad908890889088906004016123b3565b602060405180830381600087803b158015611cc757600080fd5b505af1158015611cdb573d6000803e3d6000fd5b505050506040513d601f19601f82011682018060405250810190611cff919061206b565b95945050505050565b6000836001600160a01b038116611d315760405162461bcd60e51b815260040161067f906124ce565b600554604080516080810182526001600160a01b0388811682526020808301898152838501898152600060608601819052878152808452959095208451815473ffffffffffffffffffffffffffffffffffffffff191694169390931783555160018301559251805194965091939092611db1926002850192910190611ea0565b50606091909101516003909101805460ff19169115159190911790556005805460019190600090611de3908490612a00565b909155505060405182907fc0ba8fe4b176c1714197d43b9cc6bcf797a4a7461c5fe8d0ef6e184ae7601e5190600090a2509392505050565b6040518060200160405280606081525090565b828054828255906000526020600020908101928215611e90579160200282015b82811115611e90578251825473ffffffffffffffffffffffffffffffffffffffff19166001600160a01b03909116178255602090920191600190910190611e4e565b50611e9c929150611f14565b5090565b828054611eac90612a6e565b90600052602060002090601f016020900481019282611ece5760008555611e90565b82601f10611ee757805160ff1916838001178555611e90565b82800160010185558215611e90579182015b82811115611e90578251825591602001919060010190611ef9565b5b80821115611e9c5760008155600101611f15565b600067ffffffffffffffff831115611f4357611f43612ad4565b611f56601f8401601f19166020016129ca565b9050828152838383011115611f6a57600080fd5b828260208301376000602084830101529392505050565b80356001600160a01b0381168114610f9757600080fd5b600082601f830112611fa8578081fd5b61188383833560208501611f29565b600060208284031215611fc8578081fd5b61188382611f81565b60008060408385031215611fe3578081fd5b611fec83611f81565b9150611ffa60208401611f81565b90509250929050565b600080600060608486031215612017578081fd5b61202084611f81565b925060208401359150604084013567ffffffffffffffff811115612042578182fd5b8401601f81018613612052578182fd5b61206186823560208401611f29565b9150509250925092565b60006020828403121561207c578081fd5b815161188381612aea565b60008060408385031215612099578182fd5b82356120a481612aea565b915060208301356120b481612aea565b809150509250929050565b600060208083850312156120d1578182fd5b823567ffffffffffffffff808211156120e8578384fd5b90840190604082870312156120fb578384fd5b60405160408101818110838211171561211657612116612ad4565b604052823582811115612127578586fd5b8301601f81018813612137578586fd5b80358381111561214957612149612ad4565b8581026121578782016129ca565b828152878101908489018386018a018d1015612171578a8bfd5b8a95505b8486101561219a5761218681611f81565b835260019590950194918901918901612175565b5085525050505082840135828111156121b1578586fd5b6121bd88828601611f98565b948201949094529695505050505050565b6000602082840312156121df578081fd5b5035919050565b600080604083850312156121f8578182fd5b82359150611ffa60208401611f81565b6000806000806080858703121561221d578081fd5b8435935060208501359250604085013561223681612aea565b9150606085013561224681612aea565b939692955090935050565b60008151808452815b818110156122765760208185018101518683018201520161225a565b818111156122875782602083870101525b50601f01601f19169290920160200192915050565b805160408084528151908401819052600091602091908201906060860190845b818110156122e15783516001600160a01b0316835292840192918401916001016122bc565b5050828501519150858103838701526122fa8183612251565b9695505050505050565b815460009081906002810460018083168061232057607f831692505b602080841082141561234057634e487b7160e01b87526022600452602487fd5b818015612354576001811461236557612391565b60ff19861689528489019650612391565b61236e8a6129f4565b885b868110156123895781548b820152908501908301612370565b505084890196505b509498975050505050505050565b6001600160a01b0391909116815260200190565b6001600160a01b039384168152919092166020820152604081019190915260600190565b6001600160a01b03929092168252602082015260400190565b60006001600160a01b0386168252846020830152608060408301526124186080830185612251565b9050821515606083015295945050505050565b6020808252825182820181905260009190848201906040850190845b8181101561246c5783516001600160a01b031683529284019291840191600101612447565b50909695505050505050565b6020808252825182820181905260009190848201906040850190845b8181101561246c57835183529284019291840191600101612494565b901515815260200190565b6000602082526118836020830184612251565b60208082526017908201527f726571757265206e6f74206e756c6c2061646472657373000000000000000000604082015260600190565b60208082526019908201527f6d617820206f776e657220636f756e7420657863656564656400000000000000604082015260600190565b60208082526019908201527f7a65726f207265717569726564206e6f7420616c6c6f77656400000000000000604082015260600190565b60208082526015908201527f4f776e65722073686f756c646e27742065786973740000000000000000000000604082015260600190565b6020808252601b908201527f43616e27742073656e6420746f207a65726f20616464726573732e0000000000604082015260600190565b6020808252600d908201527f6e6f7420636f6e6669726d656400000000000000000000000000000000000000604082015260600190565b6020808252602b908201527f63616e277420686176652072657175697265642067726561746572207468616e60408201527f206f776e6572436f756e74000000000000000000000000000000000000000000606082015260800190565b60208082526013908201527f4f6e6c792077616c6c657420616c6c6f77656400000000000000000000000000604082015260600190565b60208082526021908201527f4f6e6c7920476f7665726e656e636520616c6c6f776564206f7065726174696f60408201527f6e00000000000000000000000000000000000000000000000000000000000000606082015260800190565b60208082526013908201527f4f776e657220646f65736e277420657869737400000000000000000000000000604082015260600190565b60208082526017908201527f4465706f736974206e6f74207375636365737366756c2e000000000000000000604082015260600190565b60208082526009908201527f636f6e6669726d65640000000000000000000000000000000000000000000000604082015260600190565b60208082526016908201527f7472616e736374696f6e20697320706f737369626c6500000000000000000000604082015260600190565b60208082526028908201527f4d757374206465706f736974206f72207769746864726177206d6f726520746860408201527f616e207a65726f2e000000000000000000000000000000000000000000000000606082015260800190565b6020808252601a908201527f5769746864726177616c206e6f74207375636365737366756c2e000000000000604082015260600190565b6020808252602e908201527f43616e6e6f74207769746864726177206d6f7265207468616e20323025206f6660408201527f20506f6f6c2062616c616e63652e000000000000000000000000000000000000606082015260800190565b60208082526016908201527f43616e27742068617665207a65726f206f776e65727300000000000000000000604082015260600190565b60208082526019908201527f68617320616c7265616479206265656e20657865637574656400000000000000604082015260600190565b600060208252611883602083018461229c565b600060208083526040830184518283860152818151808452606087019150606085820288010193508483019250855b818110156129b457605f198886030183526129a285855161229c565b94509285019291850191600101612986565b5092979650505050505050565b90815260200190565b60405181810167ffffffffffffffff811182821017156129ec576129ec612ad4565b604052919050565b60009081526020902090565b60008219821115612a1357612a13612abe565b500190565b600082612a3357634e487b7160e01b81526012600452602481fd5b500490565b6000816000190483118215151615612a5257612a52612abe565b500290565b600082821015612a6957612a69612abe565b500390565b600281046001821680612a8257607f821691505b6020821081141561102a57634e487b7160e01b600052602260045260246000fd5b6000600019821415612ab757612ab7612abe565b5060010190565b634e487b7160e01b600052601160045260246000fd5b634e487b7160e01b600052604160045260246000fd5b8015158114612af857600080fd5b5056fea2646970667358221220d1f65e2787f3e1b3bc0c509346b26e700289f01a2c3798a12ab3689e12e7a46164736f6c63430008000033",
  "linkReferences": {},
  "deployedLinkReferences": {}
}