{
  "_format": "hh-sol-artifact-1",
  "contractName": "StkLibToken",
  "sourceName": "contracts/governence/StkLibToken.sol",
  "abi": [
    {
      "inputs": [
        {
          "internalType": "address",
          "name": "libToken",
          "type": "address"
        },
        {
          "internalType": "string",
          "name": "name",
          "type": "string"
        },
        {
          "internalType": "string",
          "name": "symbol",
          "type": "string"
        }
      ],
      "stateMutability": "nonpayable",
      "type": "constructor"
    },
    {
      "anonymous": false,
      "inputs": [
        {
          "indexed": true,
          "internalType": "address",
          "name": "owner",
          "type": "address"
        },
        {
          "indexed": true,
          "internalType": "address",
          "name": "spender",
          "type": "address"
        },
        {
          "indexed": false,
          "internalType": "uint256",
          "name": "value",
          "type": "uint256"
        }
      ],
      "name": "Approval",
      "type": "event"
    },
    {
      "anonymous": false,
      "inputs": [
        {
          "indexed": true,
          "internalType": "address",
          "name": "staker",
          "type": "address"
        },
        {
          "indexed": false,
          "internalType": "uint256",
          "name": "amount",
          "type": "uint256"
        }
      ],
      "name": "Stake",
      "type": "event"
    },
    {
      "anonymous": false,
      "inputs": [
        {
          "indexed": true,
          "internalType": "address",
          "name": "from",
          "type": "address"
        },
        {
          "indexed": true,
          "internalType": "address",
          "name": "to",
          "type": "address"
        },
        {
          "indexed": false,
          "internalType": "uint256",
          "name": "value",
          "type": "uint256"
        }
      ],
      "name": "Transfer",
      "type": "event"
    },
    {
      "anonymous": false,
      "inputs": [
        {
          "indexed": true,
          "internalType": "address",
          "name": "staker",
          "type": "address"
        },
        {
          "indexed": false,
          "internalType": "uint256",
          "name": "burntAmount",
          "type": "uint256"
        }
      ],
      "name": "Unstake",
      "type": "event"
    },
    {
      "inputs": [],
      "name": "LibToken",
      "outputs": [
        {
          "internalType": "address",
          "name": "",
          "type": "address"
        }
      ],
      "stateMutability": "view",
      "type": "function"
    },
    {
      "inputs": [
        {
          "internalType": "address",
          "name": "owner",
          "type": "address"
        },
        {
          "internalType": "address",
          "name": "spender",
          "type": "address"
        }
      ],
      "name": "allowance",
      "outputs": [
        {
          "internalType": "uint256",
          "name": "",
          "type": "uint256"
        }
      ],
      "stateMutability": "view",
      "type": "function"
    },
    {
      "inputs": [
        {
          "internalType": "address",
          "name": "spender",
          "type": "address"
        },
        {
          "internalType": "uint256",
          "name": "amount",
          "type": "uint256"
        }
      ],
      "name": "approve",
      "outputs": [
        {
          "internalType": "bool",
          "name": "",
          "type": "bool"
        }
      ],
      "stateMutability": "nonpayable",
      "type": "function"
    },
    {
      "inputs": [
        {
          "internalType": "address",
          "name": "account",
          "type": "address"
        }
      ],
      "name": "balanceOf",
      "outputs": [
        {
          "internalType": "uint256",
          "name": "",
          "type": "uint256"
        }
      ],
      "stateMutability": "view",
      "type": "function"
    },
    {
      "inputs": [],
      "name": "decimals",
      "outputs": [
        {
          "internalType": "uint8",
          "name": "",
          "type": "uint8"
        }
      ],
      "stateMutability": "view",
      "type": "function"
    },
    {
      "inputs": [
        {
          "internalType": "address",
          "name": "spender",
          "type": "address"
        },
        {
          "internalType": "uint256",
          "name": "subtractedValue",
          "type": "uint256"
        }
      ],
      "name": "decreaseAllowance",
      "outputs": [
        {
          "internalType": "bool",
          "name": "",
          "type": "bool"
        }
      ],
      "stateMutability": "nonpayable",
      "type": "function"
    },
    {
      "inputs": [
        {
          "internalType": "address",
          "name": "spender",
          "type": "address"
        },
        {
          "internalType": "uint256",
          "name": "addedValue",
          "type": "uint256"
        }
      ],
      "name": "increaseAllowance",
      "outputs": [
        {
          "internalType": "bool",
          "name": "",
          "type": "bool"
        }
      ],
      "stateMutability": "nonpayable",
      "type": "function"
    },
    {
      "inputs": [],
      "name": "name",
      "outputs": [
        {
          "internalType": "string",
          "name": "",
          "type": "string"
        }
      ],
      "stateMutability": "view",
      "type": "function"
    },
    {
      "inputs": [
        {
          "internalType": "uint256",
          "name": "amount",
          "type": "uint256"
        }
      ],
      "name": "stake",
      "outputs": [],
      "stateMutability": "nonpayable",
      "type": "function"
    },
    {
      "inputs": [],
      "name": "symbol",
      "outputs": [
        {
          "internalType": "string",
          "name": "",
          "type": "string"
        }
      ],
      "stateMutability": "view",
      "type": "function"
    },
    {
      "inputs": [],
      "name": "totalSupply",
      "outputs": [
        {
          "internalType": "uint256",
          "name": "",
          "type": "uint256"
        }
      ],
      "stateMutability": "view",
      "type": "function"
    },
    {
      "inputs": [
        {
          "internalType": "address",
          "name": "recipient",
          "type": "address"
        },
        {
          "internalType": "uint256",
          "name": "amount",
          "type": "uint256"
        }
      ],
      "name": "transfer",
      "outputs": [
        {
          "internalType": "bool",
          "name": "",
          "type": "bool"
        }
      ],
      "stateMutability": "nonpayable",
      "type": "function"
    },
    {
      "inputs": [
        {
          "internalType": "address",
          "name": "sender",
          "type": "address"
        },
        {
          "internalType": "address",
          "name": "recipient",
          "type": "address"
        },
        {
          "internalType": "uint256",
          "name": "amount",
          "type": "uint256"
        }
      ],
      "name": "transferFrom",
      "outputs": [
        {
          "internalType": "bool",
          "name": "",
          "type": "bool"
        }
      ],
      "stateMutability": "nonpayable",
      "type": "function"
    },
    {
      "inputs": [
        {
          "internalType": "uint256",
          "name": "amount",
          "type": "uint256"
        }
      ],
      "name": "unstake",
      "outputs": [],
      "stateMutability": "nonpayable",
      "type": "function"
    }
  ],
  "bytecode": "0x60806040523480156200001157600080fd5b5060405162001471380380620014718339810160408190526200003491620001e5565b8151829082906200004d90600390602085019062000094565b5080516200006390600490602084019062000094565b505060016005555050600680546001600160a01b0319166001600160a01b03939093169290921790915550620002be565b828054620000a2906200026b565b90600052602060002090601f016020900481019282620000c6576000855562000111565b82601f10620000e157805160ff191683800117855562000111565b8280016001018555821562000111579182015b8281111562000111578251825591602001919060010190620000f4565b506200011f92915062000123565b5090565b5b808211156200011f576000815560010162000124565b600082601f8301126200014b578081fd5b81516001600160401b0380821115620001685762000168620002a8565b6040516020601f8401601f1916820181018381118382101715620001905762000190620002a8565b6040528382528584018101871015620001a7578485fd5b8492505b83831015620001ca5785830181015182840182015291820191620001ab565b83831115620001db57848185840101525b5095945050505050565b600080600060608486031215620001fa578283fd5b83516001600160a01b038116811462000211578384fd5b60208501519093506001600160401b03808211156200022e578384fd5b6200023c878388016200013a565b9350604086015191508082111562000252578283fd5b5062000261868287016200013a565b9150509250925092565b6002810460018216806200028057607f821691505b60208210811415620002a257634e487b7160e01b600052602260045260246000fd5b50919050565b634e487b7160e01b600052604160045260246000fd5b6111a380620002ce6000396000f3fe608060405234801561001057600080fd5b50600436106100ea5760003560e01c806368d5d1b31161008c578063a457c2d711610066578063a457c2d7146101c2578063a694fc3a146101d5578063a9059cbb146101e8578063dd62ed3e146101fb576100ea565b806368d5d1b31461019257806370a08231146101a757806395d89b41146101ba576100ea565b806323b872dd116100c857806323b872dd146101425780632e17de7814610155578063313ce5671461016a578063395093511461017f576100ea565b806306fdde03146100ef578063095ea7b31461010d57806318160ddd1461012d575b600080fd5b6100f761020e565b6040516101049190610c3c565b60405180910390f35b61012061011b366004610b7f565b6102a0565b6040516101049190610c31565b6101356102bd565b60405161010491906110d6565b610120610150366004610b44565b6102c3565b610168610163366004610bc8565b61035c565b005b6101726103c3565b60405161010491906110df565b61012061018d366004610b7f565b6103c8565b61019a61041c565b6040516101049190610be0565b6101356101b5366004610af1565b61042b565b6100f761044a565b6101206101d0366004610b7f565b610459565b6101686101e3366004610bc8565b6104d2565b6101206101f6366004610b7f565b6105c8565b610135610209366004610b12565b6105dc565b60606003805461021d9061111c565b80601f01602080910402602001604051908101604052809291908181526020018280546102499061111c565b80156102965780601f1061026b57610100808354040283529160200191610296565b820191906000526020600020905b81548152906001019060200180831161027957829003601f168201915b5050505050905090565b60006102b46102ad610607565b848461060b565b50600192915050565b60025490565b60006102d08484846106bf565b6001600160a01b0384166000908152600160205260408120816102f1610607565b6001600160a01b03166001600160a01b031681526020019081526020016000205490508281101561033d5760405162461bcd60e51b815260040161033490610e97565b60405180910390fd5b61035185610349610607565b85840361060b565b506001949350505050565b6002600554141561037f5760405162461bcd60e51b81526004016103349061100b565b6002600555600061038f3361042b565b9050818110156103b15760405162461bcd60e51b815260040161033490610e03565b6103ba826107e9565b50506001600555565b601290565b60006102b46103d5610607565b8484600160006103e3610607565b6001600160a01b03908116825260208083019390935260409182016000908120918b168152925290205461041791906110ed565b61060b565b6006546001600160a01b031681565b6001600160a01b0381166000908152602081905260409020545b919050565b60606004805461021d9061111c565b60008060016000610468610607565b6001600160a01b03908116825260208083019390935260409182016000908120918816815292529020549050828110156104b45760405162461bcd60e51b815260040161033490611042565b6104c86104bf610607565b8585840361060b565b5060019392505050565b600260055414156104f55760405162461bcd60e51b81526004016103349061100b565b6002600555806105175760405162461bcd60e51b815260040161033490610e3a565b6006546040517f23b872dd0000000000000000000000000000000000000000000000000000000081526001600160a01b03909116906323b872dd9061056490339030908690600401610bf4565b602060405180830381600087803b15801561057e57600080fd5b505af1158015610592573d6000803e3d6000fd5b505050506040513d601f19601f820116820180604052508101906105b69190610ba8565b506105c0816108d5565b506001600555565b60006102b46105d5610607565b84846106bf565b6001600160a01b03918216600090815260016020908152604080832093909416825291909152205490565b3390565b6001600160a01b0383166106315760405162461bcd60e51b815260040161033490610fae565b6001600160a01b0382166106575760405162461bcd60e51b815260040161033490610d49565b6001600160a01b0380841660008181526001602090815260408083209487168084529490915290819020849055517f8c5be1e5ebec7d5bd14f71427d1e84f3dd0314c0f7b2291e5b200ac8c7c3b925906106b29085906110d6565b60405180910390a3505050565b6001600160a01b0383166106e55760405162461bcd60e51b815260040161033490610f51565b6001600160a01b03821661070b5760405162461bcd60e51b815260040161033490610c8f565b610716838383610918565b6001600160a01b0383166000908152602081905260409020548181101561074f5760405162461bcd60e51b815260040161033490610da6565b6001600160a01b038085166000908152602081905260408082208585039055918516815290812080548492906107869084906110ed565b92505081905550826001600160a01b0316846001600160a01b03167fddf252ad1be2c89b69c2b068fc378daa952ba7f163c4a11628f55a4df523b3ef846040516107d091906110d6565b60405180910390a36107e3848484610918565b50505050565b6107f3338261091d565b6006546040517fa9059cbb0000000000000000000000000000000000000000000000000000000081526001600160a01b039091169063a9059cbb9061083e9033908590600401610c18565b602060405180830381600087803b15801561085857600080fd5b505af115801561086c573d6000803e3d6000fd5b505050506040513d601f19601f820116820180604052508101906108909190610ba8565b50336001600160a01b03167f85082129d87b2fe11527cb1b3b7a520aeb5aa6913f88a3d8757fe40d1db02fdd826040516108ca91906110d6565b60405180910390a250565b6108df3382610a0e565b336001600160a01b03167febedb8b3c678666e7f36970bc8f57abf6d8fa2e828c0da91ea5b75bf68ed101a826040516108ca91906110d6565b505050565b6001600160a01b0382166109435760405162461bcd60e51b815260040161033490610ef4565b61094f82600083610918565b6001600160a01b038216600090815260208190526040902054818110156109885760405162461bcd60e51b815260040161033490610cec565b6001600160a01b03831660009081526020819052604081208383039055600280548492906109b7908490611105565b90915550506040516000906001600160a01b038516907fddf252ad1be2c89b69c2b068fc378daa952ba7f163c4a11628f55a4df523b3ef906109fa9086906110d6565b60405180910390a361091883600084610918565b6001600160a01b038216610a345760405162461bcd60e51b81526004016103349061109f565b610a4060008383610918565b8060026000828254610a5291906110ed565b90915550506001600160a01b03821660009081526020819052604081208054839290610a7f9084906110ed565b90915550506040516001600160a01b038316906000907fddf252ad1be2c89b69c2b068fc378daa952ba7f163c4a11628f55a4df523b3ef90610ac29085906110d6565b60405180910390a3610ad660008383610918565b5050565b80356001600160a01b038116811461044557600080fd5b600060208284031215610b02578081fd5b610b0b82610ada565b9392505050565b60008060408385031215610b24578081fd5b610b2d83610ada565b9150610b3b60208401610ada565b90509250929050565b600080600060608486031215610b58578081fd5b610b6184610ada565b9250610b6f60208501610ada565b9150604084013590509250925092565b60008060408385031215610b91578182fd5b610b9a83610ada565b946020939093013593505050565b600060208284031215610bb9578081fd5b81518015158114610b0b578182fd5b600060208284031215610bd9578081fd5b5035919050565b6001600160a01b0391909116815260200190565b6001600160a01b039384168152919092166020820152604081019190915260600190565b6001600160a01b03929092168252602082015260400190565b901515815260200190565b6000602080835283518082850152825b81811015610c6857858101830151858201604001528201610c4c565b81811115610c795783604083870101525b50601f01601f1916929092016040019392505050565b60208082526023908201527f45524332303a207472616e7366657220746f20746865207a65726f206164647260408201527f6573730000000000000000000000000000000000000000000000000000000000606082015260800190565b60208082526022908201527f45524332303a206275726e20616d6f756e7420657863656564732062616c616e60408201527f6365000000000000000000000000000000000000000000000000000000000000606082015260800190565b60208082526022908201527f45524332303a20617070726f766520746f20746865207a65726f20616464726560408201527f7373000000000000000000000000000000000000000000000000000000000000606082015260800190565b60208082526026908201527f45524332303a207472616e7366657220616d6f756e742065786365656473206260408201527f616c616e63650000000000000000000000000000000000000000000000000000606082015260800190565b6020808252601f908201527f496e737566666963656e742062616c616e65636520746f20756e7374616b6500604082015260600190565b60208082526024908201527f5374616b654c6962546f6b656e3a2043616e6e6f74207374616b65203020616d60408201527f6f756e7400000000000000000000000000000000000000000000000000000000606082015260800190565b60208082526028908201527f45524332303a207472616e7366657220616d6f756e742065786365656473206160408201527f6c6c6f77616e6365000000000000000000000000000000000000000000000000606082015260800190565b60208082526021908201527f45524332303a206275726e2066726f6d20746865207a65726f2061646472657360408201527f7300000000000000000000000000000000000000000000000000000000000000606082015260800190565b60208082526025908201527f45524332303a207472616e736665722066726f6d20746865207a65726f20616460408201527f6472657373000000000000000000000000000000000000000000000000000000606082015260800190565b60208082526024908201527f45524332303a20617070726f76652066726f6d20746865207a65726f2061646460408201527f7265737300000000000000000000000000000000000000000000000000000000606082015260800190565b6020808252601f908201527f5265656e7472616e637947756172643a207265656e7472616e742063616c6c00604082015260600190565b60208082526025908201527f45524332303a2064656372656173656420616c6c6f77616e63652062656c6f7760408201527f207a65726f000000000000000000000000000000000000000000000000000000606082015260800190565b6020808252601f908201527f45524332303a206d696e7420746f20746865207a65726f206164647265737300604082015260600190565b90815260200190565b60ff91909116815260200190565b6000821982111561110057611100611157565b500190565b60008282101561111757611117611157565b500390565b60028104600182168061113057607f821691505b6020821081141561115157634e487b7160e01b600052602260045260246000fd5b50919050565b634e487b7160e01b600052601160045260246000fdfea264697066735822122058cf63f598c3e424f53a9bc18ce2930fd4486d4b98949a7d9993faea8147480764736f6c63430008000033",
  "linkReferences": {},
  "deployedLinkReferences": {}
}