{
  "_format": "hh-sol-artifact-1",
  "contractName": "StkLibToken",
  "sourceName": "contracts/governence/StkLibToken.sol",
  "abi": [
    {
      "inputs": [
        {
          "internalType": "address",
          "name": "libToken",
          "type": "address"
        },
        {
          "internalType": "string",
          "name": "name",
          "type": "string"
        },
        {
          "internalType": "string",
          "name": "symbol",
          "type": "string"
        }
      ],
      "stateMutability": "nonpayable",
      "type": "constructor"
    },
    {
      "anonymous": false,
      "inputs": [
        {
          "indexed": true,
          "internalType": "address",
          "name": "owner",
          "type": "address"
        },
        {
          "indexed": true,
          "internalType": "address",
          "name": "spender",
          "type": "address"
        },
        {
          "indexed": false,
          "internalType": "uint256",
          "name": "value",
          "type": "uint256"
        }
      ],
      "name": "Approval",
      "type": "event"
    },
    {
      "anonymous": false,
      "inputs": [
        {
          "indexed": true,
          "internalType": "address",
          "name": "delegator",
          "type": "address"
        },
        {
          "indexed": true,
          "internalType": "address",
          "name": "fromDelegate",
          "type": "address"
        },
        {
          "indexed": true,
          "internalType": "address",
          "name": "toDelegate",
          "type": "address"
        }
      ],
      "name": "DelegateChanged",
      "type": "event"
    },
    {
      "anonymous": false,
      "inputs": [
        {
          "indexed": true,
          "internalType": "address",
          "name": "delegate",
          "type": "address"
        },
        {
          "indexed": false,
          "internalType": "uint256",
          "name": "previousBalance",
          "type": "uint256"
        },
        {
          "indexed": false,
          "internalType": "uint256",
          "name": "newBalance",
          "type": "uint256"
        }
      ],
      "name": "DelegateVotesChanged",
      "type": "event"
    },
    {
      "anonymous": false,
      "inputs": [
        {
          "indexed": true,
          "internalType": "address",
          "name": "staker",
          "type": "address"
        },
        {
          "indexed": false,
          "internalType": "uint256",
          "name": "amount",
          "type": "uint256"
        }
      ],
      "name": "Stake",
      "type": "event"
    },
    {
      "anonymous": false,
      "inputs": [
        {
          "indexed": true,
          "internalType": "address",
          "name": "from",
          "type": "address"
        },
        {
          "indexed": true,
          "internalType": "address",
          "name": "to",
          "type": "address"
        },
        {
          "indexed": false,
          "internalType": "uint256",
          "name": "value",
          "type": "uint256"
        }
      ],
      "name": "Transfer",
      "type": "event"
    },
    {
      "anonymous": false,
      "inputs": [
        {
          "indexed": true,
          "internalType": "address",
          "name": "staker",
          "type": "address"
        },
        {
          "indexed": false,
          "internalType": "uint256",
          "name": "burntAmount",
          "type": "uint256"
        }
      ],
      "name": "Unstake",
      "type": "event"
    },
    {
      "inputs": [],
      "name": "DELEGATION_TYPEHASH",
      "outputs": [
        {
          "internalType": "bytes32",
          "name": "",
          "type": "bytes32"
        }
      ],
      "stateMutability": "view",
      "type": "function"
    },
    {
      "inputs": [],
      "name": "DOMAIN_TYPEHASH",
      "outputs": [
        {
          "internalType": "bytes32",
          "name": "",
          "type": "bytes32"
        }
      ],
      "stateMutability": "view",
      "type": "function"
    },
    {
      "inputs": [],
      "name": "LibToken",
      "outputs": [
        {
          "internalType": "address",
          "name": "",
          "type": "address"
        }
      ],
      "stateMutability": "view",
      "type": "function"
    },
    {
      "inputs": [
        {
          "internalType": "address",
          "name": "owner",
          "type": "address"
        },
        {
          "internalType": "address",
          "name": "spender",
          "type": "address"
        }
      ],
      "name": "allowance",
      "outputs": [
        {
          "internalType": "uint256",
          "name": "",
          "type": "uint256"
        }
      ],
      "stateMutability": "view",
      "type": "function"
    },
    {
      "inputs": [
        {
          "internalType": "address",
          "name": "spender",
          "type": "address"
        },
        {
          "internalType": "uint256",
          "name": "amount",
          "type": "uint256"
        }
      ],
      "name": "approve",
      "outputs": [
        {
          "internalType": "bool",
          "name": "",
          "type": "bool"
        }
      ],
      "stateMutability": "nonpayable",
      "type": "function"
    },
    {
      "inputs": [
        {
          "internalType": "address",
          "name": "account",
          "type": "address"
        }
      ],
      "name": "balanceOf",
      "outputs": [
        {
          "internalType": "uint256",
          "name": "",
          "type": "uint256"
        }
      ],
      "stateMutability": "view",
      "type": "function"
    },
    {
      "inputs": [
        {
          "internalType": "address",
          "name": "",
          "type": "address"
        },
        {
          "internalType": "uint32",
          "name": "",
          "type": "uint32"
        }
      ],
      "name": "checkpoints",
      "outputs": [
        {
          "internalType": "uint32",
          "name": "fromBlock",
          "type": "uint32"
        },
        {
          "internalType": "uint96",
          "name": "votes",
          "type": "uint96"
        }
      ],
      "stateMutability": "view",
      "type": "function"
    },
    {
      "inputs": [],
      "name": "decimals",
      "outputs": [
        {
          "internalType": "uint8",
          "name": "",
          "type": "uint8"
        }
      ],
      "stateMutability": "view",
      "type": "function"
    },
    {
      "inputs": [
        {
          "internalType": "address",
          "name": "spender",
          "type": "address"
        },
        {
          "internalType": "uint256",
          "name": "subtractedValue",
          "type": "uint256"
        }
      ],
      "name": "decreaseAllowance",
      "outputs": [
        {
          "internalType": "bool",
          "name": "",
          "type": "bool"
        }
      ],
      "stateMutability": "nonpayable",
      "type": "function"
    },
    {
      "inputs": [
        {
          "internalType": "address",
          "name": "delegatee",
          "type": "address"
        }
      ],
      "name": "delegate",
      "outputs": [],
      "stateMutability": "nonpayable",
      "type": "function"
    },
    {
      "inputs": [
        {
          "internalType": "address",
          "name": "delegatee",
          "type": "address"
        },
        {
          "internalType": "uint256",
          "name": "nonce",
          "type": "uint256"
        },
        {
          "internalType": "uint256",
          "name": "expiry",
          "type": "uint256"
        },
        {
          "internalType": "uint8",
          "name": "v",
          "type": "uint8"
        },
        {
          "internalType": "bytes32",
          "name": "r",
          "type": "bytes32"
        },
        {
          "internalType": "bytes32",
          "name": "s",
          "type": "bytes32"
        }
      ],
      "name": "delegateBySig",
      "outputs": [],
      "stateMutability": "nonpayable",
      "type": "function"
    },
    {
      "inputs": [
        {
          "internalType": "address",
          "name": "",
          "type": "address"
        }
      ],
      "name": "delegates",
      "outputs": [
        {
          "internalType": "address",
          "name": "",
          "type": "address"
        }
      ],
      "stateMutability": "view",
      "type": "function"
    },
    {
      "inputs": [
        {
          "internalType": "address",
          "name": "account",
          "type": "address"
        }
      ],
      "name": "getCurrentVotes",
      "outputs": [
        {
          "internalType": "uint96",
          "name": "",
          "type": "uint96"
        }
      ],
      "stateMutability": "view",
      "type": "function"
    },
    {
      "inputs": [
        {
          "internalType": "address",
          "name": "account",
          "type": "address"
        },
        {
          "internalType": "uint256",
          "name": "blockNumber",
          "type": "uint256"
        }
      ],
      "name": "getPriorVotes",
      "outputs": [
        {
          "internalType": "uint96",
          "name": "",
          "type": "uint96"
        }
      ],
      "stateMutability": "view",
      "type": "function"
    },
    {
      "inputs": [
        {
          "internalType": "address",
          "name": "spender",
          "type": "address"
        },
        {
          "internalType": "uint256",
          "name": "addedValue",
          "type": "uint256"
        }
      ],
      "name": "increaseAllowance",
      "outputs": [
        {
          "internalType": "bool",
          "name": "",
          "type": "bool"
        }
      ],
      "stateMutability": "nonpayable",
      "type": "function"
    },
    {
      "inputs": [],
      "name": "name",
      "outputs": [
        {
          "internalType": "string",
          "name": "",
          "type": "string"
        }
      ],
      "stateMutability": "view",
      "type": "function"
    },
    {
      "inputs": [
        {
          "internalType": "address",
          "name": "",
          "type": "address"
        }
      ],
      "name": "nonces",
      "outputs": [
        {
          "internalType": "uint256",
          "name": "",
          "type": "uint256"
        }
      ],
      "stateMutability": "view",
      "type": "function"
    },
    {
      "inputs": [
        {
          "internalType": "address",
          "name": "",
          "type": "address"
        }
      ],
      "name": "numCheckpoints",
      "outputs": [
        {
          "internalType": "uint32",
          "name": "",
          "type": "uint32"
        }
      ],
      "stateMutability": "view",
      "type": "function"
    },
    {
      "inputs": [
        {
          "internalType": "uint256",
          "name": "amount",
          "type": "uint256"
        }
      ],
      "name": "stake",
      "outputs": [],
      "stateMutability": "nonpayable",
      "type": "function"
    },
    {
      "inputs": [],
      "name": "symbol",
      "outputs": [
        {
          "internalType": "string",
          "name": "",
          "type": "string"
        }
      ],
      "stateMutability": "view",
      "type": "function"
    },
    {
      "inputs": [],
      "name": "totalSupply",
      "outputs": [
        {
          "internalType": "uint256",
          "name": "",
          "type": "uint256"
        }
      ],
      "stateMutability": "view",
      "type": "function"
    },
    {
      "inputs": [
        {
          "internalType": "address",
          "name": "recipient",
          "type": "address"
        },
        {
          "internalType": "uint256",
          "name": "amount",
          "type": "uint256"
        }
      ],
      "name": "transfer",
      "outputs": [
        {
          "internalType": "bool",
          "name": "",
          "type": "bool"
        }
      ],
      "stateMutability": "nonpayable",
      "type": "function"
    },
    {
      "inputs": [
        {
          "internalType": "address",
          "name": "sender",
          "type": "address"
        },
        {
          "internalType": "address",
          "name": "recipient",
          "type": "address"
        },
        {
          "internalType": "uint256",
          "name": "amount",
          "type": "uint256"
        }
      ],
      "name": "transferFrom",
      "outputs": [
        {
          "internalType": "bool",
          "name": "",
          "type": "bool"
        }
      ],
      "stateMutability": "nonpayable",
      "type": "function"
    },
    {
      "inputs": [
        {
          "internalType": "uint256",
          "name": "amount",
          "type": "uint256"
        }
      ],
      "name": "unstake",
      "outputs": [],
      "stateMutability": "nonpayable",
      "type": "function"
    }
  ],
  "bytecode": "0x60806040523480156200001157600080fd5b5060405162002981380380620029818339810160408190526200003491620001e5565b8151829082906200004d90600390602085019062000094565b5080516200006390600490602084019062000094565b505060016009555050600a80546001600160a01b0319166001600160a01b03939093169290921790915550620002be565b828054620000a2906200026b565b90600052602060002090601f016020900481019282620000c6576000855562000111565b82601f10620000e157805160ff191683800117855562000111565b8280016001018555821562000111579182015b8281111562000111578251825591602001919060010190620000f4565b506200011f92915062000123565b5090565b5b808211156200011f576000815560010162000124565b600082601f8301126200014b578081fd5b81516001600160401b0380821115620001685762000168620002a8565b6040516020601f8401601f1916820181018381118382101715620001905762000190620002a8565b6040528382528584018101871015620001a7578485fd5b8492505b83831015620001ca5785830181015182840182015291820191620001ab565b83831115620001db57848185840101525b5095945050505050565b600080600060608486031215620001fa578283fd5b83516001600160a01b038116811462000211578384fd5b60208501519093506001600160401b03808211156200022e578384fd5b6200023c878388016200013a565b9350604086015191508082111562000252578283fd5b5062000261868287016200013a565b9150509250925092565b6002810460018216806200028057607f821691505b60208210811415620002a257634e487b7160e01b600052602260045260246000fd5b50919050565b634e487b7160e01b600052604160045260246000fd5b6126b380620002ce6000396000f3fe608060405234801561001057600080fd5b50600436106101985760003560e01c806370a08231116100e3578063a9059cbb1161008c578063dd62ed3e11610066578063dd62ed3e14610350578063e7a324dc14610363578063f1127ed81461036b57610198565b8063a9059cbb14610317578063b4b5ea571461032a578063c3cda5201461033d57610198565b806395d89b41116100bd57806395d89b41146102e9578063a457c2d7146102f1578063a694fc3a1461030457610198565b806370a08231146102a3578063782d6fe1146102b65780637ecebe00146102d657610198565b8063313ce567116101455780635c19a95c1161011f5780635c19a95c1461026857806368d5d1b31461027b5780636fcfff451461028357610198565b8063313ce567146102205780633950935114610235578063587cde1e1461024857610198565b806320606b701161017657806320606b70146101f057806323b872dd146101f85780632e17de781461020b57610198565b806306fdde031461019d578063095ea7b3146101bb57806318160ddd146101db575b600080fd5b6101a561038c565b6040516101b29190611dc6565b60405180910390f35b6101ce6101c9366004611b7d565b61041e565b6040516101b29190611d4c565b6101e361043c565b6040516101b29190611d57565b6101e3610442565b6101ce610206366004611b42565b610466565b61021e610219366004611c62565b6104ff565b005b610228610566565b6040516101b29190612457565b6101ce610243366004611b7d565b61056b565b61025b610256366004611af6565b6105bf565b6040516101b29190611cfb565b61021e610276366004611af6565b6105da565b61025b6105e7565b610296610291366004611af6565b6105f6565b6040516101b29190612427565b6101e36102b1366004611af6565b61060e565b6102c96102c4366004611b7d565b61062d565b6040516101b29190612465565b6101e36102e4366004611af6565b610877565b6101a5610889565b6101ce6102ff366004611b7d565b610898565b61021e610312366004611c62565b610911565b6101ce610325366004611b7d565b610a07565b6102c9610338366004611af6565b610a1b565b61021e61034b366004611ba6565b610a9a565b6101e361035e366004611b10565b610c75565b6101e3610ca0565b61037e610379366004611c04565b610cc4565b6040516101b2929190612438565b60606003805461039b90612580565b80601f01602080910402602001604051908101604052809291908181526020018280546103c790612580565b80156104145780601f106103e957610100808354040283529160200191610414565b820191906000526020600020905b8154815290600101906020018083116103f757829003601f168201915b5050505050905090565b600061043261042b610cfa565b8484610cfe565b5060015b92915050565b60025490565b7f8cad95687ba82c2ce50e74f7b754645e5117c3a5bec8151c0726d5857980a86681565b6000610473848484610db2565b6001600160a01b038416600090815260016020526040812081610494610cfa565b6001600160a01b03166001600160a01b03168152602001908152602001600020549050828110156104e05760405162461bcd60e51b81526004016104d7906120f7565b60405180910390fd5b6104f4856104ec610cfa565b858403610cfe565b506001949350505050565b600260095414156105225760405162461bcd60e51b81526004016104d79061235c565b600260095560006105323361060e565b9050818110156105545760405162461bcd60e51b81526004016104d790612154565b61055d82610deb565b50506001600955565b601290565b6000610432610578610cfa565b848460016000610586610cfa565b6001600160a01b03908116825260208083019390935260409182016000908120918b16815292529020546105ba9190612493565b610cfe565b6005602052600090815260409020546001600160a01b031681565b6105e43382610ed7565b50565b600a546001600160a01b031681565b60076020526000908152604090205463ffffffff1681565b6001600160a01b0381166000908152602081905260409020545b919050565b600043821061064e5760405162461bcd60e51b81526004016104d7906122ff565b6001600160a01b03831660009081526007602052604090205463ffffffff168061067c576000915050610436565b6001600160a01b038416600090815260066020526040812084916106a160018561253b565b63ffffffff90811682526020820192909252604001600020541611610715576001600160a01b0384166000908152600660205260408120906106e460018461253b565b63ffffffff16815260208101919091526040016000205464010000000090046001600160601b031691506104369050565b6001600160a01b038416600090815260066020908152604080832083805290915290205463ffffffff16831015610750576000915050610436565b60008061075e60018461253b565b90505b8163ffffffff168163ffffffff1611156108315760006002610783848461253b565b61078d91906124f5565b610797908361253b565b6001600160a01b038816600090815260066020908152604080832063ffffffff8581168552908352928190208151808301909252549283168082526401000000009093046001600160601b031691810191909152919250871415610805576020015194506104369350505050565b805163ffffffff1687111561081c5781935061082a565b61082760018361253b565b92505b5050610761565b506001600160a01b038516600090815260066020908152604080832063ffffffff909416835292905220546001600160601b036401000000009091041691505092915050565b60086020526000908152604090205481565b60606004805461039b90612580565b600080600160006108a7610cfa565b6001600160a01b03908116825260208083019390935260409182016000908120918816815292529020549050828110156108f35760405162461bcd60e51b81526004016104d790612393565b6109076108fe610cfa565b85858403610cfe565b5060019392505050565b600260095414156109345760405162461bcd60e51b81526004016104d79061235c565b6002600955806109565760405162461bcd60e51b81526004016104d79061209a565b600a546040517f23b872dd0000000000000000000000000000000000000000000000000000000081526001600160a01b03909116906323b872dd906109a390339030908690600401611d0f565b602060405180830381600087803b1580156109bd57600080fd5b505af11580156109d1573d6000803e3d6000fd5b505050506040513d601f19601f820116820180604052508101906109f59190611c42565b506109ff81610fc2565b506001600955565b6000610432610a14610cfa565b8484610db2565b6001600160a01b03811660009081526007602052604081205463ffffffff1680610a46576000610a93565b6001600160a01b038316600090815260066020526040812090610a6a60018461253b565b63ffffffff16815260208101919091526040016000205464010000000090046001600160601b03165b9392505050565b60007f8cad95687ba82c2ce50e74f7b754645e5117c3a5bec8151c0726d5857980a866610ac561038c565b80519060200120610ad4611005565b30604051602001610ae89493929190611d84565b60405160208183030381529060405280519060200120905060007fe48329057bfd03d55e49b547132e39cffd9c1820ad7b9d4c5307691425d15adf888888604051602001610b399493929190611d60565b60405160208183030381529060405280519060200120905060008282604051602001610b66929190611cc5565b604051602081830303815290604052805190602001209050600060018288888860405160008152602001604052604051610ba39493929190611da8565b6020604051602081039080840390855afa158015610bc5573d6000803e3d6000fd5b5050604051601f1901519150506001600160a01b038116610bf85760405162461bcd60e51b81526004016104d790611f83565b6001600160a01b0381166000908152600860205260408120805491610c1c836125bb565b919050558914610c3e5760405162461bcd60e51b81526004016104d79061203d565b87421115610c5e5760405162461bcd60e51b81526004016104d790611ec9565b610c68818b610ed7565b505050505b505050505050565b6001600160a01b03918216600090815260016020908152604080832093909416825291909152205490565b7fe48329057bfd03d55e49b547132e39cffd9c1820ad7b9d4c5307691425d15adf81565b600660209081526000928352604080842090915290825290205463ffffffff81169064010000000090046001600160601b031682565b3390565b6001600160a01b038316610d245760405162461bcd60e51b81526004016104d7906122a2565b6001600160a01b038216610d4a5760405162461bcd60e51b81526004016104d790611f26565b6001600160a01b0380841660008181526001602090815260408083209487168084529490915290819020849055517f8c5be1e5ebec7d5bd14f71427d1e84f3dd0314c0f7b2291e5b200ac8c7c3b92590610da5908590611d57565b60405180910390a3505050565b6001600160a01b038216301415610ddb5760405162461bcd60e51b81526004016104d79061218b565b610de6838383611009565b505050565b610df5338261108c565b600a546040517fa9059cbb0000000000000000000000000000000000000000000000000000000081526001600160a01b039091169063a9059cbb90610e409033908590600401611d33565b602060405180830381600087803b158015610e5a57600080fd5b505af1158015610e6e573d6000803e3d6000fd5b505050506040513d601f19601f82011682018060405250810190610e929190611c42565b50336001600160a01b03167f85082129d87b2fe11527cb1b3b7a520aeb5aa6913f88a3d8757fe40d1db02fdd82604051610ecc9190611d57565b60405180910390a250565b6001600160a01b0380831660009081526005602052604081205490911690610f3c610f0185611117565b6040518060400160405280601981526020017f4c6962546f6b656e3a2075696e743936206f766572666c6f7700000000000000815250611122565b6001600160a01b0385811660008181526005602052604080822080547fffffffffffffffffffffffff000000000000000000000000000000000000000016898616908117909155905194955093928616927f3134e8a2e6d97e929a7e54011ea5485d7d196dd5f0ba4d4ef95803e8e3fc257f9190a4610fbc82848361115a565b50505050565b610fcc3382611390565b336001600160a01b03167febedb8b3c678666e7f36970bc8f57abf6d8fa2e828c0da91ea5b75bf68ed101a82604051610ecc9190611d57565b4690565b61101483838361143d565b6001600160a01b03808416600090815260056020908152604080832054868516845292819020548151808301909252601982527f4c6962546f6b656e3a2075696e743936206f766572666c6f770000000000000092820192909252610de693928316929190911690611087908590611122565b61115a565b6110968282611561565b61111360056000846001600160a01b03166001600160a01b0316815260200190815260200160002060009054906101000a90046001600160a01b03166000611087846040518060400160405280601981526020017f4c6962546f6b656e3a2075696e743936206f766572666c6f7700000000000000815250611122565b5050565b60006104368261060e565b6000816c0100000000000000000000000084106111525760405162461bcd60e51b81526004016104d79190611dc6565b509192915050565b6111a46040518060400160405280601181526020017f6d6f76696e672064656c65676174696f6e0000000000000000000000000000008152508484846001600160601b0316611652565b816001600160a01b0316836001600160a01b0316141580156111cf57506000816001600160601b0316115b15610de6576001600160a01b038316156112d3576112216040518060400160405280601081526020017f777269746520636865636b706f69746e000000000000000000000000000000008152506116c9565b6001600160a01b03831660009081526007602052604081205463ffffffff16908161124d57600061129a565b6001600160a01b03851660009081526006602052604081209061127160018561253b565b63ffffffff16815260208101919091526040016000205464010000000090046001600160601b03165b905060006112c182856040518060600160405280602d81526020016125ed602d913961173a565b90506112cf86848484611784565b5050505b6001600160a01b03821615610de6576001600160a01b03821660009081526007602052604081205463ffffffff16908161130e57600061135b565b6001600160a01b03841660009081526006602052604081209061133260018561253b565b63ffffffff16815260208101919091526040016000205464010000000090046001600160601b03165b9050600061138282856040518060600160405280602c8152602001612652602c9139611981565b9050610c6d85848484611784565b6113ce6040518060400160405280600d81526020017f696e73696465206275726e6572000000000000000000000000000000000000008152506116c9565b6113d882826119ce565b6001600160a01b038083166000908152600560209081526040808320548151808301909252601982527f4c6962546f6b656e3a2075696e743936206f766572666c6f770000000000000092820192909252611113939190911690611087908590611122565b6001600160a01b0383166114635760405162461bcd60e51b81526004016104d790612245565b6001600160a01b0382166114895760405162461bcd60e51b81526004016104d790611e0f565b611494838383610de6565b6001600160a01b038316600090815260208190526040902054818110156114cd5760405162461bcd60e51b81526004016104d790611fe0565b6001600160a01b03808516600090815260208190526040808220858503905591851681529081208054849290611504908490612493565b92505081905550826001600160a01b0316846001600160a01b03167fddf252ad1be2c89b69c2b068fc378daa952ba7f163c4a11628f55a4df523b3ef8460405161154e9190611d57565b60405180910390a3610fbc848484610de6565b6001600160a01b0382166115875760405162461bcd60e51b81526004016104d7906121e8565b61159382600083610de6565b6001600160a01b038216600090815260208190526040902054818110156115cc5760405162461bcd60e51b81526004016104d790611e6c565b6001600160a01b03831660009081526020819052604081208383039055600280548492906115fb908490612524565b90915550506040516000906001600160a01b038516907fddf252ad1be2c89b69c2b068fc378daa952ba7f163c4a11628f55a4df523b3ef9061163e908690611d57565b60405180910390a3610de683600084610de6565b610fbc8484848460405160240161166c9493929190611dd9565b60408051601f198184030181529190526020810180517bffffffffffffffffffffffffffffffffffffffffffffffffffffffff167f6eb7943d00000000000000000000000000000000000000000000000000000000179052611a96565b6105e4816040516024016116dd9190611dc6565b60408051601f198184030181529190526020810180517bffffffffffffffffffffffffffffffffffffffffffffffffffffffff167f41304fac00000000000000000000000000000000000000000000000000000000179052611a96565b6000836001600160601b0316836001600160601b0316111582906117715760405162461bcd60e51b81526004016104d79190611dc6565b5061177c8385612560565b949350505050565b60006117a84360405180606001604052806038815260200161261a60389139611ab7565b905060008463ffffffff1611801561180257506001600160a01b038516600090815260066020526040812063ffffffff8316916117e660018861253b565b63ffffffff908116825260208201929092526040016000205416145b15611877576001600160a01b0385166000908152600660205260408120839161182c60018861253b565b63ffffffff168152602081019190915260400160002080546001600160601b0392909216640100000000026fffffffffffffffffffffffff0000000019909216919091179055611937565b60408051808201825263ffffffff83811682526001600160601b0385811660208085019182526001600160a01b038b166000908152600682528681208b861682529091529490942092518354945163ffffffff199095169216919091176fffffffffffffffffffffffff00000000191664010000000093909116929092029190911790556119068460016124ab565b6001600160a01b0386166000908152600760205260409020805463ffffffff191663ffffffff929092169190911790555b846001600160a01b03167fdec2bacdd2f05b59de34da9b523dff8be42e5e38e818c82fdb0bae774387a7248484604051611972929190612479565b60405180910390a25050505050565b60008061198e84866124d3565b9050846001600160601b0316816001600160601b0316101583906119c55760405162461bcd60e51b81526004016104d79190611dc6565b50949350505050565b6001600160a01b0382166119f45760405162461bcd60e51b81526004016104d7906123f0565b611a0060008383610de6565b8060026000828254611a129190612493565b90915550506001600160a01b03821660009081526020819052604081208054839290611a3f908490612493565b90915550506040516001600160a01b038316906000907fddf252ad1be2c89b69c2b068fc378daa952ba7f163c4a11628f55a4df523b3ef90611a82908590611d57565b60405180910390a361111360008383610de6565b80516a636f6e736f6c652e6c6f67602083016000808483855afa5050505050565b60008164010000000084106111525760405162461bcd60e51b81526004016104d79190611dc6565b80356001600160a01b038116811461062857600080fd5b600060208284031215611b07578081fd5b610a9382611adf565b60008060408385031215611b22578081fd5b611b2b83611adf565b9150611b3960208401611adf565b90509250929050565b600080600060608486031215611b56578081fd5b611b5f84611adf565b9250611b6d60208501611adf565b9150604084013590509250925092565b60008060408385031215611b8f578182fd5b611b9883611adf565b946020939093013593505050565b60008060008060008060c08789031215611bbe578182fd5b611bc787611adf565b95506020870135945060408701359350606087013560ff81168114611bea578283fd5b9598949750929560808101359460a0909101359350915050565b60008060408385031215611c16578182fd5b611c1f83611adf565b9150602083013563ffffffff81168114611c37578182fd5b809150509250929050565b600060208284031215611c53578081fd5b81518015158114610a93578182fd5b600060208284031215611c73578081fd5b5035919050565b60008151808452815b81811015611c9f57602081850181015186830182015201611c83565b81811115611cb05782602083870101525b50601f01601f19169290920160200192915050565b7f190100000000000000000000000000000000000000000000000000000000000081526002810192909252602282015260420190565b6001600160a01b0391909116815260200190565b6001600160a01b039384168152919092166020820152604081019190915260600190565b6001600160a01b03929092168252602082015260400190565b901515815260200190565b90815260200190565b9384526001600160a01b039290921660208401526040830152606082015260800190565b938452602084019290925260408301526001600160a01b0316606082015260800190565b93845260ff9290921660208401526040830152606082015260800190565b600060208252610a936020830184611c7a565b600060808252611dec6080830187611c7a565b6001600160a01b0395861660208401529390941660408201526060015292915050565b60208082526023908201527f45524332303a207472616e7366657220746f20746865207a65726f206164647260408201527f6573730000000000000000000000000000000000000000000000000000000000606082015260800190565b60208082526022908201527f45524332303a206275726e20616d6f756e7420657863656564732062616c616e60408201527f6365000000000000000000000000000000000000000000000000000000000000606082015260800190565b6020808252602a908201527f4c6962546f6b656e3a3a64656c656761746542795369673a207369676e61747560408201527f7265206578706972656400000000000000000000000000000000000000000000606082015260800190565b60208082526022908201527f45524332303a20617070726f766520746f20746865207a65726f20616464726560408201527f7373000000000000000000000000000000000000000000000000000000000000606082015260800190565b6020808252602a908201527f4c6962546f6b656e3a3a64656c656761746542795369673a20696e76616c696460408201527f207369676e617475726500000000000000000000000000000000000000000000606082015260800190565b60208082526026908201527f45524332303a207472616e7366657220616d6f756e742065786365656473206260408201527f616c616e63650000000000000000000000000000000000000000000000000000606082015260800190565b60208082526026908201527f4c6962546f6b656e3a3a64656c656761746542795369673a20696e76616c696460408201527f206e6f6e63650000000000000000000000000000000000000000000000000000606082015260800190565b60208082526024908201527f5374616b654c6962546f6b656e3a2043616e6e6f74207374616b65203020616d60408201527f6f756e7400000000000000000000000000000000000000000000000000000000606082015260800190565b60208082526028908201527f45524332303a207472616e7366657220616d6f756e742065786365656473206160408201527f6c6c6f77616e6365000000000000000000000000000000000000000000000000606082015260800190565b60208082526017908201527f416d6f756e7420657863656564732062616c616e63652e000000000000000000604082015260600190565b60208082526036908201527f73746b4c6962546f6b656e3a2043616e2774207472616e7366657220746f207460408201527f6865204c696220636f6e747261637420697473656c6600000000000000000000606082015260800190565b60208082526021908201527f45524332303a206275726e2066726f6d20746865207a65726f2061646472657360408201527f7300000000000000000000000000000000000000000000000000000000000000606082015260800190565b60208082526025908201527f45524332303a207472616e736665722066726f6d20746865207a65726f20616460408201527f6472657373000000000000000000000000000000000000000000000000000000606082015260800190565b60208082526024908201527f45524332303a20617070726f76652066726f6d20746865207a65726f2061646460408201527f7265737300000000000000000000000000000000000000000000000000000000606082015260800190565b6020808252602b908201527f4c6962546f6b656e3a3a6765745072696f72566f7465733a206e6f742079657460408201527f2064657465726d696e6564000000000000000000000000000000000000000000606082015260800190565b6020808252601f908201527f5265656e7472616e637947756172643a207265656e7472616e742063616c6c00604082015260600190565b60208082526025908201527f45524332303a2064656372656173656420616c6c6f77616e63652062656c6f7760408201527f207a65726f000000000000000000000000000000000000000000000000000000606082015260800190565b6020808252601f908201527f45524332303a206d696e7420746f20746865207a65726f206164647265737300604082015260600190565b63ffffffff91909116815260200190565b63ffffffff9290921682526001600160601b0316602082015260400190565b60ff91909116815260200190565b6001600160601b0391909116815260200190565b6001600160601b0392831681529116602082015260400190565b600082198211156124a6576124a66125d6565b500190565b600063ffffffff8083168185168083038211156124ca576124ca6125d6565b01949350505050565b60006001600160601b038083168185168083038211156124ca576124ca6125d6565b600063ffffffff8084168061251857634e487b7160e01b83526012600452602483fd5b92169190910492915050565b600082821015612536576125366125d6565b500390565b600063ffffffff83811690831681811015612558576125586125d6565b039392505050565b60006001600160601b0383811690831681811015612558576125586125d6565b60028104600182168061259457607f821691505b602082108114156125b557634e487b7160e01b600052602260045260246000fd5b50919050565b60006000198214156125cf576125cf6125d6565b5060010190565b634e487b7160e01b600052601160045260246000fdfe4c6962546f6b656e733a3a5f6d6f7665566f7465733a20766f746520616d6f756e7420756e646572666c6f77734c6962546f6b656e3a3a5f7772697465436865636b706f696e743a20626c6f636b206e756d626572206578636565647320333220626974734c6962546f6b656e733a3a5f6d6f7665566f7465733a20766f746520616d6f756e74206f766572666c6f7773a26469706673582212201972c4af19ed53491e34b3c03b46ff4a82953c7d7be2a15128f4e24dbc5918eb64736f6c63430008000033",
  "linkReferences": {},
  "deployedLinkReferences": {}
}