{
  "_format": "hh-sol-artifact-1",
  "contractName": "Token",
  "sourceName": "contracts/Token.sol",
  "abi": [
    {
      "inputs": [],
      "stateMutability": "nonpayable",
      "type": "constructor"
    },
    {
      "anonymous": false,
      "inputs": [
        {
          "indexed": true,
          "internalType": "address",
          "name": "owner",
          "type": "address"
        },
        {
          "indexed": true,
          "internalType": "address",
          "name": "spender",
          "type": "address"
        },
        {
          "indexed": false,
          "internalType": "uint256",
          "name": "value",
          "type": "uint256"
        }
      ],
      "name": "Approval",
      "type": "event"
    },
    {
      "anonymous": false,
      "inputs": [
        {
          "indexed": true,
          "internalType": "address",
          "name": "from",
          "type": "address"
        },
        {
          "indexed": true,
          "internalType": "address",
          "name": "to",
          "type": "address"
        },
        {
          "indexed": false,
          "internalType": "uint256",
          "name": "value",
          "type": "uint256"
        }
      ],
      "name": "Transfer",
      "type": "event"
    },
    {
      "inputs": [
        {
          "internalType": "address",
          "name": "owner",
          "type": "address"
        },
        {
          "internalType": "address",
          "name": "spender",
          "type": "address"
        }
      ],
      "name": "allowance",
      "outputs": [
        {
          "internalType": "uint256",
          "name": "",
          "type": "uint256"
        }
      ],
      "stateMutability": "view",
      "type": "function"
    },
    {
      "inputs": [
        {
          "internalType": "address",
          "name": "spender",
          "type": "address"
        },
        {
          "internalType": "uint256",
          "name": "amount",
          "type": "uint256"
        }
      ],
      "name": "approve",
      "outputs": [
        {
          "internalType": "bool",
          "name": "",
          "type": "bool"
        }
      ],
      "stateMutability": "nonpayable",
      "type": "function"
    },
    {
      "inputs": [
        {
          "internalType": "address",
          "name": "account",
          "type": "address"
        }
      ],
      "name": "balanceOf",
      "outputs": [
        {
          "internalType": "uint256",
          "name": "",
          "type": "uint256"
        }
      ],
      "stateMutability": "view",
      "type": "function"
    },
    {
      "inputs": [],
      "name": "decimals",
      "outputs": [
        {
          "internalType": "uint8",
          "name": "",
          "type": "uint8"
        }
      ],
      "stateMutability": "view",
      "type": "function"
    },
    {
      "inputs": [
        {
          "internalType": "address",
          "name": "spender",
          "type": "address"
        },
        {
          "internalType": "uint256",
          "name": "subtractedValue",
          "type": "uint256"
        }
      ],
      "name": "decreaseAllowance",
      "outputs": [
        {
          "internalType": "bool",
          "name": "",
          "type": "bool"
        }
      ],
      "stateMutability": "nonpayable",
      "type": "function"
    },
    {
      "inputs": [
        {
          "internalType": "address",
          "name": "spender",
          "type": "address"
        },
        {
          "internalType": "uint256",
          "name": "addedValue",
          "type": "uint256"
        }
      ],
      "name": "increaseAllowance",
      "outputs": [
        {
          "internalType": "bool",
          "name": "",
          "type": "bool"
        }
      ],
      "stateMutability": "nonpayable",
      "type": "function"
    },
    {
      "inputs": [],
      "name": "name",
      "outputs": [
        {
          "internalType": "string",
          "name": "",
          "type": "string"
        }
      ],
      "stateMutability": "view",
      "type": "function"
    },
    {
      "inputs": [],
      "name": "owner",
      "outputs": [
        {
          "internalType": "address",
          "name": "",
          "type": "address"
        }
      ],
      "stateMutability": "view",
      "type": "function"
    },
    {
      "inputs": [],
      "name": "symbol",
      "outputs": [
        {
          "internalType": "string",
          "name": "",
          "type": "string"
        }
      ],
      "stateMutability": "view",
      "type": "function"
    },
    {
      "inputs": [],
      "name": "totalSupply",
      "outputs": [
        {
          "internalType": "uint256",
          "name": "",
          "type": "uint256"
        }
      ],
      "stateMutability": "view",
      "type": "function"
    },
    {
      "inputs": [
        {
          "internalType": "address",
          "name": "recipient",
          "type": "address"
        },
        {
          "internalType": "uint256",
          "name": "amount",
          "type": "uint256"
        }
      ],
      "name": "transfer",
      "outputs": [
        {
          "internalType": "bool",
          "name": "",
          "type": "bool"
        }
      ],
      "stateMutability": "nonpayable",
      "type": "function"
    },
    {
      "inputs": [
        {
          "internalType": "address",
          "name": "sender",
          "type": "address"
        },
        {
          "internalType": "address",
          "name": "recipient",
          "type": "address"
        },
        {
          "internalType": "uint256",
          "name": "amount",
          "type": "uint256"
        }
      ],
      "name": "transferFrom",
      "outputs": [
        {
          "internalType": "bool",
          "name": "",
          "type": "bool"
        }
      ],
      "stateMutability": "nonpayable",
      "type": "function"
    }
  ],
  "bytecode": "0x60806040523480156200001157600080fd5b50604080518082018252600d81526c1554d110c810dbdb9d1c9858dd609a1b6020808301918252835180850190945260048452635553444360e01b908401528151919291620000639160039162000182565b5080516200007990600490602084019062000182565b5050506200009133620f4240620000a960201b60201c565b600580546001600160a01b03191633179055620002ca565b6001600160a01b038216620000db5760405162461bcd60e51b8152600401620000d29062000228565b60405180910390fd5b620000e9600083836200017d565b8060026000828254620000fd919062000268565b90915550506001600160a01b038216600090815260208190526040812080548392906200012c90849062000268565b90915550506040516001600160a01b038316906000907fddf252ad1be2c89b69c2b068fc378daa952ba7f163c4a11628f55a4df523b3ef90620001719085906200025f565b60405180910390a35050565b505050565b82805462000190906200028d565b90600052602060002090601f016020900481019282620001b45760008555620001ff565b82601f10620001cf57805160ff1916838001178555620001ff565b82800160010185558215620001ff579182015b82811115620001ff578251825591602001919060010190620001e2565b506200020d92915062000211565b5090565b5b808211156200020d576000815560010162000212565b6020808252601f908201527f45524332303a206d696e7420746f20746865207a65726f206164647265737300604082015260600190565b90815260200190565b600082198211156200028857634e487b7160e01b81526011600452602481fd5b500190565b600281046001821680620002a257607f821691505b60208210811415620002c457634e487b7160e01b600052602260045260246000fd5b50919050565b610aed80620002da6000396000f3fe608060405234801561001057600080fd5b50600436106100d45760003560e01c806370a0823111610081578063a457c2d71161005b578063a457c2d714610197578063a9059cbb146101aa578063dd62ed3e146101bd576100d4565b806370a08231146101675780638da5cb5b1461017a57806395d89b411461018f576100d4565b806323b872dd116100b257806323b872dd1461012c578063313ce5671461013f5780633950935114610154576100d4565b806306fdde03146100d9578063095ea7b3146100f757806318160ddd14610117575b600080fd5b6100e16101d0565b6040516100ee9190610742565b60405180910390f35b61010a6101053660046106fa565b610262565b6040516100ee9190610737565b61011f61027f565b6040516100ee9190610a20565b61010a61013a3660046106bf565b610285565b610147610325565b6040516100ee9190610a29565b61010a6101623660046106fa565b61032a565b61011f61017536600461066c565b610379565b610182610398565b6040516100ee9190610723565b6100e16103a7565b61010a6101a53660046106fa565b6103b6565b61010a6101b83660046106fa565b610431565b61011f6101cb36600461068d565b610445565b6060600380546101df90610a66565b80601f016020809104026020016040519081016040528092919081815260200182805461020b90610a66565b80156102585780601f1061022d57610100808354040283529160200191610258565b820191906000526020600020905b81548152906001019060200180831161023b57829003601f168201915b5050505050905090565b600061027661026f610470565b8484610474565b50600192915050565b60025490565b6000610292848484610528565b6001600160a01b0384166000908152600160205260408120816102b3610470565b6001600160a01b03166001600160a01b03168152602001908152602001600020549050828110156102ff5760405162461bcd60e51b81526004016102f6906108ac565b60405180910390fd5b61031a8561030b610470565b6103158685610a4f565b610474565b506001949350505050565b601290565b6000610276610337610470565b848460016000610345610470565b6001600160a01b03908116825260208083019390935260409182016000908120918b16815292529020546103159190610a37565b6001600160a01b0381166000908152602081905260409020545b919050565b6005546001600160a01b031681565b6060600480546101df90610a66565b600080600160006103c5610470565b6001600160a01b03908116825260208083019390935260409182016000908120918816815292529020549050828110156104115760405162461bcd60e51b81526004016102f6906109c3565b61042761041c610470565b856103158685610a4f565b5060019392505050565b600061027661043e610470565b8484610528565b6001600160a01b03918216600090815260016020908152604080832093909416825291909152205490565b3390565b6001600160a01b03831661049a5760405162461bcd60e51b81526004016102f690610966565b6001600160a01b0382166104c05760405162461bcd60e51b81526004016102f6906107f2565b6001600160a01b0380841660008181526001602090815260408083209487168084529490915290819020849055517f8c5be1e5ebec7d5bd14f71427d1e84f3dd0314c0f7b2291e5b200ac8c7c3b9259061051b908590610a20565b60405180910390a3505050565b6001600160a01b03831661054e5760405162461bcd60e51b81526004016102f690610909565b6001600160a01b0382166105745760405162461bcd60e51b81526004016102f690610795565b61057f838383610650565b6001600160a01b038316600090815260208190526040902054818110156105b85760405162461bcd60e51b81526004016102f69061084f565b6105c28282610a4f565b6001600160a01b0380861660009081526020819052604080822093909355908516815290812080548492906105f8908490610a37565b92505081905550826001600160a01b0316846001600160a01b03167fddf252ad1be2c89b69c2b068fc378daa952ba7f163c4a11628f55a4df523b3ef846040516106429190610a20565b60405180910390a350505050565b505050565b80356001600160a01b038116811461039357600080fd5b60006020828403121561067d578081fd5b61068682610655565b9392505050565b6000806040838503121561069f578081fd5b6106a883610655565b91506106b660208401610655565b90509250929050565b6000806000606084860312156106d3578081fd5b6106dc84610655565b92506106ea60208501610655565b9150604084013590509250925092565b6000806040838503121561070c578182fd5b61071583610655565b946020939093013593505050565b6001600160a01b0391909116815260200190565b901515815260200190565b6000602080835283518082850152825b8181101561076e57858101830151858201604001528201610752565b8181111561077f5783604083870101525b50601f01601f1916929092016040019392505050565b60208082526023908201527f45524332303a207472616e7366657220746f20746865207a65726f206164647260408201527f6573730000000000000000000000000000000000000000000000000000000000606082015260800190565b60208082526022908201527f45524332303a20617070726f766520746f20746865207a65726f20616464726560408201527f7373000000000000000000000000000000000000000000000000000000000000606082015260800190565b60208082526026908201527f45524332303a207472616e7366657220616d6f756e742065786365656473206260408201527f616c616e63650000000000000000000000000000000000000000000000000000606082015260800190565b60208082526028908201527f45524332303a207472616e7366657220616d6f756e742065786365656473206160408201527f6c6c6f77616e6365000000000000000000000000000000000000000000000000606082015260800190565b60208082526025908201527f45524332303a207472616e736665722066726f6d20746865207a65726f20616460408201527f6472657373000000000000000000000000000000000000000000000000000000606082015260800190565b60208082526024908201527f45524332303a20617070726f76652066726f6d20746865207a65726f2061646460408201527f7265737300000000000000000000000000000000000000000000000000000000606082015260800190565b60208082526025908201527f45524332303a2064656372656173656420616c6c6f77616e63652062656c6f7760408201527f207a65726f000000000000000000000000000000000000000000000000000000606082015260800190565b90815260200190565b60ff91909116815260200190565b60008219821115610a4a57610a4a610aa1565b500190565b600082821015610a6157610a61610aa1565b500390565b600281046001821680610a7a57607f821691505b60208210811415610a9b57634e487b7160e01b600052602260045260246000fd5b50919050565b634e487b7160e01b600052601160045260246000fdfea2646970667358221220a46f1dd67fdac81cd53e2d5dc4b72ccd0e6c7dcdabae0029a1b8676220b515d864736f6c63430008000033",
  "linkReferences": {},
  "deployedLinkReferences": {}
}